:100000000C943E000C94A8030C945B000C945B00D1
:100010000C945B000C945B000C9455090C94240226
:100020000C945B000C945B000C945B000C945E02DF
:100030000C945B000C945B000C945B000C945B00D4
:100040000C9463030C945B000C94D4060C94FF0690
:100050000C945B000C945B000C945B000C945B00B4
:100060000C945B000C945B005B125B125B12201221
:10007000851293125B125B122012851211241FBE8F
:10008000CFEFD8E0DEBFCDBF11E0A0E0B1E0EAE104
:10009000FEE202C005900D92AE3CB107D9F722E016
:1000A000AEECB1E001C01D92A93CB207E1F70E949D
:1000B000F5010C940B170C94000060E080E00E94A6
:1000C000D105E7E1F1E001900020E9F73197BF01A8
:1000D0006751714087E191E00C94490661E080E04E
:1000E0000E94D105E6E0F1E001900020E9F73197A8
:1000F000BF016650714086E091E00C9449060E9471
:100100005D000C946E000895803130F4E82FF0E02B
:10011000ED5BFE4F808108958FEF089583FF02C04D
:10012000579A01C0579882FF02C0569A01C056984C
:1001300081FF02C0559A01C0559880FF02C0549AB1
:1001400008955498089583FF02C05F9A01C05F9894
:1001500082FF02C05E9A01C05E9881FF02C05D9A74
:1001600001C05D9880FF02C05C9A08955C98089574
:10017000CF92DF92EF92FF920F931F93CF938091D4
:10018000B7028093B80223982298219820982B9A3E
:100190002A9A299A289A00E010E088E0E82EF12CAB
:1001A00097EFC92ED12CC02FC701002E02C0959504
:1001B00087950A94E2F70E948E00C601002E02C0C5
:1001C000959587950A94E2F70E94A30084E01B9915
:1001D0000AC08FE99FE00197F1F700C000001B9B68
:1001E00030C08FEF2FC01A990AC08FE99FE00197A6
:1001F000F1F700C000001A99F4CF84E00BC0199900
:100200000BC08FE99FE00197F1F700C0000019993A
:10021000E8CF88E08C0F16C018990AC08FE99FE0DC
:100220000197F1F700C000001899DBCF8CE0F2CF06
:10023000815069F60F5F1F4F0430110509F0B3CFED
:10024000D0CF8C2FCF911F910F91FF90EF90DF9027
:10025000CF9008958091B7028F3F21F09091B8021E
:10026000981751F01092B4021092B90263E371E052
:1002700083EA92E00C942C1408958091B4028130AA
:1002800061F028F08230B1F08330D1F00895809190
:10029000B7028F3F09F181E018C09091B7029F3FEC
:1002A00031F092E09093B4028093B90208951092D5
:1002B000B40208958091B7028F3F71F083E005C0CA
:1002C0008091B7028F3F21F082E08093B4020895BD
:1002D0001092B4021092B90208958091B502811172
:1002E00002C00E9483000E9425040E947F00109299
:1002F000B9028091B6028093BC020895CF93DF9338
:1003000000D0CDB7DEB70E94DA0D9A83898361E011
:1003100070E0CE0101960E94FF0EF9CFCF93DF93DC
:1003200000D0CDB7DEB70E94DA0D9A83898311E041
:100330008091CE01811116C02FEF80E792E021500D
:1003400080409040E1F700C0000053982AE12A95D0
:10035000F1F700C05B9A1093CE0185E38A95F1F71F
:1003600000005B986CE070E0CE0101960E94FF0EE9
:10037000DFCF0E946B048AE0C82ED12CE12CF12C37
:1003800080912F0190913001A0913101B091320103
:10039000892B8A2B8B2BD1F40E94B8008093B70253
:1003A0000E942A018091B7028F3F11F00E943D0107
:1003B0008091B7020E9484008093B602C0922F0100
:1003C000D0923001E0923101F09232018091B90275
:1003D000813011F40E946D010E9425040E947F006B
:1003E00088E291E00E941C04CBCFEF92FF920F9322
:1003F000F894E12CF12C03E020E030E040E051E003
:1004000063E571E089EB91E00E949F0C20E030E011
:1004100040E051E06CE571E08EE791E00E949F0CB6
:1004200001E020E030E040E051E068E671E08EE875
:1004300091E00E949F0C0E94A60D80E090E00F9139
:10044000FF90EF900895FFCF1F920F920FB60F927B
:1004500011248F939F93AF93BF938091BA02909191
:10046000BB0201969093BB028093BA0280912F0148
:1004700090913001A0913101B0913201892B8A2BEA
:100480008B2B99F080912F0190913001A091310137
:10049000B09132010197A109B10980932F01909386
:1004A0003001A0933101B0933201BF91AF919F9180
:1004B0008F910F900FBE0F901F9018951F920F9263
:1004C0000FB60F921124CF92DF92EF92FF922F93EB
:1004D0003F934F935F936F937F938F939F93AF93CC
:1004E000BF93EF93FF938091D8018F5F8C3318F403
:1004F0008093D80107C01092D8018091D9018F5FF5
:100500008093D9018091D9018C3338F01092D901B0
:100510008091DA018F5F8093DA018091DA0188316E
:1005200038F01092DA01809129018F5F80932901C0
:1005300080912A018230A1F5C0902B01D0902C012E
:10054000E0902D01F0902E01D701C601837099270C
:10055000AA27BB27892B8A2B8B2B61F4C701B601F5
:1005600024E630E040E050E00E94C712672B682B81
:10057000692B61F4C701B60120E931E040E050E0A9
:100580000E94C712672B682B692B51F480912901B7
:100590008E3130F081E08093290183E080932A013D
:1005A00080912A018230A1F5C0902B01D0902C01BE
:1005B000E0902D01F0902E01D701C601837099279C
:1005C000AA27BB27892B8A2B8B2BC1F4C701B60125
:1005D00024E630E040E050E00E94C712672B682B11
:1005E000692BB1F4C701B60120E931E040E050E0E9
:1005F0000E94C712672B682B692B51F0809129014B
:100600008D3130F081E08093290183E080932A01CD
:1006100080912A01982F9D7F913051F0853041F0D3
:1006200099EF980F923020F08A3011F08C3051F40D
:1006300090912901903230F091E0909329018F5FE1
:1006400080932A0180912A01982F9D7F943011F088
:10065000993051F4909129019F3130F091E09093BD
:1006600029018F5F80932A0180912A018D30B0F09B
:1006700081E080932A0180912B0190912C01A0911F
:100680002D01B0912E010196A11DB11D80932B016A
:1006900090932C01A0932D01B0932E01FF91EF9127
:1006A000BF91AF919F918F917F916F915F914F918A
:1006B0003F912F91FF90EF90DF90CF900F900FBE62
:1006C0000F901F9018951F920F920FB60F92112442
:1006D0002F938F939F93AF93BF938091CF018823E4
:1006E00069F18091D0019091D101A091D201B09196
:1006F000D3010196A11DB11D8093D0019093D1012A
:10070000A093D201B093D30126B5BA2FA92F982F69
:100710008827820F911DA11DB11D8130944DA043EA
:10072000B10560F01092CF011092CE011092D40169
:100730001092D5011092D6011092D701BF91AF91BE
:100740009F918F912F910F900FBE0F901F90189532
:100750001F920F920FB60F9211242F933F934F9336
:100760005F936F937F938F939F93AF93BF93EF9319
:10077000FF938091CE01882309F44DC08091CF0171
:1007800081110DC081E08093CF011092D0011092B1
:10079000D1011092D2011092D30116BC3CC010922C
:1007A000CF0126B58091D0019091D101A091D201C5
:1007B000B091D301BA2FA92F982F8827BC01CD0162
:1007C000620F711D811D911D20EA33E040E050E071
:1007D0000E94C7128091D4019091D501A091D601B9
:1007E000B091D701B901681B790B6F3CEFEF7E0721
:1007F0001CF0623371052CF0281739074A075B0794
:1008000040F42093D4013093D5014093D601509306
:10081000D7011092CE01FF91EF91BF91AF919F91BF
:100820008F917F916F915F914F913F912F910F9099
:100830000FBE0F901F901895249AFC018081813083
:1008400011F42C9A08952C9808958091D9011F9243
:100850008F938091DA011F928F938091B7021F923C
:100860008F938CE991E09F938F9387E191E09F9321
:100870008F930E9433148091D8011F928F9380919F
:10088000B6021F928F938091BC021F928F938FEAC2
:1008900091E09F938F9386E091E09F938F930E94C6
:1008A00033148DB79EB744960FB6F8949EBF0FBE13
:1008B0008DBF089582E08093700089EF8093B3002C
:1008C00086E08093B00081E08093B1001092BB027B
:1008D0001092BA02089514B817B81AB88FEF85B9F4
:1008E00088B98BB90E945A048DE08093810088E01A
:1008F0009DE3909389008093880082E080936F004D
:10090000539A5B98E9E6F0E0808181608083E89A01
:1009100081E085BD16BC80936E0087E690E00E9462
:1009200029078CE00E94F80580E00E94E5050E94FE
:10093000F505789408951092B90088E48093B80082
:10094000089594EA9093BC009091BC0097FFFCCF6F
:100950009091B900987F983021F0903111F081E0AA
:1009600008958093BB0084E88093BC008091BC0014
:1009700087FFFCCF8091B900887F883111F08034E7
:1009800071F780E0089584E98093BC008091BC00F9
:1009900084FDFCCF08958093BB0084E88093BC0065
:1009A0008091BC0087FFFCCF9091B900987F81E0D7
:1009B000983209F480E0089562E080E00E94CE065B
:1009C00000C062E080E00C94D106CF93C82F8091E4
:1009D000DB01662311F0816001C08E7F8093DB0113
:1009E0008091DB018D7F8093DB016091DB0180E0F2
:1009F0000E948C068091DB018F778093DB018091D0
:100A0000DB018F7B8093DB018091DB018F7D809305
:100A1000DB018091DB018F7E8093DB01C7FF05C086
:100A20008091DB0180688093DB01C6FF05C0809167
:100A3000DB0180648093DB01C5FF05C08091DB0191
:100A400080628093DB01C4FF05C08091DB0180617F
:100A50008093DB016091DB0180E00E948C060E94A4
:100A6000DC048091DB018F778093DB018091DB01D7
:100A70008F7B8093DB018091DB018F7D8093DB0195
:100A80008091DB018F7E8093DB01C3FF05C08091E5
:100A9000DB0180688093DB01C2FF05C08091DB0130
:100AA00080648093DB01C1FF05C08091DB0180621F
:100AB0008093DB01C0FF05C08091DB0180618093E2
:100AC000DB016091DB0180E00E948C060E94DC0467
:100AD0008091DB0180618093DB018091DB0180628A
:100AE0008093DB018091DB0180648093DB01809146
:100AF000DB0180688093DB016091DB0180E0CF91B6
:100B00000C948C06CF938091DB018E7F8093DB0168
:100B10008091DB0182608093DB016091DB0180E0EA
:100B20000E948C0662E080E00E94CE0600C064E075
:100B300080E00E947706C82F62E080E00E94D10624
:100B400000C062E080E00E94CE0600C064E080E069
:100B50000E947706C295C07F8F70C82B62E080E04C
:100B60000E94D1068C2FCF9108950E94820587FDA7
:100B7000FCCF88E090E00197F1F70C948205CF93C9
:100B8000C82F0E94B50560E08C2FCF910C94E5042E
:100B9000CF93C82F0E94B50561E08C2FCF910C94A4
:100BA000E504CF93DF931F92CDB7DEB789838981A8
:100BB000611102C0805801C080540F90DF91CF9125
:100BC0000C94BF0581E00C94BF05882321F080912F
:100BD000DB01877F03C08091DB0188608093DB01AC
:100BE0006091DB0180E00C948C0682E00C94BF05E0
:100BF0001F93CF93DF93182F0E9466061092DB019C
:100C00006091DB0180E00E948C06E0E0FAEF319712
:100C1000F1F79091DB0190629093DB019091DB0101
:100C200090619093DB016091DB0180E00E948C0673
:100C30000E94DC04E0E0FEE43197F1F70E94DC045E
:100C4000C0E0D1E0FE013197F1F70E94DC04FE0123
:100C50003197F1F79091DB019F7E9093DB016091DA
:100C6000DB0180E00E948C060E94DC042197F1F7F2
:100C700088E20E94BF0588E00E94BF050E94E2054D
:100C800086E00E94BF05812FDF91CF911F910C94C8
:100C9000BF05EF92FF921F93CF93DF931F92CDB7C3
:100CA000DEB7182F7C018E2D811B861740F4F701CB
:100CB00081917F0169830E94C8056981F4CF0F90FB
:100CC000DF91CF911F91FF90EF9008950E949B04B8
:100CD00085E38A95F1F7000080E090E0FC01E354A1
:100CE000FD4F1082019688309105C1F70895883034
:100CF00088F4683078F4E82FF0E0E354FD4F808109
:100D0000082E000C990B02C0959587956A95E2F71D
:100D1000817008958FEF0895CF93883098F4C62F8F
:100D2000982FE82FF0E0E354FD4F608387E2890FAE
:100D3000880F0E94A1048C2F0E94CB040E94C30440
:100D400080E001C08FEFCF910895CF93DF93982F6C
:100D5000883000F56830F0F4E82FF0E0E354FD4F00
:100D60008081C1E0D0E001C0CC0F6A95EAF744234E
:100D700011F0C82B02C0C095C823C08387E2890F39
:100D8000880F0E94A1048C2F0E94CB040E94C304F0
:100D900080E001C08FEFDF91CF91089541E00C9486
:100DA000A50640E00C94A5061F920F920FB60F9275
:100DB00011242F938F939F93EF93FF938091C00003
:100DC0009091C6008871E091DE01EF5FEF71209194
:100DD000DD01E21739F0E093DE01F0E0EF51FE4F64
:100DE000908301C082E08093DC01FF91EF919F919D
:100DF0008F912F910F900FBE0F901F9018951F92FB
:100E00000F920FB60F9211248F939F93EF93FF933E
:100E10009091E0018091DF01981769F0E091DF0186
:100E2000EF5FEF71E093DF01F0E0EF5FFD4F808156
:100E30008093C60005C08091C1008F7D8093C10062
:100E4000FF91EF919F918F910F900FBE0F901F9088
:100E500018951092E0011092DF011092DE011092BD
:100E6000DD0197FF04C022E02093C0009F7790939C
:100E7000C5008093C40088E98093C10086E0809318
:100E8000C20008958FE380937E0080B7877F80BF84
:100E900080B7806880BF83B7817F83BF0FB6F89427
:100EA0000F9283B7816083BF85B7806685BF8F7DD2
:100EB00085BF0F900FBE889513BE0895259A2D9A71
:100EC0002FEF80E792E0215080409040E1F700C092
:100ED00000001D9AF5CFFC010396928381832FEFCA
:100EE0003FEF3483238396838583908787831082A3
:100EF0000895FC01118610860895CF93DF939C011D
:100F0000FB01DC011196CD91DC911297D383C28352
:100F10008C819D81958384838C819D81DC011396D6
:100F20007C936E9312977D836C8331872087F901C0
:100F300080818F5F8083DF91CF9108950F931F93FE
:100F4000CF93DF938C01FB01808191818F3F2FEF45
:100F5000920721F4E801AF81B8850EC0D80113963D
:100F600012962D913C911397E9014881598184177C
:100F7000950710F0D901F4CF12968D919C9113979B
:100F800093838283EC01FD83EC83B583A483139662
:100F9000FC93EE93129711870087F80180818F5F91
:100FA0008083DF91CF911F910F910895CF93DF93AD
:100FB000FC01A085B1858281938124813581EC017A
:100FC0003D832C83C481D5819B838A8311968D9127
:100FD0009C9112978E179F0721F41296DC93CE9363
:100FE0001197118610868C9181508C938C91DF9192
:100FF000CF91089531E1FC013083319722E22083C3
:101000003197A3E3A0833197608331977083319741
:101010001082319760E8608331971082319762E0E7
:101020006083319763E06083319764E06083319738
:1010300065E06083319766E06083319767E06083A5
:10104000319768E06083319769E06083319760E1B0
:10105000608331973083319732E13083319733E1C8
:101060003083319734E13083319735E130833197E4
:1010700036E13083319737E13083319738E130837F
:10108000319739E13083319730E23083319731E263
:10109000308331972083319723E220833197408337
:1010A00031975083319726E22083319727E22083BE
:1010B000319728E22083319729E22083319720E37A
:1010C0002083319721E3208386970895A89520EC0B
:1010D00088E190E00FB6F894A895809360000FBE69
:1010E00020936000A0918502B0918602CD91CDBF82
:1010F000DD91DEBFFF91EF91DF91CF91BF91AF9175
:101100009F918F917F916F915F914F913F912F911F
:101110001F910F91FF90EF90DF90CF90BF90AF9015
:101120009F908F907F906F905F904F903F902F9007
:101130001F900F900FBE0F90089581E008950F92B9
:101140000FB6F8940F921F9211242F923F924F9254
:101150005F926F927F928F929F92AF92BF92CF9247
:10116000DF92EF92FF920F931F932F933F934F9332
:101170005F936F937F938F939F93AF93BF93CF931F
:10118000DF93EF93FF93A0918502B09186020DB695
:101190000D920EB60D920E94370FA0918502B0916C
:1011A0008602CD91CDBFDD91DEBFFF91EF91DF9142
:1011B000CF91BF91AF919F918F917F916F915F91EF
:1011C0004F913F912F911F910F91FF90EF90DF90E2
:1011D000CF90BF90AF909F908F907F906F905F90D7
:1011E0004F903F902F901F900F900FBE0F9008953B
:1011F0000F920FB6F8940F921F9211242F923F92E4
:101200004F925F926F927F928F929F92AF92BF9216
:10121000CF92DF92EF92FF920F931F932F933F9302
:101220004F935F936F937F938F939F93AF93BF93EE
:10123000CF93DF93EF93FF93A0918502B091860245
:101240000DB60D920EB60D9213BE0E94E40D8111E3
:101250000E94370FA0918502B0918602CD91CDBF3B
:10126000DD91DEBFFF91EF91DF91CF91BF91AF9103
:101270009F918F917F916F915F914F913F912F91AE
:101280001F910F91FF90EF90DF90CF90BF90AF90A4
:101290009F908F907F906F905F904F903F902F9096
:1012A0001F900F900FBE0F9008950E94F808189598
:1012B0000FB6F8940F92FC01928D0F900FBE81E053
:1012C000911180E008950F931F93CF93DF93EC016A
:1012D000042F1A8D8C8D81110CC088819981892BE6
:1012E00009F03EC08A819B810E945A101B821A829B
:1012F00038C0482F50E0011115C08C819D810E949B
:101300001C142C8D8C819D81820F911D9D838C835B
:101310002A813B818217930718F1888199819D83E7
:101320008C831EC08E819F810E941C148C8D90E046
:101330009195819591092E813F81280F391F3F8317
:101340002E83488159812417350730F42A813B8147
:10135000820F931F9F838E83023011F4111111505D
:1013600080E01F5F1A8FDF91CF911F910F91089539
:10137000FC01CB01448D4423A1F050E0268137814C
:10138000240F351F37832683628173812617370721
:1013900020F02081318137832683668177810C9408
:1013A0001C140895EF92FF921F93CF93DF93EC01EB
:1013B0000FB6F8940F921E8D7C0181E1E80EF11CAE
:1013C00011165CF48989882341F0C7010E94C70F78
:1013D00081110E9448101150F3CF8FEF8E8F0F9024
:1013E0000FBE0FB6F8940F921D8D7E0188E0E80EB7
:1013F000F11C11165CF48885882341F0C7010E9416
:10140000C70F81110E9448101150F3CF8FEF8D8FBD
:101410000F900FBEDF91CF911F91FF90EF90089535
:10142000CF93DF93EC010FB6F8940F9228813981A6
:101430009B8D4C8D949FC0011124F901E80FF91F79
:10144000FB83EA831A8E3D832C83841B9109820FD0
:10145000931F9F838E838FEF8D8F8E8F61110CC0B2
:101460008885882389F0CE0108960E94C70F8823BB
:1014700059F00E949F0808C0CE0108960E946B0791
:10148000CE0141960E946B070F900FBE81E0DF9165
:10149000CF910895EF92FF921F93CF93DF931F9206
:1014A000CDB7DEB7182F662321F0869FC001112427
:1014B00002C080E090E04F9669830E9497127C0101
:1014C0006981009789F0611104C0FC0191838083D8
:1014D00004C04F96F70191838083F701138F648FC7
:1014E00061E0C7010E94100AC7010F90DF91CF9100
:1014F0001F91FF90EF900895AF92BF92CF92DF922D
:10150000FF920F931F93CF93DF9300D000D01F92D1
:10151000CDB7DEB78C016B015D834C83F22E90E07A
:10152000580188E0A80EB11C0FB6F8940F92F8018C
:10153000228D838D281718F0F2E0FF1214C04F2D72
:10154000B601C8010E946309F8019189992321F02D
:10155000C80141960E94C70F81110E949F080F90F9
:101560000FBE81E050C02C813D81232B19F40F90D8
:101570000FBE48C0911104C0CE0101960E94071011
:101580000F900FBE0E94D40D0FB6F8940F92F80181
:10159000858D8F3F09F4158EF801868D8F3F09F4F4
:1015A000168E0F900FBEBE016C5F7F4FCE0101966D
:1015B0000E941210811121C00FB6F8940F92F80109
:1015C000928D838D0F900FBE981311C06C817D8119
:1015D000C5010E94950FC8010E94D2090E94900E79
:1015E000882311F091E0A0CF0E949F08FBCFC80193
:1015F0000E94D2090E94900EF5CFC8010E94D20924
:101600000E94900E80E00F900F900F900F900F901F
:10161000DF91CF911F910F91FF90DF90CF90BF90FE
:10162000AF900895EF92FF921F93CF93DF93EC0159
:101630009A8D8B8D981710F02230E1F47A011E8D6F
:10164000422FCE010E9463091F3F81F489898823BC
:1016500079F0CE0141960E94C70F882349F0E1142A
:10166000F10431F081E0F701808305C01F5F1E8F18
:1016700081E001C080E0DF91CF911F91FF90EF905A
:101680000895AF92BF92CF92DF92FF920F931F9374
:10169000CF93DF9300D000D01F92CDB7DEB78C017F
:1016A0006B015D834C8390E0580181E1A80EB11C71
:1016B0000FB6F8940F92F801F28CFF20A9F0B60152
:1016C000C8010E94B809FA94F801F28E8085882337
:1016D00039F0C80108960E94C70F81110E949F0827
:1016E0000F900FBE81E050C02C813D81232B19F457
:1016F0000F900FBE48C0911104C0CE0101960E9408
:1017000007100F900FBE0E94D40D0FB6F8940F92E1
:10171000F801858D8F3F09F4158EF801868D8F3F76
:1017200009F4168E0F900FBEBE016C5F7F4FCE0185
:1017300001960E94121081111CC0C8010E94580914
:10174000882389F06C817D81C5010E94950FC801B5
:101750000E94D2090E94900E882311F091E0A8CF38
:101760000E949F08FBCFC8010E94D2090E94900EE0
:10177000F5CFC8010E94D2090E94900EC8010E94B4
:101780005809882359F380E00F900F900F900F9025
:101790000F90DF91CF911F910F91FF90DF90CF902D
:1017A000BF90AF900895CF93DF93EC010FB6F894FC
:1017B0000F928D8D8F3F09F41D8E8E8D8F3F09F412
:1017C0001E8E0F900FBE8A8D811104C0CE014196EE
:1017D0000E94A70FCE01DF91CF910C94D209E09126
:1017E0004D02F0914E028081811103C08FEF9FEF77
:1017F0000CC0E0914D02F0914E020580F681E02D83
:101800000680F781E02D8281938190932502809359
:1018100024020895EF92FF920F931F93CF93DF93CB
:101820001F92CDB7DEB77C0100912C0210912D02E2
:101830008091850290918602029669830E94D60764
:1018400069818FEFE816F80699F4662389F06091B4
:101850008502709186026E5F7F4F8FE292E00F905B
:10186000DF91CF911F910F91FF90EF900C947D0726
:10187000E00EF11EE0918502F0918602F382E28291
:101880006091850270918602E016F10678F48091ED
:101890004B0290914C026E5F7F4F0F90DF91CF9182
:1018A0001F910F91FF90EF900C949E0780914D0235
:1018B00090914E026E5F7F4F0E949E07809124029E
:1018C00090912502E816F90620F4F0922502E092A4
:1018D00024020F90DF91CF911F910F91FF90EF9015
:1018E000089580913802882309F10FB6F8940F9279
:1018F000E0913E02F0913F02C681D781CE0102966F
:101900000E94D60780912E02815080932E028091F2
:1019100038028150809338020F900FBE8F89988DC6
:101920000E94B612CE010E94B612DBCF80916102F6
:10193000823010F00E949F080E944207D2CF5F922F
:101940006F927F928F929F92AF92BF92CF92DF92CF
:10195000EF92FF920F931F93CF93DF935C013B01B4
:101960006A014901502ECA010E9497128C01892BED
:1019700009F4DBC088E290E00E949712EC01892B09
:10198000B1F0188F0F8BA60165EA70E0C8010E94C4
:10199000251421E0C21AD1088F89988DC80ED91E4E
:1019A000BE01675E7F4FF301C301089607C0C801FF
:1019B0000E94B612BAC0E817F90749F09F01419199
:1019C000DB014D93BD01D9012C912111F4CF18A257
:1019D000052D043008F003E00E8B09A31AA23E0186
:1019E000B2E06B0E711CC3010E947907CE010C9608
:1019F0000E947907D987C88784E090E0801B91090D
:101A00009D878C87DB8BCA8B1BA21CA21DA21EA2EA
:101A10001FA2A401B501C6010E94FA079983888319
:101A2000E114F10419F0F701D183C0830FB6F894E3
:101A30000F9280912E028F5F80932E0280918502FB
:101A400090918602892BD1F5D0938602C0938502AE
:101A500080912E02813009F041C081E692E00E941F
:101A60006B078AE692E00E946B0783E792E00E9490
:101A70006B078CE792E00E946B0788E592E00E947A
:101A80006B078FE492E00E946B0782E492E00E9471
:101A90006B0789E392E00E946B078FE292E00E945D
:101AA0006B0788E592E090934E0280934D028FE49D
:101AB00092E090934C0280934B0210C080912A02D6
:101AC00081110CC0E0918502F091860296898E8981
:101AD000891720F0D0938602C09385028091260258
:101AE0008F5F809326028E8990912B02981710F4B5
:101AF00080932B02F9E08F9FC0011124B3018F590D
:101B00009D4F0E947D070F900FBE80912A0288236F
:101B100051F0E0918502F091860296898E8998179E
:101B200010F40E949F0881E001C08FEFDF91CF91F8
:101B30001F910F91FF90EF90DF90CF90BF90AF90EB
:101B40009F908F907F906F905F900895EF92FF929B
:101B50000F9382E2E82E82E0F82E00E020E030E0F1
:101B600045E550E061EC71E081E79CE00E949F0C4C
:101B70008130B1F40E94E710813091F4F8942FEF96
:101B80003FEF309325022093240280932A02109283
:101B90002D0210922C020F91FF90EF900C9466088A
:101BA0000F91FF90EF900895809121028F5F8093B5
:101BB000210208950FB6F8940F9280912C02909113
:101BC0002D020F900FBE0895CF92DF92EF92FF92F9
:101BD0000F931F93CF93DF938091210281118CC0CB
:101BE00000912C0210912D020F5F1F4F10932D02B8
:101BF00000932C0201151105B9F480914D029091CA
:101C00004E0220914B0230914C0230934E022093B1
:101C10004D0290934C0280934B02809127028F5F7C
:101C2000809327020E94EF0B80912402909125025D
:101C3000C0E00817190708F44FC0D9E0E0914D0241
:101C4000F0914E028081811103C08FEF9FEF11C090
:101C5000E0914D02F0914E020580F681E02DE68084
:101C6000F780D70112968D919C9113970817190749
:101C700028F490932502809324022EC06701B2E0DD
:101C8000CB0ED11CC6010E94D607F7018489958925
:101C9000892B21F0C7010C960E94D607D7015696D2
:101CA0009C9180912B02891710F490932B02D99F5D
:101CB000C0011124B6018F599D4F0E947D07E0910C
:101CC0008502F0918602D70156969C9186899817D5
:101CD00008F4B4CFC1E0B2CFE0918502F091860262
:101CE000E689B9E0EB9FF0011124EF59FD4F8081A7
:101CF000823040F0C1E006C0809129028F5F80935E
:101D00002902C0E0809128028111C1E08C2FDF916F
:101D1000CF911F910F91FF90EF90DF90CF9008959A
:101D2000EF92FF920F931F93CF93DF930FB6F89428
:101D30000F92809121028150809321028091210293
:101D4000882311F080E052C080912E028823D1F3C5
:101D5000C0E0D0E089E0F82EEE24E39480914202C6
:101D6000882351F1E0914702F0914802C681D78162
:101D7000CE010C960E94D6078E010E5F1F4FC80140
:101D80000E94D6079E8980912B02891710F49093A8
:101D90002B02F99EC0011124B8018F599D4F0E945A
:101DA0007D07E0918502F09186029E8986899817C9
:101DB000A8F2E0922802D2CFCD2B11F00E94EF0BB7
:101DC000C0912902CC2351F0D1E00E94E40D811191
:101DD000D0932802C150C9F710922902809128029D
:101DE000882309F4AFCF0E949F0881E00F900FBEB7
:101DF000DF91CF911F910F91FF90EF9008950F9376
:101E00001F93CF93DF938C01EB010E94D40D40917F
:101E10002C0250912D02F801608171819B012C0FE1
:101E20003D1F4617570728F42617370748F491E057
:101E300004C091E02617370720F04217530708F037
:101E400090E0F80131832083992331F060E0C901EB
:101E5000841B950B0E940A0C0E94900E811102C0F7
:101E60000E949F08DF91CF911F910F91089580915B
:101E70002102882321F081E08093280208951092A6
:101E80002802A0918502B0918602E0918502F0912E
:101E900086022D913C918789908D8217930760F07F
:101EA00060918502709186028091850290918602F0
:101EB000675E7F4F0E94230280912B0269E0482FCA
:101EC00050E0649F9001659F300D1124F901EF5996
:101ED000FD4F9081911102C08150F1CFA181B2815B
:101EE00012960D90BC91A02DB283A1832C593D4F29
:101EF000A217B30731F412962D913C9113973283B8
:101F0000218399E0949FF001959FF00D1124EF59E2
:101F1000FD4F0180F281E02D2681378130938602CA
:101F20002093850280932B020895CF93DF93EB01DA
:101F30002091850230918602B901645F7F4F0E9433
:101F40009E0761E0CE01DF91CF910C940A0C0F93B4
:101F50001F93CF93DF931F92CDB7DEB78B012091F4
:101F6000850230918602B901645F7F4F49830E94E8
:101F70007D074981442311F00FEF1FEF642FC80143
:101F80000F90DF91CF911F910F910C940A0C0F933A
:101F90001F93CF93DF93DC011596ED91FC9116977B
:101FA000C681D7818E01045F1F4FC8010E94D607EA
:101FB00080912102811114C00A501109C8010E94A8
:101FC000D6079E8980912B02891710F490932B02DB
:101FD000B9E09B9FC0011124B8018F599D4F03C0E8
:101FE000B80182E492E00E947D07E0918502F091C1
:101FF00086029E898689891720F481E080932802D1
:1020000001C080E0DF91CF911F910F910895209141
:102010002702FC01208320912C0230912D02328373
:1020200021830895CF93DF930FB6F8940F924091D8
:102030002C0250912D02DC011196ED91FC9112972A
:10204000EB01288139812F3FDFEF3D07C9F0B091C7
:102050002702EC01A881BA1719F04E175F0790F418
:102060004E1B5F0BFB014217530738F4241B350B43
:10207000318320830E94071003C01182108202C0A6
:1020800080E001C081E00F900FBEDF91CF910895F5
:1020900081E080932802089580912A02882331F0FC
:1020A00080912102882321F080E0089581E0089545
:1020B00082E008950F931F93CF93DF93FC01892B48
:1020C00011F480E02CC082A1815082A3268991A1C5
:1020D0002917B9F38111F5CFEF018F010E5F1F4F63
:1020E000C8010E94D60799A19E8B492F50E024E099
:1020F00030E0241B350B3D872C8780912B028917FC
:1021000010F490932B0229E0249FC001259F900D8D
:102110001124B8018F599D4F0E947D0781E0DF9106
:10212000CF911F910F9108950FB6F8940F9280915F
:102130008B0290918C02892BE9F48AE992E00E944B
:102140006B0781E992E00E946B078AE992E0909325
:10215000900280938F0281E992E090938E028093A7
:102160008D0240E065E08AE00E944A0A90938C026A
:1021700080938B020F900FBE0895FC0173836283DE
:10218000918780874617570778F0421B530B848549
:10219000958548175907C8F4BF016E5F7F4F80913E
:1021A0008D0290918E020DC04217530718F46217EA
:1021B000730758F4BF016E5F7F4F80918F0290913B
:1021C00090020E949E0780E0089581E00895EF92BA
:1021D000FF920F930E94941080918B0290918C0239
:1021E000892B81F089E8E82E82E0F82E03E020E0D8
:1021F00030E045E550E066EC71E087E991E10E944E
:102200009F0C01C080E00F91FF90EF9008950F9315
:102210001F93CF93DF9300D000D01F92CDB7DEB7CE
:10222000A0918B02B0918C02109729F1F90169837A
:102230005B834A839D838C836630A4F40E944C1098
:10224000E0918B02F0918C0220E0823011F4A80121
:1022500002C040E050E0BE016F5F7F4FCF010E949F
:102260007C0A0AC020E0AF01BE016F5F7F4FCD0145
:102270000E94120B01C080E00F900F900F900F9002
:102280000F90DF91CF911F910F910895EF92FF92E0
:102290000F931F93CF93DF93E0918F02F091900201
:1022A0008081882389F10580F681E02DE080F1802E
:1022B000C681D7818E010E5F1F4FC8010E94D607CD
:1022C000E989FA89CE0109958E85813029F72C8517
:1022D0003D852E0D3F1DE216F30660F43B832A83F5
:1022E000D987C887B80180918F02909190020E948F
:1022F0009E07D2CF00E010E020E030E0A70160E0D0
:10230000CE010E940711C8CF80918D0290918E025C
:102310009093900280938F02F0938E02E0938D024F
:10232000DF91CF911F910F91FF90EF900895CF9380
:10233000DF93CDB7DEB727970FB6F894DEBF0FBE99
:10234000CDBFE0918F02F09190028081DD24D39483
:10235000882339F0D12C0580F681E02DE080F180D2
:1023600002C0E12CF12C0E94D40D0E94DA0D8C01E8
:1023700080918702909188020817190720F40E9423
:10238000461181E001C080E010938802009387022B
:10239000811150C0D11036C00E151F05D0F10E941A
:1023A000900EE0918F02F09190020580F681E02D71
:1023B000C680D780C60102960E94D607D6011E9617
:1023C0008C911E978130B1F41C966D917C911D9774
:1023D0006E0D7F1D9701A801C6010E94BD108823C4
:1023E00049F000E010E020E030E0A70160E0C60125
:1023F0000E940711D6015196ED91FC915297C601AA
:1024000009951EC0E0918D02F0918E02808141E01D
:10241000811140E0B701601B710B80918B0290919C
:102420008C020E94D30B0E94900E811109C00E9461
:102430009F0806C00E94900E03C0898187FF0EC0CE
:1024400040E050E0BE016F5F7F4F80918B02909122
:102450008C020E94410B8111F0CF73CFEC80FD8084
:10246000F70182859385892B21F0C70102960E948E
:10247000D6070E94DA0DAC01809187029091880204
:102480004817590730F44E835F830E9446115F81DD
:102490004E815093880240938702E9810E2FEE0F00
:1024A000110B220B330B0A30110550F6F801EC5CCE
:1024B000FF4F0C94E9122A813B81D7011C966D9144
:1024C0007C911D97620F731FC7010E94BD10882366
:1024D00009F4B6CFD7015196ED91FC915297C701FF
:1024E0000995F7018685813009F0AACF4485558585
:1024F0008A819B81480F591F00E010E020E030E006
:1025000060E0C7010E9407119BCF6A817B81D701E0
:102510001D967C936E931C97640F751F9A01C701DB
:102520000E94BD108DCFC7010E94B61289CF0F93B4
:102530001F93CF93DF9300D0CDB7DEB789839A8303
:102540000E94D40D89819A810E94EF128C010E9411
:10255000900E0115110511F40E945E07C8010F903D
:102560000F90DF91CF911F910F910895CF93DF933B
:10257000009751F0EC010E94D40DCE010E9484130B
:10258000DF91CF910C94900EDF91CF910895A1E24D
:102590001A2EAA1BBB1BFD010DC0AA1FBB1FEE1FDD
:1025A000FF1FA217B307E407F50720F0A21BB30B28
:1025B000E40BF50B661F771F881F991F1A9469F7A4
:1025C00060957095809590959B01AC01BD01CF0100
:1025D0000895EE0FFF1F0590F491E02D0994CF931D
:1025E000DF938230910510F482E090E0E091C70221
:1025F000F091C80220E030E0C0E0D0E0309711F167
:102600004081518148175907C0F04817590761F4B4
:1026100082819381209719F09B838A832BC09093AA
:10262000C8028093C70226C02115310519F0421750
:10263000530718F49A01BE01DF01EF010280F38114
:10264000E02DDCCF2115310509F1281B390B243091
:10265000310590F412968D919C9113976115710537
:1026600021F0FB019383828304C09093C80280937E
:10267000C702FD01329644C0FD01E20FF31F8193B2
:102680009193225031092D933C933AC02091C50279
:102690003091C602232B41F42091020130910301B5
:1026A0003093C6022093C5022091000130910101B0
:1026B0002115310541F42DB73EB7409104015091E9
:1026C0000501241B350BE091C502F091C602E2170B
:1026D000F307A0F42E1B3F0B2817390778F0AC0145
:1026E0004E5F5F4F2417350748F04E0F5F1F509322
:1026F000C6024093C5028193919302C0E0E0F0E0EE
:10270000CF01DF91CF9108950F931F93CF93DF9364
:10271000009709F48CC0FC01329713821282009159
:10272000C7021091C8020115110581F42081318181
:10273000820F931F2091C5023091C60228173907D6
:1027400079F5F093C602E093C50271C0D80140E06C
:1027500050E0AE17BF0750F412962D913C9113979D
:10276000AD012115310509F1D901F3CF9D01DA0140
:102770003383228360817181860F971F82179307AD
:1027800069F4EC0128813981260F371F2E5F3F4FF6
:10279000318320838A819B8193838283452B29F413
:1027A000F093C802E093C70242C01396FC93EE93E5
:1027B0001297ED01499159919E01240F351FE2179F
:1027C000F30771F480819181840F951F0296119611
:1027D0009C938E938281938113969C938E931297F0
:1027E000E0E0F0E0D80112968D919C91139700974C
:1027F00019F0F8018C01F6CF8D919C9198012E5F14
:102800003F4F820F931F2091C5023091C6022817B7
:10281000390769F4309729F41092C8021092C70260
:1028200002C0138212821093C6020093C502DF9188
:10283000CF911F910F910895FB01DC0102C001901F
:102840000D9241505040D8F70895DC0101C06D93BE
:1028500041505040E0F70895FB01DC0101900D92DA
:102860000020E1F70895AEE0B0E0E9E3F4E10C9474
:10287000E2160D891E8986E08C831A8309838FEF07
:102880009FE79E838D83AE01475E5F4F6F89788D92
:10289000CE0101960E9456142F813885F801E20F6F
:1028A000F31F10822E96E4E00C94FE16ACE0B0E02C
:1028B000ECE5F4E10C94D4167C016B018A01FC0177
:1028C00017821682838181FFBDC1CE0101964C0122
:1028D000F7019381F60193FD859193FF81916F013B
:1028E000882309F4ABC1853239F493FD859193FFB8
:1028F00081916F01853229F4B70190E00E943E1664
:10290000E7CF512C312C20E02032A0F48B3269F03B
:1029100030F4803259F0833269F420612CC08D325A
:1029200039F0803339F4216026C02260246023C04E
:10293000286021C027FD27C030ED380F3A3078F4E9
:1029400026FF06C0FAE05F9E300D1124532E13C0FF
:102950008AE0389E300D1124332E20620CC08E3256
:1029600021F426FD6BC1206406C08C3611F420686A
:1029700002C0883641F4F60193FD859193FF819161
:102980006F018111C1CF982F9F7D9554933028F40A
:102990000C5F1F4FFFE3F9830DC0833631F083379F
:1029A00071F0833509F05BC022C0F8018081898312
:1029B0000E5F1F4F44244394512C540115C038011D
:1029C000F2E06F0E711CF801A080B18026FF03C0F9
:1029D000652D70E002C06FEF7FEFC5012C870E946C
:1029E00033162C0183012C852F77222E17C0380136
:1029F000F2E06F0E711CF801A080B18026FF03C0C9
:102A0000652D70E002C06FEF7FEFC5012C870E943B
:102A100028162C012C852068222E830123FC1BC044
:102A2000832D90E048165906B0F4B70180E290E09B
:102A30000E943E163A94F4CFF50127FC859127FEBB
:102A400081915F01B70190E00E943E1631103A94E7
:102A5000F1E04F1A51084114510471F7E5C0843672
:102A600011F0893639F5F80127FF07C060817181BF
:102A7000828193810C5F1F4F08C060817181072E96
:102A8000000C880B990B0E5F1F4F2F76722E97FF4D
:102A900009C090958095709561957F4F8F4F9F4F9E
:102AA0002068722E2AE030E0A4010E947616A82E3B
:102AB000A81844C0853729F42F7EB22E2AE030E0D2
:102AC00025C0F22FF97FBF2E8F36C1F018F488355C
:102AD00079F0B4C0803719F0883721F0AFC02F2FBC
:102AE0002061B22EB4FE0DC08B2D8460B82E09C0BB
:102AF00024FF0AC09F2F9660B92E06C028E030E060
:102B000005C020E130E002C020E132E0F801B7FE6C
:102B100007C060817181828193810C5F1F4F06C065
:102B20006081718180E090E00E5F1F4FA4010E94E0
:102B30007616A82EA818FB2DFF777F2E76FE0BC0E9
:102B4000372D3E7FA51450F474FE0AC072FC08C0F5
:102B5000372D3E7E05C0BA2C372D03C0BA2C01C0DC
:102B6000B52C34FF0DC0FE01EA0DF11D80818033CC
:102B700011F4397E09C032FF06C0B394B39404C087
:102B8000832F867809F0B39433FD13C030FF06C05D
:102B90005A2CB31418F4530C5B18B32CB31468F408
:102BA000B70180E290E03C870E943E16B3943C85DA
:102BB000F5CFB31410F43B1801C0312C34FF12C010
:102BC000B70180E390E03C870E943E163C8532FFCF
:102BD00017C031FD03C088E790E002C088E590E0AF
:102BE000B7010CC0832F867859F031FF02C08BE209
:102BF00001C080E237FD8DE2B70190E00E943E16F1
:102C0000A51438F4B70180E390E00E943E165A9470
:102C1000F7CFAA94F401EA0DF11D8081B70190E08D
:102C20000E943E16A110F5CF332009F451CEB70112
:102C300080E290E00E943E163A94F6CFF70186813A
:102C4000978102C08FEF9FEF2C96E2E10C94F01673
:102C5000FC010590615070400110D8F78095909567
:102C60008E0F9F1F0895FC0161507040019001106C
:102C7000D8F7809590958E0F9F1F08950F931F93FF
:102C8000CF93DF93FB01238121FD03C08FEF9FEFE3
:102C900028C022FF16C04681578124813581421702
:102CA000530744F4A081B1819D012F5F3F4F3183D1
:102CB00020838C93268137812F5F3F4F3783268374
:102CC00010C0EB01092F182F0084F185E02D099524
:102CD000892BE1F68E819F8101969F838E83812FC0
:102CE000902FDF91CF911F910F910895FA01AA279C
:102CF000283051F1203181F1E8946F936E7F6E5F3F
:102D00007F4F8F4F9F4FAF4FB1E03ED0B4E03CD0EC
:102D1000670F781F891F9A1FA11D680F791F8A1FCF
:102D2000911DA11D6A0F711D811D911DA11D20D036
:102D300009F468943F912AE0269F11243019305DF0
:102D40003193DEF6CF010895462F4770405D4193E1
:102D5000B3E00FD0C9F7F6CF462F4F70405D4A332E
:102D600018F0495D31FD4052419302D0A9F7EACFF6
:102D7000B4E0A6959795879577956795BA95C9F725
:102D800000976105710508959B01AC010A2E069418
:102D90005795479537952795BA95C9F7620F731FD1
:102DA000841F951FA01D08952F923F924F925F920E
:102DB0006F927F928F929F92AF92BF92CF92DF924B
:102DC000EF92FF920F931F93CF93DF93CDB7DEB7B0
:102DD000CA1BDB0B0FB6F894DEBF0FBECDBF099444
:102DE0002A88398848885F846E847D848C849B849B
:102DF000AA84B984C884DF80EE80FD800C811B81A9
:102E0000AA81B981CE0FD11D0FB6F894DEBF0FBED7
:0A2E1000CDBFED010895F894FFCF47
:102E1A000000C902200001000000000000000000BC
:102E2A000000000000000001000000000000000097
:102E3A000000000000000000010101E20700000A92
:102E4A0000000020202020202020202020202020D8
:102E5A002020000102034104050642070809432A0B
:102E6A000023445461736B4D61696E005461736B46
:102E7A00446973706C6179005461736B536F6E614E
:102E8A0072002532642D2532647C2532643A25325B
:102E9A00643A2532647C25640025346C69737C2588
:102EAA00346C69636D7C2564202564002020207CB5
:102EBA002533647C2532643A25326420202000259B
:102ECA0033647C2533647C25326420202020202032
:0E2EDA000049444C4500546D7220537663004D
:00000001FF
