:100000000C945C000C9494070C9479000C94790087
:100010000C9479000C9479000C94FA0C0C947900EF
:100020000C9479000C9479000C9479000C945A0685
:100030000C9479000C9479000C9479000C9479005C
:100040000C9444070C9479000C94580A0C94830A7D
:100050000C9479000C9479000C9479000C9479003C
:100060000C9479000C947900A500A800AB00AE00B8
:10007000B100B400B700BA00BD00C000C300C600A4
:100080000D0335034A03650380039603AC03C203E3
:10009000D803F80313042E0449045F0475048B0489
:1000A000A204CD041C161C161C16E1154616541687
:1000B0001C161C16E115461611241FBECFEFD8E002
:1000C000DEBFCDBF12E0A0E0B1E0E4ECF5E302C09A
:1000D00005900D92A638B107D9F723E0A6E8B2E063
:1000E00001C01D92A238B207E1F70E94F0070C94FC
:1000F000E01A0C9400002F923F924F925F926F9201
:100100007F928F929F92AF92BF92CF92DF92EF92A7
:10011000FF920F931F93CF93DF93CDB7DEB7E19795
:100120000FB6F894DEBF0FBECDBF3B011A01290107
:10013000DC01EC918E2F90E0FC013197EC30F10561
:1001400040F5EC5CFF4F0C94BE166BE071E023C0F1
:1001500060E171E020C065E171E01DC06AE171E01D
:100160001AC06FE171E017C064E271E014C069E287
:1001700071E011C06EE271E00EC063E371E00BC08C
:1001800068E371E008C06DE371E005C062E471E00E
:1001900002C067E471E0CE018D960E940118F5015E
:1001A0008081882329F0813031F461E571E005C058
:1001B0006CE471E002C067E471E0CE0189960E94B0
:1001C0000118D4018C91882331F0813011F42DE491
:1001D00003C02FEF01C021E4F8014081D2013C911E
:1001E000F1019081D3018C911F922F931F924F9315
:1001F0001F923F931F929F931F928F938FA51F92E1
:100200008F938EA51F928F938DA51F928F9386E556
:1002100091E09F938F938E010B5E1F4F1F930F935F
:1002200029AB0E940818F6019081D7018C911F928A
:1002300029A92F932BA51F922F932AA51F922F93A5
:1002400029A51F922F931F929F931F928F938FE642
:1002500091E09F938F93FE0131967F01FF93EF937F
:100260000E9408180FB6F894DEBF0FBECDBF60E045
:1002700080E00E945C09C8010E948D0961E080E075
:100280000E945C09C7010E948D09E1960FB6F8949F
:10029000DEBF0FBECDBFDF91CF911F910F91FF90B9
:1002A000EF90DF90CF90BF90AF909F908F907F9016
:1002B0006F905F904F903F902F900895CF93DF9372
:1002C000CDB7DEB7A8970FB6F894DEBF0FBECDBF8F
:1002D00063E871E0CE0145960E94011864E971E07F
:1002E000CE0101960E94011860E080E00E945C0946
:1002F000CE0145960E948D0961E080E00E945C0974
:10030000CE0101960E948D09A8960FB6F894DEBF23
:100310000FBECDBFDF91CF910895EF92FF920F9363
:100320001F93CF93DF93CDB7DEB7A8970FB6F8949E
:10033000DEBF0FBECDBF80916E031F928F9385EA03
:1003400091E09F938F938E010B5E1F4F1F930F932E
:100350000E9408187091710360915E0350916003D0
:1003600040916803209161033091620380916C0396
:1003700090916D031F927F931F926F931F925F93D3
:100380001F924F933F932F939F938F9387EB91E00F
:100390009F938F93CE0101967C019F938F930E9430
:1003A000081860E080E00E945C09C8010E948D0985
:1003B00061E080E00E945C09C7010E948D090FB6D0
:1003C000F894DEBF0FBECDBFA8960FB6F894DEBF7F
:1003D0000FBECDBFDF91CF911F910F91FF90EF9096
:1003E0000895EF92FF920F931F93CF93DF93CDB7B2
:1003F000DEB7A8970FB6F894DEBF0FBECDBF8091D1
:100400006E031F928F938EEC91E09F938F938E01DA
:100410000B5E1F4F1F930F930E940818B091720339
:10042000A0915F03F0917303E09167036091630310
:10043000709164034091690350916A0320917403A1
:100440003091750380916F03909170031F92BF9359
:100450001F92AF931F92FF931F92EF937F936F931F
:100460005F934F933F932F939F938F9380EE91E0F1
:100470009F938F93CE0101967C019F938F930E944F
:10048000081860E080E00E945C09C8010E948D09A4
:1004900061E080E00E945C09C7010E948D090FB6EF
:1004A000F894DEBF0FBECDBFA8960FB6F894DEBF9E
:1004B0000FBECDBFDF91CF911F910F91FF90EF90B5
:1004C00008950F931F93CF93DF93CDB7DEB7A8970F
:1004D0000FB6F894DEBF0FBECDBF69EF71E0CE015D
:1004E00045960E9401182091930290919402809168
:1004F00095021F922F931F929F931F928F938AE0D2
:1005000092E09F938F938E010F5F1F4F1F930F9366
:100510000E94081860E080E00E945C09CE014596C8
:100520000E948D0961E080E00E945C09C8010E9480
:100530008D090FB6F894DEBF0FBECDBFA8960FB6DB
:10054000F894DEBF0FBECDBFDF91CF911F910F9109
:1005500008950F931F93CF93DF93CDB7DEB7A8977E
:100560000FB6F894DEBF0FBECDBF6EE172E0CE01D4
:1005700045960E9401183091070120910801809151
:10058000090190910A011F923F931F922F939F930D
:100590008F938FE292E09F938F938E010F5F1F4F97
:1005A0001F930F930E94081860E080E00E945C098E
:1005B000CE0145960E948D0961E080E00E945C09B1
:1005C000C8010E948D090FB6F894DEBF0FBECDBFE3
:1005D000A8960FB6F894DEBF0FBECDBFDF91CF91C6
:1005E0001F910F9108958F929F92AF92BF92CF92D9
:1005F000DF92EF92FF920F931F93CF93DF93E091DF
:1006000086024E2F50E04231510508F00FC2EC0136
:10061000FA01E05CFF4F0C94BE168DE8882E82E054
:10062000982E96E0A92E91E0B92E2EE8C22E22E057
:10063000D22E32E9E32E32E0F32E03E912E024E970
:1006400032E045E952E067E071E088E091E00E9425
:100650007B0084E190E0909366038093650388813A
:10066000823409F0E5C181E06AC10E945E01109206
:100670006E038881813019F482E08093860288813C
:10068000823019F488E08093860288818A3209F0EA
:10069000CFC1CCC181E080936E030E948D0188811F
:1006A000803168F480916E03823048F4888190E054
:1006B00090936D0380936C0383E08093860288811E
:1006C000833209F090C080E18CC082E080936E0399
:1006D00010926203109261030E948D018881803123
:1006E00048F4888190E0909362038093610384E0F2
:1006F0008093860288818A3209F09AC182E01FC104
:1007000083E080936E03109268030E948D018881BC
:10071000803130F488818093680385E0809386027D
:1007200088818A3209F084C183E009C184E0809322
:100730006E03109260030E948D018881803130F435
:1007400088818093600386E08093860288818A3264
:1007500009F06EC184E0F3C085E080936E031092CF
:100760005E030E948D018881803130F488818093FE
:100770005E0387E08093860288818A3209F058C13F
:1007800085E0DDC086E080936E03109271030E94C5
:100790008D018881803130F488818093710382E0FB
:1007A0008093860288818A3209F042C186E0C7C000
:1007B00081E080936E030E94F1018881803168F4AA
:1007C00080916E03823048F4888190E090937003AA
:1007D00080936F0389E0809386028881833219F4C5
:1007E00081E18093860288818A3209F021C13BCF62
:1007F00082E080936E0310927503109274030E943E
:10080000F1018881803148F4888190E090937503EC
:10081000809374038AE08093860288818A3209F08B
:1008200007C188E08CC083E080936E0310926A0356
:10083000109269030E94F1018881803148F4888117
:1008400090E090936A03809369038BE08093860223
:1008500088818A3209F0ECC089E071C084E080931D
:100860006E0310926403109263030E94F101888169
:10087000803148F4888190E090936403809363030F
:100880008CE08093860288818A3209F0D1C08AE0A8
:1008900056C085E080936E03109267030E94F101B9
:1008A0008881803130F48881809367038DE0809364
:1008B000860288818A3209F0BBC08BE040C086E0A6
:1008C00080936E03109273030E94F101888180313E
:1008D00030F48881809373038EE080938602888150
:1008E0008A3209F0A5C08CE02AC087E080936E03AD
:1008F00010925F030E94F1018881803130F4888179
:1009000080935F038FE08093860288818A3209F0AA
:100910008FC08DE014C018E010936E031092720324
:100920000E94F1018881803128F4888180937203CC
:100930001093860288818A3209F07AC08EE0809313
:10094000860276C020916C0330916D038091610323
:10095000909162034AE0249F800D112480939502B8
:1009600090916803809160032AE0929F800D11248A
:100970008093940290915E03809171034AE0949F6A
:10098000800D1124809393020E94610288EE93E00F
:10099000909366038093650349C080916F039091A3
:1009A0007003E0917403F0917503409169035091D5
:1009B0006A032091630330916403C8EED3E08C9FF7
:1009C000B0018D9F700D9C9F700D1124A4E6AE9F09
:1009D000C001AF9F900D1124860F971F820F931FA8
:1009E0006AE0649F9001659F300D1124820F931F70
:1009F00090930A018093090190916703809173039A
:100A00002AE0929F800D11248093080190915F034A
:100A1000809172034AE0949F800D11248093070116
:100A20000E94A902D0936603C093650310928602C8
:100A3000DF91CF911F910F91FF90EF90DF90CF90BA
:100A4000BF90AF909F908F900895803130F4E82F41
:100A5000F0E0EF5BFD4F808108958FEF089583FFF5
:100A600002C0579A01C0579882FF02C0569A01C02F
:100A7000569881FF02C0559A01C0559880FF02C068
:100A8000549A08955498089583FF02C05F9A01C054
:100A90005F9882FF02C05E9A01C05E9881FF02C02B
:100AA0005D9A01C05D9880FF02C05C9A08955C98D1
:100AB0000895CF92DF92EF92FF920F931F93CF93FF
:100AC00023982298219820982B9A2A9A299A289A32
:100AD00000E010E088E0E82EF12C97EFC92ED12C31
:100AE000C02FC701002E02C0959587950A94E2F7A2
:100AF0000E942F05C601002E02C0959587950A9485
:100B0000E2F70E94440584E01B990AC08FE99FE048
:100B10000197F1F700C000001B9B30C08FEF2FC082
:100B20001A990AC08FE99FE00197F1F700C0000011
:100B30001A99F4CF84E00BC019990BC08FE99FE09C
:100B40000197F1F700C000001999E8CF88E08C0FF9
:100B500016C018990AC08FE99FE00197F1F700C00D
:100B600000001899DBCF8CE0F2CF815069F60F5F5F
:100B70001F4F0430110509F0B3CFD0CF8C2FCF9188
:100B80001F910F91FF90EF90DF90CF900895CF933A
:100B9000DF93CDB7DEB72C970FB6F894DEBF0FBE4C
:100BA000CDBF0E947F119C878B87539A5B98809161
:100BB0006900816080936900E89A81E085BD16BC78
:100BC00080936E0087E690E00E94AD0A7894DD2461
:100BD000D39481E5E82E82E0F82E8E010F5F1F4F3F
:100BE00080918B02811111C083E090E00E94DC12A1
:100BF000539885E38A95F1F700005B9AD0928B02B7
:100C000095E39A95F1F700005B9840918E02509120
:100C10008F0260919002709191027F936F935F9326
:100C20004F93FF92EF921F930F930E940818C801F1
:100C30000E94DB0A85E592E00E94DB0A6CE070E02E
:100C4000CE010B960E94A4120FB6F894DEBF0FBE21
:100C5000CDBFC6CF0E9459050E94250580936B0326
:100C600086E091E00E942608F5CF8DE08093810018
:100C700088E09DE3909389008093880082E08093D0
:100C80006F008CE00E94990980E00E9466090E9432
:100C9000760978948BE693E00E94F30280916503D5
:100CA0009091660324E0969587952A95E1F70E9436
:100CB000DC12F0CF1F920F920FB60F9211245F93A8
:100CC0006F937F938F939F93AF93BF938091930282
:100CD0008F5F80939302809193028C3338F010924F
:100CE0009302809194028F5F80939402809194028A
:100CF0008C3338F010929402809195028F5F80932C
:100D0000950280919502883138F010929502809179
:100D100007018F5F8093070180910801823041F5C0
:100D20008091090190910A0183709927892B51F4D0
:100D30008091090190910A0164E670E00E94881692
:100D4000892B51F48091090190910A0160E971E0C9
:100D50000E948816892B61F4809107018E3140F042
:100D600081E080930701809108018F5F80930801E3
:100D700080910801823041F58091090190910A012A
:100D800083709927892BA1F48091090190910A0120
:100D900064E670E00E948816892BB1F48091090105
:100DA00090910A0160E971E00E948816892B61F038
:100DB000809107018D3140F081E08093070180919F
:100DC00008018F5F80930801809108018130C1F094
:100DD000809108018330A1F080910801853081F075
:100DE00080910801873061F080910801883041F0DE
:100DF000809108018A3021F0809108018C3061F4E3
:100E000080910701803240F081E08093070180915A
:100E100008018F5F8093080180910801843061F0A0
:100E200080910801863041F080910801893021F0DD
:100E3000809108018B3061F4809107018F3140F07F
:100E400081E080930701809108018F5F8093080102
:100E5000809108018D3060F081E0809308018091DD
:100E6000090190910A01019690930A01809309016A
:100E7000BF91AF919F918F917F916F915F910F90F3
:100E80000FBE0F901F9018951F920F920FB60F92E2
:100E900011242F938F939F93AF93BF9380918C02D4
:100EA0008823C1F18091870290918802A0918902E4
:100EB000B0918A020196A11DB11D80938702909383
:100EC0008802A0938902B0938A0280918702909150
:100ED0008802A0918902B0918A0226B5BA2FA92F63
:100EE000982F8827820F911DA11DB11D8130944D2F
:100EF000A043B10578F010928C0210928B028FEF14
:100F00009FEFDC0180938E0290938F02A09390025A
:100F1000B0939102BF91AF919F918F912F910F90BC
:100F20000FBE0F901F9018951F920F920FB60F9241
:100F300011242F933F934F935F936F937F938F93DE
:100F40009F93AF93BF93EF93FF9380918B0288237E
:100F5000B1F180918C0281110DC081E080938C02EF
:100F600010928702109288021092890210928A02CF
:100F700016BC25C010928C02809187029091880245
:100F8000A0918902B0918A0226B5BA2FA92F982F75
:100F90008827BC01CD01620F711D811D911D20EAC2
:100FA00033E040E050E00E949C1620938E02309384
:100FB0008F02409390025093910210928B02FF9106
:100FC000EF91BF91AF919F918F917F916F915F91C1
:100FD0004F913F912F910F900FBE0F901F9018953A
:100FE000EF92FF920F9314B817B81AB88FEF85B924
:100FF00088B9F894E12CF12C03E020E030E040E0E7
:1010000051E068E572E085E396E00E94441002E05A
:1010100020E030E040E051E064E672E08AE296E0F1
:101020000E94441003E020E030E040E051E06FE631
:1010300072E087EC95E00E9444100E944B1180E022
:1010400090E00F91FF90EF900895FFCF249AFC015C
:101050008081813011F42C9A08952C980895109273
:10106000B90088E48093B800089594EA9093BC0096
:101070009091BC0097FFFCCF9091B900987F983079
:1010800021F0903111F081E008958093BB0084E855
:101090008093BC008091BC0087FFFCCF8091B90099
:1010A000887F883111F0803471F780E0089584E9F9
:1010B0008093BC008091BC0084FDFCCF0895809398
:1010C000BB0084E88093BC008091BC0087FFFCCF0C
:1010D0009091B900987F81E0983209F480E00895FA
:1010E00062E080E00E94520A00C062E080E00C945E
:1010F000550ACF93C82F80919602662311F0816024
:1011000001C08E7F80939602809196028D7F80939E
:1011100096026091960280E00E94100A80919602E9
:101120008F7780939602809196028F7B80939602B0
:10113000809196028F7D80939602809196028F7E99
:1011400080939602C7FF05C08091960280688093C5
:101150009602C6FF05C08091960280648093960235
:10116000C5FF05C080919602806280939602C4FFFD
:1011700005C08091960280618093960260919602EC
:1011800080E00E94100A0E947008809196028F777A
:1011900080939602809196028F7B80939602809135
:1011A00096028F7D80939602809196028F7E809327
:1011B0009602C3FF05C080919602806880939602D4
:1011C000C2FF05C080919602806480939602C1FFA1
:1011D00005C080919602806280939602C0FF05C090
:1011E000809196028061809396026091960280E0E1
:1011F0000E94100A0E94700880919602806180937C
:101200009602809196028062809396028091960267
:101210008064809396028091960280688093960203
:101220006091960280E0CF910C94100ACF93809148
:1012300096028E7F809396028091960282608093C0
:1012400096026091960280E00E94100A62E080E0BF
:101250000E94520A00C064E080E00E94FB09C82F8F
:1012600062E080E00E94550A00C062E080E00E94D7
:10127000520A00C064E080E00E94FB09C295C07F72
:101280008F70C82B62E080E00E94550A8C2FCF91AE
:1012900008950E94160987FDFCCF88E090E0019731
:1012A000F1F70C941609CF93C82F0E94490960E00A
:1012B0008C2FCF910C947908611102C0805801C025
:1012C00080540C94530981E00C945309882321F035
:1012D00080919602877F03C08091960288608093F8
:1012E00096026091960280E00C94100A82E00C94C1
:1012F0005309CF93C82F0E944909CA3049F480345A
:1013000010F080E001C080E48058CF910C94530924
:1013100061E08C2FCF910C947908CF93DF93EC018F
:101320008991882319F00E947909FACFDF91CF9132
:1013300008951F93CF93DF93182F0E94EA0910920C
:1013400096026091960280E00E94100AE0E0FAEFB7
:101350003197F1F790919602906290939602909156
:1013600096029061909396026091960280E00E94AE
:10137000100A0E947008E0E0FEE43197F1F70E9445
:101380007008C0E0D1E0FE013197F1F70E947008CB
:10139000FE013197F1F7909196029F7E909396020D
:1013A0006091960280E00E94100A0E9470082197C6
:1013B000F1F788E20E94530988E00E9453090E94D5
:1013C000630986E00E945309812FDF91CF911F911D
:1013D0000C9453090E942F0885E38A95F1F70000C9
:1013E00080E090E0FC01EA58FC4F108201968830C2
:1013F0009105C1F70895883088F4683078F4E82FB3
:10140000F0E0EA58FC4F8081082E000C990B02C0D6
:10141000959587956A95E2F7817008958FEF089505
:10142000CF93883098F4C62F982FE82FF0E0EA5831
:10143000FC4F608387E2890F880F0E9435088C2F4C
:101440000E945F080E94570880E001C08FEFCF9193
:101450000895CF93DF93982F883000F56830F0F42B
:10146000E82FF0E0EA58FC4F8081C1E0D0E001C0F5
:10147000CC0F6A95EAF7442311F0C82B02C0C0953F
:10148000C823C08387E2890F880F0E9435088C2FFC
:101490000E945F080E94570880E001C08FEFDF9133
:1014A000CF91089541E00C94290A40E00C94290A58
:1014B0001F920F920FB60F9211242F938F939F9329
:1014C000EF93FF938091C0009091C6008871E091E6
:1014D0009902EF5FEF7120919802E21739F0E093E3
:1014E0009902F0E0E456FD4F908301C082E08093C2
:1014F0009702FF91EF919F918F912F910F900FBEC7
:101500000F901F9018951F920F920FB60F921124F3
:101510008F939F93EF93FF9390919B0280919A02F8
:10152000981769F0E0919A02EF5FEF71E0939A02E9
:10153000F0E0E454FD4F80818093C60005C08091A7
:10154000C1008F7D8093C100FF91EF919F918F919A
:101550000F900FBE0F901F90189510929B02109243
:101560009A02109299021092980297FF04C022E00A
:101570002093C0009F779093C5008093C40088E9B2
:101580008093C10086E08093C200089590919B02F1
:101590009F5F9F7120919A029217E1F3E92FF0E08B
:1015A000E454FD4F808390939B028091C100806240
:1015B0008093C1000895CF93DF93EC018991882334
:1015C00019F00E94C60AFACFDF91CF9108958FE3F8
:1015D00080937E0080B7877F80BF80B7806880BFA0
:1015E00083B7817F83BF0FB6F8940F9283B7816072
:1015F00083BF85B7806685BF8F7D85BF0F900FBE87
:10160000889513BE0895259A2D9A2FEF80E792E0D2
:10161000215080409040E1F700C000001D9AF5CFB6
:10162000FC010396928381832FEF3FEF3483238362
:10163000968385839087878310820895FC011186A5
:1016400010860895CF93DF939C01FB01DC01119676
:10165000CD91DC911297D383C2838C819D81958338
:1016600084838C819D81DC0113967C936E93129709
:101670007D836C8331872087F90180818F5F808330
:10168000DF91CF9108950F931F93CF93DF938C0138
:10169000FB01808191818F3F2FEF920721F4E801B8
:1016A000AF81B8850EC0D801139612962D913C914A
:1016B0001397E901488159818417950710F0D901E2
:1016C000F4CF12968D919C91139793838283EC01B2
:1016D000FD83EC83B583A4831396FC93EE9312975A
:1016E00011870087F80180818F5F8083DF91CF9120
:1016F0001F910F910895CF93DF93FC01A085B185D1
:101700008281938124813581EC013D832C83C481C6
:10171000D5819B838A8311968D919C9112978E1708
:101720009F0721F41296DC93CE93119711861086B1
:101730008C9181508C938C91DF91CF91089531E100
:10174000FC013083319722E220833197A3E3A08309
:10175000319760833197708331971082319760E8B9
:10176000608331971082319762E06083319763E044
:101770006083319764E06083319765E060833197DF
:1017800066E06083319767E06083319768E060834B
:10179000319769E06083319760E1608331973083EE
:1017A000319732E13083319733E13083319734E13F
:1017B0003083319735E13083319736E1308331978B
:1017C00037E13083319738E13083319739E1308325
:1017D000319730E23083319731E230833197208383
:1017E000319723E22083319740833197508331979B
:1017F00026E22083319727E22083319728E2208355
:10180000319729E22083319720E32083319721E328
:10181000208386970895A89520EC88E190E00FB684
:10182000F894A895809360000FBE20936000A0916B
:101830004003B0914103CD91CDBFDD91DEBFFF915B
:10184000EF91DF91CF91BF91AF919F918F917F9158
:101850006F915F914F913F912F911F910F91FF9049
:10186000EF90DF90CF90BF90AF909F908F907F9040
:101870006F905F904F903F902F901F900F900FBEF2
:101880000F90089581E008950F920FB6F8940F928B
:101890001F9211242F923F924F925F926F927F92EC
:1018A0008F929F92AF92BF92CF92DF92EF92FF9270
:1018B0000F931F932F933F934F935F936F937F9358
:1018C0008F939F93AF93BF93CF93DF93EF93FF9348
:1018D000A0914003B09141030DB60D920EB60D924A
:1018E0000E94F812A0914003B0914103CD91CDBF69
:1018F000DD91DEBFFF91EF91DF91CF91BF91AF916D
:101900009F918F917F916F915F914F913F912F9117
:101910001F910F91FF90EF90DF90CF90BF90AF900D
:101920009F908F907F906F905F904F903F902F90FF
:101930001F900F900FBE0F9008950F920FB6F8945E
:101940000F921F9211242F923F924F925F926F92AB
:101950007F928F929F92AF92BF92CF92DF92EF923F
:10196000FF920F931F932F933F934F935F936F9328
:101970007F938F939F93AF93BF93CF93DF93EF9317
:10198000FF93A0914003B09141030DB60D920EB6A6
:101990000D9213BE0E94891181110E94F812A0912C
:1019A0004003B0914103CD91CDBFDD91DEBFFF91EA
:1019B000EF91DF91CF91BF91AF919F918F917F91E7
:1019C0006F915F914F913F912F911F910F91FF90D8
:1019D000EF90DF90CF90BF90AF909F908F907F90CF
:1019E0006F905F904F903F902F901F900F900FBE81
:1019F0000F9008950E949D0C18950FB6F8940F92C1
:101A0000FC01928D0F900FBE81E0911180E008954E
:101A10000F931F93CF93DF93EC01042F1A8D8C8DBE
:101A200081110CC088819981892B09F03EC08A817F
:101A30009B810E941B141B821A8238C0482F50E0E1
:101A4000011115C08C819D810E94F1172C8D8C8114
:101A50009D81820F911D9D838C832A813B818217FA
:101A6000930718F1888199819D838C831EC08E8194
:101A70009F810E94F1178C8D90E09195819591093D
:101A80002E813F81280F391F3F832E834881598142
:101A90002417350730F42A813B81820F931F9F83DF
:101AA0008E83023011F41111115080E01F5F1A8FE4
:101AB000DF91CF911F910F910895FC01CB01448DCF
:101AC0004423A1F050E026813781240F351F37834E
:101AD0002683628173812617370720F020813181A8
:101AE00037832683668177810C94F1170895EF92EE
:101AF000FF921F93CF93DF93EC010FB6F8940F92F0
:101B00001E8D7C0181E1E80EF11C11165CF48989BF
:101B1000882341F0C7010E94881381110E94091493
:101B20001150F3CF8FEF8E8F0F900FBE0FB6F8943A
:101B30000F921D8D7E0188E0E80EF11C11165CF4F9
:101B40008885882341F0C7010E94881381110E9473
:101B500009141150F3CF8FEF8D8F0F900FBEDF91CF
:101B6000CF911F91FF90EF900895CF93DF93EC01F9
:101B70000FB6F8940F92288139819B8D4C8D949FDC
:101B8000C0011124F901E80FF91FFB83EA831A8EC3
:101B90003D832C83841B9109820F931F9F838E8327
:101BA0008FEF8D8F8E8F61110CC08885882389F00F
:101BB000CE0108960E948813882359F00E94440C95
:101BC00008C0CE0108960E94100BCE0141960E94DB
:101BD000100B0F900FBE81E0DF91CF910895EF922F
:101BE000FF921F93CF93DF931F92CDB7DEB7182FCD
:101BF000662321F0869FC001112402C080E090E09E
:101C00004F9669830E9458167C016981009789F07C
:101C1000611104C0FC019183808304C04F96F701D9
:101C200091838083F701138F648F61E0C7010E9465
:101C3000B50DC7010F90DF91CF911F91FF90EF90ED
:101C40000895AF92BF92CF92DF92FF920F931F93AE
:101C5000CF93DF9300D000D01F92CDB7DEB78C01B9
:101C60006B015D834C83F22E90E0580188E0A80E52
:101C7000B11C0FB6F8940F92F801228D838D2817AE
:101C800018F0F2E0FF1214C04F2DB601C8010E94F7
:101C9000080DF8019189992321F0C80141960E940D
:101CA000881381110E94440C0F900FBE81E050C038
:101CB0002C813D81232B19F40F900FBE48C0911148
:101CC00004C0CE0101960E94C8130F900FBE0E945F
:101CD00079110FB6F8940F92F801858D8F3F09F4B2
:101CE000158EF801868D8F3F09F4168E0F900FBE6A
:101CF000BE016C5F7F4FCE0101960E94D31381110C
:101D000021C00FB6F8940F92F801928D838D0F9039
:101D10000FBE981311C06C817D81C5010E945613BE
:101D2000C8010E94770D0E943512882311F091E0BE
:101D3000A0CF0E94440CFBCFC8010E94770D0E94E7
:101D40003512F5CFC8010E94770D0E94351280E050
:101D50000F900F900F900F900F90DF91CF911F91E8
:101D60000F91FF90DF90CF90BF90AF900895EF92CA
:101D7000FF921F93CF93DF93EC019A8D8B8D981771
:101D800010F02230E1F47A011E8D422FCE010E9424
:101D9000080D1F3F81F48989882379F0CE0141968F
:101DA0000E948813882349F0E114F10431F081E0A6
:101DB000F701808305C01F5F1E8F81E001C080E0B6
:101DC000DF91CF911F91FF90EF900895AF92BF9256
:101DD000CF92DF92FF920F931F93CF93DF9300D0A8
:101DE00000D01F92CDB7DEB78C016B015D834C83B1
:101DF00090E0580181E1A80EB11C0FB6F8940F9243
:101E0000F801F28CFF20A9F0B601C8010E945D0D17
:101E1000FA94F801F28E8085882339F0C80108967B
:101E20000E94881381110E94440C0F900FBE81E024
:101E300050C02C813D81232B19F40F900FBE48C058
:101E4000911104C0CE0101960E94C8130F900FBEDD
:101E50000E9479110FB6F8940F92F801858D8F3F8B
:101E600009F4158EF801868D8F3F09F4168E0F90B8
:101E70000FBEBE016C5F7F4FCE0101960E94D3134F
:101E800081111CC0C8010E94FD0C882389F06C815F
:101E90007D81C5010E945613C8010E94770D0E94E2
:101EA0003512882311F091E0A8CF0E94440CFBCF9B
:101EB000C8010E94770D0E943512F5CFC8010E941B
:101EC000770D0E943512C8010E94FD0C882359F33A
:101ED00080E00F900F900F900F900F90DF91CF91B7
:101EE0001F910F91FF90DF90CF90BF90AF9008951A
:101EF000CF93DF93EC010FB6F8940F928D8D8F3F47
:101F000009F41D8E8E8D8F3F09F41E8E0F900FBE2B
:101F10008A8D811104C0CE0141960E946813CE01C2
:101F2000DF91CF910C94770DE0910803F0910903B4
:101F30008081811103C08FEF9FEF0CC0E0910803F7
:101F4000F09109030580F681E02D0680F781E02DF0
:101F5000828193819093E0028093DF020895EF9253
:101F6000FF920F931F93CF93DF931F92CDB7DEB7EE
:101F70007C010091E7021091E8028091400390916A
:101F80004103029669830E947B0B69818FEFE816FB
:101F9000F80699F4662389F060914003709141033B
:101FA0006E5F7F4F8AEE92E00F90DF91CF911F918D
:101FB0000F91FF90EF900C94220BE00EF11EE09138
:101FC0004003F0914103F382E282609140037091FB
:101FD0004103E016F10678F480910603909107031F
:101FE0006E5F7F4F0F90DF91CF911F910F91FF9008
:101FF000EF900C94430B80910803909109036E5F5E
:102000007F4F0E94430B8091DF029091E002E8161F
:10201000F90620F4F092E002E092DF020F90DF91E7
:10202000CF911F910F91FF90EF9008958091F3024F
:10203000882309F10FB6F8940F92E091F902F0911C
:10204000FA02C681D781CE0102960E947B0B809155
:10205000E90281508093E9028091F30281508093DC
:10206000F3020F900FBE8F89988D0E947716CE01D4
:102070000E947716DBCF80911C03823010F00E9403
:10208000440C0E94E70AD2CF5F926F927F928F92A8
:102090009F92AF92BF92CF92DF92EF92FF920F93F7
:1020A0001F93CF93DF935C013B016A014901502EDE
:1020B000CA010E9458168C01892B09F4DBC088E202
:1020C00090E00E945816EC01892BB1F0188F0F8B0D
:1020D000A60165EA70E0C8010E94FA1721E0C21A61
:1020E000D1088F89988DC80ED91EBE01675E7F4FBB
:1020F000F301C301089607C0C8010E947716BAC051
:10210000E817F90749F09F014191DB014D93BD01AB
:10211000D9012C912111F4CF18A2052D043008F01B
:1021200003E00E8B09A31AA23E01B2E06B0E711CF4
:10213000C3010E941E0BCE010C960E941E0BD98774
:10214000C88784E090E0801B91099D878C87DB8B9A
:10215000CA8B1BA21CA21DA21EA21FA2A401B50114
:10216000C6010E949F0B99838883E114F10419F042
:10217000F701D183C0830FB6F8940F928091E902E2
:102180008F5F8093E9028091400390914103892BF6
:10219000D1F5D0934103C09340038091E90281308F
:1021A00009F041C08CE193E00E94100B85E293E0BE
:1021B0000E94100B8EE293E00E94100B87E393E0E5
:1021C0000E94100B83E193E00E94100B8AE093E0E1
:1021D0000E94100B8DEF92E00E94100B84EF92E0B2
:1021E0000E94100B8AEE92E00E94100B83E193E0B4
:1021F00090930903809308038AE093E09093070388
:102200008093060310C08091E50281110CC0E0911B
:102210004003F091410396898E89891720F0D0936D
:102220004103C09340038091E1028F5F8093E102FC
:102230008E899091E602981710F48093E602F9E0F7
:102240008F9FC0011124B301845E9C4F0E94220B1A
:102250000F900FBE8091E502882351F0E09140037A
:10226000F091410396898E89981710F40E94440CCE
:1022700081E001C08FEFDF91CF911F910F91FF900F
:10228000EF90DF90CF90BF90AF909F908F907F9016
:102290006F905F900895EF92FF920F938DEDE82E6F
:1022A00082E0F82E00E020E030E045E550E069E70C
:1022B00072E086E190E10E9444108130B1F40E9406
:1022C000A814813091F4F8942FEF3FEF3093E0029F
:1022D0002093DF028093E5021092E8021092E70259
:1022E0000F91FF90EF900C940B0C0F91FF90EF90DB
:1022F00008958091DC028F5F8093DC0208950FB611
:10230000F8940F928091E7029091E8020F900FBE2F
:102310000895CF92DF92EF92FF920F931F93CF9386
:10232000DF938091DC0281118CC00091E702109153
:10233000E8020F5F1F4F1093E8020093E7020115B8
:102340001105B9F4809108039091090320910603C7
:1023500030910703309309032093080390930703F8
:10236000809306038091E2028F5F8093E2020E94D5
:10237000940F8091DF029091E002C0E008171907E6
:1023800008F44FC0D9E0E0910803F091090380817F
:10239000811103C08FEF9FEF11C0E0910803F0910E
:1023A00009030580F681E02DE680F780D7011296BB
:1023B0008D919C9113970817190728F49093E002C8
:1023C0008093DF022EC06701B2E0CB0ED11CC601A4
:1023D0000E947B0BF70184899589892B21F0C70125
:1023E0000C960E947B0BD70156969C918091E60239
:1023F000891710F49093E602D99FC0011124B60109
:10240000845E9C4F0E94220BE0914003F0914103B7
:10241000D70156969C918689981708F4B4CFC1E0ED
:10242000B2CFE0914003F0914103E689B9E0EB9F20
:10243000F0011124E45EFC4F8081823040F0C1E065
:1024400006C08091E4028F5F8093E402C0E0809137
:10245000E3028111C1E08C2FDF91CF911F910F9189
:10246000FF90EF90DF90CF900895EF92FF920F933F
:102470001F93CF93DF930FB6F8940F928091DC02F5
:1024800081508093DC028091DC02882311F080E08F
:1024900052C08091E9028823D1F3C0E0D0E089E006
:1024A000F82EEE24E3948091FD02882351F1E0910F
:1024B0000203F0910303C681D781CE010C960E94DE
:1024C0007B0B8E010E5F1F4FC8010E947B0B9E8904
:1024D0008091E602891710F49093E602F99EC001FC
:1024E0001124B801845E9C4F0E94220BE0914003AE
:1024F000F09141039E8986899817A8F2E092E30241
:10250000D2CFCD2B11F00E94940FC091E402CC23C6
:1025100051F0D1E00E9489118111D093E302C150A2
:10252000C9F71092E4028091E302882309F4AFCF47
:102530000E94440C81E00F900FBEDF91CF911F915C
:102540000F91FF90EF9008950F931F93CF93DF9318
:102550008C01EB010E9479114091E7025091E80251
:10256000F801608171819B012C0F3D1F46175707B1
:1025700028F42617370748F491E004C091E02617A5
:10258000370720F04217530708F090E0F801318335
:102590002083992331F060E0C901841B950B0E94D0
:1025A000AF0F0E943512811102C00E94440CDF91CE
:1025B000CF911F910F910895CF93DF9300D0CDB7A6
:1025C000DEB7009719F40E94440C0DC089839A83EA
:1025D0000E94791160E089819A810E94AF0F0E9468
:1025E0003512882381F30F900F90DF91CF910895DA
:1025F0008091DC02882321F081E08093E30208953A
:102600001092E302A0914003B0914103E091400396
:10261000F09141032D913C918789908D821793070A
:1026200060F060914003709141038091400390916C
:102630004103675E7F4F0E9425088091E60269E0B2
:10264000482F50E0649F9001659F300D1124F901DF
:10265000E45EFC4F9081911102C08150F1CFA181C5
:10266000B28112960D90BC91A02DB283A183215E00
:102670003C4FA217B30731F412962D913C9113975A
:102680003283218399E0949FF001959FF00D1124EE
:10269000E45EFC4F0180F281E02D2681378130938A
:1026A0004103209340038093E6020895CF93DF9384
:1026B000EB012091400330914103B901645F7F4FEA
:1026C0000E94430B61E0CE01DF91CF910C94AF0FDC
:1026D0000F931F93CF93DF931F92CDB7DEB78B017C
:1026E0002091400330914103B901645F7F4F4983DA
:1026F0000E94220B4981442311F00FEF1FEF642F3A
:10270000C8010F90DF91CF911F910F910C94AF0FE3
:102710000F931F93CF93DF93DC011596ED91FC91FE
:102720001697C681D7818E01045F1F4FC8010E9492
:102730007B0B8091DC02811114C00A501109C80181
:102740000E947B0B9E898091E602891710F490937A
:10275000E602B9E09B9FC0011124B801845E9C4F42
:1027600003C0B8018DEF92E00E94220BE09140037C
:10277000F09141039E898689891720F481E0809336
:10278000E30201C080E0DF91CF911F910F91089586
:102790002091E202FC0120832091E7023091E802BF
:1027A000328321830895CF93DF930FB6F8940F926D
:1027B0004091E7025091E802DC011196ED91FC9105
:1027C0001297EB01288139812F3FDFEF3D07C9F0D8
:1027D000B091E202EC01A881BA1719F04E175F0719
:1027E00090F44E1B5F0BFB014217530738F4241B78
:1027F000350B318320830E94C81303C011821082DD
:1028000002C080E001C081E00F900FBEDF91CF9148
:10281000089581E08093E30208958091E502882382
:1028200031F08091DC02882321F080E0089581E07E
:10283000089582E008950F931F93CF93DF93FC01D7
:10284000892B11F480E02CC082A1815082A32689BB
:1028500091A12917B9F38111F5CFEF018F010E5F17
:102860001F4FC8010E947B0B99A19E8B492F50E0FE
:1028700024E030E0241B350B3D872C878091E60255
:10288000891710F49093E60229E0249FC001259F48
:10289000900D1124B801845E9C4F0E94220B81E0B0
:1028A000DF91CF911F910F9108950FB6F8940F9279
:1028B0008091460390914703892BE9F485E593E0E5
:1028C0000E94100B8CE493E00E94100B85E593E0CE
:1028D00090934B0380934A038CE493E090934903D5
:1028E0008093480340E065E08AE00E94EF0D9093FA
:1028F0004703809346030F900FBE0895FC01738336
:102900006283918780874617570778F0421B530BE5
:102910008485958548175907C8F4BF016E5F7F4FBE
:1029200080914803909149030DC04217530718F452
:102930006217730758F4BF016E5F7F4F80914A039F
:1029400090914B030E94430B80E0089581E008952D
:10295000EF92FF920F930E9455148091460390913D
:102960004703892B81F084E4E82E83E0F82E03E00E
:1029700020E030E045E550E06EE772E088E595E163
:102980000E94441001C080E00F91FF90EF900895E5
:102990000F931F93CF93DF9300D000D01F92CDB73A
:1029A000DEB7A0914603B0914703109729F1F901D2
:1029B00069835B834A839D838C836630A4F40E9481
:1029C0000D14E0914603F091470320E0823011F4AA
:1029D000A80102C040E050E0BE016F5F7F4FCF0111
:1029E0000E94210E0AC020E0AF01BE016F5F7F4F41
:1029F000CD010E94B70E01C080E00F900F900F90A4
:102A00000F900F90DF91CF911F910F910895EF924A
:102A1000FF920F931F93CF93DF93E0914A03F091BE
:102A20004B038081882389F10580F681E02DE080C9
:102A3000F180C681D7818E010E5F1F4FC8010E94B1
:102A40007B0BE989FA89CE0109958E85813029F7BA
:102A50002C853D852E0D3F1DE216F30660F43B8369
:102A60002A83D987C887B80180914A0390914B0384
:102A70000E94430BD2CF00E010E020E030E0A7013D
:102A800060E0CE010E94C814C8CF809148039091A5
:102A9000490390934B0380934A03F0934903E093D7
:102AA0004803DF91CF911F910F91FF90EF90089510
:102AB000CF93DF93CDB7DEB727970FB6F894DEBF7D
:102AC0000FBECDBFE0914A03F0914B038081DD241E
:102AD000D394882339F0D12C0580F681E02DE08055
:102AE000F18002C0E12CF12C0E9479110E947F112B
:102AF0008C0180914203909143030817190720F439
:102B00000E94071581E001C080E010934303009309
:102B10004203811150C0D11036C00E151F05D0F1EF
:102B20000E943512E0914A03F0914B030580F68133
:102B3000E02DC680D780C60102960E947B0BD6018D
:102B40001E968C911E978130B1F41C966D917C91EC
:102B50001D976E0D7F1D9701A801C6010E947E146E
:102B6000882349F000E010E020E030E0A70160E0B9
:102B7000C6010E94C814D6015196ED91FC9152975E
:102B8000C60109951EC0E0914803F0914903808178
:102B900041E0811140E0B701601B710B8091460359
:102BA000909147030E94780F0E943512811109C04D
:102BB0000E94440C06C00E94351203C0898187FF21
:102BC0000EC040E050E0BE016F5F7F4F8091460332
:102BD000909147030E94E60E8111F0CF73CFEC80F5
:102BE000FD80F70182859385892B21F0C70102962C
:102BF0000E947B0B0E947F11AC0180914203909157
:102C000043034817590730F44E835F830E9407152A
:102C10005F814E815093430340934203E9810E2F1D
:102C2000EE0F110B220B330B0A30110550F6F80191
:102C3000EE5AFF4F0C94BE162A813B81D7011C9699
:102C40006D917C911D97620F731FC7010E947E14C6
:102C5000882309F4B6CFD7015196ED91FC91529794
:102C6000C7010995F7018685813009F0AACF44850F
:102C700055858A819B81480F591F00E010E020E0B4
:102C800030E060E0C7010E94C8149BCF6A817B815D
:102C9000D7011D967C936E931C97640F751F9A0144
:102CA000C7010E947E148DCFC7010E94771689CF7D
:102CB0000F931F93CF93DF9300D0CDB7DEB78983F7
:102CC0009A830E94791189819A810E94C4168C018D
:102CD0000E9435120115110511F40E94030BC80161
:102CE0000F900F90DF91CF911F910F910895CF9387
:102CF000DF93009751F0EC010E947911CE010E9400
:102D00005917DF91CF910C943512DF91CF9108952F
:102D1000AA1BBB1B51E107C0AA1FBB1FA617B70701
:102D200010F0A61BB70B881F991F5A95A9F780951D
:102D30009095BC01CD010895A1E21A2EAA1BBB1BE0
:102D4000FD010DC0AA1FBB1FEE1FFF1FA217B30777
:102D5000E407F50720F0A21BB30BE40BF50B661F8D
:102D6000771F881F991F1A9469F760957095809551
:102D700090959B01AC01BD01CF010895EE0FFF1F9F
:102D80000590F491E02D0994CF93DF938230910563
:102D900010F482E090E0E0918003F091810320E064
:102DA00030E0C0E0D0E0309711F140815181481708
:102DB0005907C0F04817590761F482819381209721
:102DC00019F09B838A832BC09093810380938003A7
:102DD00026C02115310519F04217530718F49A013E
:102DE000BE01DF01EF010280F381E02DDCCF211570
:102DF000310509F1281B390B2430310590F4129666
:102E00008D919C9113976115710521F0FB019383BE
:102E1000828304C09093810380938003FD013296E6
:102E200044C0FD01E20FF31F8193919322503109B9
:102E30002D933C933AC020917E0330917F03232B46
:102E400041F4209102013091030130937F032093DC
:102E50007E0320910001309101012115310541F4DB
:102E60002DB73EB74091040150910501241B350B4D
:102E7000E0917E03F0917F03E217F307A0F42E1B8D
:102E80003F0B2817390778F0AC014E5F5F4F2417CE
:102E9000350748F04E0F5F1F50937F0340937E032A
:102EA0008193919302C0E0E0F0E0CF01DF91CF91F8
:102EB00008950F931F93CF93DF93009709F48CC06D
:102EC000FC013297138212820091800310918103DA
:102ED0000115110581F420813181820F931F20910A
:102EE0007E0330917F032817390779F5F0937F032C
:102EF000E0937E0371C0D80140E050E0AE17BF07F9
:102F000050F412962D913C911397AD012115310586
:102F100009F1D901F3CF9D01DA0133832283608166
:102F20007181860F971F8217930769F4EC0128813E
:102F30003981260F371F2E5F3F4F318320838A81CF
:102F40009B8193838283452B29F4F0938103E09343
:102F5000800342C01396FC93EE931297ED014991C2
:102F600059919E01240F351FE217F30771F48081F8
:102F70009181840F951F029611969C938E93828166
:102F8000938113969C938E931297E0E0F0E0D80122
:102F900012968D919C911397009719F0F8018C016E
:102FA000F6CF8D919C9198012E5F3F4F820F931F1A
:102FB00020917E0330917F032817390769F43097F9
:102FC00029F4109281031092800302C013821282AE
:102FD00010937F0300937E03DF91CF911F910F9198
:102FE0000895FB01DC0102C001900D924150504058
:102FF000D8F70895DC0101C06D9341505040E0F7CF
:103000000895FB01DC0101900D920020E1F7089585
:10301000AEE0B0E0EEE0F8E10C94B71A0D891E893D
:1030200086E08C831A8309838FEF9FE79E838D83CD
:10303000AE01475E5F4F6F89788DCE0101960E9489
:103040002B182F813885F801E20FF31F10822E967E
:10305000E4E00C94D31AACE0B0E0E1E3F8E10C94C6
:10306000A91A7C016B018A01FC01178216828381F7
:1030700081FFBDC1CE0101964C01F7019381F6019C
:1030800093FD859193FF81916F01882309F4ABC172
:10309000853239F493FD859193FF81916F018532DB
:1030A00029F4B70190E00E94131AE7CF512C312C7C
:1030B00020E02032A0F48B3269F030F4803259F0F5
:1030C000833269F420612CC08D3239F0803339F4B9
:1030D000216026C02260246023C0286021C027FD13
:1030E00027C030ED380F3A3078F426FF06C0FAE0FA
:1030F0005F9E300D1124532E13C08AE0389E300D90
:103100001124332E20620CC08E3221F426FD6BC1B7
:10311000206406C08C3611F4206802C0883641F461
:10312000F60193FD859193FF81916F018111C1CFCC
:10313000982F9F7D9554933028F40C5F1F4FFFE329
:10314000F9830DC0833631F0833771F0833509F090
:103150005BC022C0F801808189830E5F1F4F442429
:103160004394512C540115C03801F2E06F0E711CCC
:10317000F801A080B18026FF03C0652D70E002C079
:103180006FEF7FEFC5012C870E94081A2C01830185
:103190002C852F77222E17C03801F2E06F0E711C9C
:1031A000F801A080B18026FF03C0652D70E002C049
:1031B0006FEF7FEFC5012C870E94FD192C012C8534
:1031C0002068222E830123FC1BC0832D90E048162B
:1031D0005906B0F4B70180E290E00E94131A3A94C5
:1031E000F4CFF50127FC859127FE81915F01B7019E
:1031F00090E00E94131A31103A94F1E04F1A5108EE
:103200004114510471F7E5C0843611F0893639F55F
:10321000F80127FF07C060817181828193810C5F73
:103220001F4F08C060817181072E000C880B990B1D
:103230000E5F1F4F2F76722E97FF09C090958095D5
:10324000709561957F4F8F4F9F4F2068722E2AE0B7
:1032500030E0A4010E944B1AA82EA81844C085375C
:1032600029F42F7EB22E2AE030E025C0F22FF97F1C
:10327000BF2E8F36C1F018F4883579F0B4C080378E
:1032800019F0883721F0AFC02F2F2061B22EB4FE85
:103290000DC08B2D8460B82E09C024FF0AC09F2F5B
:1032A0009660B92E06C028E030E005C020E130E08D
:1032B00002C020E132E0F801B7FE07C060817181F1
:1032C000828193810C5F1F4F06C06081718180E015
:1032D00090E00E5F1F4FA4010E944B1AA82EA81861
:1032E000FB2DFF777F2E76FE0BC0372D3E7FA5147A
:1032F00050F474FE0AC072FC08C0372D3E7E05C033
:10330000BA2C372D03C0BA2C01C0B52C34FF0DC028
:10331000FE01EA0DF11D8081803311F4397E09C070
:1033200032FF06C0B394B39404C0832F867809F0AB
:10333000B39433FD13C030FF06C05A2CB31418F4F5
:10334000530C5B18B32CB31468F4B70180E290E01F
:103350003C870E94131AB3943C85F5CFB31410F444
:103360003B1801C0312C34FF12C0B70180E390E05C
:103370003C870E94131A3C8532FF17C031FD03C001
:1033800088E790E002C088E590E0B7010CC0832F89
:10339000867859F031FF02C08BE201C080E237FD30
:1033A0008DE2B70190E00E94131AA51438F4B7011A
:1033B00080E390E00E94131A5A94F7CFAA94F40184
:1033C000EA0DF11D8081B70190E00E94131AA1104F
:1033D000F5CF332009F451CEB70180E290E00E948E
:1033E000131A3A94F6CFF7018681978102C08FEFC6
:1033F0009FEF2C96E2E10C94C51AFC0105906150F8
:1034000070400110D8F7809590958E0F9F1F0895FA
:10341000FC016150704001900110D8F780959095A3
:103420008E0F9F1F08950F931F93CF93DF93FB0180
:10343000238121FD03C08FEF9FEF28C022FF16C01C
:1034400046815781248135814217530744F4A08176
:10345000B1819D012F5F3F4F318320838C93268163
:1034600037812F5F3F4F3783268310C0EB01092F31
:10347000182F0084F185E02D0995892BE1F68E81C6
:103480009F8101969F838E83812F902FDF91CF9113
:103490001F910F910895FA01AA27283051F1203188
:1034A00081F1E8946F936E7F6E5F7F4F8F4F9F4FD8
:1034B000AF4FB1E03ED0B4E03CD0670F781F891F1A
:1034C0009A1FA11D680F791F8A1F911DA11D6A0FE8
:1034D000711D811D911DA11D20D009F468943F919B
:1034E0002AE0269F11243019305D3193DEF6CF019A
:1034F0000895462F4770405D4193B3E00FD0C9F760
:10350000F6CF462F4F70405D4A3318F0495D31FDCC
:103510004052419302D0A9F7EACFB4E0A69597951F
:10352000879577956795BA95C9F7009761057105F5
:1035300008959B01AC010A2E06945795479537953F
:103540002795BA95C9F7620F731F841F951FA01D99
:1035500008952F923F924F925F926F927F928F9237
:103560009F92AF92BF92CF92DF92EF92FF920F9312
:103570001F93CF93DF93CDB7DEB7CA1BDB0B0FB61C
:10358000F894DEBF0FBECDBF09942A8839884888D9
:103590005F846E847D848C849B84AA84B984C8846F
:1035A000DF80EE80FD800C811B81AA81B981CE0F66
:1035B000D11D0FB6F894DEBF0FBECDBFED0108954B
:0435C000F894FFCFAD
:1035C400000082032000010101E2074A616E00004D
:1035D40046656200004D6172000041707200004D4A
:1035E400617900004A756E00004A756C00004175EF
:1035F40067000053657000004F637400004E6F76DF
:103604000000446563000020202000004F4646006F
:1036140000204F4E00002563256325632D25326469
:103624007C2532643A2532643A25326425630025C8
:103634003364737C253464636D7C2563256325635F
:10364400256300312D20556261682057616B7475C4
:1036540020202000322D20556261682054616E675D
:1036640067616C200020206868203A206D6D203A44
:1036740020737320256400202025642564203A20CB
:1036840025642564203A20256425642020005959A6
:103694005959202D204D4D202D20444420256400CF
:1036A4002564256425642564202D20256425642053
:1036B4002D2025642564202000574B542054657226
:1036C400757064617465203A2000202025326420DE
:1036D4003A20253264203A202532642020005447C1
:1036E4004C20546572757064617465203A20002022
:1036F400253464202D20253264202D202532642099
:10370400000102034104050642070809432A002375
:1037140044256C64000D0A005461736B4469737032
:103724006C6179005461736B4B657970616400540A
:1037340061736B536F6E61720049444C4500546D64
:06374400722053766300C1
:00000001FF
