:100000000C944A000C9467000C9467000C946700F1
:100010000C9467000C9467000C94BD090C94670065
:100020000C9467000C9467000C9467000C94D10347
:100030000C9467000C9467000C9467000C946700A4
:100040000C9467000C9467000C941B070C944607F3
:100050000C9467000C9467000C9467000C94670084
:100060000C9467000C9467009100940097009A002C
:100070009D00A000A300A600A900AC00AF00B20044
:10008000A712A712A7126C12D112DF12A712A71281
:100090006C12D11211241FBECFEFD8E0DEBFCDBF4E
:1000A00012E0A0E0B1E0E6E9FEE202C005900D92A8
:1000B000A635B107D9F723E0A6E5B2E001C01D924D
:1000C000A033B207E1F70E94BB040C9449170C94CB
:1000D00000004F925F926F927F928F929F92AF92A9
:1000E000BF92CF92DF92EF92FF920F931F93CF9325
:1000F000DF93CDB7DEB7E0970FB6F894DEBF0FBE43
:10010000CDBF4B012A013901DC01EC918E2F90E02B
:10011000FC013197EC30F10540F5EC5CFF4F0C949D
:1001200027136EE071E023C063E171E020C068E155
:1001300071E01DC06DE171E01AC062E271E017C0AC
:1001400067E271E014C06CE271E011C061E371E03C
:100150000EC066E371E00BC06BE371E008C060E4C1
:1001600071E005C065E471E002C06AE471E0CE01AF
:100170008D960E946A14F5018081882329F08130D0
:1001800031F464E571E005C06FE471E002C06AE437
:1001900071E0CE0189960E946A14D8013C91F30166
:1001A0002081D2019C91F40180811F92BB24BA94DA
:1001B000BF921F923F931F922F931F929F931F9264
:1001C0008F938FA51F928F938EA51F928F938DA5CE
:1001D0001F928F9389E591E09F938F938E010B5E21
:1001E0001F4F1F930F930E947114D6019C91F7012A
:1001F00080811F92BF922BA51F922F932AA51F9239
:100200002F9329A51F922F931F929F931F928F9335
:1002100082E791E09F938F93CE0101967C019F939B
:100220008F930E9471140FB6F894DEBF0FBECDBF3E
:1002300060E080E00E941F06C8010E94500661E055
:1002400080E00E941F06C7010E945006E0960FB68C
:10025000F894DEBF0FBECDBFDF91CF911F910F91FC
:10026000FF90EF90DF90CF90BF90AF909F908F90D6
:100270007F906F905F904F900895CF93DF93CDB7AD
:10028000DEB7A8970FB6F894DEBF0FBECDBF66E805
:1002900071E0CE0145960E946A1465E971E0CE01D5
:1002A00001960E946A1460E080E00E941F06CE0161
:1002B00045960E94500661E080E00E941F06CE0134
:1002C00001960E945006A8960FB6F894DEBF0FBEA6
:1002D000CDBFDF91CF910895CF93DF93CDB7DEB738
:1002E000A8970FB6F894DEBF0FBECDBF64EA71E0E9
:1002F000CE0145960E946A1461EB71E0CE01019631
:100300000E946A1460E080E00E941F06CE014596BC
:100310000E94500661E080E00E941F06CE01019617
:100320000E945006A8960FB6F894DEBF0FBECDBF50
:10033000DF91CF910895CF93DF93CDB7DEB7A89724
:100340000FB6F894DEBF0FBECDBF6EEB71E0CE01ED
:1003500045960E946A146DEC71E0CE0101960E94F0
:100360006A1460E080E00E941F06CE0145960E945C
:10037000500661E080E00E941F06CE0101960E94B7
:100380005006A8960FB6F894DEBF0FBECDBFDF9122
:10039000CF910895CF93DF93CDB7DEB7A8970FB66F
:1003A000F894DEBF0FBECDBF6CED71E0CE01459677
:1003B0000E946A146BEE71E0CE0101960E946A14ED
:1003C00060E080E00E941F06CE0145960E94500624
:1003D00061E080E00E941F06CE0101960E94500657
:1003E000A8960FB6F894DEBF0FBECDBFDF91CF91B8
:1003F0000895CF93DF93CDB7DEB7A8970FB6F894E3
:10040000DEBF0FBECDBF6AEF71E0CE0145960E9400
:100410006A146BE072E0CE0101960E946A1460E0FB
:1004200080E00E941F06CE0145960E94500661E0C2
:1004300080E00E941F06CE0101960E945006A896F9
:100440000FB6F894DEBF0FBECDBFDF91CF910895F8
:10045000AF92BF92CF92DF92EF92FF920F931F93D2
:10046000CF93DF93EC018B0180915602823009F427
:100470005AC028F48823C9F08130E9F18FC0843054
:1004800009F470C008F45CC0853009F087C00E9490
:10049000F90188EB9BE09093230380932203F801FA
:1004A000108211821282138268C087E5A82E82E032
:1004B000B82E98E5C92E92E0D92E29E5E22E22E049
:1004C000F22E07E011E028E031E049E051E06AE077
:1004D00071E08BE091E00E94690084E190E09093EC
:1004E0002303809322038881823409F057C081E07E
:1004F0008093560253C00E943D0184E190E09093A6
:100500002303809322038881813019F482E0809351
:1005100056028881823019F483E0809356028881E4
:100520008A32E1F527C00E946C0184E190E090934B
:100530002303809322038881833281F484E00CC0FA
:100540000E949B0184E190E0909323038093220317
:100550008881833219F485E08093560288818A323B
:10056000E9F4C5CF0E94CA0188EB9BE09093230376
:10057000809322031092560211C0F801808191816C
:10058000A281B3810F97A105B105A0F7F801808181
:100590009181A281B3810C5F1F4FEFCFDF91CF918B
:1005A0001F910F91FF90EF90DF90CF90BF90AF9091
:1005B0000895803130F4E82FF0E0E45EFD4F808153
:1005C00008958FEF089583FF02C0579A01C057988E
:1005D00082FF02C0569A01C0569881FF02C0559A08
:1005E00001C0559880FF02C0549A08955498089508
:1005F00083FF02C05F9A01C05F9882FF02C05E9ACB
:1006000001C05E9881FF02C05D9A01C05D9880FFC5
:1006100002C05C9A08955C980895CF92DF92EF92A1
:10062000FF920F931F93CF9323982298219820989D
:100630002B9A2A9A299A289A00E010E088E0E82E5E
:10064000F12C97EFC92ED12CC02FC701002E02C06C
:10065000959587950A94E2F70E94E302C601002E61
:1006600002C0959587950A94E2F70E94F80284E00B
:100670001B990AC08FE99FE00197F1F700C00000C5
:100680001B9B30C08FEF2FC01A990AC08FE99FE0E3
:100690000197F1F700C000001A99F4CF84E00BC075
:1006A00019990BC08FE99FE00197F1F700C0000096
:1006B0001999E8CF88E08C0F16C018990AC08FE905
:1006C0009FE00197F1F700C000001899DBCF8CE0A4
:1006D000F2CF815069F60F5F1F4F0430110509F00A
:1006E000B3CFD0CF8C2FCF911F910F91FF90EF9070
:1006F000DF90CF900895CF93DF93CDB7DEB72A97E1
:100700000FB6F894DEBF0FBECDBF8CE2E82E82E0BC
:10071000F82E8E010F5F1F4F0E940D030E94D90219
:1007200080930601809106011F928F93FF92EF92B2
:100730001F930F930E947114C8010E949E0785E3C6
:1007400092E00E949E070F900F900F900F900F90D5
:100750000F90E2CFCF93DF9300D000D0CDB7DEB7BC
:100760000E94420E87E690E00E9470078CE00E9493
:100770005C0680E00E9429060E943906BE016F5F78
:100780007F4F86E091E00E942802809122039091A1
:10079000230324E0969587952A95E1F70E94670F39
:1007A000EDCF1F920F920FB60F9211245F936F93AC
:1007B0007F938F939F93AF93BF93809107018F5F38
:1007C00080930701809107018C3339F4109207015F
:1007D000809108018F5F80930801809108018C331C
:1007E00039F410920801809109018F5F809309010B
:1007F00080910901883139F41092090180910A0130
:100800008F5F80930A0180910B01823041F58091C6
:100810000C0190910D0183709927892B51F48091DF
:100820000C0190910D0164E670E00E941313892B76
:1008300051F480910C0190910D0160E971E00E94EA
:100840001313892B61F480910A018E3141F481E008
:1008500080930A0180910B018F5F80930B0180913F
:100860000B01823041F580910C0190910D01837054
:100870009927892BA1F480910C0190910D0164E6D8
:1008800070E00E941313892BB1F480910C019091B8
:100890000D0160E971E00E941313892B61F08091D2
:1008A0000A018D3141F481E080930A0180910B01AE
:1008B0008F5F80930B0180910B018130C1F080919B
:1008C0000B018330A1F080910B01853081F0809184
:1008D0000B01873061F080910B01883041F08091ED
:1008E0000B018A3021F080910B018C3061F48091F2
:1008F0000A01803241F481E080930A0180910B016A
:100900008F5F80930B0180910B01843061F08091A7
:100910000B01863041F080910B01893021F08091EC
:100920000B018B3061F480910A018F3141F481E039
:1009300080930A0180910B018F5F80930B0180915E
:100940000B018D3061F481E080930B0180910C01EB
:1009500090910D01019690930D0180930C01BF9130
:10096000AF919F918F917F916F915F910F900FBE8B
:100970000F901F901895EF92FF920F9314B817B82D
:100980001AB88FEF85B988B98BB98DE08093810053
:1009900088E09DE3909389008093880082E08093B3
:1009A0006F007894E12CF12C03E020E030E040E08F
:1009B00051E068E372E08AEA93E00E94070D20E0CC
:1009C00030E040E051E06FE372E08BE793E00E949B
:1009D000070D0E940E0E80E090E00F91FF90EF90C7
:1009E0000895FFCF1092B90088E48093B80008956D
:1009F00094EA9093BC009091BC0097FFFCCF90913B
:100A0000B900987F983021F0903111F081E008957D
:100A10008093BB0084E88093BC008091BC0087FF7A
:100A2000FCCF8091B900887F883111F0803471F754
:100A300080E0089584E98093BC008091BC0084FD2F
:100A4000FCCF08958093BB0084E88093BC00809124
:100A5000BC0087FFFCCF9091B900987F81E098326D
:100A600009F480E0089562E080E00E94150700C06C
:100A700062E080E00C941807CF93C82F80915A024F
:100A8000662311F0816001C08E7F80935A028091AD
:100A90005A028D7F80935A0260915A0280E00E9430
:100AA000D30680915A028F7780935A0280915A021E
:100AB0008F7B80935A0280915A028F7D80935A02D5
:100AC00080915A028F7E80935A02C7FF05C08091A1
:100AD0005A02806880935A02C6FF05C080915A026C
:100AE000806480935A02C5FF05C080915A028062DB
:100AF00080935A02C4FF05C080915A02806180939E
:100B00005A0260915A0280E00E94D3060E94330587
:100B100080915A028F7780935A0280915A028F7B7C
:100B200080935A0280915A028F7D80935A0280915D
:100B30005A028F7E80935A02C3FF05C080915A02E9
:100B4000806880935A02C2FF05C080915A02806477
:100B500080935A02C1FF05C080915A02806280933F
:100B60005A02C0FF05C080915A02806180935A02E8
:100B700060915A0280E00E94D3060E943305809162
:100B80005A02806180935A0280915A028062809357
:100B90005A0280915A02806480935A0280915A02CC
:100BA000806880935A0260915A0280E0CF910C9441
:100BB000D306CF9380915A028E7F80935A02809100
:100BC0005A02826080935A0260915A0280E00E9429
:100BD000D30662E080E00E94150700C064E080E078
:100BE0000E94BE06C82F62E080E00E94180700C085
:100BF00062E080E00E94150700C064E080E00E948F
:100C0000BE06C295C07F8F70C82B62E080E00E9454
:100C100018078C2FCF9108950E94D90587FDFCCF2E
:100C200088E090E00197F1F70C94D905CF93C82F95
:100C30000E940C0660E08C2FCF910C943C05611152
:100C400002C0805801C080540C94160681E00C94B8
:100C50001606882321F080915A02877F03C0809175
:100C60005A02886080935A0260915A0280E00C9484
:100C7000D30682E00C941606CF93C82F0E940C0670
:100C8000CA3049F4803410F080E001C080E480581C
:100C9000CF910C94160661E08C2FCF910C943C05FB
:100CA000CF93DF93EC018991882319F00E943C06D1
:100CB000FACFDF91CF9108951F93CF93DF93182F31
:100CC0000E94AD0610925A0260915A0280E00E9482
:100CD000D306E0E0FAEF3197F1F790915A02906273
:100CE00090935A0290915A02906190935A026091A7
:100CF0005A0280E00E94D3060E943305E0E0FEE441
:100D00003197F1F70E943305C0E0D1E0FE01319741
:100D1000F1F70E943305FE013197F1F790915A02E5
:100D20009F7E90935A0260915A0280E00E94D306FF
:100D30000E9433052197F1F788E20E94160688E0A9
:100D40000E9416060E94260686E00E941606812F43
:100D5000DF91CF911F910C9416060E94F20485E357
:100D60008A95F1F7000080E090E0FC01EC5DFC4F1B
:100D70001082019688309105C1F70895883088F473
:100D8000683078F4E82FF0E0EC5DFC4F8081082EAD
:100D9000000C990B02C0959587956A95E2F78170D2
:100DA00008958FEF0895CF93883098F4C62F982F29
:100DB000E82FF0E0EC5DFC4F608387E2890F880F3D
:100DC0000E94F8048C2F0E9422050E941A0580E0E0
:100DD00001C08FEFCF910895CF93DF93982F883084
:100DE00000F56830F0F4E82FF0E0EC5DFC4F808116
:100DF000C1E0D0E001C0CC0F6A95EAF7442311F0BE
:100E0000C82B02C0C095C823C08387E2890F880F12
:100E10000E94F8048C2F0E9422050E941A0580E08F
:100E200001C08FEFDF91CF91089541E00C94EC0663
:100E300040E00C94EC061F920F920FB60F92112413
:100E40002F938F939F93EF93FF938091C000909186
:100E5000C6008871E0915D02EF5FEF7120915C0246
:100E6000E21739F0E0935D02F0E0E05AFD4F908325
:100E700001C082E080935B02FF91EF919F918F917F
:100E80002F910F900FBE0F901F9018951F920F92E9
:100E90000FB60F9211248F939F93EF93FF9390912E
:100EA0005F0280915E02981769F0E0915E02EF5F49
:100EB000EF71E0935E02F0E0E058FD4F8081809397
:100EC000C60005C08091C1008F7D8093C100FF9155
:100ED000EF919F918F910F900FBE0F901F901895DB
:100EE00010925F0210925E0210925D0210925C02FC
:100EF00097FF04C022E02093C0009F779093C50025
:100F00008093C40088E98093C10086E08093C2008A
:100F1000089590915F029F5F9F7120915E029217EA
:100F2000E1F3E92FF0E0E058FD4F808390935F02FA
:100F30008091C10080628093C1000895CF93DF93B8
:100F4000EC018991882319F00E948907FACFDF917B
:100F5000CF9108958FE380937E0080B7877F80BF15
:100F600080B7806880BF83B7817F83BF0FB6F89456
:100F70000F9283B7816083BF85B7806685BF8F7D01
:100F800085BF0F900FBE889513BE0895259A2D9AA0
:100F90002FEF80E792E0215080409040E1F700C0C1
:100FA00000001D9AF5CFFC010396928381832FEFF9
:100FB0003FEF3483238396838583908787831082D2
:100FC0000895FC01118610860895CF93DF939C014C
:100FD000FB01DC011196CD91DC911297D383C28382
:100FE0008C819D81958384838C819D81DC01139606
:100FF0007C936E9312977D836C8331872087F901F0
:1010000080818F5F8083DF91CF9108950F931F932D
:10101000CF93DF938C01FB01808191818F3F2FEF74
:10102000920721F4E801AF81B8850EC0D80113966C
:1010300012962D913C911397E901488159818417AB
:10104000950710F0D901F4CF12968D919C911397CA
:1010500093838283EC01FD83EC83B583A483139691
:10106000FC93EE93129711870087F80180818F5FC0
:101070008083DF91CF911F910F910895CF93DF93DC
:10108000FC01A085B1858281938124813581EC01A9
:101090003D832C83C481D5819B838A8311968D9156
:1010A0009C9112978E179F0721F41296DC93CE9392
:1010B0001197118610868C9181508C938C91DF91C1
:1010C000CF91089531E1FC013083319722E22083F2
:1010D0003197A3E3A0833197608331977083319771
:1010E0001082319760E8608331971082319762E017
:1010F0006083319763E06083319764E06083319768
:1011000065E06083319766E06083319767E06083D4
:10111000319768E06083319769E06083319760E1DF
:10112000608331973083319732E13083319733E1F7
:101130003083319734E13083319735E13083319713
:1011400036E13083319737E13083319738E13083AE
:10115000319739E13083319730E23083319731E292
:10116000308331972083319723E220833197408366
:1011700031975083319726E22083319727E22083ED
:10118000319728E22083319729E22083319720E3A9
:101190002083319721E3208386970895A89520EC3A
:1011A00088E190E00FB6F894A895809360000FBE98
:1011B00020936000A0910403B0910503CD91CDBFB1
:1011C000DD91DEBFFF91EF91DF91CF91BF91AF91A4
:1011D0009F918F917F916F915F914F913F912F914F
:1011E0001F910F91FF90EF90DF90CF90BF90AF9045
:1011F0009F908F907F906F905F904F903F902F9037
:101200001F900F900FBE0F90089581E008950F92E8
:101210000FB6F8940F921F9211242F923F924F9283
:101220005F926F927F928F929F92AF92BF92CF9276
:10123000DF92EF92FF920F931F932F933F934F9361
:101240005F936F937F938F939F93AF93BF93CF934E
:10125000DF93EF93FF93A0910403B09105030DB6C4
:101260000D920EB60D920E94830FA0910403B091CF
:101270000503CD91CDBFDD91DEBFFF91EF91DF91F1
:10128000CF91BF91AF919F918F917F916F915F911E
:101290004F913F912F911F910F91FF90EF90DF9011
:1012A000CF90BF90AF909F908F907F906F905F9006
:1012B0004F903F902F901F900F900FBE0F9008956A
:1012C0000F920FB6F8940F921F9211242F923F9213
:1012D0004F925F926F927F928F929F92AF92BF9246
:1012E000CF92DF92EF92FF920F931F932F933F9332
:1012F0004F935F936F937F938F939F93AF93BF931E
:10130000CF93DF93EF93FF93A0910403B091050374
:101310000DB60D920EB60D9213BE0E944C0E8111A9
:101320000E94830FA0910403B0910503CD91CDBF1E
:10133000DD91DEBFFF91EF91DF91CF91BF91AF9132
:101340009F918F917F916F915F914F913F912F91DD
:101350001F910F91FF90EF90DF90CF90BF90AF90D3
:101360009F908F907F906F905F904F903F902F90C5
:101370001F900F900FBE0F9008950E94600918955E
:101380000FB6F8940F92FC01928D0F900FBE81E082
:10139000911180E008950F931F93CF93DF93EC0199
:1013A000042F1A8D8C8D81110CC088819981892B15
:1013B00009F03EC08A819B810E94A6101B821A827E
:1013C00038C0482F50E0011115C08C819D810E94CA
:1013D0005A142C8D8C819D81820F911D9D838C834D
:1013E0002A813B818217930718F1888199819D8317
:1013F0008C831EC08E819F810E945A148C8D90E038
:101400009195819591092E813F81280F391F3F8346
:101410002E83488159812417350730F42A813B8176
:10142000820F931F9F838E83023011F4111111508C
:1014300080E01F5F1A8FDF91CF911F910F91089568
:10144000FC01CB01448D4423A1F050E0268137817B
:10145000240F351F37832683628173812617370750
:1014600020F02081318137832683668177810C9437
:101470005A140895EF92FF921F93CF93DF93EC01DC
:101480000FB6F8940F921E8D7C0181E1E80EF11CDD
:1014900011165CF48989882341F0C7010E9413105A
:1014A00081110E9494101150F3CF8FEF8E8F0F9007
:1014B0000FBE0FB6F8940F921D8D7E0188E0E80EE6
:1014C000F11C11165CF48885882341F0C7010E9445
:1014D000131081110E9494101150F3CF8FEF8D8F54
:1014E0000F900FBEDF91CF911F91FF90EF90089565
:1014F000CF93DF93EC010FB6F8940F9228813981D6
:101500009B8D4C8D949FC0011124F901E80FF91FA8
:10151000FB83EA831A8E3D832C83841B9109820FFF
:10152000931F9F838E838FEF8D8F8E8F61110CC0E1
:101530008885882389F0CE0108960E94131088239D
:1015400059F00E94070908C0CE0108960E94D307EF
:10155000CE0141960E94D3070F900FBE81E0DF912C
:10156000CF910895EF92FF921F93CF93DF931F9235
:10157000CDB7DEB7182F662321F0869FC001112456
:1015800002C080E090E04F9669830E94E3127C01E4
:101590006981009789F0611104C0FC019183808307
:1015A00004C04F96F70191838083F701138F648FF6
:1015B00061E0C7010E94780AC7010F90DF91CF91C7
:1015C0001F91FF90EF900895AF92BF92CF92DF925C
:1015D000FF920F931F93CF93DF9300D000D01F9201
:1015E000CDB7DEB78C016B015D834C83F22E90E0AA
:1015F000580188E0A80EB11C0FB6F8940F92F801BC
:10160000228D838D281718F0F2E0FF1214C04F2DA1
:10161000B601C8010E94CB09F8019189992321F0F4
:10162000C80141960E94131081110E9407090F9072
:101630000FBE81E050C02C813D81232B19F40F9007
:101640000FBE48C0911104C0CE0101960E945310F4
:101650000F900FBE0E943C0E0FB6F8940F92F80147
:10166000858D8F3F09F4158EF801868D8F3F09F423
:10167000168E0F900FBEBE016C5F7F4FCE0101969C
:101680000E945E10811121C00FB6F8940F92F801EC
:10169000928D838D0F900FBE981311C06C817D8148
:1016A000C5010E94E10FC8010E943A0A0E94F80E8B
:1016B000882311F091E0A0CF0E940709FBCFC80159
:1016C0000E943A0A0E94F80EF5CFC8010E943A0A19
:1016D0000E94F80E80E00F900F900F900F900F90E7
:1016E000DF91CF911F910F91FF90DF90CF90BF902E
:1016F000AF900895EF92FF921F93CF93DF93EC0189
:101700009A8D8B8D981710F02230E1F47A011E8D9E
:10171000422FCE010E94CB091F3F81F48989882383
:1017200079F0CE0141960E941310882349F0E1140C
:10173000F10431F081E0F701808305C01F5F1E8F47
:1017400081E001C080E0DF91CF911F91FF90EF9089
:101750000895AF92BF92CF92DF92FF920F931F93A3
:10176000CF93DF9300D000D01F92CDB7DEB78C01AE
:101770006B015D834C8390E0580181E1A80EB11CA0
:101780000FB6F8940F92F801F28CFF20A9F0B60181
:10179000C8010E94200AFA94F801F28E80858823FD
:1017A00039F0C80108960E94131081110E940709A0
:1017B0000F900FBE81E050C02C813D81232B19F486
:1017C0000F900FBE48C0911104C0CE0101960E9437
:1017D00053100F900FBE0E943C0E0FB6F8940F925C
:1017E000F801858D8F3F09F4158EF801868D8F3FA6
:1017F00009F4168E0F900FBEBE016C5F7F4FCE01B5
:1018000001960E945E1081111CC0C8010E94C0098F
:10181000882389F06C817D81C5010E94E10FC80198
:101820000E943A0A0E94F80E882311F091E0A8CF96
:101830000E940709FBCFC8010E943A0A0E94F80ED5
:10184000F5CFC8010E943A0A0E94F80EC8010E9412
:10185000C009882359F380E00F900F900F900F90EC
:101860000F90DF91CF911F910F91FF90DF90CF905C
:10187000BF90AF900895CF93DF93EC010FB6F8942B
:101880000F928D8D8F3F09F41D8E8E8D8F3F09F441
:101890001E8E0F900FBE8A8D811104C0CE0141961D
:1018A0000E94F30FCE01DF91CF910C943A0AE091A0
:1018B000CC02F091CD028081811103C08FEF9FEFA8
:1018C0000CC0E091CC02F091CD020580F681E02DB4
:1018D0000680F781E02D828193819093A40280930A
:1018E000A3020895EF92FF920F931F93CF93DF937C
:1018F0001F92CDB7DEB77C010091AB021091AC0214
:101900008091040390910503029669830E943E082A
:1019100069818FEFE816F80699F4662389F06091E3
:101920000403709105036E5F7F4F8EEA92E00F9083
:10193000DF91CF911F910F91FF90EF900C94E507ED
:10194000E00EF11EE0910403F0910503F382E282C0
:101950006091040370910503E016F10678F480911C
:10196000CA029091CB026E5F7F4F0F90DF91CF91B3
:101970001F910F91FF90EF900C9406088091CC027C
:101980009091CD026E5F7F4F0E9406088091A30266
:101990009091A402E816F90620F4F092A402E092D5
:1019A000A3020F90DF91CF911F910F91FF90EF90C5
:1019B00008958091B702882309F10FB6F8940F9229
:1019C000E091BD02F091BE02C681D781CE010296A0
:1019D0000E943E088091AD0281508093AD028091BB
:1019E000B70281508093B7020F900FBE8F89988DF8
:1019F0000E940213CE010E940213DBCF8091E0020D
:101A0000823010F00E9407090E94AA07D2CF5F928D
:101A10006F927F928F929F92AF92BF92CF92DF92FE
:101A2000EF92FF920F931F93CF93DF935C013B01E3
:101A30006A014901502ECA010E94E3128C01892BD0
:101A400009F4DBC088E290E00E94E312EC01892BEC
:101A5000B1F0188F0F8BA60165EA70E0C8010E94F3
:101A6000631421E0C21AD1088F89988DC80ED91E3F
:101A7000BE01675E7F4FF301C301089607C0C8012E
:101A80000E940213BAC0E817F90749F09F0141917B
:101A9000DB014D93BD01D9012C912111F4CF18A286
:101AA000052D043008F003E00E8B09A31AA23E01B5
:101AB000B2E06B0E711CC3010E94E107CE010C96CF
:101AC0000E94E107D987C88784E090E0801B9109D4
:101AD0009D878C87DB8BCA8B1BA21CA21DA21EA21A
:101AE0001FA2A401B501C6010E94620899838883E0
:101AF000E114F10419F0F701D183C0830FB6F89413
:101B00000F928091AD028F5F8093AD0280910403AC
:101B100090910503892BD1F5D0930503C09304035D
:101B20008091AD02813009F041C080EE92E00E94C8
:101B3000D30789EE92E00E94D30782EF92E00E94E1
:101B4000D3078BEF92E00E94D30787ED92E00E94CB
:101B5000D3078EEC92E00E94D30781EC92E00E94C2
:101B6000D30788EB92E00E94D3078EEA92E00E94AE
:101B7000D30787ED92E09093CD028093CC028EEC58
:101B800092E09093CB028093CA0210C08091A90288
:101B900081110CC0E0910403F091050396898E89B0
:101BA000891720F0D0930503C09304038091A50208
:101BB0008F5F8093A5028E899091AA02981710F4E6
:101BC0008093AA02F9E08F9FC0011124B3018052D3
:101BD0009D4F0E94E5070F900FBE8091A9028823B8
:101BE00051F0E0910403F091050396898E899817CE
:101BF00010F40E94070981E001C08FEFDF91CF91BF
:101C00001F910F91FF90EF90DF90CF90BF90AF901A
:101C10009F908F907F906F905F900895EF92FF92CA
:101C20000F9381EAE82E82E0F82E00E020E030E019
:101C300045E550E068E472E089ED9CE00E94070D04
:101C40008130B1F40E943311813091F4F8942FEF78
:101C50003FEF3093A4022093A3028093A902109235
:101C6000AC021092AB020F91FF90EF900C94CE0853
:101C70000F91FF90EF9008958091A0028F5F809365
:101C8000A00208950FB6F8940F928091AB02909144
:101C9000AC020F900FBE0895CF92DF92EF92FF92A9
:101CA0000F931F93CF93DF938091A00281118CC07B
:101CB0000091AB021091AC020F5F1F4F1093AC026A
:101CC0000093AB0201151105B9F48091CC029091FB
:101CD000CD022091CA023091CB023093CD022093E5
:101CE000CC029093CB028093CA028091A6028F5FB0
:101CF0008093A6020E94570C8091A3029091A402A7
:101D0000C0E00817190708F44FC0D9E0E091CC02F1
:101D1000F091CD028081811103C08FEF9FEF11C040
:101D2000E091CC02F091CD020580F681E02DE680B5
:101D3000F780D70112968D919C9113970817190778
:101D400028F49093A4028093A3022EC06701B2E00E
:101D5000CB0ED11CC6010E943E08F70184899589EB
:101D6000892B21F0C7010C960E943E08D701569698
:101D70009C918091AA02891710F49093AA02D99F8E
:101D8000C0011124B60180529D4F0E94E507E091E9
:101D90000403F0910503D70156969C918689981704
:101DA00008F4B4CFC1E0B2CFE0910403F091050391
:101DB000E689B9E0EB9FF0011124E052FD4F8081EC
:101DC000823040F0C1E006C08091A8028F5F80930E
:101DD000A802C0E08091A7028111C1E08C2FDF91A1
:101DE000CF911F910F91FF90EF90DF90CF900895CA
:101DF000EF92FF920F931F93CF93DF930FB6F89458
:101E00000F928091A00281508093A0028091A00245
:101E1000882311F080E052C08091AD028823D1F375
:101E2000C0E0D0E089E0F82EEE24E3948091C10276
:101E3000882351F1E091C602F091C702C681D78193
:101E4000CE010C960E943E088E010E5F1F4FC80106
:101E50000E943E089E898091AA02891710F49093EF
:101E6000AA02F99EC0011124B80180529D4F0E9420
:101E7000E507E0910403F09105039E898689981790
:101E8000A8F2E092A702D2CFCD2B11F00E94570CFE
:101E9000C091A802CC2351F0D1E00E944C0E8111D8
:101EA000D093A702C150C9F71092A8028091A7024F
:101EB000882309F4AFCF0E94070981E00F900FBE7D
:101EC000DF91CF911F910F91FF90EF900895CF93E5
:101ED000DF9300D0CDB7DEB7009719F40E94070951
:101EE0000DC089839A830E943C0E60E089819A81AB
:101EF0000E94720C0E94F80E882381F30F900F90BD
:101F0000DF91CF9108958091A002882321F081E094
:101F10008093A70208951092A702A0910403B091A4
:101F20000503E0910403F09105032D913C9187890D
:101F3000908D8217930760F0609104037091050300
:101F40008091040390910503675E7F4F0E94F10426
:101F50008091AA0269E0482F50E0649F9001659F3C
:101F6000300D1124F901E052FD4F9081911102C012
:101F70008150F1CFA181B28112960D90BC91A02D1C
:101F8000B283A1832D513D4FA217B30731F41296AE
:101F90002D913C9113973283218399E0949FF00116
:101FA000959FF00D1124E052FD4F0180F281E02D4C
:101FB0002681378130930503209304038093AA027E
:101FC0000895CF93DF93EB01209104033091050333
:101FD000B901645F7F4F0E94060861E0CE01DF9186
:101FE000CF910C94720C0F931F93CF93DF931F929A
:101FF000CDB7DEB78B012091040330910503B90101
:10200000645F7F4F49830E94E5074981442311F0B3
:102010000FEF1FEF642FC8010F90DF91CF911F9139
:102020000F910C94720C0F931F93CF93DF93DC01ED
:102030001596ED91FC911697C681D7818E01045FAC
:102040001F4FC8010E943E088091A002811114C058
:102050000A501109C8010E943E089E898091AA0277
:10206000891710F49093AA02B9E09B9FC001112434
:10207000B80180529D4F03C0B80181EC92E00E94EC
:10208000E507E0910403F09105039E89868989178D
:1020900020F481E08093A70201C080E0DF91CF911E
:1020A0001F910F9108952091A602FC012083209199
:1020B000AB023091AC02328321830895CF93DF933A
:1020C0000FB6F8940F924091AB025091AC02DC0134
:1020D0001196ED91FC911297EB01288139812F3FE8
:1020E000DFEF3D07C9F0B091A602EC01A881BA1755
:1020F00019F04E175F0790F44E1B5F0BFB01421760
:10210000530738F4241B350B318320830E9453106E
:1021100003C01182108202C080E001C081E00F90F4
:102120000FBEDF91CF91089581E08093A7020895BB
:102130008091A902882331F08091A002882321F0A8
:1021400080E0089581E0089582E008950F931F9341
:10215000CF93DF93FC01892B11F480E02CC082A186
:10216000815082A3268991A12917B9F38111F5CF56
:10217000EF018F010E5F1F4FC8010E943E0899A119
:102180009E8B492F50E024E030E0241B350B3D8727
:102190002C878091AA02891710F49093AA0229E053
:1021A000249FC001259F900D1124B80180529D4F9E
:1021B0000E94E50781E0DF91CF911F910F91089573
:1021C0000FB6F8940F9280910A0390910B03892B1C
:1021D000E9F489E193E00E94D30780E193E00E9453
:1021E000D30789E193E090930F0380930E0380E17E
:1021F00093E090930D0380930C0340E065E08AE048
:102200000E94B20A90930B0380930A030F900FBEB3
:102210000895FC017383628391878087461757076F
:1022200078F0421B530B8485958548175907C8F4ED
:10223000BF016E5F7F4F80910C0390910D030DC025
:102240004217530718F46217730758F4BF016E5F03
:102250007F4F80910E0390910F030E94060880E04B
:10226000089581E00895EF92FF920F930E94E0108D
:1022700080910A0390910B03892B81F088E0E82E6E
:1022800083E0F82E03E020E030E045E550E06DE427
:1022900072E083EE91E10E94070D01C080E00F9192
:1022A000FF90EF9008950F931F93CF93DF9300D08B
:1022B00000D01F92CDB7DEB7A0910A03B0910B03F7
:1022C000109729F1F90169835B834A839D838C838D
:1022D0006630A4F40E949810E0910A03F0910B0379
:1022E00020E0823011F4A80102C040E050E0BE01BD
:1022F0006F5F7F4FCF010E94E40A0AC020E0AF0168
:10230000BE016F5F7F4FCD010E947A0B01C080E05C
:102310000F900F900F900F900F90DF91CF911F9122
:102320000F910895EF92FF920F931F93CF93DF9336
:10233000E0910E03F0910F038081882389F10580DD
:10234000F681E02DE080F180C681D7818E010E5F9D
:102350001F4FC8010E943E08E989FA89CE010995FC
:102360008E85813029F72C853D852E0D3F1DE21687
:10237000F30660F43B832A83D987C887B80180912C
:102380000E0390910F030E940608D2CF00E010E0E8
:1023900020E030E0A70160E0CE010E945311C8CFD9
:1023A00080910C0390910D0390930F0380930E0383
:1023B000F0930D03E0930C03DF91CF911F910F91E8
:1023C000FF90EF900895CF93DF93CDB7DEB72797B7
:1023D0000FB6F894DEBF0FBECDBFE0910E03F091B3
:1023E0000F038081DD24D394882339F0D12C05801C
:1023F000F681E02DE080F18002C0E12CF12C0E94FA
:102400003C0E0E94420E8C018091060390910703BE
:102410000817190720F40E94921181E001C080E0A2
:102420001093070300930603811150C0D11036C0EA
:102430000E151F05D0F10E94F80EE0910E03F091E9
:102440000F030580F681E02DC680D780C601029675
:102450000E943E08D6011E968C911E978130B1F4E1
:102460001C966D917C911D976E0D7F1D9701A801A3
:10247000C6010E940911882349F000E010E020E025
:1024800030E0A70160E0C6010E945311D6015196C9
:10249000ED91FC915297C60109951EC0E0910C0385
:1024A000F0910D03808141E0811140E0B701601B94
:1024B000710B80910A0390910B030E943B0C0E94C8
:1024C000F80E811109C00E94070906C00E94F80E8B
:1024D00003C0898187FF0EC040E050E0BE016F5FFE
:1024E0007F4F80910A0390910B030E94A90B8111E9
:1024F000F0CF73CFEC80FD80F70182859385892B27
:1025000021F0C70102960E943E080E94420EAC01D3
:1025100080910603909107034817590730F44E83C2
:102520005F830E9492115F814E8150930703409315
:102530000603E9810E2FEE0F110B220B330B0A302D
:10254000110550F6F801E05CFF4F0C9427132A8127
:102550003B81D7011C966D917C911D97620F731F73
:10256000C7010E940911882309F4B6CFD7015196FB
:10257000ED91FC915297C7010995F701868581304D
:1025800009F0AACF448555858A819B81480F591F40
:1025900000E010E020E030E060E0C7010E9453114D
:1025A0009BCF6A817B81D7011D967C936E931C978C
:1025B000640F751F9A01C7010E9409118DCFC701D1
:1025C0000E94021389CF0F931F93CF93DF9300D004
:1025D000CDB7DEB789839A830E943C0E89819A81A8
:1025E0000E942D138C010E94F80E0115110511F4A3
:1025F0000E94C607C8010F900F90DF91CF911F91E5
:102600000F910895CF93DF93009751F0EC010E9452
:102610003C0ECE010E94C213DF91CF910C94F80EB4
:10262000DF91CF910895AA1BBB1B51E107C0AA1FE0
:10263000BB1FA617B70710F0A61BB70B881F991F63
:102640005A95A9F780959095BC01CD010895EE0F9C
:10265000FF1F0590F491E02D0994CF93DF93823012
:10266000910510F482E090E0E0912E03F0912F03A9
:1026700020E030E0C0E0D0E0309711F1408151819E
:1026800048175907C0F04817590761F482819381B0
:10269000209719F09B838A832BC090932F038093FC
:1026A0002E0326C02115310519F04217530718F4DF
:1026B0009A01BE01DF01EF010280F381E02DDCCF42
:1026C0002115310509F1281B390B2430310590F40F
:1026D00012968D919C9113976115710521F0FB0164
:1026E0009383828304C090932F0380932E03FD0174
:1026F000329644C0FD01E20FF31F81939193225063
:1027000031092D933C933AC020912C0330912D0335
:10271000232B41F4209102013091030130932D03CA
:1027200020932C03209100013091010121153105E6
:1027300041F42DB73EB74091040150910501241B8F
:10274000350BE0912C03F0912D03E217F307A0F471
:102750002E1B3F0B2817390778F0AC014E5F5F4FF7
:102760002417350748F04E0F5F1F50932D034093F9
:102770002C038193919302C0E0E0F0E0CF01DF9160
:10278000CF9108950F931F93CF93DF93009709F490
:102790008CC0FC0132971382128200912E0310919B
:1027A0002F030115110581F420813181820F931FC0
:1027B00020912C0330912D032817390779F5F093D8
:1027C0002D03E0932C0371C0D80140E050E0AE1718
:1027D000BF0750F412962D913C911397AD0121152E
:1027E000310509F1D901F3CF9D01DA013383228349
:1027F00060817181860F971F8217930769F4EC013E
:1028000028813981260F371F2E5F3F4F3183208368
:102810008A819B8193838283452B29F4F0932F0334
:10282000E0932E0342C01396FC93EE931297ED01B2
:10283000499159919E01240F351FE217F30771F456
:1028400080819181840F951F029611969C938E939F
:102850008281938113969C938E931297E0E0F0E02F
:10286000D80112968D919C911397009719F0F80159
:102870008C01F6CF8D919C9198012E5F3F4F820F76
:10288000931F20912C0330912D032817390769F4E9
:10289000309729F410922F0310922E0302C0138256
:1028A000128210932D0300932C03DF91CF911F917F
:1028B0000F910895FB01DC0102C001900D9241507F
:1028C0005040D8F70895DC0101C06D93415050404D
:1028D000E0F70895FB01DC0101900D920020E1F783
:1028E0000895AEE0B0E0E7E7F4E10C9420170D891D
:1028F0001E8986E08C831A8309838FEF9FE79E836E
:102900008D83AE01475E5F4F6F89788DCE01019652
:102910000E9494142F813885F801E20FF31F108272
:102920002E96E4E00C943C17ACE0B0E0EAE9F4E168
:102930000C9412177C016B018A01FC01178216822C
:10294000838181FFBDC1CE0101964C01F7019381C6
:10295000F60193FD859193FF81916F01882309F41E
:10296000ABC1853239F493FD859193FF81916F015D
:10297000853229F4B70190E00E947C16E7CF512CF4
:10298000312C20E02032A0F48B3269F030F4803218
:1029900059F0833269F420612CC08D3239F08033D4
:1029A00039F4216026C02260246023C0286021C041
:1029B00027FD27C030ED380F3A3078F426FF06C0E7
:1029C000FAE05F9E300D1124532E13C08AE0389E2A
:1029D000300D1124332E20620CC08E3221F426FDDE
:1029E0006BC1206406C08C3611F4206802C08836A2
:1029F00041F4F60193FD859193FF81916F0181115F
:102A0000C1CF982F9F7D9554933028F40C5F1F4FB2
:102A1000FFE3F9830DC0833631F0833771F08335DE
:102A200009F05BC022C0F801808189830E5F1F4FCF
:102A300044244394512C540115C03801F2E06F0E28
:102A4000711CF801A080B18026FF03C0652D70E0E5
:102A500002C06FEF7FEFC5012C870E9471162C0119
:102A600083012C852F77222E17C03801F2E06F0EDC
:102A7000711CF801A080B18026FF03C0652D70E0B5
:102A800002C06FEF7FEFC5012C870E9466162C01F4
:102A90002C852068222E830123FC1BC0832D90E00F
:102AA00048165906B0F4B70180E290E00E947C1607
:102AB0003A94F4CFF50127FC859127FE81915F01BF
:102AC000B70190E00E947C1631103A94F1E04F1A61
:102AD00051084114510471F7E5C0843611F089366C
:102AE00039F5F80127FF07C06081718182819381E8
:102AF0000C5F1F4F08C060817181072E000C880B8E
:102B0000990B0E5F1F4F2F76722E97FF09C090957D
:102B10008095709561957F4F8F4F9F4F2068722EE3
:102B20002AE030E0A4010E94B416A82EA81844C0E0
:102B3000853729F42F7EB22E2AE030E025C0F22F0F
:102B4000F97FBF2E8F36C1F018F4883579F0B4C004
:102B5000803719F0883721F0AFC02F2F2061B22EB7
:102B6000B4FE0DC08B2D8460B82E09C024FF0AC0AE
:102B70009F2F9660B92E06C028E030E005C020E106
:102B800030E002C020E132E0F801B7FE07C060810A
:102B90007181828193810C5F1F4F06C060817181BA
:102BA00080E090E00E5F1F4FA4010E94B416A82E93
:102BB000A818FB2DFF777F2E76FE0BC0372D3E7FAA
:102BC000A51450F474FE0AC072FC08C0372D3E7E76
:102BD00005C0BA2C372D03C0BA2C01C0B52C34FF68
:102BE0000DC0FE01EA0DF11D8081803311F4397EA4
:102BF00009C032FF06C0B394B39404C0832F867813
:102C000009F0B39433FD13C030FF06C05A2CB3143F
:102C100018F4530C5B18B32CB31468F4B70180E2BA
:102C200090E03C870E947C16B3943C85F5CFB314AA
:102C300010F43B1801C0312C34FF12C0B70180E3FF
:102C400090E03C870E947C163C8532FF17C031FD26
:102C500003C088E790E002C088E590E0B7010CC0AF
:102C6000832F867859F031FF02C08BE201C080E2E9
:102C700037FD8DE2B70190E00E947C16A51438F470
:102C8000B70180E390E00E947C165A94F7CFAA9493
:102C9000F401EA0DF11D8081B70190E00E947C16DD
:102CA000A110F5CF332009F451CEB70180E290E0B6
:102CB0000E947C163A94F6CFF7018681978102C074
:102CC0008FEF9FEF2C96E2E10C942E17FC010590FC
:102CD000615070400110D8F7809590958E0F9F1F1E
:102CE0000895FC016150704001900110D8F7809563
:102CF00090958E0F9F1F08950F931F93CF93DF938F
:102D0000FB01238121FD03C08FEF9FEF28C022FF2D
:102D100016C046815781248135814217530744F4F8
:102D2000A081B1819D012F5F3F4F318320838C9320
:102D3000268137812F5F3F4F3783268310C0EB01F9
:102D4000092F182F0084F185E02D0995892BE1F6D4
:102D50008E819F8101969F838E83812F902FDF919B
:102D6000CF911F910F910895FA01AA27283051F1B0
:102D7000203181F1E8946F936E7F6E5F7F4F8F4FAC
:102D80009F4FAF4FB1E03ED0B4E03CD0670F781F0B
:102D9000891F9A1FA11D680F791F8A1F911DA11DF0
:102DA0006A0F711D811D911DA11D20D009F4689429
:102DB0003F912AE0269F11243019305D3193DEF6D1
:102DC000CF010895462F4770405D4193B3E00FD087
:102DD000C9F7F6CF462F4F70405D4A3318F0495D72
:102DE00031FD4052419302D0A9F7EACFB4E0A69555
:102DF0009795879577956795BA95C9F70097610577
:102E0000710508959B01AC010A2E069457954795CC
:102E100037952795BA95C9F7620F731F841F951FC1
:102E2000A01D08952F923F924F925F926F927F92D2
:102E30008F929F92AF92BF92CF92DF92EF92FF92CA
:102E40000F931F93CF93DF93CDB7DEB7CA1BDB0B76
:102E50000FB6F894DEBF0FBECDBF09942A8839881B
:102E600048885F846E847D848C849B84AA84B98422
:102E7000C884DF80EE80FD800C811B81AA81B9812E
:102E8000CE0FD11D0FB6F894DEBF0FBECDBFED0142
:062E90000895F894FFCF45
:102E9600000030032000FF0410061F0CE1074A6102
:102EA6006E000046656200004D617200004170725E
:102EB60000004D617900004A756E00004A756C008D
:102EC60000417567000053657000004F6374000091
:102ED6004E6F760000446563000020202000004FFE
:102EE60046460000204F4E00002563256325632DCE
:102EF6002532647C2532643A2532643A25326425CB
:102F06006300253364737C253464636D7C256325F7
:102F16006325632563006D656E7520776B74207479
:102F2600676C2031006D656E7520776B7420746751
:102F36006C203200756261682077616B7475203190
:102F460000756261682077616B7475203200756266
:102F560061682074616E6767616C2031007562611B
:102F6600682074616E6767616C20320070726F6DE5
:102F760070742077616B747520310070726F6D709C
:102F8600742077616B747520320070726F6D707487
:102F96002074616E6767616C20310070726F6D70AE
:102FA600742074616E6767616C2032000102034110
:102FB60004050642070809432A0023446173646630
:102FC6003A202564000D0A005265644C45440047CA
:102FD6007265656E4C45440049444C4500546D721B
:062FE60020537663000099
:00000001FF
