:100000000C9463000C9480000C94880E0C94800077
:100010000C9480000C9480000C94DF130C94E10C81
:100020000C9480000C9480000C9480000C943A0D89
:100030000C9480000C9480000C9480000C94800040
:100040000C943F0E0C9480000C943D110C9468119C
:100050000C9480000C9480000C9480000C94800020
:100060000C9480000C94800063029C02B202FF0298
:1000700046038D03D3031C046504AE04F304790521
:10008000C205050646068706C80605075907A407E0
:10009000DD0716084B089808DD0816094F09840982
:1000A000D109F9093E0A780AB50AEB0A3E0B8A0B18
:1000B000650B011D011D011DC61C2B1D391D011DD8
:1000C000011DC61C2B1D11241FBECFEFD8E0DEBFC3
:1000D000CDBF13E0A0E0B1E0E6E6F3E402C0059096
:1000E0000D92A03DB107D9F724E0A0EDB3E001C027
:1000F0001D92A83CB207E1F70E940F0C0C94B121AD
:100100000C94000060E080E00E943A10E7E1F1E02A
:1001100001900020E9F73197BF016751714087E1F5
:1001200091E00C94B21061E080E00E943A10E6E0A9
:10013000F1E001900020E9F73197BF01665071406E
:1001400086E091E00C94B2100E9482000C9493001F
:10015000803130F4E82FF0E0E55CFE4F80810895B7
:100160008FEF089583FF02C0209A01C0209882FF7C
:1001700002C0219A01C0219881FF02C0229A01C0C9
:10018000229880FF02C0239A08952398089583FF40
:1001900002C0289A01C0289882FF02C0299A01C093
:1001A000299881FF02C02A9A01C02A9880FF02C0C4
:1001B0002B9A08952B980895CF92DF92EF92FF9299
:1001C0000F931F93CF938091B3048093B6045498F8
:1001D0005598569857985C9A5D9A5E9A5F9A00E097
:1001E00010E088E0E82EF12C97EFC92ED12CC02F1B
:1001F000C701002E02C0959587950A94E2F70E94E8
:10020000B200C601002E02C0959587950A94E2F7C8
:100210000E94C70084E04C990AC08FE99FE00197D3
:10022000F1F700C000004C9B30C08FEF2FC04D99FC
:100230000AC08FE99FE00197F1F700C000004D99D7
:10024000F4CF84E00BC04E990BC08FE99FE001977B
:10025000F1F700C000004E99E8CF88E08C0F16C07F
:100260004F990AC08FE99FE00197F1F700C00000A5
:100270004F99DBCF8CE0F2CF815069F60F5F1F4FB3
:100280000430110509F0B3CFD0CF8C2FCF911F913F
:100290000F91FF90EF90DF90CF9008958091B3047D
:1002A0008F3F21F09091B604981721F01092B80476
:1002B0001092B70408958091B804813061F028F05D
:1002C0008230B1F08330D1F008958091B3048F3F34
:1002D00009F181E018C09091B3049F3F31F092E0A2
:1002E0009093B8048093B70408951092B8040895C9
:1002F0008091B3048F3F71F083E005C08091B30417
:100300008F3F21F082E08093B80408951092B804E2
:100310001092B70408950E9455020E94A400809193
:10032000B2048093BB040895CF93C0912A01209119
:10033000D8033091D9038091280190912901821727
:10034000930730F02091D8033091D903821B930B8F
:100350009093B5048093B404C13461F42091B40443
:100360003091B5048091D0039091D10328173907BB
:1003700058F406C0CD3441F48091B104813021F4A9
:1003800081E08093DA0302C01092DA031092B00485
:100390001092A8041092A9041092AA041092AB041F
:1003A0001092AC041092AD041092AE041092AF04FF
:1003B0008091B7041F928F938091DB031F928F93DC
:1003C0008091DC031F928F938091DD031F928F93A6
:1003D00080912D011F928F9380912E011F928F93F8
:1003E0008BE491E09F938F9387E191E09F938F93AC
:1003F0000E94D91E80912B0190912C011F92CF93C6
:100400002091DA031F922F932091B5042F9320910E
:10041000B4042F939F938F9382E691E09F938F93E1
:1004200086E091E09F938F930E94D91E8DB79EB76F
:100430004C960FB6F8949EBF0FBE8DBFCF91089516
:100440008091D1038F938091D0038F93809132015B
:100450008F93809131018F93809130018F938091A0
:100460002F018F9383E791E09F938F9387E191E032
:100470009F938F930E94D91E809129018F93809121
:1004800028018F9383E891E09F938F9386E091E01A
:100490009F938F930E94D91E8DB79EB740960FB63B
:1004A000F8949EBF0FBE8DBF0895E091DF038E2F9D
:1004B00090E08532910510F00C94B70BFC01EC5CD8
:1004C000FF4F0C948F1D0E9494018091B2048A32D8
:1004D00039F48091B804813011F00C94B70B09C045
:1004E000813451F48091B804813011F00C94B70B31
:1004F00082E08093DF030895823441F48091B80450
:10050000813011F00C94B70B82E1F3CF833441F4C6
:100510008091B804813011F00C94B70B8CE1E9CFD5
:10052000843411F00C94B70B8091B804813011F031
:100530000C94B70B82E2DDCF0E9420028091B704B9
:100540009091B204813029F49A3211F00C94B50BD9
:1005500008959F3F11F00C94B70B81110C94B70BC9
:100560000C94B50B63E971E087E191E00E94D21E23
:100570008091AF041F928F938091AE041F928F934E
:100580008091AD041F928F938091AC041F928F9342
:100590008091AB041F928F938091AA041F928F9336
:1005A0008091A9041F928F938091A8041F928F932A
:1005B00084EA91E09F938F9386E091E09F938F93DD
:1005C0000E94D91E8091B2042DB73EB72C5E3F4FDA
:1005D0000FB6F8943EBF0FBE2DBF8A3008F07CC224
:1005E0009091B804913011F00C94B70B9091B00435
:1005F000E92FF0E0E855FB4F808383E0BDC2809196
:10060000AF041F928F938091AE041F928F938091BD
:10061000AD041F928F938091AC041F928F938091B1
:10062000AB041F928F938091AA041F928F938091A5
:10063000A9041F928F938091A8041F928F938DEB32
:1006400091E09F938F9386E091E09F938F930E9418
:10065000D91E8091B2042DB73EB72C5E3F4F0FB626
:10066000F8943EBF0FBE2DBF8A3008F035C290917E
:10067000B804913011F00C94B70B9091B004E92FAD
:10068000F0E0E855FB4F808384E076C28091AF04B0
:100690001F928F938091AE041F928F938091AD042F
:1006A0001F928F938091AC041F928F938091AB0423
:1006B0001F928F938091AA041F928F938091A90417
:1006C0001F928F938091A8041F928F9384EA91E0E8
:1006D0009F938F9386E091E09F938F930E94D91E02
:1006E0008091B2042DB73EB72C5E3F4F0FB6F89401
:1006F0003EBF0FBE2DBF8A3008F0EEC19091B80406
:10070000913011F00C94B70B9091B004E92FF0E008
:10071000E855FB4F808385E02FC28091AF041F9284
:100720008F938091AE041F928F938091AD041F929E
:100730008F938091AC041F928F938091AB041F9292
:100740008F938091AA041F928F938091A9041F9286
:100750008F938091A8041F928F938DEB91E09F93CC
:100760008F9386E091E09F938F930E94D91E809192
:10077000B2042DB73EB72C5E3F4F0FB6F8943EBF84
:100780000FBE2DBF8A3008F0A7C19091B8049130F8
:1007900009F0EDC79091B004E92FF0E0E855FB4F68
:1007A000808386E0E9C18091AF041F928F9380918E
:1007B000AE041F928F938091AD041F928F9380910E
:1007C000AC041F928F938091AB041F928F93809102
:1007D000AA041F928F938091A9041F928F938091F6
:1007E000A8041F928F9384EA91E09F938F9386E0F1
:1007F00091E09F938F930E94D91E8091B2042DB7F0
:100800003EB72C5E3F4F0FB6F8943EBF0FBE2DBFD4
:100810008A3008F061C19091B804913009F0A7C7FF
:100820009091B004E92FF0E0E855FB4F80839F5F83
:100830009093B00487E05DCE8091AF041F928F93B8
:100840008091AE041F928F938091AD041F928F937D
:100850008091AC041F928F938091AB041F928F9371
:100860008091AA041F928F938091A9041F928F9365
:100870008091A8041F928F938DEB91E09F938F93AB
:1008800086E091E09F938F930E94D91E8091B204DD
:100890002DB73EB72C5E3F4F0FB6F8943EBF0FBE4C
:1008A0002DBF8A3008F018C19091B804913009F03A
:1008B0005EC79091B004E92FF0E0E855FB4F8083CC
:1008C0009F5F9093B00488E014CE8091AF041F9294
:1008D0008F938091AE041F928F938091AD041F92ED
:1008E0008F938091AC041F928F938091AB041F92E1
:1008F0008F938091AA041F928F938091A9041F92D5
:100900008F938091A8041F928F9384EA91E09F9324
:100910008F9386E091E09F938F930E94D91E8091E0
:10092000B2042DB73EB72C5E3F4F0FB6F8943EBFD2
:100930000FBE2DBF8A3008F0CFC09091B80491301F
:1009400009F015C79091B004E92FF0E0E855FB4F8E
:1009500080839F5F9093B00489E0CBCD8091AF04FA
:100960001F928F938091AE041F928F938091AD045C
:100970001F928F938091AC041F928F938091AB0450
:100980001F928F938091AA041F928F938091A90444
:100990001F928F938091A8041F928F938DEB91E00B
:1009A0009F938F9386E091E09F938F930E94D91E2F
:1009B0008091B2042DB73EB72C5E3F4F0FB6F8942E
:1009C0003EBF0FBE2DBF8A3008F086C09091B8049C
:1009D000913009F0CCC6E091B004F0E0E855FB4F4F
:1009E00080838AE086CD8091AF041F928F9380919F
:1009F000AE041F928F938091AD041F928F938091CC
:100A0000AC041F928F938091AB041F928F938091BF
:100A1000AA041F928F938091A9041F928F938091B3
:100A2000A8041F928F9386ED91E09F938F9386E0A9
:100A300091E09F938F930E94D91E8091B2042DB7AD
:100A40003EB72C5E3F4F0FB6F8943EBF0FBE2DBF92
:100A5000833209F041C08091B804813009F087C623
:100A60003091A9042091AA046091A80448EE53E0B3
:100A7000649FC001659F900D112444E6349F800D52
:100A8000911D11243AE0239F800D911D1124209186
:100A9000AB04820F911D092E000CAA0BBB0B809397
:100AA0002F0190933001A0933101B09332019091C6
:100AB000AC048091AD044AE0949F800D1124809392
:100AC0002E019091AE048091AF042AE0929F800D98
:100AD000112480932D0149C68A3209F446C6813417
:100AE00009F045C68091B804813009F040C68BE01A
:100AF00000CD1092A8041092A9041092AA0410929A
:100B0000AB041092AC041092AD046FEE71E087E17B
:100B100091E00E94D21E1F921F921F921F921F925D
:100B20001F921F921F921F921F921F921F928EEF71
:100B300091E09F938F9386E091E09F938F930E9423
:100B4000D91E8091B2042DB73EB7205F3F4F0FB63C
:100B5000F8943EBF0FBE2DBF8A3008F088C5909133
:100B6000B804913009F003C69091B004E92FF0E089
:100B7000E855FB4F80838CE08093DF039F5F909369
:100B8000B00408958091AD041F928F938091AC04BE
:100B90001F928F938091AB041F928F938091AA0430
:100BA0001F928F938091A9041F928F938091A80424
:100BB0001F928F9385E192E09F938F9386E091E05F
:100BC0009F938F930E94D91E9091B2042DB73EB788
:100BD000205F3F4F0FB6F8943EBF0FBE2DBF9A3037
:100BE00008F0BFC48091B804813009F0C0C580917D
:100BF000B004E82FF0E0E855FB4F90839DE0909320
:100C0000DF038F5F8093B00408958091AD041F923D
:100C10008F938091AC041F928F938091AB041F92AD
:100C20008F938091AA041F928F938091A9041F92A1
:100C30008F938091A8041F928F938EEF91E09F93E2
:100C40008F9386E091E09F938F930E94D91E90919D
:100C5000B2042DB73EB7205F3F4F0FB6F8943EBFAA
:100C60000FBE2DBF9A3008F07CC48091B80481304B
:100C700009F07DC58091B004E82FF0E0E855FB4F06
:100C800090838F5F8093B0048EE033CC8091AD046D
:100C90001F928F938091AC041F928F938091AB042D
:100CA0001F928F938091AA041F928F938091A90421
:100CB0001F928F938091A8041F928F9385E192E0F9
:100CC0009F938F9386E091E09F938F930E94D91E0C
:100CD0009091B2042DB73EB7205F3F4F0FB6F89406
:100CE0003EBF0FBE2DBF9A3008F03BC48091B804C0
:100CF000813009F03CC58091B004E82FF0E0E85560
:100D0000FB4F90838F5F8093B0048FE0F2CB809194
:100D1000AD041F928F938091AC041F928F938091AA
:100D2000AB041F928F938091AA041F928F9380919E
:100D3000A9041F928F938091A8041F928F938EEF26
:100D400091E09F938F9386E091E09F938F930E9411
:100D5000D91E9091B2042DB73EB7205F3F4F0FB61A
:100D6000F8943EBF0FBE2DBF9A3008F0FAC38091B1
:100D7000B804813009F0FBC48091B004E82FF0E0A2
:100D8000E855FB4F90838F5F8093B00480E1B1CB37
:100D90008091AD041F928F938091AC041F928F932A
:100DA0008091AB041F928F938091AA041F928F931E
:100DB0008091A9041F928F938091A8041F928F9312
:100DC00085E192E09F938F9386E091E09F938F93CC
:100DD0000E94D91E8091B2042DB73EB7205F3F4FCD
:100DE0000FB6F8943EBF0FBE2DBF8A3008F08FC4F7
:100DF0009091B804913009F0BAC4E091B004F0E0E9
:100E0000E855FB4F808381E174CB8091AD041F9244
:100E10008F938091AC041F928F938091AB041F92AB
:100E20008F938091AA041F928F938091A9041F929F
:100E30008F938091A8041F928F938CE292E09F93EE
:100E40008F9386E091E09F938F930E94D91E8091AB
:100E5000B2042DB73EB7205F3F4F0FB6F8943EBFA8
:100E60000FBE2DBF833209F052C48091B804813087
:100E700009F07DC49091A8048091A9043AE0939F61
:100E8000800D11248093DD039091AA048091AB041E
:100E90004AE0949F800D11248093DC039091AC0470
:100EA0008091AD042AE0929F800D11248093DB0392
:100EB0005CC463E472E087E191E00E94D21E8091FD
:100EC000AB041F928F938091AA041F928F938091FD
:100ED000A9041F928F938091A8041F928F9384E599
:100EE00092E09F938F9386E091E09F938F930E946F
:100EF000D91E8091B2042DB73EB7245F3F4F0FB685
:100F0000F8943EBF0FBE2DBF8A3088F49091B8048C
:100F1000913009F02CC49091B004E92FF0E0E8552D
:100F2000FB4F80839F5F9093B00483E1E2CA8A32D3
:100F300009F41BC4823409F01AC48091B8048130CA
:100F400009F015C487E1D5CA8091AB041F928F9335
:100F50008091AA041F928F938091A9041F928F936E
:100F60008091A8041F928F9389E692E09F938F93BC
:100F700086E091E09F938F930E94D91E9091B204D6
:100F80002DB73EB7245F3F4F0FB6F8943EBF0FBE5C
:100F90002DBF9A3008F0E5C28091B804813009F085
:100FA000E6C38091B004E82FF0E0E855FB4F908352
:100FB0008F5F8093B00484E19CCA8091AB041F9240
:100FC0008F938091AA041F928F938091A9041F92FE
:100FD0008F938091A8041F928F9384E592E09F9352
:100FE0008F9386E091E09F938F930E94D91E9091FA
:100FF000B2042DB73EB7245F3F4F0FB6F8943EBF03
:101000000FBE2DBF9A3008F0ACC28091B804813079
:1010100009F0ADC38091B004E82FF0E0E855FB4F34
:1010200090838F5F8093B00485E163CA8091AB04A5
:101030001F928F938091AA041F928F938091A9048D
:101040001F928F938091A8041F928F9389E692E05C
:101050009F938F9386E091E09F938F930E94D91E78
:101060008091B2042DB73EB7245F3F4F0FB6F8947E
:101070003EBF0FBE2DBF8A3008F049C39091B8041F
:10108000913009F074C3E091B004F0E0E855FB4FF3
:10109000808386E12ECA8091AB041F928F9380914A
:1010A000AA041F928F938091A9041F928F9380911D
:1010B000A8041F928F938EE792E09F938F9386E010
:1010C00091E09F938F930E94D91E8091B2042DB717
:1010D0003EB7245F3F4F0FB6F8943EBF0FBE2DBF03
:1010E000833209F014C38091B804813009F03FC302
:1010F0003091A9042091AA046091A80448EE53E01D
:10110000649FC001659F900D112444E6349F800DBB
:10111000911D11243AE0239F800D911D11242091EF
:10112000AB04820F911D9093D1038093D0031DC314
:1011300063E972E087E191E00E94D21E8091AB04E6
:101140001F928F938091AA041F928F938091A9047C
:101150001F928F938091A8041F928F9384EA92E04C
:101160009F938F9386E091E09F938F930E94D91E67
:101170008091B2042DB73EB7245F3F4F0FB6F8946D
:101180003EBF0FBE2DBF8A3088F49091B8049130D5
:1011900009F0EDC29091B004E92FF0E0E855FB4F63
:1011A00080839F5F9093B00488E1A3C98A3209F4D9
:1011B000DCC2823409F4D5C2DAC28091AB041F923A
:1011C0008F938091AA041F928F938091A9041F92FC
:1011D0008F938091A8041F928F9389EB92E09F9345
:1011E0008F9386E091E09F938F930E94D91E9091F8
:1011F000B2042DB73EB7245F3F4F0FB6F8943EBF01
:101200000FBE2DBF9A3008F0ACC18091B804813078
:1012100009F0ADC28091B004E82FF0E0E855FB4F33
:1012200090838F5F8093B00489E163C98091AB04A0
:101230001F928F938091AA041F928F938091A9048B
:101240001F928F938091A8041F928F9384EA92E05B
:101250009F938F9386E091E09F938F930E94D91E76
:101260009091B2042DB73EB7245F3F4F0FB6F8946C
:101270003EBF0FBE2DBF9A3008F073C18091B804F5
:10128000813009F074C28091B004E82FF0E0E85595
:10129000FB4F90838F5F8093B0048AE12AC98091CD
:1012A000AB041F928F938091AA041F928F93809119
:1012B000A9041F928F938091A8041F928F9389EBAA
:1012C00092E09F938F9386E091E09F938F930E948B
:1012D000D91E8091B2042DB73EB7245F3F4F0FB6A1
:1012E000F8943EBF0FBE2DBF8A3008F010C2909117
:1012F000B804913009F03BC2E091B004F0E0E85549
:10130000FB4F80838BE1F5C88091AB041F928F93D4
:101310008091AA041F928F938091A9041F928F93AA
:101320008091A8041F928F938EEC92E09F938F93ED
:1013300086E091E09F938F930E94D91E8091B20422
:101340002DB73EB7245F3F4F0FB6F8943EBF0FBE98
:101350002DBF833209F0DBC18091B804813009F0E0
:1013600006C23091A9042091AA046091A80448EE15
:1013700053E0649FC001659F900D112444E6349FA3
:10138000800D911D11243AE0239F800D911D1124A1
:101390002091AB04820F911D90932C0180932B011F
:1013A000E4C163EE72E087E191E00E94D21E64EF37
:1013B00072E086E091E00E94D21E8091B2048332F6
:1013C00071F48091B804813009F0D1C18091280175
:1013D000909129019093D9038093D803C6C1833497
:1013E00009F095C18091B804813009F0C0C18DE148
:1013F00080C865E073E087E191E00E94D21E809191
:10140000AB041F928F938091AA041F928F938091B7
:10141000A9041F928F938091A8041F928F9386E155
:1014200093E09F938F9386E091E09F938F930E9428
:10143000D91E8091B2042DB73EB7245F3F4F0FB63F
:10144000F8943EBF0FBE2DBF8A3088F49091B80447
:10145000913009F08CC19091B004E92FF0E0E8558B
:10146000FB4F80839F5F9093B0048EE142C88A3225
:1014700009F47BC1833409F474C179C18091AB0450
:101480001F928F938091AA041F928F938091A90439
:101490001F928F938091A8041F928F938BE293E009
:1014A0009F938F9386E091E09F938F930E94D91E24
:1014B0009091B2042DB73EB7245F3F4F0FB6F8941A
:1014C0003EBF0FBE2DBF9A3008F04BC08091B804CC
:1014D000813009F04CC18091B004E82FF0E0E8556C
:1014E000FB4F90838F5F8093B0048FE10C9479025F
:1014F0008091AB041F928F938091AA041F928F93C7
:101500008091A9041F928F938091A8041F928F93BA
:1015100086E193E09F938F9386E091E09F938F9372
:101520000E94D91E9091B2042DB73EB7245F3F4F61
:101530000FB6F8943EBF0FBE2DBF9A3090F4809145
:10154000B804813009F013C18091B004E82FF0E0B5
:10155000E855FB4F90838F5F8093B00480E20C943A
:1015600079029A3209F401C102C18091AB041F9241
:101570008F938091AA041F928F938091A9041F9248
:101580008F938091A8041F928F938BE293E09F9397
:101590008F9386E091E09F938F930E94D91E809154
:1015A000B2042DB73EB7245F3F4F0FB6F8943EBF4D
:1015B0000FBE2DBF8A3008F0AAC09091B8049130B8
:1015C00009F0D5C0E091B004F0E0E855FB4F80830E
:1015D00081E20C9479028091AB041F928F938091E9
:1015E000AA041F928F938091A9041F928F938091D8
:1015F000A8041F928F9380E493E09F938F9386E0DB
:1016000091E09F938F930E94D91E8091B2042DB7D1
:101610003EB7245F3F4F0FB6F8943EBF0FBE2DBFBD
:10162000833229F58091B804813009F0A0C030914F
:10163000A9042091AA046091A80448EE53E0649F95
:10164000C001659F900D112444E6349F800D911DCB
:1016500011243AE0239F800D911D11242091AB04A9
:10166000820F911D90932901809328017EC08A32B8
:1016700009F47BC0813409F474C079C080912A01D7
:10168000813421F484E28093DF0317C08D34A9F400
:1016900065E573E087E191E00E94D21E66E673E0A3
:1016A00086E091E00E94D21E8091B204833229F438
:1016B00081E480932A011092DF038091B2048A3280
:1016C00009F453C08434E1F052C067E773E087E166
:1016D00091E00E94D21E66E673E086E091E00E94EF
:1016E000D21E8091B204833249F49091B8049130B3
:1016F000F1F59DE490932A010C947902843439F435
:101700008091B804813099F583E20C9479028A3291
:1017100061F12DC068E873E087E191E00E94D21E7C
:1017200069E973E086E091E00E94D21E8091B204E4
:10173000813039F48091B8048130C9F48093B104C8
:1017400008C081110AC08091B804813081F41092E0
:10175000B1048DE480932A0108C08A3231F08434C8
:1017600031F48091B804813011F41092DF030895B0
:10177000CF93DF9300D0CDB7DEB70E9464189A8371
:10178000898311E08091D203811111C083E090E040
:101790000E94C119229885E08A95F1F700002A9AE3
:1017A0001093D20385E38A95F1F700002A986CE044
:1017B00070E0CE0101960E948919E4CFFFCF82E04C
:1017C0008093700099EF9093B3008093B00084E011
:1017D0008093B1001092BA041092B904089517B81A
:1017E0008FEF85B988B9249A259A0E94DF0B8DE086
:1017F0008093810088E09DE3909389008093880026
:1018000082E080936F0087E690E00E9492118CE066
:101810000E94611080E00E944E100C945E10EF92C6
:10182000FF920F93F8940E94EF0B87E690E00E94DE
:101830009211229A53982A985B9AE9E6F0E0808107
:1018400084608083E99A81E085BD16BC80936E0038
:101850007894E12CF12C03E020E030E040E051E00E
:101860006AEA73E08EE49CE00E94291720E030E0F1
:1018700040E051E063EB73E088EB9BE00E942917A6
:101880000E94301880E090E00F91FF90EF90089553
:10189000813011F42C9A08952C980895CF93DF93FA
:1018A000CDB7DEB727970FB6F894DEBF0FBECDBF1A
:1018B0000E9464189F838E830E94A4006FE170E0F1
:1018C000CE0106960E9489198EE1882E912CA12CBA
:1018D000B12C0DEB13E0CE0101967C0198EEC92EE0
:1018E00093E0D92E2D9A8091370190913801A091E3
:1018F0003901B0913A01892B8A2B8B2BD1F40E94AC
:10190000DC008093B3040E944E018091B3048F3FAA
:1019100011F00E945B018091B3040E94A8008093A3
:10192000B2048092370190923801A0923901B092AE
:101930003A018091B704813011F40E948B010E941A
:1019400055020E94A4008091330190913401A0912E
:101950003501B0913601892B8A2B8B2B61F5809153
:10196000B5048F938091B4048F931F930F93FF92CC
:10197000EF920E94D91EC7010E94C01180912B01D5
:1019800090912C018C9DA0018D9D500D9C9D500D22
:10199000112460E070E04093330150933401609370
:1019A0003501709336011092DE030F900F900F9067
:1019B0000F900F900F908091DA030E94480C2D98A1
:1019C00091CF1F920F920FB60F9211248F939F9376
:1019D000AF93BF938091B9049091BA04019690930C
:1019E000BA048093B9048091370190913801A09195
:1019F0003901B0913A01892B8A2B8B2B99F0809178
:101A0000370190913801A0913901B0913A010197C5
:101A1000A109B1098093370190933801A09339014E
:101A2000B0933A018091330190913401A091350136
:101A3000B0913601892B8A2B8B2B99F08091330141
:101A400090913401A0913501B09136010197A1091F
:101A5000B1098093330190933401A0933501B09381
:101A60003601BF91AF919F918F910F900FBE0F9054
:101A70001F9018951F920F920FB60F921124CF92BC
:101A8000DF92EF92FF922F933F934F935F936F9369
:101A90007F938F939F93AF93BF93EF93FF93809127
:101AA000DB038F5F8C3318F48093DB0307C0109245
:101AB000DB038091DC038F5F8093DC038091DC0388
:101AC0008C3338F01092DC038091DD038F5F8093BC
:101AD000DD038091DD03883138F01092DD038091C1
:101AE0002D018F5F80932D0180912E018230A1F511
:101AF000C0902F01D0903001E0903101F090320180
:101B0000D701C60183709927AA27BB27892B8A2B67
:101B10008B2B61F4C701B60124E630E040E050E0D1
:101B20000E946D1D672B682B692B61F4C701B601FC
:101B300020E931E040E050E00E946D1D672B682BEA
:101B4000692B51F480912D018E3130F081E080932A
:101B50002D0183E080932E0180912E018230A1F52A
:101B6000C0902F01D0903001E0903101F09032010F
:101B7000D701C60183709927AA27BB27892B8A2BF7
:101B80008B2BC1F4C701B60124E630E040E050E001
:101B90000E946D1D672B682B692BB1F4C701B6013C
:101BA00020E931E040E050E00E946D1D672B682B7A
:101BB000692B51F080912D018D3130F081E08093BF
:101BC0002D0183E080932E0180912E01982F9D7F1F
:101BD000913051F0853041F099EF980F923020F01C
:101BE0008A3011F08C3051F490912D01903230F008
:101BF00091E090932D018F5F80932E0180912E01B3
:101C0000982F9D7F943011F0993051F490912D01CF
:101C10009F3130F091E090932D018F5F80932E01E2
:101C200080912E018D30B0F081E080932E01809163
:101C30002F0190913001A0913101B09132010196B4
:101C4000A11DB11D80932F0190933001A09331010C
:101C5000B0933201FF91EF91BF91AF919F918F911E
:101C60007F916F915F914F913F912F91FF90EF90F6
:101C7000DF90CF900F900FBE0F901F9018951F927E
:101C80000F920FB60F9211242F938F939F93AF93C0
:101C9000BF938091D303882389F18091D4039091DD
:101CA000D503A091D603B091D7030196A11DB11D14
:101CB0008093D4039093D503A093D603B093D70316
:101CC0008091D4039091D503A091D603B091D7030E
:101CD00026B5BA2FA92F982F8827820F911DA11DF5
:101CE000B11D8130944DA043B10540F01092D30353
:101CF0001092D2031092D9031092D803BF91AF91E2
:101D00009F918F912F910F900FBE0F901F9018955C
:101D10001F920F920FB60F9211242F933F934F9360
:101D20005F936F937F938F939F93AF93BF93EF9343
:101D3000FF938091D203882309F455C08091D30387
:101D400081110DC081E08093D3031092D4031092CF
:101D5000D5031092D6031092D70316BC44C010923C
:101D6000D3038091D4039091D503A091D603B09171
:101D7000D70326B5BA2FA92F982F8827BC01CD01EC
:101D8000620F711D811D911D20EA33E040E050E09B
:101D90000E946D1DB9018091D8039091D903F9017A
:101DA000E81BF90BCF01F7FF03C0919581959109CD
:101DB000C2973CF08091D8039091D90368177907B6
:101DC00028F43093D9032093D80308C08091D80316
:101DD0009091D9039093D9038093D80381E08093A5
:101DE000DE031092D203FF91EF91BF91AF919F91CB
:101DF0008F917F916F915F914F913F912F910F90B4
:101E00000FBE0F901F9018951092B90088E4809330
:101E1000B800089594EA9093BC009091BC0097FF9D
:101E2000FCCF9091B900987F983021F0903111F05B
:101E300081E008958093BB0084E88093BC0080918A
:101E4000BC0087FFFCCF8091B900887F883111F0FA
:101E5000803471F780E0089584E98093BC0080911C
:101E6000BC0084FDFCCF08958093BB0084E8809380
:101E7000BC008091BC0087FFFCCF9091B900987F97
:101E800081E0983209F480E0089562E080E00E94E9
:101E9000371100C062E080E00C943A11CF93C82F54
:101EA0008091E003662311F0816001C08E7F8093F2
:101EB000E0038091E0038D7F8093E0036091E00375
:101EC00080E00E94F5108091E0038F778093E0031B
:101ED0008091E0038F7B8093E0038091E0038F7D0E
:101EE0008093E0038091E0038F7E8093E003C7FF3F
:101EF00005C08091E00380688093E003C6FF05C0C1
:101F00008091E00380648093E003C5FF05C0809169
:101F1000E00380628093E003C4FF05C08091E0038A
:101F200080618093E0036091E00380E00E94F510FF
:101F30000E94450F8091E0038F778093E0038091AA
:101F4000E0038F7B8093E0038091E0038F7D80939B
:101F5000E0038091E0038F7E8093E003C3FF05C020
:101F60008091E00380688093E003C2FF05C0809108
:101F7000E00380648093E003C1FF05C08091E0032B
:101F800080628093E003C0FF05C08091E003806120
:101F90008093E0036091E00380E00E94F5100E94CE
:101FA000450F8091E00380618093E0038091E0031E
:101FB00080628093E0038091E00380648093E0037B
:101FC0008091E00380688093E0036091E00380E00B
:101FD000CF910C94F510CF938091E0038E7F809386
:101FE000E0038091E00382608093E0036091E0036E
:101FF00080E00E94F51062E080E00E94371100C08E
:1020000064E080E00E94E010C82F62E080E00E945F
:102010003A1100C062E080E00E94371100C064E025
:1020200080E00E94E010C295C07F8F70C82B62E0F4
:1020300080E00E943A118C2FCF9108950E94EB0FFF
:1020400087FDFCCF88E090E00197F1F70C94EB0F4F
:10205000CF93C82F0E941E1060E08C2FCF910C945C
:102060004E0FCF93C82F0E941E1061E08C2FCF918E
:102070000C944E0FCF93DF931F92CDB7DEB78983B9
:102080008981611102C0805801C080540F90DF9196
:10209000CF910C94281081E00C942810882321F013
:1020A0008091E003877F03C08091E0038860809384
:1020B000E0036091E00380E00C94F51082E00C9462
:1020C00028101F93CF93DF93182F0E94CF101092E8
:1020D000E0036091E00380E00E94F510E0E0FAEF99
:1020E0003197F1F79091E00390629093E003909123
:1020F000E00390619093E0036091E00380E00E9430
:10210000F5100E94450FE0E0FEE43197F1F70E94E0
:10211000450FC0E0D1E0FE013197F1F70E94450F75
:10212000FE013197F1F79091E0039F7E9093E003D9
:102130006091E00380E00E94F5100E94450F219716
:10214000F1F788E20E94281088E00E9428100E947F
:102150004B1086E00E942810812FDF91CF911F91B4
:102160000C942810EF92FF921F93CF93DF931F924E
:10217000CDB7DEB7182F7C018E2D811B861740F45A
:10218000F70181917F0169830E9431106981F4CF49
:102190000F90DF91CF911F91FF90EF9008950E94D3
:1021A000040F85E38A95F1F7000080E090E0FC01E0
:1021B000E454FB4F1082019688309105C1F70895D1
:1021C000883088F4683078F4E82FF0E0E454FB4F6E
:1021D0008081082E000C990B02C0959587956A9511
:1021E000E2F7817008958FEF0895CF93883098F4C7
:1021F000C62F982FE82FF0E0E454FB4F608387E26E
:10220000890F880F0E940A0F8C2F0E94340F0E94A2
:102210002C0F80E001C08FEFCF910895CF93DF9313
:10222000982F883000F56830F0F4E82FF0E0E4549F
:10223000FB4F8081C1E0D0E001C0CC0F6A95EAF786
:10224000442311F0C82B02C0C095C823C08387E285
:10225000890F880F0E940A0F8C2F0E94340F0E9452
:102260002C0F80E001C08FEFDF91CF91089541E006
:102270000C940E1140E00C940E111F920F920FB6A9
:102280000F9211242F938F939F93EF93FF9380913D
:10229000C0009091C6008871E091E303EF5FEF7199
:1022A0002091E203E21739F0E093E303F0E0EA5112
:1022B000FC4F908301C082E08093E103FF91EF9196
:1022C0009F918F912F910F900FBE0F901F90189597
:1022D0001F920F920FB60F9211248F939F93EF933B
:1022E000FF939091E5038091E403981769F0E091E2
:1022F000E403EF5FEF71E093E403F0E0EA5FFB4F8C
:1023000080818093C60005C08091C1008F7D80933D
:10231000C100FF91EF919F918F910F900FBE0F9091
:102320001F9018951092E5031092E4031092E303B6
:102330001092E20397FF04C022E02093C0009F7731
:102340009093C5008093C40088E98093C10086E023
:102350008093C20008959091E5039F5F9F71209143
:10236000E4039217E1F3E92FF0E0EA5FFB4F80838B
:102370009093E5038091C10080628093C10008952D
:10238000CF93DF93EC018991882319F00E94AB1160
:10239000FACFDF91CF9108958FE380937E0080B7CD
:1023A000877F80BF80B7806880BF83B7817F83BF0E
:1023B0000FB6F8940F9283B7816083BF85B78066AC
:1023C00085BF8F7D85BF0F900FBE889513BE089582
:1023D000259A2D9A2FEF80E792E02150804090407F
:1023E000E1F700C000001D9AF5CFFC01039692832F
:1023F00081832FEF3FEF34832383968385839087F8
:10240000878310820895FC01118610860895CF936A
:10241000DF939C01FB01DC011196CD91DC911297B9
:10242000D383C2838C819D81958384838C819D819C
:10243000DC0113967C936E9312977D836C833187B6
:102440002087F90180818F5F8083DF91CF9108958C
:102450000F931F93CF93DF938C01FB0180819181B8
:102460008F3F2FEF920721F4E801AF81B8850EC0AE
:10247000D801139612962D913C911397E90148814A
:1024800059818417950710F0D901F4CF12968D91D8
:102490009C91139793838283EC01FD83EC83B58336
:1024A000A4831396FC93EE93129711870087F8018B
:1024B00080818F5F8083DF91CF911F910F9108956D
:1024C000CF93DF93FC01A085B18582819381248124
:1024D0003581EC013D832C83C481D5819B838A8324
:1024E00011968D919C9112978E179F0721F4129649
:1024F000DC93CE931197118610868C9181508C932A
:102500008C91DF91CF91089531E1FC0130833197B7
:1025100022E220833197A3E3A08331976083319730
:10252000708331971082319760E860833197108211
:10253000319762E06083319763E06083319764E0B4
:102540006083319765E06083319766E060833197FF
:1025500067E06083319768E06083319769E060836A
:10256000319760E1608331973083319732E1308376
:10257000319733E13083319734E13083319735E15E
:102580003083319736E13083319737E130833197AB
:1025900038E13083319739E13083319730E230834D
:1025A000319731E2308331972083319723E22083C2
:1025B0003197408331975083319726E220833197BA
:1025C00027E22083319728E22083319729E2208374
:1025D000319720E32083319721E320838697089564
:1025E000A89520EC88E190E00FB6F894A895809328
:1025F00060000FBE20936000A0918A04B0918B040C
:10260000CD91CDBFDD91DEBFFF91EF91DF91CF91F5
:10261000BF91AF919F918F917F916F915F914F91FA
:102620003F912F911F910F91FF90EF90DF90CF90EE
:10263000BF90AF909F908F907F906F905F904F90E2
:102640003F902F901F900F900FBE0F90089581E044
:1026500008950F920FB6F8940F921F9211242F92A3
:102660003F924F925F926F927F928F929F92AF9222
:10267000BF92CF92DF92EF92FF920F931F932F930F
:102680003F934F935F936F937F938F939F93AF93FA
:10269000BF93CF93DF93EF93FF93A0918A04B09100
:1026A0008B040DB60D920EB60D920E94DD19A0910D
:1026B0008A04B0918B04CD91CDBFDD91DEBFFF9137
:1026C000EF91DF91CF91BF91AF919F918F917F91CA
:1026D0006F915F914F913F912F911F910F91FF90BB
:1026E000EF90DF90CF90BF90AF909F908F907F90B2
:1026F0006F905F904F903F902F901F900F900FBE64
:102700000F9008950F920FB6F8940F921F92112414
:102710002F923F924F925F926F927F928F929F92F1
:10272000AF92BF92CF92DF92EF92FF920F931F93DF
:102730002F933F934F935F936F937F938F939F93C9
:10274000AF93BF93CF93DF93EF93FF93A0918A044E
:10275000B0918B040DB60D920EB60D9213BE0E9471
:102760006E1881110E94DD19A0918A04B0918B042A
:10277000CD91CDBFDD91DEBFFF91EF91DF91CF9184
:10278000BF91AF919F918F917F916F915F914F9189
:102790003F912F911F910F91FF90EF90DF90CF907D
:1027A000BF90AF909F908F907F906F905F904F9071
:1027B0003F902F901F900F900FBE0F9008950E9492
:1027C000821318950FB6F8940F92FC01928D0F901A
:1027D0000FBE81E0911180E008950F931F93CF9376
:1027E000DF93EC01042F1A8D8C8D81110CC0888130
:1027F0009981892B09F03EC08A819B810E94001B30
:102800001B821A8238C0482F50E0011115C08C81FC
:102810009D810E94C21E2C8D8C819D81820F911DF5
:102820009D838C832A813B818217930718F18881CD
:1028300099819D838C831EC08E819F810E94C21EC0
:102840008C8D90E09195819591092E813F81280F83
:10285000391F3F832E83488159812417350730F46F
:102860002A813B81820F931F9F838E83023011F454
:102870001111115080E01F5F1A8FDF91CF911F91CE
:102880000F910895FC01CB01448D4423A1F050E049
:1028900026813781240F351F378326836281738118
:1028A0002617370720F02081318137832683668100
:1028B00077810C94C21E0895EF92FF921F93CF93DD
:1028C000DF93EC010FB6F8940F921E8D7C0181E12D
:1028D000E80EF11C11165CF48989882341F0C701C8
:1028E0000E946D1A81110E94EE1A1150F3CF8FEFE2
:1028F0008E8F0F900FBE0FB6F8940F921D8D7E0134
:1029000088E0E80EF11C11165CF48885882341F0FC
:10291000C7010E946D1A81110E94EE1A1150F3CF67
:102920008FEF8D8F0F900FBEDF91CF911F91FF9092
:10293000EF900895CF93DF93EC010FB6F8940F92C8
:10294000288139819B8D4C8D949FC0011124F90100
:10295000E80FF91FFB83EA831A8E3D832C83841BC7
:102960009109820F931F9F838E838FEF8D8F8E8FA0
:1029700061110CC08885882389F0CE0108960E94D9
:102980006D1A882359F00E94291308C0CE010896B9
:102990000E94F511CE0141960E94F5110F900FBED5
:1029A00081E0DF91CF910895EF92FF921F93CF9333
:1029B000DF931F92CDB7DEB7182F662321F0869FD5
:1029C000C001112402C080E090E04F9669830E940C
:1029D0003D1D7C016981009789F0611104C0FC01F3
:1029E0009183808304C04F96F70191838083F70120
:1029F000138F648F61E0C7010E949A14C7010F9082
:102A0000DF91CF911F91FF90EF900895AF92BF9209
:102A1000CF92DF92FF920F931F93CF93DF9300D05B
:102A200000D01F92CDB7DEB78C016B015D834C8364
:102A3000F22E90E0580188E0A80EB11C0FB6F89471
:102A40000F92F801228D838D281718F0F2E0FF1203
:102A500014C04F2DB601C8010E94ED13F8019189F1
:102A6000992321F0C80141960E946D1A81110E949C
:102A700029130F900FBE81E050C02C813D81232B84
:102A800019F40F900FBE48C0911104C0CE010196F9
:102A90000E94AD1A0F900FBE0E945E180FB6F894F8
:102AA0000F92F801858D8F3F09F4158EF801868D00
:102AB0008F3F09F4168E0F900FBEBE016C5F7F4FE3
:102AC000CE0101960E94B81A811121C00FB6F89468
:102AD0000F92F801928D838D0F900FBE981311C045
:102AE0006C817D81C5010E943B1AC8010E945C1463
:102AF0000E941A19882311F091E0A0CF0E94291397
:102B0000FBCFC8010E945C140E941A19F5CFC801BE
:102B10000E945C140E941A1980E00F900F900F9091
:102B20000F900F90DF91CF911F910F91FF90DF9049
:102B3000CF90BF90AF900895EF92FF921F93CF93E5
:102B4000DF93EC019A8D8B8D981710F02230E1F411
:102B50007A011E8D422FCE010E94ED131F3F81F49A
:102B60008989882379F0CE0141960E946D1A8823C5
:102B700049F0E114F10431F081E0F701808305C0F0
:102B80001F5F1E8F81E001C080E0DF91CF911F9118
:102B9000FF90EF900895AF92BF92CF92DF92FF9295
:102BA0000F931F93CF93DF9300D000D01F92CDB728
:102BB000DEB78C016B015D834C8390E0580181E1AD
:102BC000A80EB11C0FB6F8940F92F801F28CFF20FA
:102BD000A9F0B601C8010E944214FA94F801F28EDD
:102BE0008085882339F0C80108960E946D1A8111EA
:102BF0000E9429130F900FBE81E050C02C813D81AF
:102C0000232B19F40F900FBE48C0911104C0CE01C0
:102C100001960E94AD1A0F900FBE0E945E180FB66B
:102C2000F8940F92F801858D8F3F09F4158EF80105
:102C3000868D8F3F09F4168E0F900FBEBE016C5F1C
:102C40007F4FCE0101960E94B81A81111CC0C801A5
:102C50000E94E213882389F06C817D81C5010E9466
:102C60003B1AC8010E945C140E941A19882311F0B3
:102C700091E0A8CF0E942913FBCFC8010E945C14E9
:102C80000E941A19F5CFC8010E945C140E941A19FB
:102C9000C8010E94E213882359F380E00F900F903F
:102CA0000F900F900F90DF91CF911F910F91FF9098
:102CB000DF90CF90BF90AF900895CF93DF93EC015A
:102CC0000FB6F8940F928D8D8F3F09F41D8E8E8D67
:102CD0008F3F09F41E8E0F900FBE8A8D811104C0A4
:102CE000CE0141960E944D1ACE01DF91CF910C94F6
:102CF0005C14E0915204F09153048081811103C06F
:102D00008FEF9FEF0CC0E0915204F09153040580C7
:102D1000F681E02D0680F781E02D828193819093EA
:102D20002A04809329040895EF92FF920F931F9332
:102D3000CF93DF931F92CDB7DEB77C0100913104B2
:102D40001091320480918A0490918B0402966983D9
:102D50000E94601269818FEFE816F80699F46623E5
:102D600089F060918A0470918B046E5F7F4F84E3D9
:102D700094E00F90DF91CF911F910F91FF90EF9012
:102D80000C940712E00EF11EE0918A04F0918B047E
:102D9000F382E28260918A0470918B04E016F1065E
:102DA00078F480915004909151046E5F7F4F0F90A2
:102DB000DF91CF911F910F91FF90EF900C9428120B
:102DC00080915204909153046E5F7F4F0E942812AD
:102DD0008091290490912A04E816F90620F4F092D3
:102DE0002A04E09229040F90DF91CF911F910F9157
:102DF000FF90EF90089580913D04882309F10FB66C
:102E0000F8940F92E0914304F0914404C681D78175
:102E1000CE0102960E94601280913304815080930B
:102E2000330480913D04815080933D040F900FBE88
:102E30008F89988D0E945C1DCE010E945C1DDBCFA6
:102E400080916604823010F00E9429130E94CC11F8
:102E5000D2CF5F926F927F928F929F92AF92BF92EA
:102E6000CF92DF92EF92FF920F931F93CF93DF9356
:102E70005C013B016A014901502ECA010E943D1DBF
:102E80008C01892B09F4DBC088E290E00E943D1D93
:102E9000EC01892BB1F0188F0F8BA60165EA70E069
:102EA000C8010E94CB1E21E0C21AD1088F89988DDB
:102EB000C80ED91EBE01675E7F4FF301C30108969D
:102EC00007C0C8010E945C1DBAC0E817F90749F0A5
:102ED0009F014191DB014D93BD01D9012C9121113D
:102EE000F4CF18A2052D043008F003E00E8B09A3DF
:102EF0001AA23E01B2E06B0E711CC3010E940312C4
:102F0000CE010C960E940312D987C88784E090E016
:102F1000801B91099D878C87DB8BCA8B1BA21CA20F
:102F20001DA21EA21FA2A401B501C6010E94841207
:102F300099838883E114F10419F0F701D183C083E8
:102F40000FB6F8940F92809133048F5F809333040F
:102F500080918A0490918B04892BD1F5D0938B04B6
:102F6000C0938A0480913304813009F041C086E621
:102F700094E00E94F5118FE694E00E94F51188E735
:102F800094E00E94F51181E894E00E94F5118DE52E
:102F900094E00E94F51184E594E00E94F51187E425
:102FA00094E00E94F5118EE394E00E94F51184E311
:102FB00094E00E94F5118DE594E090935304809382
:102FC000520484E594E0909351048093500410C01F
:102FD00080912F0481110CC0E0918A04F0918B0440
:102FE00096898E89891720F0D0938B04C0938A0428
:102FF00080912B048F5F80932B048E8990913004F5
:10300000981710F480933004F9E08F9FC0011124C9
:10301000B3018A599B4F0E9407120F900FBE8091F7
:103020002F04882351F0E0918A04F0918B04968953
:103030008E89981710F40E94291381E001C08FEF48
:10304000DF91CF911F910F91FF90EF90DF90CF9084
:10305000BF90AF909F908F907F906F905F900895FA
:10306000EF92FF920F9387E2E82E84E0F82E00E0C3
:1030700020E030E045E550E062EC73E08BEF96E154
:103080000E9429178130B1F40E948D1B813091F488
:10309000F8942FEF3FEF30932A0420932904809374
:1030A0002F0410923204109231040F91FF90EF9090
:1030B0000C94F0120F91FF90EF90089580912604E8
:1030C0008F5F8093260408950FB6F8940F92809135
:1030D0003104909132040F900FBE0895CF92DF9289
:1030E000EF92FF920F931F93CF93DF93809126046B
:1030F00081118CC000913104109132040F5F1F4F79
:10310000109332040093310401151105B9F4809134
:103110005204909153042091500430915104309303
:10312000530420935204909351048093500480914F
:103130002C048F5F80932C040E94791680912904BF
:1031400090912A04C0E00817190708F44FC0D9E08D
:10315000E0915204F09153048081811103C08FEFFC
:103160009FEF11C0E0915204F09153040580F68165
:10317000E02DE680F780D70112968D919C911397F0
:103180000817190728F490932A04809329042EC065
:103190006701B2E0CB0ED11CC6010E946012F7019C
:1031A00084899589892B21F0C7010C960E946012B1
:1031B000D70156969C9180913004891710F4909312
:1031C0003004D99FC0011124B6018A599B4F0E9437
:1031D0000712E0918A04F0918B04D70156969C91D6
:1031E0008689981708F4B4CFC1E0B2CFE0918A0481
:1031F000F0918B04E689B9E0EB9FF0011124EA59C4
:10320000FB4F8081823040F0C1E006C080912E04E7
:103210008F5F80932E04C0E080912D048111C1E066
:103220008C2FDF91CF911F910F91FF90EF90DF9046
:10323000CF900895EF92FF920F931F93CF93DF9358
:103240000FB6F8940F928091260481508093260443
:1032500080912604882311F080E052C080913304CD
:103260008823D1F3C0E0D0E089E0F82EEE24E39487
:1032700080914704882351F1E0914C04F0914D0472
:10328000C681D781CE010C960E9460128E010E5F1E
:103290001F4FC8010E9460129E89809130048917D7
:1032A00010F490933004F99EC0011124B8018A599A
:1032B0009B4F0E940712E0918A04F0918B049E8933
:1032C00086899817A8F2E0922D04D2CFCD2B11F069
:1032D0000E947916C0912E04CC2351F0D1E00E94B7
:1032E0006E188111D0932D04C150C9F710922E048D
:1032F00080912D04882309F4AFCF0E94291381E027
:103300000F900FBEDF91CF911F910F91FF90EF9023
:1033100008950F931F93CF93DF938C01EB010E94CD
:103320005E184091310450913204F801608171813E
:103330009B012C0F3D1F4617570728F42617370708
:1033400048F491E004C091E02617370720F04217B7
:10335000530708F090E0F80131832083992331F07E
:1033600060E0C901841B950B0E9494160E941A19F3
:10337000811102C00E942913DF91CF911F910F91FB
:103380000895CF93DF9300D0CDB7DEB7009719F43F
:103390000E9429130DC089839A830E945E1860E001
:1033A00089819A810E9494160E941A19882381F3B8
:1033B0000F900F90DF91CF9108958091260488237C
:1033C00021F081E080932D04089510922D04A091A6
:1033D0008A04B0918B04E0918A04F0918B042D91C2
:1033E0003C918789908D8217930760F060918A04E1
:1033F00070918B0480918A0490918B04675E7F4F5B
:103400000E94DE0B8091300469E0482F50E0649FF9
:103410009001659F300D1124F901EA59FB4F90810D
:10342000911102C08150F1CFA181B28112960D900D
:10343000BC91A02DB283A18327593B4FA217B3079C
:1034400031F412962D913C9113973283218399E0A8
:10345000949FF001959FF00D1124EA59FB4F0180D4
:10346000F281E02D2681378130938B0420938A04EA
:10347000809330040895CF93DF93EB0120918A0469
:1034800030918B04B901645F7F4F0E94281261E084
:10349000CE01DF91CF910C9494160F931F93CF938D
:1034A000DF931F92CDB7DEB78B0120918A04309154
:1034B0008B04B901645F7F4F49830E9407124981E1
:1034C000442311F00FEF1FEF642FC8010F90DF911D
:1034D000CF911F910F910C9494160F931F93CF933C
:1034E000DF93DC011596ED91FC911697C681D7818B
:1034F0008E01045F1F4FC8010E9460128091260454
:10350000811114C00A501109C8010E9460129E89DD
:1035100080913004891710F490933004B9E09B9F98
:10352000C0011124B8018A599B4F03C0B80187E438
:1035300094E00E940712E0918A04F0918B049E8926
:103540008689891720F481E080932D0401C080E0F2
:10355000DF91CF911F910F91089520912C04FC01D0
:1035600020832091310430913204328321830895E5
:10357000CF93DF930FB6F8940F924091310450919E
:103580003204DC011196ED91FC911297EB01288138
:1035900039812F3FDFEF3D07C9F0B0912C04EC01DA
:1035A000A881BA1719F04E175F0790F44E1B5F0BF6
:1035B000FB014217530738F4241B350B318320835A
:1035C0000E94AD1A03C01182108202C080E001C0C7
:1035D00081E00F900FBEDF91CF91089581E080933D
:1035E0002D04089580912F04882331F080912604C2
:1035F000882321F080E0089581E0089582E0089515
:103600000F931F93CF93DF93FC01892B11F480E07C
:103610002CC082A1815082A3268991A12917B9F3D8
:103620008111F5CFEF018F010E5F1F4FC8010E947E
:10363000601299A19E8B492F50E024E030E0241BBA
:10364000350B3D872C8780913004891710F49093B7
:10365000300429E0249FC001259F900D1124B8015A
:103660008A599B4F0E94071281E0DF91CF911F91F1
:103670000F9108950FB6F8940F9280919004909155
:103680009104892BE9F48FE994E00E94F51186E911
:1036900094E00E94F5118FE994E090939504809353
:1036A000940486E994E0909393048093920440E01C
:1036B00065E08AE00E94D414909391048093900472
:1036C0000F900FBE0895FC017383628391878087FA
:1036D0004617570778F0421B530B8485958548178A
:1036E0005907C8F4BF016E5F7F4F8091920490919B
:1036F00093040DC04217530718F46217730758F468
:10370000BF016E5F7F4F80919404909195040E9459
:10371000281280E0089581E00895EF92FF920F93C0
:103720000E943A1B8091900490919104892B81F022
:103730008EE8E82E84E0F82E03E020E030E045E556
:1037400050E067EC73E08DE39CE10E94291701C013
:1037500080E00F91FF90EF9008950F931F93CF9308
:10376000DF9300D000D01F92CDB7DEB7A0919004B8
:10377000B0919104109729F1F90169835B834A8321
:103780009D838C836630A4F40E94F21AE091900429
:10379000F091910420E0823011F4A80102C040E0D1
:1037A00050E0BE016F5F7F4FCF010E9406150AC037
:1037B00020E0AF01BE016F5F7F4FCD010E949C15DD
:1037C00001C080E00F900F900F900F900F90DF914D
:1037D000CF911F910F910895EF92FF920F931F9336
:1037E000CF93DF93E0919404F09195048081882336
:1037F00089F10580F681E02DE080F180C681D781D6
:103800008E010E5F1F4FC8010E946012E989FA897C
:10381000CE0109958E85813029F72C853D852E0DA9
:103820003F1DE216F30660F43B832A83D987C887DD
:10383000B80180919404909195040E942812D2CFEF
:1038400000E010E020E030E0A70160E0CE010E943F
:10385000AD1BC8CF809192049091930490939504EE
:1038600080939404F0939304E0939204DF91CF91BA
:103870001F910F91FF90EF900895CF93DF93CDB7F5
:10388000DEB727970FB6F894DEBF0FBECDBFE0912D
:103890009404F09195048081DD24D394882339F039
:1038A000D12C0580F681E02DE080F18002C0E12C72
:1038B000F12C0E945E180E9464188C0180918C0487
:1038C00090918D040817190720F40E94EC1B81E0E9
:1038D00001C080E010938D0400938C04811150C0CE
:1038E000D11036C00E151F05D0F10E941A19E091B3
:1038F0009404F09195040580F681E02DC680D78070
:10390000C60102960E946012D6011E968C911E97E7
:103910008130B1F41C966D917C911D976E0D7F1DC9
:103920009701A801C6010E94631B882349F000E0AB
:1039300010E020E030E0A70160E0C6010E94AD1B6E
:10394000D6015196ED91FC915297C60109951EC082
:10395000E0919204F0919304808141E0811140E074
:10396000B701601B710B80919004909191040E94AB
:103970005D160E941A19811109C00E94291306C000
:103980000E941A1903C0898187FF0EC040E050E0F1
:10399000BE016F5F7F4F80919004909191040E94CF
:1039A000CB158111F0CF73CFEC80FD80F7018285BC
:1039B0009385892B21F0C70102960E9460120E9414
:1039C0006418AC0180918C0490918D0448175907BC
:1039D00030F44E835F830E94EC1B5F814E815093D5
:1039E0008D0440938C04E9810E2FEE0F110B220BF6
:1039F000330B0A30110550F6F801E75AFF4F0C94CB
:103A00008F1D2A813B81D7011C966D917C911D975A
:103A1000620F731FC7010E94631B882309F4B6CF8E
:103A2000D7015196ED91FC915297C7010995F70185
:103A30008685813009F0AACF448555858A819B818E
:103A4000480F591F00E010E020E030E060E0C701BF
:103A50000E94AD1B9BCF6A817B81D7011D967C9311
:103A60006E931C97640F751F9A01C7010E94631B18
:103A70008DCFC7010E945C1D89CF0F931F93CF93F9
:103A8000DF9300D0CDB7DEB789839A830E945E189A
:103A900089819A810E94951D8C010E941A19011535
:103AA000110511F40E94E811C8010F900F90DF91E9
:103AB000CF911F910F910895CF93DF93009751F00D
:103AC000EC010E945E18CE010E942A1EDF91CF9168
:103AD0000C941A19DF91CF910895A1E21A2EAA1B16
:103AE000BB1BFD010DC0AA1FBB1FEE1FFF1FA217AE
:103AF000B307E407F50720F0A21BB30BE40BF50BAB
:103B0000661F771F881F991F1A9469F76095709533
:103B1000809590959B01AC01BD01CF010895EE0FFA
:103B2000FF1F0590F491E02D0994CF93DF9382302D
:103B3000910510F482E090E0E091C604F091C70492
:103B400020E030E0C0E0D0E0309711F140815181B9
:103B500048175907C0F04817590761F482819381CB
:103B6000209719F09B838A832BC09093C70480937E
:103B7000C60426C02115310519F04217530718F461
:103B80009A01BE01DF01EF010280F381E02DDCCF5D
:103B90002115310509F1281B390B2430310590F42A
:103BA00012968D919C9113976115710521F0FB017F
:103BB0009383828304C09093C7048093C604FD015D
:103BC000329644C0FD01E20FF31F8193919322507E
:103BD00031092D933C933AC02091C4043091C5041F
:103BE000232B41F420910201309103013093C5044D
:103BF0002093C40420910001309101012115310569
:103C000041F42DB73EB74091040150910501241BAA
:103C1000350BE091C404F091C504E217F307A0F45A
:103C20002E1B3F0B2817390778F0AC014E5F5F4F12
:103C30002417350748F04E0F5F1F5093C50440937B
:103C4000C4048193919302C0E0E0F0E0CF01DF91E2
:103C5000CF9108950F931F93CF93DF93009709F4AB
:103C60008CC0FC013297138212820091C60410911D
:103C7000C7040115110581F420813181820F931F42
:103C80002091C4043091C5042817390779F5F093C1
:103C9000C504E093C40471C0D80140E050E0AE1701
:103CA000BF0750F412962D913C911397AD01211549
:103CB000310509F1D901F3CF9D01DA013383228364
:103CC00060817181860F971F8217930769F4EC0159
:103CD00028813981260F371F2E5F3F4F3183208384
:103CE0008A819B8193838283452B29F4F093C704B7
:103CF000E093C60442C01396FC93EE931297ED0135
:103D0000499159919E01240F351FE217F30771F471
:103D100080819181840F951F029611969C938E93BA
:103D20008281938113969C938E931297E0E0F0E04A
:103D3000D80112968D919C911397009719F0F80174
:103D40008C01F6CF8D919C9198012E5F3F4F820F91
:103D5000931F2091C4043091C5042817390769F4D2
:103D6000309729F41092C7041092C60402C013823F
:103D700012821093C5040093C404DF91CF911F9168
:103D80000F910895FB01DC0102C001900D9241509A
:103D90005040D8F70895DC0101C06D934150504068
:103DA000E0F70895FB01DC0101900D920020E1F79E
:103DB0000895AEE0B0E0EFEDFEE10C9488210D89AE
:103DC0001E8986E08C831A8309838FEF9FE79E8389
:103DD0008D83AE01475E5F4F6F89788DCE0101966E
:103DE0000E94FC1E2F813885F801E20FF31F10821C
:103DF0002E96E4E00C94A421ACE0B0E0E2E0FFE118
:103E00000C947A217C016B018A01FC0117821682D5
:103E1000838181FFBDC1CE0101964C01F7019381E1
:103E2000F60193FD859193FF81916F01882309F439
:103E3000ABC1853239F493FD859193FF81916F0178
:103E4000853229F4B70190E00E94E420E7CF512C9D
:103E5000312C20E02032A0F48B3269F030F4803233
:103E600059F0833269F420612CC08D3239F08033EF
:103E700039F4216026C02260246023C0286021C05C
:103E800027FD27C030ED380F3A3078F426FF06C002
:103E9000FAE05F9E300D1124532E13C08AE0389E45
:103EA000300D1124332E20620CC08E3221F426FDF9
:103EB0006BC1206406C08C3611F4206802C08836BD
:103EC00041F4F60193FD859193FF81916F0181117A
:103ED000C1CF982F9F7D9554933028F40C5F1F4FCE
:103EE000FFE3F9830DC0833631F0833771F08335FA
:103EF00009F05BC022C0F801808189830E5F1F4FEB
:103F000044244394512C540115C03801F2E06F0E43
:103F1000711CF801A080B18026FF03C0652D70E000
:103F200002C06FEF7FEFC5012C870E94D9202C01C2
:103F300083012C852F77222E17C03801F2E06F0EF7
:103F4000711CF801A080B18026FF03C0652D70E0D0
:103F500002C06FEF7FEFC5012C870E94CE202C019D
:103F60002C852068222E830123FC1BC0832D90E02A
:103F700048165906B0F4B70180E290E00E94E420B0
:103F80003A94F4CFF50127FC859127FE81915F01DA
:103F9000B70190E00E94E42031103A94F1E04F1A0A
:103FA00051084114510471F7E5C0843611F0893687
:103FB00039F5F80127FF07C0608171818281938103
:103FC0000C5F1F4F08C060817181072E000C880BA9
:103FD000990B0E5F1F4F2F76722E97FF09C0909599
:103FE0008095709561957F4F8F4F9F4F2068722EFF
:103FF0002AE030E0A4010E941C21A82EA81844C089
:10400000853729F42F7EB22E2AE030E025C0F22F2A
:10401000F97FBF2E8F36C1F018F4883579F0B4C01F
:10402000803719F0883721F0AFC02F2F2061B22ED2
:10403000B4FE0DC08B2D8460B82E09C024FF0AC0C9
:104040009F2F9660B92E06C028E030E005C020E121
:1040500030E002C020E132E0F801B7FE07C0608125
:104060007181828193810C5F1F4F06C060817181D5
:1040700080E090E00E5F1F4FA4010E941C21A82E3B
:10408000A818FB2DFF777F2E76FE0BC0372D3E7FC5
:10409000A51450F474FE0AC072FC08C0372D3E7E91
:1040A00005C0BA2C372D03C0BA2C01C0B52C34FF83
:1040B0000DC0FE01EA0DF11D8081803311F4397EBF
:1040C00009C032FF06C0B394B39404C0832F86782E
:1040D00009F0B39433FD13C030FF06C05A2CB3145B
:1040E00018F4530C5B18B32CB31468F4B70180E2D6
:1040F00090E03C870E94E420B3943C85F5CFB31454
:1041000010F43B1801C0312C34FF12C0B70180E31A
:1041100090E03C870E94E4203C8532FF17C031FDCF
:1041200003C088E790E002C088E590E0B7010CC0CA
:10413000832F867859F031FF02C08BE201C080E204
:1041400037FD8DE2B70190E00E94E420A51438F419
:10415000B70180E390E00E94E4205A94F7CFAA943C
:10416000F401EA0DF11D8081B70190E00E94E42086
:10417000A110F5CF332009F451CEB70180E290E0D1
:104180000E94E4203A94F6CFF7018681978102C01D
:104190008FEF9FEF2C96E2E10C949621FC010590A5
:1041A000615070400110D8F7809590958E0F9F1F39
:1041B0000895FC016150704001900110D8F780957E
:1041C00090958E0F9F1F08950F931F93CF93DF93AA
:1041D000FB01238121FD03C08FEF9FEF28C022FF49
:1041E00016C046815781248135814217530744F414
:1041F000A081B1819D012F5F3F4F318320838C933C
:10420000268137812F5F3F4F3783268310C0EB0114
:10421000092F182F0084F185E02D0995892BE1F6EF
:104220008E819F8101969F838E83812F902FDF91B6
:10423000CF911F910F910895FA01AA27283051F1CB
:10424000203181F1E8946F936E7F6E5F7F4F8F4FC7
:104250009F4FAF4FB1E03ED0B4E03CD0670F781F26
:10426000891F9A1FA11D680F791F8A1F911DA11D0B
:104270006A0F711D811D911DA11D20D009F4689444
:104280003F912AE0269F11243019305D3193DEF6EC
:10429000CF010895462F4770405D4193B3E00FD0A2
:1042A000C9F7F6CF462F4F70405D4A3318F0495D8D
:1042B00031FD4052419302D0A9F7EACFB4E0A69570
:1042C0009795879577956795BA95C9F70097610592
:1042D000710508959B01AC010A2E069457954795E8
:1042E00037952795BA95C9F7620F731F841F951FDD
:1042F000A01D08952F923F924F925F926F927F92EE
:104300008F929F92AF92BF92CF92DF92EF92FF92E5
:104310000F931F93CF93DF93CDB7DEB7CA1BDB0B91
:104320000FB6F894DEBF0FBECDBF09942A88398836
:1043300048885F846E847D848C849B84AA84B9843D
:10434000C884DF80EE80FD800C811B81AA81B98149
:10435000CE0FD11D0FB6F894DEBF0FBECDBFED015D
:064360000895F894FFCF60
:104366000000C8042000546F72656E2041697220F7
:104376002020202020200053697374656D2050652D
:104386006D616E7461752000C8004101000101E293
:10439600070000E80300001E0000000102034104BC
:1043A600050642070809432A0023442532642D25C1
:1043B60032647C2532643A2532643A2532647C259F
:1043C6006400253464737C253475636D7C25642014
:1043D60025630025346C75207C205774723A20259D
:1043E600347500546F723A2025347520636D202091
:1043F600202000556261682054616E6767616C20F9
:104406003A2020002564256425642564202D202576
:10441600642564202D20256425642020002564253C
:104426006425642564202D2025642564202D2025FF
:104436006425642021002564256425642564202DD7
:104446002025642564202D2025642564203F005501
:104456006261682057616B7475203A2020002564DC
:104466002564202D2025642564202D2025642564BF
:10447600202020200025642564202D202564256425
:10448600202D202564256420202021002564256414
:10449600202D2025642564202D20256425642020D8
:1044A600203F005365742054696E676769204D612B
:1044B60078202000416972206B65202564256425DB
:1044C60064256420636D202000416972206B65209D
:1044D600256425642564256420636D2021004169D7
:1044E60072206B6520256425642564256420636D30
:1044F600203F0052617465205472616E73662044D9
:1045060061746100706572202564256425642564E4
:1045160020646574696B202000706572202564250F
:10452600642564256420646574696B2021007065C8
:104536007220256425642564256420646574696B8E
:10454600203F004B616C6962726173692054696E29
:10455600676769004169723F2020202020202020C3
:104566002020202000556261682054696E676769C3
:104576002054616E6B006B652025642564256425D7
:104586006420636D202020202020006B6520256498
:1045960025642564256420636D20202020202100C9
:1045A6006B6520256425642564256420636D2020C1
:1045B6002020203F00232D556261682064617269C6
:1045C600204D3E413F00442D4D6F6465204D3A20FD
:1045D6004F4E2F4F464600232D5562616820646179
:1045E600726920413E4D3F00312D4D6F6465204D6F
:1045F6003A204F4E2020202000302D4D6F6465203C
:104606004D3A204F4646202020005461736B4D6181
:10461600696E005461736B536F6E61720025750A83
:104626000D0049444C4500546D72205376630000DA
:00000001FF
