:100000000C9456000C9473000C9473000C947300C1
:100010000C9473000C9473000C94370A0C947300C6
:100020000C9473000C9473000C9473000C946C0487
:100030000C9473000C9473000C9473000C94730074
:100040000C9473000C9473000C94B6070C94E107A5
:100050000C9473000C9473000C9473000C94730054
:100060000C9473000C9473009F00A200A500A800DC
:10007000AB00AE00B100B400B700BA00BD00C000D4
:100080009202BA02CF029A03EA0205031B0331036C
:1000900047035F036B039003211321132113E6121F
:1000A0004B13591321132113E6124B1311241FBEB6
:1000B000CFEFD8E0DEBFCDBF12E0A0E0B1E0EAE8CC
:1000C000FFE202C005900D92A835B107D9F723E0F1
:1000D000A8E5B2E001C01D92A034B207E1F70E948A
:1000E00056050C94C3170C9400002F923F924F9228
:1000F0005F926F927F928F929F92AF92BF92CF92B8
:10010000DF92EF92FF920F931F93CF93DF93CDB7C0
:10011000DEB7E1970FB6F894DEBF0FBECDBF3B014F
:100120001A012901DC01EC918E2F90E0FC0131973E
:10013000EC30F10540F5EC5CFF4F0C94A1136AE044
:1001400071E023C06FE071E020C064E171E01DC088
:1001500069E171E01AC06EE171E017C063E271E01D
:1001600014C068E271E011C06DE271E00EC062E39C
:1001700071E00BC067E371E008C06CE371E005C09B
:1001800061E471E002C066E471E0CE018D960E94E8
:10019000E414F5018081882329F0813031F460E591
:1001A00071E005C06BE471E002C066E471E0CE016D
:1001B00089960E94E414D4018C91882331F0813017
:1001C00011F42DE403C025E401C021E4F8014081CD
:1001D000D2013C91F1019081D3018C911F922F9318
:1001E0001F924F931F923F931F929F931F928F9343
:1001F0008FA51F928F938EA51F928F938DA51F920F
:100200008F9385E591E09F938F938E010B5E1F4F37
:100210001F930F9329AB0E94EB14F6019081D70135
:100220008C911F9229A92F932BA51F922F932AA55A
:100230001F922F9329A51F922F931F929F931F9276
:100240008F938EE691E09F938F93FE0131967F010D
:10025000FF93EF930E94EB140FB6F894DEBF0FBE2E
:10026000CDBF60E080E00E94BA06C8010E94EB06A4
:1002700061E080E00E94BA06C7010E94EB06E196A9
:100280000FB6F894DEBF0FBECDBFDF91CF911F91A7
:100290000F91FF90EF90DF90CF90BF90AF909F9025
:1002A0008F907F906F905F904F903F902F90089528
:1002B000CF93DF93CDB7DEB7A8970FB6F894DEBF24
:1002C0000FBECDBF62E871E0CE0145960E94E414F6
:1002D00063E971E0CE0101960E94E41460E080E0E1
:1002E0000E94BA06CE0145960E94EB0661E080E0CE
:1002F0000E94BA06CE0101960E94EB06A8960FB6A0
:10030000F894DEBF0FBECDBFDF91CF910895EF927D
:10031000FF920F931F93CF93DF93CDB7DEB7A897CC
:100320000FB6F894DEBF0FBECDBF809132031F928F
:100330008F9384EA91E09F938F938E010B5E1F4F02
:100340001F930F930E94EB14709133036091280365
:100350005091290340912E0320912A0330912B03C1
:1003600080913003909131031F927F931F926F937E
:100370001F925F931F924F933F932F939F938F935F
:1003800086EB91E09F938F93CE0101967C019F9322
:100390008F930E94EB1460E080E00E94BA06C801CF
:1003A0000E94EB0661E080E00E94BA06C7010E944D
:1003B000EB060FB6F894DEBF0FBECDBFA8960FB602
:1003C000F894DEBF0FBECDBFDF91CF911F910F918B
:1003D000FF90EF900895CF93DF93CDB7DEB7A89746
:1003E0000FB6F894DEBF0FBECDBF6DEC71E0CE014D
:1003F00045960E94E4146CED71E0CE0101960E94D6
:10040000E41460E080E00E94BA06CE0145960E94A6
:10041000EB0661E080E00E94BA06CE0101960E94E0
:10042000EB06A8960FB6F894DEBF0FBECDBFDF91E6
:10043000CF910895CF93DF93CDB7DEB7A8970FB6CE
:10044000F894DEBF0FBECDBF6BEE71E0CE014596D6
:100450000E94E4146AEF71E0CE0101960E94E41458
:1004600060E080E00E94BA06CE0145960E94EB064D
:1004700061E080E00E94BA06CE0101960E94EB0680
:10048000A8960FB6F894DEBF0FBECDBFDF91CF9117
:100490000895CF93DF93CDB7DEB7A8970FB6F89442
:1004A000DEBF0FBECDBF69E072E0CE0145960E946F
:1004B000E4146AE172E0CE0101960E94E41460E067
:1004C00080E00E94BA06CE0145960E94EB0661E0EC
:1004D00080E00E94BA06CE0101960E94EB06A89623
:1004E0000FB6F894DEBF0FBECDBFDF91CF91089558
:1004F0008F929F92AF92BF92CF92DF92EF92FF9234
:100500000F931F93CF93DF93E09158024E2F50E04B
:100510004C30510508F00EC1EC01FA01E05CFF4FD0
:100520000C94A11389E5882E82E0982E9AE5A92ED5
:1005300092E0B92E2BE5C22E22E0D22E3CE5E32E2E
:1005400032E0F32E0DE512E02EE532E04FE552E009
:1005500066E071E087E091E00E94750084E190E040
:1005600090932D0380932C038881823409F0E2C09C
:1005700081E0A2C00E94580110923203888181302C
:1005800019F482E0809358028881823019F489E05E
:100590008093580288818A3209F0CCC0C9C081E0BA
:1005A000809332030E9487018881803168F48091B2
:1005B0003203823048F4888190E090933103809335
:1005C000300384E0809358028881833209F07FC031
:1005D0008AE07BC082E08093320310922B0310925A
:1005E0002A030E9487018881803148F4888190E045
:1005F00090932B0380932A0385E08093580288818F
:100600008A3209F097C082E057C083E080933203BA
:1006100010922E030E9487018881803130F48881F6
:1006200080932E0386E08093580288818A3209F0F5
:1006300081C084E041C084E080933203109229039A
:100640000E9487018881803130F48881809329035A
:1006500087E08093580288818A3209F06BC085E078
:100660002BC085E080933203109228030E948701FB
:100670008881803130F488818093280388E08093DA
:10068000580288818A3209F055C086E015C086E09C
:1006900080933203109233030E9487018881803156
:1006A00030F488818093330382E0809358028881FC
:1006B0008A3209F03FC087E0809358023BC00E9415
:1006C000EB018881833219F48BE080935802888192
:1006D0008A3281F54DCF20913003309131038091E2
:1006E0002A0390912B034AE0249F800D11248093CC
:1006F0005F0290912E03809129032AE0929F800D42
:10070000112480935E0290912803809133034AE084
:10071000949F800D112480935D020E941A0202C0F2
:100720000E94490288EE93E090932D0380932C035E
:1007300010925802DF91CF911F910F91FF90EF908F
:10074000DF90CF90BF90AF909F908F9008958031B1
:1007500030F4E82FF0E0E55DFD4F808108958FEFE4
:10076000089583FF02C0579A01C0579882FF02C0C4
:10077000569A01C0569881FF02C0559A01C05598FB
:1007800080FF02C0549A08955498089583FF02C0D0
:100790005F9A01C05F9882FF02C05E9A01C05E98B6
:1007A00081FF02C05D9A01C05D9880FF02C05C9A23
:1007B00008955C980895CF92DF92EF92FF920F9385
:1007C0001F93CF9323982298219820982B9A2A9AA6
:1007D000299A289A00E010E088E0E82EF12C97EFA3
:1007E000C92ED12CC02FC701002E02C09595879528
:1007F0000A94E2F70E94B103C601002E02C095954B
:1008000087950A94E2F70E94C60384E01B990AC008
:100810008FE99FE00197F1F700C000001B9B30C0FB
:100820008FEF2FC01A990AC08FE99FE00197F1F767
:1008300000C000001A99F4CF84E00BC019990BC0D6
:100840008FE99FE00197F1F700C000001999E8CF08
:1008500088E08C0F16C018990AC08FE99FE00197B5
:10086000F1F700C000001899DBCF8CE0F2CF815087
:1008700069F60F5F1F4F0430110509F0B3CFD0CFD9
:100880008C2FCF911F910F91FF90EF90DF90CF9021
:1008900008950E94DB030E94A70380932F03F9CFE2
:1008A00087E690E00E940B088CE00E94F70680E04B
:1008B0000E94C4060E94D4068FE293E00E94780250
:1008C00080912C0390912D0324E0969587952A958D
:1008D000E1F70E94E10FF0CF1F920F920FB60F9237
:1008E00011245F936F937F938F939F93AF93BF93E5
:1008F00080915D028F5F80935D0280915D028C33F9
:1009000038F010925D0280915E028F5F80935E02EC
:1009100080915E028C3338F010925E0280915F020B
:100920008F5F80935F0280915F02883138F0109270
:100930005F02809106018F5F80930601809107011D
:10094000823041F5809108019091090183709927C7
:10095000892B51F4809108019091090164E670E0BF
:100960000E948D13892B51F4809108019091090107
:1009700060E971E00E948D13892B61F4809106017A
:100980008E3140F081E080930601809107018F5FF6
:100990008093070180910701823041F58091080121
:1009A0009091090183709927892BA1F48091080106
:1009B0009091090164E670E00E948D13892BB1F4D7
:1009C000809108019091090160E971E00E948D1306
:1009D000892B61F0809106018D3140F081E0809398
:1009E0000601809107018F5F8093070180910701C5
:1009F0008130C1F0809107018330A1F0809107011F
:100A0000853081F080910701873061F08091070186
:100A1000883041F0809107018A3021F080910701F0
:100A20008C3061F480910601803240F081E0809347
:100A30000601809107018F5F809307018091070174
:100A4000843061F080910701863041F08091070188
:100A5000893021F0809107018B3061F4809106018B
:100A60008F3140F081E080930601809107018F5F14
:100A700080930701809107018D3060F081E08093C1
:100A80000701809108019091090101969093090155
:100A900080930801BF91AF919F918F917F916F914A
:100AA0005F910F900FBE0F901F901895EF92FF92DD
:100AB0000F9314B817B81AB88FEF85B988B98BB9E6
:100AC0008DE08093810088E09DE39093890080937E
:100AD000880082E080936F007894E12CF12C02E092
:100AE00020E030E040E051E06BE372E080E594E02C
:100AF0000E94810D20E030E040E051E062E472E0CD
:100B000089E494E00E94810D0E94880E80E090E0CC
:100B10000F91FF90EF900895FFCF1092B90088E4F5
:100B20008093B800089594EA9093BC009091BC0023
:100B300097FFFCCF9091B900987F983021F09031C9
:100B400011F081E008958093BB0084E88093BC009D
:100B50008091BC0087FFFCCF8091B900887F8831ED
:100B600011F0803471F780E0089584E98093BC002F
:100B70008091BC0084FDFCCF08958093BB0084E885
:100B80008093BC008091BC0087FFFCCF9091B9009E
:100B9000987F81E0983209F480E0089562E080E077
:100BA0000E94B00700C062E080E00C94B307CF93CE
:100BB000C82F80916002662311F0816001C08E7F92
:100BC00080936002809160028D7F809360026091CB
:100BD000600280E00E946E07809160028F778093B0
:100BE0006002809160028F7B80936002809160023E
:100BF0008F7D80936002809160028F7E809360027F
:100C0000C7FF05C080916002806880936002C6FFC4
:100C100005C080916002806480936002C5FF05C0BA
:100C200080916002806280936002C4FF05C0809161
:100C300060028061809360026091600280E00E94A7
:100C40006E070E94CE05809160028F7780936002CC
:100C5000809160028F7B80936002809160028F7D23
:100C600080936002809160028F7E80936002C3FF58
:100C700005C080916002806880936002C2FF05C059
:100C800080916002806480936002C1FF05C0809102
:100C90006002806280936002C0FF05C080916002A4
:100CA0008061809360026091600280E00E946E0724
:100CB0000E94CE05809160028061809360028091E5
:100CC0006002806280936002809160028064809301
:100CD000600280916002806880936002609160028F
:100CE00080E0CF910C946E07CF93809160028E7F4D
:100CF00080936002809160028260809360026091C4
:100D0000600280E00E946E0762E080E00E94B0070F
:100D100000C064E080E00E945907C82F62E080E0D4
:100D20000E94B30700C062E080E00E94B00700C0EC
:100D300064E080E00E945907C295C07F8F70C82B85
:100D400062E080E00E94B3078C2FCF9108950E944B
:100D5000740687FDFCCF88E090E00197F1F70C94D2
:100D60007406CF93C82F0E94A70660E08C2FCF9106
:100D70000C94D705611102C0805801C080540C94B6
:100D8000B10681E00C94B106882321F080916002C5
:100D9000877F03C0809160028860809360026091C9
:100DA000600280E00C946E0782E00C94B106CF9351
:100DB000C82F0E94A706CA3049F4803410F080E0A2
:100DC00001C080E48058CF910C94B10661E08C2F73
:100DD000CF910C94D705CF93DF93EC0189918823B1
:100DE00019F00E94D706FACFDF91CF9108951F9393
:100DF000CF93DF93182F0E944807109260026091F2
:100E0000600280E00E946E07E0E0FAEF3197F1F7B0
:100E10009091600290629093600290916002906164
:100E2000909360026091600280E00E946E070E94D1
:100E3000CE05E0E0FEE43197F1F70E94CE05C0E078
:100E4000D1E0FE013197F1F70E94CE05FE01319706
:100E5000F1F7909160029F7E909360026091600232
:100E600080E00E946E070E94CE052197F1F788E28C
:100E70000E94B10688E00E94B1060E94C10686E089
:100E80000E94B106812FDF91CF911F910C94B10682
:100E90000E948D0585E38A95F1F7000080E090E0DF
:100EA000FC01EC5CFC4F1082019688309105C1F783
:100EB0000895883088F4683078F4E82FF0E0EC5C2E
:100EC000FC4F8081082E000C990B02C095958795E8
:100ED0006A95E2F7817008958FEF0895CF93883077
:100EE00098F4C62F982FE82FF0E0EC5CFC4F60835D
:100EF00087E2890F880F0E9493058C2F0E94BD0501
:100F00000E94B50580E001C08FEFCF910895CF9387
:100F1000DF93982F883000F56830F0F4E82FF0E088
:100F2000EC5CFC4F8081C1E0D0E001C0CC0F6A9541
:100F3000EAF7442311F0C82B02C0C095C823C08330
:100F400087E2890F880F0E9493058C2F0E94BD05B0
:100F50000E94B50580E001C08FEFDF91CF91089529
:100F600041E00C94870740E00C9487071F920F9292
:100F70000FB60F9211242F938F939F93EF93FF93AC
:100F80008091C0009091C6008871E0916302EF5F8C
:100F9000EF7120916202E21739F0E0936302F0E012
:100FA000EA59FD4F908301C082E080936102FF9176
:100FB000EF919F918F912F910F900FBE0F901F90E7
:100FC00018951F920F920FB60F9211248F939F9333
:100FD000EF93FF939091650280916402981769F0F6
:100FE000E0916402EF5FEF71E0936402F0E0EA5792
:100FF000FD4F80818093C60005C08091C1008F7D28
:101000008093C100FF91EF919F918F910F900FBE40
:101010000F901F9018951092650210926402109222
:1010200063021092620297FF04C022E02093C00086
:101030009F779093C5008093C40088E98093C10096
:1010400086E08093C20008958FE380937E0080B78E
:10105000877F80BF80B7806880BF83B7817F83BF71
:101060000FB6F8940F9283B7816083BF85B780660F
:1010700085BF8F7D85BF0F900FBE889513BE0895E5
:10108000259A2D9A2FEF80E792E0215080409040E2
:10109000E1F700C000001D9AF5CFFC010396928392
:1010A00081832FEF3FEF348323839683858390875B
:1010B000878310820895FC01118610860895CF93CE
:1010C000DF939C01FB01DC011196CD91DC9112971D
:1010D000D383C2838C819D81958384838C819D8100
:1010E000DC0113967C936E9312977D836C8331871A
:1010F0002087F90180818F5F8083DF91CF910895F0
:101100000F931F93CF93DF938C01FB01808191811B
:101110008F3F2FEF920721F4E801AF81B8850EC011
:10112000D801139612962D913C911397E9014881AD
:1011300059818417950710F0D901F4CF12968D913B
:101140009C91139793838283EC01FD83EC83B58399
:10115000A4831396FC93EE93129711870087F801EE
:1011600080818F5F8083DF91CF911F910F910895D0
:10117000CF93DF93FC01A085B18582819381248187
:101180003581EC013D832C83C481D5819B838A8387
:1011900011968D919C9112978E179F0721F41296AC
:1011A000DC93CE931197118610868C9181508C938D
:1011B0008C91DF91CF91089531E1FC01308331971B
:1011C00022E220833197A3E3A08331976083319794
:1011D000708331971082319760E860833197108275
:1011E000319762E06083319763E06083319764E018
:1011F0006083319765E06083319766E06083319763
:1012000067E06083319768E06083319769E06083CD
:10121000319760E1608331973083319732E13083D9
:10122000319733E13083319734E13083319735E1C1
:101230003083319736E13083319737E1308331970E
:1012400038E13083319739E13083319730E23083B0
:10125000319731E2308331972083319723E2208325
:101260003197408331975083319726E2208331971D
:1012700027E22083319728E22083319729E22083D7
:10128000319720E32083319721E3208386970895C7
:10129000A89520EC88E190E00FB6F894A89580938B
:1012A00060000FBE20936000A0910A03B0910B0371
:1012B000CD91CDBFDD91DEBFFF91EF91DF91CF9159
:1012C000BF91AF919F918F917F916F915F914F915E
:1012D0003F912F911F910F91FF90EF90DF90CF9052
:1012E000BF90AF909F908F907F906F905F904F9046
:1012F0003F902F901F900F900FBE0F90089581E0A8
:1013000008950F920FB6F8940F921F9211242F9206
:101310003F924F925F926F927F928F929F92AF9285
:10132000BF92CF92DF92EF92FF920F931F932F9372
:101330003F934F935F936F937F938F939F93AF935D
:10134000BF93CF93DF93EF93FF93A0910A03B091E4
:101350000B030DB60D920EB60D920E94FD0FA091DB
:101360000A03B0910B03CD91CDBFDD91DEBFFF919C
:10137000EF91DF91CF91BF91AF919F918F917F912D
:101380006F915F914F913F912F911F910F91FF901E
:10139000EF90DF90CF90BF90AF909F908F907F9015
:1013A0006F905F904F903F902F901F900F900FBEC7
:1013B0000F9008950F920FB6F8940F921F92112478
:1013C0002F923F924F925F926F927F928F929F9255
:1013D000AF92BF92CF92DF92EF92FF920F931F9343
:1013E0002F933F934F935F936F937F938F939F932D
:1013F000AF93BF93CF93DF93EF93FF93A0910A0333
:10140000B0910B030DB60D920EB60D9213BE0E9455
:10141000C60E81110E94FD0FA0910A03B0910B032B
:10142000CD91CDBFDD91DEBFFF91EF91DF91CF91E7
:10143000BF91AF919F918F917F916F915F914F91EC
:101440003F912F911F910F91FF90EF90DF90CF90E0
:10145000BF90AF909F908F907F906F905F904F90D4
:101460003F902F901F900F900FBE0F9008950E94F5
:10147000DA0918950FB6F8940F92FC01928D0F902F
:101480000FBE81E0911180E008950F931F93CF93D9
:10149000DF93EC01042F1A8D8C8D81110CC0888193
:1014A0009981892B09F03EC08A819B810E9420117D
:1014B0001B821A8238C0482F50E0011115C08C8160
:1014C0009D810E94D4142C8D8C819D81820F911D51
:1014D0009D838C832A813B818217930718F1888131
:1014E00099819D838C831EC08E819F810E94D4141C
:1014F0008C8D90E09195819591092E813F81280FE7
:10150000391F3F832E83488159812417350730F4D2
:101510002A813B81820F931F9F838E83023011F4B7
:101520001111115080E01F5F1A8FDF91CF911F9131
:101530000F910895FC01CB01448D4423A1F050E0AC
:1015400026813781240F351F37832683628173817B
:101550002617370720F02081318137832683668163
:1015600077810C94D4140895EF92FF921F93CF9338
:10157000DF93EC010FB6F8940F921E8D7C0181E190
:10158000E80EF11C11165CF48989882341F0C7012B
:101590000E948D1081110E940E111150F3CF8FEF18
:1015A0008E8F0F900FBE0FB6F8940F921D8D7E0197
:1015B00088E0E80EF11C11165CF48885882341F060
:1015C000C7010E948D1081110E940E111150F3CF9E
:1015D0008FEF8D8F0F900FBEDF91CF911F91FF90F6
:1015E000EF900895CF93DF93EC010FB6F8940F922C
:1015F000288139819B8D4C8D949FC0011124F90164
:10160000E80FF91FFB83EA831A8E3D832C83841B2A
:101610009109820F931F9F838E838FEF8D8F8E8F03
:1016200061110CC08885882389F0CE0108960E943C
:101630008D10882359F00E94810908C0CE010896B8
:101640000E944D08CE0141960E944D080F900FBE9A
:1016500081E0DF91CF910895EF92FF921F93CF9396
:10166000DF931F92CDB7DEB7182F662321F0869F38
:10167000C001112402C080E090E04F9669830E946F
:101680005D137C016981009789F0611104C0FC0140
:101690009183808304C04F96F70191838083F70183
:1016A000138F648F61E0C7010E94F20AC7010F9097
:1016B000DF91CF911F91FF90EF900895AF92BF926D
:1016C000CF92DF92FF920F931F93CF93DF9300D0BF
:1016D00000D01F92CDB7DEB78C016B015D834C83C8
:1016E000F22E90E0580188E0A80EB11C0FB6F894D5
:1016F0000F92F801228D838D281718F0F2E0FF1267
:1017000014C04F2DB601C8010E94450AF801918905
:10171000992321F0C80141960E948D1081110E94E9
:1017200081090F900FBE81E050C02C813D81232B99
:1017300019F40F900FBE48C0911104C0CE0101965C
:101740000E94CD100F900FBE0E94B60E0FB6F894F7
:101750000F92F801858D8F3F09F4158EF801868D63
:101760008F3F09F4168E0F900FBEBE016C5F7F4F46
:10177000CE0101960E94D810811121C00FB6F894B5
:101780000F92F801928D838D0F900FBE981311C0A8
:101790006C817D81C5010E945B10C8010E94B40A62
:1017A0000E94720F882311F091E0A0CF0E9481095E
:1017B000FBCFC8010E94B40A0E94720FF5CFC80186
:1017C0000E94B40A0E94720F80E00F900F900F9059
:1017D0000F900F90DF91CF911F910F91FF90DF90AD
:1017E000CF90BF90AF900895EF92FF921F93CF9349
:1017F000DF93EC019A8D8B8D981710F02230E1F475
:101800007A011E8D422FCE010E94450A1F3F81F4AE
:101810008989882379F0CE0141960E948D10882312
:1018200049F0E114F10431F081E0F701808305C053
:101830001F5F1E8F81E001C080E0DF91CF911F917B
:10184000FF90EF900895AF92BF92CF92DF92FF92F8
:101850000F931F93CF93DF9300D000D01F92CDB78B
:10186000DEB78C016B015D834C8390E0580181E110
:10187000A80EB11C0FB6F8940F92F801F28CFF205D
:10188000A9F0B601C8010E949A0AFA94F801F28EF2
:101890008085882339F0C80108960E948D10811137
:1018A0000E9481090F900FBE81E050C02C813D81C4
:1018B000232B19F40F900FBE48C0911104C0CE0124
:1018C00001960E94CD100F900FBE0E94B60E0FB66B
:1018D000F8940F92F801858D8F3F09F4158EF80169
:1018E000868D8F3F09F4168E0F900FBEBE016C5F80
:1018F0007F4FCE0101960E94D81081111CC0C801F3
:101900000E943A0A882389F06C817D81C5010E947A
:101910005B10C8010E94B40A0E94720F882311F064
:1019200091E0A8CF0E948109FBCFC8010E94B40AB0
:101930000E94720FF5CFC8010E94B40A0E94720F74
:10194000C8010E943A0A882359F380E00F900F9053
:101950000F900F900F90DF91CF911F910F91FF90FB
:10196000DF90CF90BF90AF900895CF93DF93EC01BD
:101970000FB6F8940F928D8D8F3F09F41D8E8E8DCA
:101980008F3F09F41E8E0F900FBE8A8D811104C007
:10199000CE0141960E946D10CE01DF91CF910C9443
:1019A000B40AE091D202F091D3028081811103C088
:1019B0008FEF9FEF0CC0E091D202F091D30205802F
:1019C000F681E02D0680F781E02D8281938190934E
:1019D000AA028093A9020895EF92FF920F931F939A
:1019E000CF93DF931F92CDB7DEB77C010091B10298
:1019F0001091B20280910A0390910B0302966983C1
:101A00000E94B80869818FEFE816F80699F46623FA
:101A100089F060910A0370910B036E5F7F4F84EB36
:101A200092E00F90DF91CF911F910F91FF90EF9077
:101A30000C945F08E00EF11EE0910A03F0910B0395
:101A4000F382E28260910A0370910B03E016F106C3
:101A500078F48091D0029091D1026E5F7F4F0F9009
:101A6000DF91CF911F910F91FF90EF900C94800820
:101A70008091D2029091D3026E5F7F4F0E948008C6
:101A80008091A9029091AA02E816F90620F4F0923A
:101A9000AA02E092A9020F90DF91CF911F910F91BE
:101AA000FF90EF9008958091BD02882309F10FB651
:101AB000F8940F92E091C302F091C402C681D781DD
:101AC000CE0102960E94B8088091B30281508093A3
:101AD000B3028091BD0281508093BD020F900FBE72
:101AE0008F89988D0E947C13CE010E947C13DBCFDE
:101AF0008091E602823010F00E9481090E94240841
:101B0000D2CF5F926F927F928F929F92AF92BF924D
:101B1000CF92DF92EF92FF920F931F93CF93DF93B9
:101B20005C013B016A014901502ECA010E945D130C
:101B30008C01892B09F4DBC088E290E00E945D13E0
:101B4000EC01892BB1F0188F0F8BA60165EA70E0CC
:101B5000C8010E94DD1421E0C21AD1088F89988D36
:101B6000C80ED91EBE01675E7F4FF301C301089600
:101B700007C0C8010E947C13BAC0E817F90749F0F2
:101B80009F014191DB014D93BD01D9012C912111A0
:101B9000F4CF18A2052D043008F003E00E8B09A342
:101BA0001AA23E01B2E06B0E711CC3010E945B08D9
:101BB000CE010C960E945B08D987C88784E090E02C
:101BC000801B91099D878C87DB8BCA8B1BA21CA273
:101BD0001DA21EA21FA2A401B501C6010E94DC081D
:101BE00099838883E114F10419F0F701D183C0834C
:101BF0000FB6F8940F928091B3028F5F8093B30277
:101C000080910A0390910B03892BD1F5D0930B039C
:101C1000C0930A038091B302813009F041C086EE7F
:101C200092E00E944D088FEE92E00E944D0888EFEE
:101C300092E00E944D0881E093E00E944D088DEDF6
:101C400092E00E944D0884ED92E00E944D0887ECDE
:101C500092E00E944D088EEB92E00E944D0884EBCA
:101C600092E00E944D088DED92E09093D302809314
:101C7000D20284ED92E09093D1028093D00210C002
:101C80008091AF0281110CC0E0910A03F0910B0327
:101C900096898E89891720F0D0930B03C0930A038D
:101CA0008091AB028F5F8093AB028E899091B002DE
:101CB000981710F48093B002F9E08F9FC0011124AF
:101CC000B3018A519D4F0E945F080F900FBE809113
:101CD000AF02882351F0E0910A03F0910B0396893B
:101CE0008E89981710F40E94810981E001C08FEF5E
:101CF000DF91CF911F910F91FF90EF90DF90CF90E8
:101D0000BF90AF909F908F907F906F905F9008955D
:101D1000EF92FF920F9387EAE82E82E0F82E00E020
:101D200020E030E045E550E06BE472E083E59DE0C3
:101D30000E94810D8130B1F40E94AD11813091F487
:101D4000F8942FEF3FEF3093AA022093A9028093DB
:101D5000AF021092B2021092B1020F91FF90EF9079
:101D60000C9448090F91FF90EF9008958091A6027E
:101D70008F5F8093A60208950FB6F8940F9280911A
:101D8000B1029091B2020F900FBE0895CF92DF92F0
:101D9000EF92FF920F931F93CF93DF938091A60250
:101DA00081118CC00091B1021091B2020F5F1F4FE0
:101DB0001093B2020093B10201151105B9F480919C
:101DC000D2029091D3022091D0023091D10230936F
:101DD000D3022093D2029093D1028093D0028091BB
:101DE000AC028F5F8093AC020E94D10C8091A9025B
:101DF0009091AA02C0E00817190708F44FC0D9E073
:101E0000E091D202F091D3028081811103C08FEF63
:101E10009FEF11C0E091D202F091D3020580F681CC
:101E2000E02DE680F780D70112968D919C91139753
:101E30000817190728F49093AA028093A9022EC0CC
:101E40006701B2E0CB0ED11CC6010E94B808F701B1
:101E500084899589892B21F0C7010C960E94B808C6
:101E6000D70156969C918091B002891710F49093F7
:101E7000B002D99FC0011124B6018A519D4F0E9422
:101E80005F08E0910A03F0910B03D70156969C91ED
:101E90008689981708F4B4CFC1E0B2CFE0910A0365
:101EA000F0910B03E689B9E0EB9FF0011124EA51B0
:101EB000FD4F8081823040F0C1E006C08091AE02CB
:101EC0008F5F8093AE02C0E08091AD028111C1E0CE
:101ED0008C2FDF91CF911F910F91FF90EF90DF90AA
:101EE000CF900895EF92FF920F931F93CF93DF93BC
:101EF0000FB6F8940F928091A60281508093A602AB
:101F00008091A602882311F080E052C08091B30234
:101F10008823D1F3C0E0D0E089E0F82EEE24E394EA
:101F20008091C702882351F1E091CC02F091CD025B
:101F3000C681D781CE010C960E94B8088E010E5F33
:101F40001F4FC8010E94B8089E898091B00289176E
:101F500010F49093B002F99EC0011124B8018A5187
:101F60009D4F0E945F08E0910A03F0910B039E8948
:101F700086899817A8F2E092AD02D2CFCD2B11F04E
:101F80000E94D10CC091AE02CC2351F0D1E00E944E
:101F9000C60E8111D093AD02C150C9F71092AE02A6
:101FA0008091AD02882309F4AFCF0E94810981E0BE
:101FB0000F900FBEDF91CF911F910F91FF90EF9087
:101FC0000895CF93DF9300D0CDB7DEB7009719F413
:101FD0000E9481090DC089839A830E94B60E60E039
:101FE00089819A810E94EC0C0E94720F882381F3F0
:101FF0000F900F90DF91CF9108958091A6028823D2
:1020000021F081E08093AD0208951092AD02A0917D
:102010000A03B0910B03E0910A03F0910B032D9199
:102020003C918789908D8217930760F060910A0335
:1020300070910B0380910A0390910B03675E7F4FB1
:102040000E948C058091B00269E0482F50E0649FA7
:102050009001659F300D1124F901EA51FD4F9081E7
:10206000911102C08150F1CFA181B28112960D90E1
:10207000BC91A02DB283A18327513D4FA217B30776
:1020800031F412962D913C9113973283218399E07C
:10209000949FF001959FF00D1124EA51FD4F0180AE
:1020A000F281E02D2681378130930B0320930A03C0
:1020B0008093B0020895CF93DF93EB0120910A0340
:1020C00030910B03B901645F7F4F0E94800861E08B
:1020D000CE01DF91CF910C94EC0C0F931F93CF9313
:1020E000DF931F92CDB7DEB78B0120910A033091A9
:1020F0000B03B901645F7F4F49830E945F084981E8
:10210000442311F00FEF1FEF642FC8010F90DF91F0
:10211000CF911F910F910C94EC0C0F931F93CF93C1
:10212000DF93DC011596ED91FC911697C681D7815E
:102130008E01045F1F4FC8010E94B8088091A6025B
:10214000811114C00A501109C8010E94B8089E8963
:102150008091B002891710F49093B002B9E09B9F70
:10216000C0011124B8018A519D4F03C0B80187EC0A
:1021700092E00E945F08E0910A03F0910B039E89B0
:102180008689891720F481E08093AD0201C080E048
:10219000DF91CF911F910F9108952091AC02FC0126
:1021A00020832091B1023091B202328321830895BD
:1021B000CF93DF930FB6F8940F924091B1025091F4
:1021C000B202DC011196ED91FC911297EB0128818E
:1021D00039812F3FDFEF3D07C9F0B091AC02EC0130
:1021E000A881BA1719F04E175F0790F44E1B5F0BCA
:1021F000FB014217530738F4241B350B318320832E
:102200000E94CD1003C01182108202C080E001C084
:1022100081E00F900FBEDF91CF91089581E0809310
:10222000AD0208958091AF02882331F08091A6021B
:10223000882321F080E0089581E0089582E00895E8
:102240000F931F93CF93DF93FC01892B11F480E050
:102250002CC082A1815082A3268991A12917B9F3AC
:102260008111F5CFEF018F010E5F1F4FC8010E9452
:10227000B80899A19E8B492F50E024E030E0241B40
:10228000350B3D872C878091B002891710F490930D
:10229000B00229E0249FC001259F900D1124B801B0
:1022A0008A519D4F0E945F0881E0DF91CF911F917D
:1022B0000F9108950FB6F8940F92809110039091AA
:1022C0001103892BE9F48FE193E00E944D0886E128
:1022D00093E00E944D088FE193E090931503809363
:1022E000140386E193E0909313038093120340E07C
:1022F00065E08AE00E942C0B9093110380931003F9
:102300000F900FBE0895FC017383628391878087CD
:102310004617570778F0421B530B8485958548175D
:102320005907C8F4BF016E5F7F4F809112039091EF
:1023300013030DC04217530718F46217730758F4BC
:10234000BF016E5F7F4F80911403909115030E942F
:10235000800880E0089581E00895EF92FF920F9346
:102360000E945A118091100390911103892B81F0E2
:102370008EE0E82E83E0F82E03E020E030E045E533
:1023800050E060E572E08DE592E10E94810D01C0B0
:1023900080E00F91FF90EF9008950F931F93CF93DC
:1023A000DF9300D000D01F92CDB7DEB7A09110030D
:1023B000B0911103109729F1F90169835B834A8376
:1023C0009D838C836630A4F40E941211E091100367
:1023D000F091110320E0823011F4A80102C040E026
:1023E00050E0BE016F5F7F4FCF010E945E0B0AC0BD
:1023F00020E0AF01BE016F5F7F4FCD010E94F40B63
:1024000001C080E00F900F900F900F900F90DF9120
:10241000CF911F910F910895EF92FF920F931F9309
:10242000CF93DF93E0911403F0911503808188230B
:1024300089F10580F681E02DE080F180C681D781A9
:102440008E010E5F1F4FC8010E94B808E989FA8902
:10245000CE0109958E85813029F72C853D852E0D7D
:102460003F1DE216F30660F43B832A83D987C887B1
:10247000B80180911403909115030E948008D2CF77
:1024800000E010E020E030E0A70160E0CE010E9413
:10249000CD11C8CF8091120390911303909315032F
:1024A00080931403F0931303E0931203DF91CF9111
:1024B0001F910F91FF90EF900895CF93DF93CDB7C9
:1024C000DEB727970FB6F894DEBF0FBECDBFE09101
:1024D0001403F09115038081DD24D394882339F00F
:1024E000D12C0580F681E02DE080F18002C0E12C46
:1024F000F12C0E94B60E0E94BC0E8C0180910C0340
:1025000090910D030817190720F40E940C1281E026
:1025100001C080E010930D0300930C03811150C0A3
:10252000D11036C00E151F05D0F10E94720FE09138
:102530001403F09115030580F681E02DC680D78045
:10254000C60102960E94B808D6011E968C911E976D
:102550008130B1F41C966D917C911D976E0D7F1D9D
:102560009701A801C6010E948311882349F000E069
:1025700010E020E030E0A70160E0C6010E94CD112C
:10258000D6015196ED91FC915297C60109951EC056
:10259000E0911203F0911303808141E0811140E04A
:1025A000B701601B710B80911003909111030E9481
:1025B000B50C0E94720F811109C00E94810906C0EA
:1025C0000E94720F03C0898187FF0EC040E050E077
:1025D000BE016F5F7F4F80911003909111030E94A5
:1025E000230C8111F0CF73CFEC80FD80F701828541
:1025F0009385892B21F0C70102960E94B8080E949A
:10260000BC0EAC0180910C0390910D034817590743
:1026100030F44E835F830E940C125F814E81509391
:102620000D0340930C03E9810E2FEE0F110B220BCB
:10263000330B0A30110550F6F801E45BFF4F0C94A0
:10264000A1132A813B81D7011C966D917C911D9726
:10265000620F731FC7010E948311882309F4B6CF4C
:10266000D7015196ED91FC915297C7010995F70159
:102670008685813009F0AACF448555858A819B8162
:10268000480F591F00E010E020E030E060E0C70193
:102690000E94CD119BCF6A817B81D7011D967C93CF
:1026A0006E931C97640F751F9A01C7010E948311D6
:1026B0008DCFC7010E947C1389CF0F931F93CF93B7
:1026C000DF9300D0CDB7DEB789839A830E94B60E20
:1026D00089819A810E94A7138C010E94720F0115B3
:1026E000110511F40E944008C8010F900F90DF916E
:1026F000CF911F910F910895CF93DF93009751F0E1
:10270000EC010E94B60ECE010E943C14DF91CF91E5
:102710000C94720FDF91CF910895AA1BBB1B51E15E
:1027200007C0AA1FBB1FA617B70710F0A61BB70B41
:10273000881F991F5A95A9F780959095BC01CD01E6
:102740000895EE0FFF1F0590F491E02D0994CF93AB
:10275000DF938230910510F482E090E0E0913E0337
:10276000F0913F0320E030E0C0E0D0E0309711F17D
:102770004081518148175907C0F04817590761F443
:1027800082819381209719F09B838A832BC0909339
:102790003F0380933E0326C02115310519F04217EF
:1027A000530718F49A01BE01DF01EF010280F381A3
:1027B000E02DDCCF2115310509F1281B390B243020
:1027C000310590F412968D919C91139761157105C6
:1027D00021F0FB019383828304C090933F03809395
:1027E0003E03FD01329644C0FD01E20FF31F8193C9
:1027F0009193225031092D933C933AC020913C0390
:1028000030913D03232B41F42091020130910301CB
:1028100030933D0320933C0320910001309101014E
:102820002115310541F42DB73EB740910401509177
:102830000501241B350BE0913C03F0913D03E217A9
:10284000F307A0F42E1B3F0B2817390778F0AC01D3
:102850004E5F5F4F2417350748F04E0F5F1F5093B0
:102860003D0340933C038193919302C0E0E0F0E08C
:10287000CF01DF91CF9108950F931F93CF93DF93F3
:10288000009709F48CC0FC013297138212820091E8
:102890003E0310913F030115110581F42081318120
:1028A000820F931F20913C0330913D032817390775
:1028B00079F5F0933D03E0933C0371C0D80140E00B
:1028C00050E0AE17BF0750F412962D913C9113972C
:1028D000AD012115310509F1D901F3CF9D01DA01CF
:1028E0003383228360817181860F971F821793073C
:1028F00069F4EC0128813981260F371F2E5F3F4F85
:10290000318320838A819B8193838283452B29F4A1
:10291000F0933F03E0933E0342C01396FC93EE9383
:102920001297ED01499159919E01240F351FE2172D
:10293000F30771F480819181840F951F029611969F
:102940009C938E938281938113969C938E9312977E
:10295000E0E0F0E0D80112968D919C9113970097DA
:1029600019F0F8018C01F6CF8D919C9198012E5FA2
:102970003F4F820F931F20913C0330913D03281756
:10298000390769F4309729F410923F0310923E03FF
:1029900002C01382128210933D0300933C03DF9127
:1029A000CF911F910F910895FB01DC0102C00190AE
:1029B0000D9241505040D8F70895DC0101C06D934D
:1029C00041505040E0F70895FB01DC0101900D9269
:1029D0000020E1F70895AEE0B0E0E1EFF4E10C94FF
:1029E0009A170D891E8986E08C831A8309838FEFDD
:1029F0009FE79E838D83AE01475E5F4F6F89788D21
:102A0000CE0101960E940E152F813885F801E20F44
:102A1000F31F10822E96E4E00C94B617ACE0B0E001
:102A2000E4E1F5E10C948C177C016B018A01FC0157
:102A300017821682838181FFBDC1CE0101964C01B0
:102A4000F7019381F60193FD859193FF81916F01C9
:102A5000882309F4ABC1853239F493FD859193FF46
:102A600081916F01853229F4B70190E00E94F6163A
:102A7000E7CF512C312C20E02032A0F48B3269F0CA
:102A800030F4803259F0833269F420612CC08D32E9
:102A900039F0803339F4216026C02260246023C0DD
:102AA000286021C027FD27C030ED380F3A3078F478
:102AB00026FF06C0FAE05F9E300D1124532E13C08E
:102AC0008AE0389E300D1124332E20620CC08E32E5
:102AD00021F426FD6BC1206406C08C3611F42068F9
:102AE00002C0883641F4F60193FD859193FF8191F0
:102AF0006F018111C1CF982F9F7D9554933028F499
:102B00000C5F1F4FFFE3F9830DC0833631F083372D
:102B100071F0833509F05BC022C0F80180818983A0
:102B20000E5F1F4F44244394512C540115C03801AB
:102B3000F2E06F0E711CF801A080B18026FF03C087
:102B4000652D70E002C06FEF7FEFC5012C870E94FA
:102B5000EB162C0183012C852F77222E17C038010C
:102B6000F2E06F0E711CF801A080B18026FF03C057
:102B7000652D70E002C06FEF7FEFC5012C870E94CA
:102B8000E0162C012C852068222E830123FC1BC01B
:102B9000832D90E048165906B0F4B70180E290E02A
:102BA0000E94F6163A94F4CFF50127FC859127FE92
:102BB00081915F01B70190E00E94F61631103A94BE
:102BC000F1E04F1A51084114510471F7E5C0843601
:102BD00011F0893639F5F80127FF07C0608171814E
:102BE000828193810C5F1F4F08C060817181072E25
:102BF000000C880B990B0E5F1F4F2F76722E97FFDC
:102C000009C090958095709561957F4F8F4F9F4F2C
:102C10002068722E2AE030E0A4010E942E17A82E10
:102C2000A81844C0853729F42F7EB22E2AE030E060
:102C300025C0F22FF97FBF2E8F36C1F018F48835EA
:102C400079F0B4C0803719F0883721F0AFC02F2F4A
:102C50002061B22EB4FE0DC08B2D8460B82E09C049
:102C600024FF0AC09F2F9660B92E06C028E030E0EE
:102C700005C020E130E002C020E132E0F801B7FEFB
:102C800007C060817181828193810C5F1F4F06C0F4
:102C90006081718180E090E00E5F1F4FA4010E946F
:102CA0002E17A82EA818FB2DFF777F2E76FE0BC0BF
:102CB000372D3E7FA51450F474FE0AC072FC08C084
:102CC000372D3E7E05C0BA2C372D03C0BA2C01C06B
:102CD000B52C34FF0DC0FE01EA0DF11D808180335B
:102CE00011F4397E09C032FF06C0B394B39404C016
:102CF000832F867809F0B39433FD13C030FF06C0EC
:102D00005A2CB31418F4530C5B18B32CB31468F496
:102D1000B70180E290E03C870E94F616B3943C85B0
:102D2000F5CFB31410F43B1801C0312C34FF12C09E
:102D3000B70180E390E03C870E94F6163C8532FFA5
:102D400017C031FD03C088E790E002C088E590E03D
:102D5000B7010CC0832F867859F031FF02C08BE297
:102D600001C080E237FD8DE2B70190E00E94F616C7
:102D7000A51438F4B70180E390E00E94F6165A9447
:102D8000F7CFAA94F401EA0DF11D8081B70190E01C
:102D90000E94F616A110F5CF332009F451CEB701E9
:102DA00080E290E00E94F6163A94F6CFF701868111
:102DB000978102C08FEF9FEF2C96E2E10C94A81749
:102DC000FC010590615070400110D8F780959095F6
:102DD0008E0F9F1F0895FC016150704001900110FB
:102DE000D8F7809590958E0F9F1F08950F931F938E
:102DF000CF93DF93FB01238121FD03C08FEF9FEF72
:102E000028C022FF16C04681578124813581421790
:102E1000530744F4A081B1819D012F5F3F4F31835F
:102E200020838C93268137812F5F3F4F3783268302
:102E300010C0EB01092F182F0084F185E02D0995B2
:102E4000892BE1F68E819F8101969F838E83812F4E
:102E5000902FDF91CF911F910F910895FA01AA272A
:102E6000283051F1203181F1E8946F936E7F6E5FCD
:102E70007F4F8F4F9F4FAF4FB1E03ED0B4E03CD07B
:102E8000670F781F891F9A1FA11D680F791F8A1F5E
:102E9000911DA11D6A0F711D811D911DA11D20D0C5
:102EA00009F468943F912AE0269F11243019305D7F
:102EB0003193DEF6CF010895462F4770405D419370
:102EC000B3E00FD0C9F7F6CF462F4F70405D4A33BD
:102ED00018F0495D31FD4052419302D0A9F7EACF85
:102EE000B4E0A6959795879577956795BA95C9F7B4
:102EF00000976105710508959B01AC010A2E0694A7
:102F00005795479537952795BA95C9F7620F731F5F
:102F1000841F951FA01D08952F923F924F925F929C
:102F20006F927F928F929F92AF92BF92CF92DF92D9
:102F3000EF92FF920F931F93CF93DF93CDB7DEB73E
:102F4000CA1BDB0B0FB6F894DEBF0FBECDBF0994D2
:102F50002A88398848885F846E847D848C849B8429
:102F6000AA84B984C884DF80EE80FD800C811B8137
:102F7000AA81B981CE0FD11D0FB6F894DEBF0FBE66
:0A2F8000CDBFED010895F894FFCFD6
:102F8A000000400320000101E2074A616E0000468A
:102F9A00656200004D6172000041707200004D616F
:102FAA007900004A756E00004A756C000041756729
:102FBA00000053657000004F637400004E6F760086
:102FCA0000446563000020202000004F46460000B0
:102FDA00204F4E00002563256325632D2532647C2E
:102FEA002532643A2532643A253264256300253352
:102FFA0064737C253464636D7C25632563256325AE
:10300A006300312D20556261682057616B74752009
:10301A00202000322D20556261682054616E676756
:10302A00616C200020206868203A206D6D203A20CB
:10303A00737320256400202025642564203A202506
:10304A00642564203A202564256420200075626185
:10305A00682074616E6767616C203100756261680F
:10306A002074616E6767616C20320070726F6D70D8
:10307A00742077616B747520310070726F6D707493
:10308A002077616B747520320070726F6D707420D6
:10309A0074616E6767616C20310070726F6D707455
:1030AA002074616E6767616C20320001020341047B
:1030BA00050642070809432A0023445265644C4521
:1030CA004400477265656E4C45440049444C4500CE
:0830DA00546D7220537663006F
:00000001FF
