:100000000C9434000C9446000C9498000C94460018
:100010000C9446000C9446000C9446000C94460048
:100020000C9446000C9446000C9446000C94460038
:100030000C9446000C9446000C9446000C94460028
:100040000C9448000C9446000C9446000C94460016
:100050000C9446000C9446000C9446000C94460008
:100060000C9446000C94460011241FBECFEFD8E03C
:10007000DEBFCDBF21E0A0E0B1E001C01D92AA30FB
:10008000B207E1F70E9403010C9444010C940000B4
:100090001F920F920FB60F9211242F938F939F935D
:1000A000AF93BF93809105018823C1F18091000136
:1000B00090910101A0910201B09103010196A11D4F
:1000C000B11D8093000190930101A0930201B093B0
:1000D00003018091000190910101A0910201B09172
:1000E000030126B5BA2FA92F982F8827820F911DBB
:1000F000A11DB11D8130944DA043B10578F010923F
:100100000501109204018FEF9FEFDC01809306013F
:1001100090930701A0930801B0930901BF91AF919B
:100120009F918F912F910F900FBE0F901F90189558
:100130001F920F920FB60F9211242F933F934F935C
:100140005F936F937F938F939F93AF93BF93EF933F
:10015000FF93809104018823B1F180910501811101
:100160000DC081E080930501109200011092010101
:10017000109202011092030116BC25C010920501D5
:100180008091000190910101A0910201B0910301C1
:1001900026B5BA2FA92F982F8827BC01CD01620F51
:1001A000711D811D911D2AE330E040E050E00E9466
:1001B00022012093060130930701409308015093D8
:1001C000090110920401FF91EF91BF91AF919F91AE
:1001D0008F917F916F915F914F913F912F910F90F0
:1001E0000FBE0F901F90189515B885E08A95F1F70E
:1001F000000081E085B98093040185E38A95F1F7D9
:10020000000015B8089581E084B915B8909169008F
:10021000946090936900E99A8093810016BC809362
:100220006F007894809104018111FCCF2FEF80E75B
:1002300092E0215080409040E1F700C000000E9411
:10024000F400F0CFA1E21A2EAA1BBB1BFD010DC0CA
:10025000AA1FBB1FEE1FFF1FA217B307E407F50776
:1002600020F0A21BB30BE40BF50B661F771F881F52
:10027000991F1A9469F760957095809590959B01E8
:0C028000AC01BD01CF010895F894FFCF40
:00000001FF
