:100000000C9434000C9451000C94A3000C945100F7
:100010000C9451000C9451000C9451000C9451001C
:100020000C9451000C9451000C9451000C9451000C
:100030000C9451000C9451000C9451000C945100FC
:100040000C9453000C9451000C9468010C9493018F
:100050000C9451000C9451000C9451000C945100DC
:100060000C9451000C94510011241FBECFEFD8E026
:10007000DEBFCDBF11E0A0E0B1E0E6EEF9E002C0E6
:1000800005900D92A830B107D9F721E0A8E0B1E0C2
:1000900001C01D92A735B207E1F70E940E010C9432
:1000A000F1040C9400001F920F920FB60F921124CE
:1000B0002F938F939F93AF93BF9380910D018823CC
:1000C000C1F18091080190910901A0910A01B091BC
:1000D0000B010196A11DB11D8093080190930901A8
:1000E000A0930A01B0930B0180910801909109013E
:1000F000A0910A01B0910B0126B5BA2FA92F982F14
:100100008827820F911DA11DB11D8130944DA04300
:10011000B10578F010920D0110920C018FEF9FEF56
:10012000DC0180930E0190930F01A0931001B09316
:100130001101BF91AF919F918F912F910F900FBEA1
:100140000F901F9018951F920F920FB60F921124C7
:100150002F933F934F935F936F937F938F939F93CF
:10016000AF93BF93EF93FF9380910C018823B1F17C
:1001700080910D0181110DC081E080930D011092DD
:1001800008011092090110920A0110920B0116BC8D
:1001900025C010920D018091080190910901A09154
:1001A0000A01B0910B0126B5BA2FA92F982F8827E5
:1001B000BC01CD01620F711D811D911D20EA33E04C
:1001C00040E050E00E94F70120930E0130930F01B0
:1001D000409310015093110110920C01FF91EF9187
:1001E000BF91AF919F918F917F916F915F914F914F
:1001F0003F912F910F900FBE0F901F9018955C9814
:1002000085E08A95F1F700005C9A81E080930C010B
:1002100085E38A95F1F700001BB80895CF93DF932B
:10022000CDB7DEB72A970FB6F894DEBF0FBECDBFAD
:1002300087E690E00E94BD01549A1BB88091690046
:10024000846080936900E99A81E085BD16BC809343
:100250006E00789480E0E82E81E0F82E8E010F5F2A
:100260001F4F80910C0181110BC02FEF80E792E0AE
:10027000215080409040E1F700C000000E94FF0044
:1002800040910E0150910F01609110017091110188
:100290007F936F935F934F93FF92EF921F930F9310
:1002A0000E941902C8010E94EB0184E091E00E94C3
:1002B000EB012FEF83ED90E3215080409040E1F778
:1002C00000C000000FB6F894DEBF0FBECDBFC9CF8F
:1002D0001F920F920FB60F9211242F938F939F931B
:1002E000EF93FF938091C0009091C6008871E091D8
:1002F0001401EF5FEF7120911301E21739F0E093E1
:100300001401F0E0E95EFE4F908301C082E080932B
:100310001201FF91EF919F918F912F910F900FBE3E
:100320000F901F9018951F920F920FB60F921124E5
:100330008F939F93EF93FF939091160180911501F6
:10034000981769F0E0911501EF5FEF71E0931501E7
:10035000F0E0E95CFE4F80818093C60005C080918B
:10036000C1008F7D8093C100FF91EF919F918F918C
:100370000F900FBE0F901F901895109216011092BB
:100380001501109214011092130197FF04C022E08E
:100390002093C0009F779093C5008093C40088E9A4
:1003A0008093C10086E08093C20008959091160169
:1003B0009F5F9F71209115019217E1F3E92FF0E003
:1003C000E95CFE4F8083909316018091C1008062AA
:1003D0008093C1000895CF93DF93EC018991882326
:1003E00019F00E94D601FACFDF91CF910895A1E2D2
:1003F0001A2EAA1BBB1BFD010DC0AA1FBB1FEE1F9F
:10040000FF1FA217B307E407F50720F0A21BB30BE9
:10041000E40BF50B661F771F881F991F1A9469F765
:1004200060957095809590959B01AC01BD01CF01C1
:100430000895AEE0B0E0EFE1F2E00C94C8040D895D
:100440001E8986E08C831A8309838FEF9FE79E8342
:100450008D83AE01475E5F4F6F89788DCE01019627
:100460000E943C022F813885F801E20FF31F1082B1
:100470002E96E4E00C94E404ACE0B0E0E2E4F2E0B8
:100480000C94BA047C016B018A01FC01178216826C
:10049000838181FFBDC1CE0101964C01F70193819B
:1004A000F60193FD859193FF81916F01882309F4F3
:1004B000ABC1853239F493FD859193FF81916F0132
:1004C000853229F4B70190E00E942404E7CF512C33
:1004D000312C20E02032A0F48B3269F030F48032ED
:1004E00059F0833269F420612CC08D3239F08033A9
:1004F00039F4216026C02260246023C0286021C016
:1005000027FD27C030ED380F3A3078F426FF06C0BB
:10051000FAE05F9E300D1124532E13C08AE0389EFE
:10052000300D1124332E20620CC08E3221F426FDB2
:100530006BC1206406C08C3611F4206802C0883676
:1005400041F4F60193FD859193FF81916F01811133
:10055000C1CF982F9F7D9554933028F40C5F1F4F87
:10056000FFE3F9830DC0833631F0833771F08335B3
:1005700009F05BC022C0F801808189830E5F1F4FA4
:1005800044244394512C540115C03801F2E06F0EFD
:10059000711CF801A080B18026FF03C0652D70E0BA
:1005A00002C06FEF7FEFC5012C870E9419042C0158
:1005B00083012C852F77222E17C03801F2E06F0EB1
:1005C000711CF801A080B18026FF03C0652D70E08A
:1005D00002C06FEF7FEFC5012C870E940E042C0133
:1005E0002C852068222E830123FC1BC0832D90E0E4
:1005F00048165906B0F4B70180E290E00E94240446
:100600003A94F4CFF50127FC859127FE81915F0193
:10061000B70190E00E94240431103A94F1E04F1A9F
:1006200051084114510471F7E5C0843611F0893640
:1006300039F5F80127FF07C06081718182819381BC
:100640000C5F1F4F08C060817181072E000C880B62
:10065000990B0E5F1F4F2F76722E97FF09C0909552
:100660008095709561957F4F8F4F9F4F2068722EB8
:100670002AE030E0A4010E945C04A82EA81844C01F
:10068000853729F42F7EB22E2AE030E025C0F22FE4
:10069000F97FBF2E8F36C1F018F4883579F0B4C0D9
:1006A000803719F0883721F0AFC02F2F2061B22E8C
:1006B000B4FE0DC08B2D8460B82E09C024FF0AC083
:1006C0009F2F9660B92E06C028E030E005C020E1DB
:1006D00030E002C020E132E0F801B7FE07C06081DF
:1006E0007181828193810C5F1F4F06C0608171818F
:1006F00080E090E00E5F1F4FA4010E945C04A82ED2
:10070000A818FB2DFF777F2E76FE0BC0372D3E7F7E
:10071000A51450F474FE0AC072FC08C0372D3E7E4A
:1007200005C0BA2C372D03C0BA2C01C0B52C34FF3C
:100730000DC0FE01EA0DF11D8081803311F4397E78
:1007400009C032FF06C0B394B39404C0832F8678E7
:1007500009F0B39433FD13C030FF06C05A2CB31414
:1007600018F4530C5B18B32CB31468F4B70180E28F
:1007700090E03C870E942404B3943C85F5CFB314E9
:1007800010F43B1801C0312C34FF12C0B70180E3D4
:1007900090E03C870E9424043C8532FF17C031FD65
:1007A00003C088E790E002C088E590E0B7010CC084
:1007B000832F867859F031FF02C08BE201C080E2BE
:1007C00037FD8DE2B70190E00E942404A51438F4AF
:1007D000B70180E390E00E9424045A94F7CFAA94D2
:1007E000F401EA0DF11D8081B70190E00E9424041C
:1007F000A110F5CF332009F451CEB70180E290E08B
:100800000E9424043A94F6CFF7018681978102C0B2
:100810008FEF9FEF2C96E2E10C94D604FC0105903B
:10082000615070400110D8F7809590958E0F9F1FF2
:100830000895FC016150704001900110D8F7809537
:1008400090958E0F9F1F08950F931F93CF93DF9363
:10085000FB01238121FD03C08FEF9FEF28C022FF02
:1008600016C046815781248135814217530744F4CD
:10087000A081B1819D012F5F3F4F318320838C93F5
:10088000268137812F5F3F4F3783268310C0EB01CE
:10089000092F182F0084F185E02D0995892BE1F6A9
:1008A0008E819F8101969F838E83812F902FDF9170
:1008B000CF911F910F910895FA01AA27283051F185
:1008C000203181F1E8946F936E7F6E5F7F4F8F4F81
:1008D0009F4FAF4FB1E03ED0B4E03CD0670F781FE0
:1008E000891F9A1FA11D680F791F8A1F911DA11DC5
:1008F0006A0F711D811D911DA11D20D009F46894FE
:100900003F912AE0269F11243019305D3193DEF6A5
:10091000CF010895462F4770405D4193B3E00FD05B
:10092000C9F7F6CF462F4F70405D4A3318F0495D46
:1009300031FD4052419302D0A9F7EACFB4E0A69529
:100940009795879577956795BA95C9F7009761054B
:10095000710508959B01AC010A2E069457954795A1
:1009600037952795BA95C9F7620F731F841F951F96
:10097000A01D08952F923F924F925F926F927F92A7
:100980008F929F92AF92BF92CF92DF92EF92FF929F
:100990000F931F93CF93DF93CDB7DEB7CA1BDB0B4B
:1009A0000FB6F894DEBF0FBECDBF09942A883988F0
:1009B00048885F846E847D848C849B84AA84B984F7
:1009C000C884DF80EE80FD800C811B81AA81B98103
:1009D000CE0FD11D0FB6F894DEBF0FBECDBFED0117
:0609E0000895F894FFCF1A
:0809E600256C64000D0A0000FD
:00000001FF
