:100000000C943E000C945B000C942B020C945B004F
:100010000C945B000C945B000C94C7070C945B0081
:100020000C945B000C945B000C945B000C94D90066
:100030000C945B000C945B000C945B000C945B00D4
:100040000C94DE010C945B000C9446050C94710535
:100050000C945B000C945B000C945B000C945B00B4
:100060000C945B000C945B00E910E910E910AE10F1
:1000700013112111E910E910AE10131111241FBE44
:10008000CFEFD8E0DEBFCDBF11E0A0E0B1E0E0E40B
:10009000FBE202C005900D92A037B107D9F722E02C
:1000A000A0E7B1E001C01D92AE35B207E1F70E94B2
:1000B000BD000C949E150C94000060E080E00E944E
:1000C0004304E7E1F1E001900020E9F73197BF0137
:1000D0006751714087E191E00C94BB0461E080E0DE
:1000E0000E944304E6E0F1E001900020E9F7319737
:1000F000BF016650714086E091E00C94BB040E9401
:100100005D000C946E00CF93DF9300D0CDB7DEB7C7
:100110000E944C0C9A838983229A53982A985B9A5E
:1001200080916900846080936900E99A81E085BDCF
:1001300016BC80936E00789411E08091700181115B
:1001400011C083E090E00E94A90D229885E08A9575
:10015000F1F700002A9A1093700185E38A95F1F770
:1001600000002A980E94E9020E947F006CE070E083
:10017000CE0101960E94710DE0CFEF92FF920F9396
:10018000F8940E94F002E12CF12C03E020E030E032
:1001900040E051E06EE271E083E890E00E94110BD4
:1001A0000E94180C80E090E00F91FF90EF9008956E
:1001B000FFCF1F920F920FB60F921124CF92DF92B2
:1001C000EF92FF922F933F934F935F936F937F93A1
:1001D0008F939F93AF93BF93EF93FF9380917F0192
:1001E0008F5F8C3318F480937F0107C010927F01DA
:1001F000809180018F5F80938001809180018C339A
:1002000038F010928001809181018F5F809381018D
:1002100080918101883138F010928101809128010C
:100220008F5F80932801809129018230A1F5C090D1
:100230002A01D0902B01E0902C01F0902D01D701E4
:10024000C60183709927AA27BB27892B8A2B8B2B62
:1002500061F4C701B60124E630E040E050E00E94BE
:100260006111672B682B692B61F4C701B60120E986
:1002700031E040E050E00E946111672B682B692B50
:1002800051F4809128018E3130F081E08093280173
:1002900083E080932901809129018230A1F5C090EB
:1002A0002A01D0902B01E0902C01F0902D01D70174
:1002B000C60183709927AA27BB27892B8A2B8B2BF2
:1002C000C1F4C701B60124E630E040E050E00E94EE
:1002D0006111672B682B692BB1F4C701B60120E9C6
:1002E00031E040E050E00E946111672B682B692BE0
:1002F00051F0809128018D3130F081E08093280108
:1003000083E08093290180912901982F9D7F91306E
:1003100051F0853041F099EF980F923020F08A30FB
:1003200011F08C3051F490912801903230F091E02E
:10033000909328018F5F8093290180912901982F44
:100340009D7F943011F0993051F4909128019F31A4
:1003500030F091E0909328018F5F80932901809184
:1003600029018D30B0F081E08093290180912A012C
:1003700090912B01A0912C01B0912D010196A11D0E
:10038000B11D80932A0190932B01A0932C01B0936F
:100390002D01FF91EF91BF91AF919F918F917F912F
:1003A0006F915F914F913F912F91FF90EF90DF9070
:1003B000CF900F900FBE0F901F9018951F920F9225
:1003C0000FB60F9211242F938F939F93AF93BF93E8
:1003D000809171018823A9F180917201909173013C
:1003E000A0917401B09175010196A11DB11D80937A
:1003F000720190937301A0937401B0937501809181
:10040000720190917301A0917401B091750126B5AC
:10041000BA2FA92F982F8827820F911DA11DB11DDA
:100420008130944DA043B10560F01092710110929B
:10043000700110927601109277011092780110925B
:100440007901BF91AF919F918F912F910F900FBE26
:100450000F901F9018951F920F920FB60F921124B4
:100460002F933F934F935F936F937F938F939F93BC
:10047000AF93BF93EF93FF93809170018823B1F105
:100480008091710181110DC081E080937101109202
:10049000720110927301109274011092750116BCD2
:1004A00025C0109271018091720190917301A09109
:1004B0007401B091750126B5BA2FA92F982F8827FE
:1004C000BC01CD01620F711D811D911D20EA33E039
:1004D00040E050E00E946111209376013093770153
:1004E000409378015093790110927001FF91EF9140
:1004F000BF91AF919F918F917F916F915F914F913C
:100500003F912F910F900FBE0F901F9018950F9352
:100510001F93CF9380914C02CAE06C2F0E9455111B
:100520001F929F9380917F011F928F9380918001F2
:100530001F928F93809181011F928F938091280148
:100540001F928F93809129011F928F9388E391E0EE
:100550009F938F9387E191E09F938F930E94C612A0
:100560000091760110917701209178013091790105
:1005700080914B026C2F0E9455111F929F93809186
:100580007A011F928F933F932F931F930F93809124
:100590007E018F9380917D018F9380917C018F9359
:1005A00080917B018F938FE491E09F938F9386E0FE
:1005B00091E09F938F930E94C6128DB79EB780964D
:1005C0000FB6F8949EBF0FBE8DBFCF911F910F91B4
:1005D000089580918201811102C00C9487020895D0
:1005E00014B817B88FEF85B988B98DE08093810072
:1005F00088E09DE3909389008093880082E0809357
:100600006F0087E690E00E949B058CE00E946A04E0
:1006100080E00E9457040C9467041092B90088E4AB
:100620008093B800089594EA9093BC009091BC0028
:1006300097FFFCCF9091B900987F983021F09031CE
:1006400011F081E008958093BB0084E88093BC00A2
:100650008091BC0087FFFCCF8091B900887F8831F2
:1006600011F0803471F780E0089584E98093BC0034
:100670008091BC0084FDFCCF08958093BB0084E88A
:100680008093BC008091BC0087FFFCCF9091B900A3
:10069000987F81E0983209F480E0089562E080E07C
:1006A0000E94400500C062E080E00C944305CF93B7
:1006B000C82F80918301662311F0816001C08E7F75
:1006C00080938301809183018D7F8093830160916A
:1006D000830180E00E94FE04809183018F778093E4
:1006E0008301809183018F7B8093830180918301BB
:1006F0008F7D80938301809183018F7E809383011E
:10070000C7FF05C080918301806880938301C6FF85
:1007100005C080918301806480938301C5FF05C07B
:1007200080918301806280938301C4FF05C0809122
:1007300083018061809383016091830180E00E9446
:10074000FE040E944E03809183018F778093830182
:10075000809183018F7B80938301809183018F7DC2
:1007600080938301809183018F7E80938301C3FFF7
:1007700005C080918301806880938301C2FF05C01A
:1007800080918301806480938301C1FF05C08091C3
:100790008301806280938301C0FF05C08091830143
:1007A0008061809383016091830180E00E94FE0458
:1007B0000E944E0380918301806180938301809128
:1007C00083018062809383018091830180648093A0
:1007D000830180918301806880938301609183010C
:1007E00080E0CF910C94FE04CF93809183018E7FA3
:1007F0008093830180918301826080938301609163
:10080000830180E00E94FE0462E080E00E944005D7
:1008100000C064E080E00E94E904C82F62E080E04C
:100820000E94430500C062E080E00E94400500C0D5
:1008300064E080E00E94E904C295C07F8F70C82BFD
:1008400062E080E00E9443058C2FCF9108950E94C2
:10085000F40387FDFCCF88E090E00197F1F70C945A
:10086000F403CF93C82F0E94270460E08C2FCF9110
:100870000C945703CF93C82F0E94270461E08C2F5C
:10088000CF910C945703CF93DF931F92CDB7DEB770
:1008900089838981611102C0805801C080540F9002
:1008A000DF91CF910C94310481E00C9431048823C2
:1008B00021F080918301877F03C08091830188604C
:1008C000809383016091830180E00C94FE0482E0B8
:1008D0000C9431041F93CF93DF93182F0E94D804F8
:1008E000109283016091830180E00E94FE04E0E0A9
:1008F000FAEF3197F1F79091830190629093830121
:10090000909183019061909383016091830180E0D5
:100910000E94FE040E944E03E0E0FEE43197F1F7EE
:100920000E944E03C0E0D1E0FE013197F1F70E9432
:100930004E03FE013197F1F7909183019F7E9093D2
:1009400083016091830180E00E94FE040E944E03B7
:100950002197F1F788E20E94310488E00E94310477
:100960000E94540486E00E943104812FDF91CF91D0
:100970001F910C943104EF92FF921F93CF93DF935A
:100980001F92CDB7DEB7182F7C018E2D811B8617E5
:1009900040F4F70181917F0169830E943A046981E3
:1009A000F4CF0F90DF91CF911F91FF90EF900895BA
:1009B0000E940D0385E38A95F1F7000080E090E046
:1009C000FC01EE5AFD4F1082019688309105C1F767
:1009D0000895883088F4683078F4E82FF0E0EE5A13
:1009E000FD4F8081082E000C990B02C095958795CC
:1009F0006A95E2F7817008958FEF0895CF9388305C
:100A000098F4C62F982FE82FF0E0EE5AFD4F608340
:100A100087E2890F880F0E9413038C2F0E943D03E9
:100A20000E94350380E001C08FEFCF910895CF93EE
:100A3000DF93982F883000F56830F0F4E82FF0E06D
:100A4000EE5AFD4F8081C1E0D0E001C0CC0F6A9525
:100A5000EAF7442311F0C82B02C0C095C823C08315
:100A600087E2890F880F0E9413038C2F0E943D0399
:100A70000E94350380E001C08FEFDF91CF91089590
:100A800041E00C94170540E00C9417051F920F925B
:100A90000FB60F9211242F938F939F93EF93FF9391
:100AA0008091C0009091C6008871E0918601EF5F4F
:100AB000EF7120918501E21739F0E0938601F0E0B3
:100AC000E757FE4F908301C082E080938401FF913D
:100AD000EF919F918F912F910F900FBE0F901F90CC
:100AE00018951F920F920FB60F9211248F939F9318
:100AF000EF93FF939091880180918701981769F097
:100B0000E0918701EF5FEF71E0938701F0E0E75537
:100B1000FE4F80818093C60005C08091C1008F7D0B
:100B20008093C100FF91EF919F918F910F900FBE25
:100B30000F901F90189510928801109287011092C3
:100B400086011092850197FF04C022E02093C00027
:100B50009F779093C5008093C40088E98093C1007B
:100B600086E08093C20008958FE380937E0080B773
:100B7000877F80BF80B7806880BF83B7817F83BF56
:100B80000FB6F8940F9283B7816083BF85B78066F4
:100B900085BF8F7D85BF0F900FBE889513BE0895CA
:100BA000259A2D9A2FEF80E792E0215080409040C7
:100BB000E1F700C000001D9AF5CFFC010396928377
:100BC00081832FEF3FEF3483238396838583908740
:100BD000878310820895FC01118610860895CF93B3
:100BE000DF939C01FB01DC011196CD91DC91129702
:100BF000D383C2838C819D81958384838C819D81E5
:100C0000DC0113967C936E9312977D836C833187FE
:100C10002087F90180818F5F8083DF91CF910895D4
:100C20000F931F93CF93DF938C01FB018081918100
:100C30008F3F2FEF920721F4E801AF81B8850EC0F6
:100C4000D801139612962D913C911397E901488192
:100C500059818417950710F0D901F4CF12968D9120
:100C60009C91139793838283EC01FD83EC83B5837E
:100C7000A4831396FC93EE93129711870087F801D3
:100C800080818F5F8083DF91CF911F910F910895B5
:100C9000CF93DF93FC01A085B1858281938124816C
:100CA0003581EC013D832C83C481D5819B838A836C
:100CB00011968D919C9112978E179F0721F4129691
:100CC000DC93CE931197118610868C9181508C9372
:100CD0008C91DF91CF91089531E1FC013083319700
:100CE00022E220833197A3E3A08331976083319779
:100CF000708331971082319760E86083319710825A
:100D0000319762E06083319763E06083319764E0FC
:100D10006083319765E06083319766E06083319747
:100D200067E06083319768E06083319769E06083B2
:100D3000319760E1608331973083319732E13083BE
:100D4000319733E13083319734E13083319735E1A6
:100D50003083319736E13083319737E130833197F3
:100D600038E13083319739E13083319730E2308395
:100D7000319731E2308331972083319723E220830A
:100D80003197408331975083319726E22083319702
:100D900027E22083319728E22083319729E22083BC
:100DA000319720E32083319721E3208386970895AC
:100DB000A89520EC88E190E00FB6F894A895809370
:100DC00060000FBE20936000A0912D02B0912E0212
:100DD000CD91CDBFDD91DEBFFF91EF91DF91CF913E
:100DE000BF91AF919F918F917F916F915F914F9143
:100DF0003F912F911F910F91FF90EF90DF90CF9037
:100E0000BF90AF909F908F907F906F905F904F902A
:100E10003F902F901F900F900FBE0F90089581E08C
:100E200008950F920FB6F8940F921F9211242F92EB
:100E30003F924F925F926F927F928F929F92AF926A
:100E4000BF92CF92DF92EF92FF920F931F932F9357
:100E50003F934F935F936F937F938F939F93AF9342
:100E6000BF93CF93DF93EF93FF93A0912D02B091A7
:100E70002E020DB60D920EB60D920E94C50DA091D8
:100E80002D02B0912E02CD91CDBFDD91DEBFFF913D
:100E9000EF91DF91CF91BF91AF919F918F917F9112
:100EA0006F915F914F913F912F911F910F91FF9003
:100EB000EF90DF90CF90BF90AF909F908F907F90FA
:100EC0006F905F904F903F902F901F900F900FBEAC
:100ED0000F9008950F920FB6F8940F921F9211245D
:100EE0002F923F924F925F926F927F928F929F923A
:100EF000AF92BF92CF92DF92EF92FF920F931F9328
:100F00002F933F934F935F936F937F938F939F9311
:100F1000AF93BF93CF93DF93EF93FF93A0912D02F5
:100F2000B0912E020DB60D920EB60D9213BE0E9418
:100F3000560C81110E94C50DA0912D02B0912E0278
:100F4000CD91CDBFDD91DEBFFF91EF91DF91CF91CC
:100F5000BF91AF919F918F917F916F915F914F91D1
:100F60003F912F911F910F91FF90EF90DF90CF90C5
:100F7000BF90AF909F908F907F906F905F904F90B9
:100F80003F902F901F900F900FBE0F9008950E94DA
:100F90006A0718950FB6F8940F92FC01928D0F9086
:100FA0000FBE81E0911180E008950F931F93CF93BE
:100FB000DF93EC01042F1A8D8C8D81110CC0888178
:100FC0009981892B09F03EC08A819B810E94E80E9D
:100FD0001B821A8238C0482F50E0011115C08C8145
:100FE0009D810E94B6122C8D8C819D81820F911D56
:100FF0009D838C832A813B818217930718F1888116
:1010000099819D838C831EC08E819F810E94B61220
:101010008C8D90E09195819591092E813F81280FCB
:10102000391F3F832E83488159812417350730F4B7
:101030002A813B81820F931F9F838E83023011F49C
:101040001111115080E01F5F1A8FDF91CF911F9116
:101050000F910895FC01CB01448D4423A1F050E091
:1010600026813781240F351F378326836281738160
:101070002617370720F02081318137832683668148
:1010800077810C94B6120895EF92FF921F93CF933D
:10109000DF93EC010FB6F8940F921E8D7C0181E175
:1010A000E80EF11C11165CF48989882341F0C70110
:1010B0000E94550E81110E94D60E1150F3CF8FEF72
:1010C0008E8F0F900FBE0FB6F8940F921D8D7E017C
:1010D00088E0E80EF11C11165CF48885882341F045
:1010E000C7010E94550E81110E94D60E1150F3CFF8
:1010F0008FEF8D8F0F900FBEDF91CF911F91FF90DB
:10110000EF900895CF93DF93EC010FB6F8940F9210
:10111000288139819B8D4C8D949FC0011124F90148
:10112000E80FF91FFB83EA831A8E3D832C83841B0F
:101130009109820F931F9F838E838FEF8D8F8E8FE8
:1011400061110CC08885882389F0CE0108960E9421
:10115000550E882359F00E94110708C0CE01089649
:101160000E94DD05CE0141960E94DD050F900FBE65
:1011700081E0DF91CF910895EF92FF921F93CF937B
:10118000DF931F92CDB7DEB7182F662321F0869F1D
:10119000C001112402C080E090E04F9669830E9454
:1011A00025117C016981009789F0611104C0FC015F
:1011B0009183808304C04F96F70191838083F70168
:1011C000138F648F61E0C7010E948208C7010F90EE
:1011D000DF91CF911F91FF90EF900895AF92BF9252
:1011E000CF92DF92FF920F931F93CF93DF9300D0A4
:1011F00000D01F92CDB7DEB78C016B015D834C83AD
:10120000F22E90E0580188E0A80EB11C0FB6F894B9
:101210000F92F801228D838D281718F0F2E0FF124B
:1012200014C04F2DB601C8010E94D507F80191895D
:10123000992321F0C80141960E94550E81110E9408
:1012400011070F900FBE81E050C02C813D81232BF0
:1012500019F40F900FBE48C0911104C0CE01019641
:101260000E94950E0F900FBE0E94460C0FB6F89488
:101270000F92F801858D8F3F09F4158EF801868D48
:101280008F3F09F4168E0F900FBEBE016C5F7F4F2B
:10129000CE0101960E94A00E811121C00FB6F894D4
:1012A0000F92F801928D838D0F900FBE981311C08D
:1012B0006C817D81C5010E94230EC8010E944408F3
:1012C0000E94020D882311F091E0A0CF0E94110727
:1012D000FBCFC8010E9444080E94020DF5CFC8014F
:1012E0000E9444080E94020D80E00F900F900F9022
:1012F0000F900F90DF91CF911F910F91FF90DF9092
:10130000CF90BF90AF900895EF92FF921F93CF932D
:10131000DF93EC019A8D8B8D981710F02230E1F459
:101320007A011E8D422FCE010E94D5071F3F81F406
:101330008989882379F0CE0141960E94550E882331
:1013400049F0E114F10431F081E0F701808305C038
:101350001F5F1E8F81E001C080E0DF91CF911F9160
:10136000FF90EF900895AF92BF92CF92DF92FF92DD
:101370000F931F93CF93DF9300D000D01F92CDB770
:10138000DEB78C016B015D834C8390E0580181E1F5
:10139000A80EB11C0FB6F8940F92F801F28CFF2042
:1013A000A9F0B601C8010E942A08FA94F801F28E49
:1013B0008085882339F0C80108960E94550E811156
:1013C0000E9411070F900FBE81E050C02C813D811B
:1013D000232B19F40F900FBE48C0911104C0CE0109
:1013E00001960E94950E0F900FBE0E94460C0FB6FC
:1013F000F8940F92F801858D8F3F09F4158EF8014E
:10140000868D8F3F09F4168E0F900FBEBE016C5F64
:101410007F4FCE0101960E94A00E81111CC0C80111
:101420000E94CA07882389F06C817D81C5010E94D2
:10143000230EC8010E9444080E94020D882311F067
:1014400091E0A8CF0E941107FBCFC8010E94440879
:101450000E94020DF5CFC8010E9444080E94020DAF
:10146000C8010E94CA07882359F380E00F900F90AB
:101470000F900F900F90DF91CF911F910F91FF90E0
:10148000DF90CF90BF90AF900895CF93DF93EC01A2
:101490000FB6F8940F928D8D8F3F09F41D8E8E8DAF
:1014A0008F3F09F41E8E0F900FBE8A8D811104C0EC
:1014B000CE0141960E94350ECE01DF91CF910C9462
:1014C0004408E091F501F091F6018081811103C09B
:1014D0008FEF9FEF0CC0E091F501F091F6010580D0
:1014E000F681E02D0680F781E02D82819381909333
:1014F000CD018093CC010895EF92FF920F931F933B
:10150000CF93DF931F92CDB7DEB77C010091D4015A
:101510001091D50180912D0290912E02029669833F
:101520000E94480669818FEFE816F80699F4662351
:1015300089F060912D0270912E026E5F7F4F87EDD2
:1015400091E00F90DF91CF911F910F91FF90EF905D
:101550000C94EF05E00EF11EE0912D02F0912E02A9
:10156000F382E28260912D0270912E02E016F10664
:1015700078F48091F3019091F4016E5F7F4F0F90AA
:10158000DF91CF911F910F91FF90EF900C94100677
:101590008091F5019091F6016E5F7F4F0E941006D9
:1015A0008091CC019091CD01E816F90620F4F092DB
:1015B000CD01E092CC010F90DF91CF911F910F915F
:1015C000FF90EF9008958091E001882309F10FB614
:1015D000F8940F92E091E601F091E701C681D7817E
:1015E000CE0102960E9448068091D60181508093D8
:1015F000D6018091E00181508093E0010F900FBEF1
:101600008F89988D0E944411CE010E944411DBCF36
:1016100080910902823010F00E9411070E94B405E7
:10162000D2CF5F926F927F928F929F92AF92BF9232
:10163000CF92DF92EF92FF920F931F93CF93DF939E
:101640005C013B016A014901502ECA010E9425112B
:101650008C01892B09F4DBC088E290E00E942511FF
:10166000EC01892BB1F0188F0F8BA60165EA70E0B1
:10167000C8010E94BF1221E0C21AD1088F89988D3B
:10168000C80ED91EBE01675E7F4FF301C3010896E5
:1016900007C0C8010E944411BAC0E817F90749F011
:1016A0009F014191DB014D93BD01D9012C91211185
:1016B000F4CF18A2052D043008F003E00E8B09A327
:1016C0001AA23E01B2E06B0E711CC3010E94EB0531
:1016D000CE010C960E94EB05D987C88784E090E084
:1016E000801B91099D878C87DB8BCA8B1BA21CA258
:1016F0001DA21EA21FA2A401B501C6010E946C0674
:1017000099838883E114F10419F0F701D183C08330
:101710000FB6F8940F928091D6018F5F8093D60117
:1017200080912D0290912E02892BD1F5D0932E021B
:10173000C0932D028091D601813009F041C089E02B
:1017400092E00E94DD0582E192E00E94DD058BE1DE
:1017500092E00E94DD0584E292E00E94DD0580E0D7
:1017600092E00E94DD0587EF91E00E94DD058AEEA0
:1017700091E00E94DD0581EE91E00E94DD0587ED9C
:1017800091E00E94DD0580E092E09093F601809365
:10179000F50187EF91E09093F4018093F30110C07D
:1017A0008091D20181110CC0E0912D02F0912E02A6
:1017B00096898E89891720F0D0932E02C0932D022E
:1017C0008091CE018F5F8093CE018E899091D3015D
:1017D000981710F48093D301F9E08F9FC001112472
:1017E000B301875F9D4F0E94EF050F900FBE809160
:1017F000D201882351F0E0912D02F0912E029689BA
:101800008E89981710F40E94110781E001C08FEFB4
:10181000DF91CF911F910F91FF90EF90DF90CF90CC
:10182000BF90AF909F908F907F906F905F90089542
:10183000EF92FF920F938AECE82E81E0F82E00E001
:1018400020E030E045E550E062E671E083EE9AE0AA
:101850000E94110B8130B1F40E94750F813091F418
:10186000F8942FEF3FEF3093CD012093CC0180937C
:10187000D2011092D5011092D4010F91FF90EF90F8
:101880000C94D8060F91FF90EF9008958091C901B4
:101890008F5F8093C90108950FB6F8940F928091DD
:1018A000D4019091D5010F900FBE0895CF92DF9291
:1018B000EF92FF920F931F93CF93DF938091C90113
:1018C00081118CC00091D4011091D5010F5F1F4F81
:1018D0001093D5010093D40101151105B9F480913D
:1018E000F5019091F6012091F3013091F4013093CC
:1018F000F6012093F5019093F4018093F301809118
:10190000CF018F5F8093CF010E94610A8091CC014B
:101910009091CD01C0E00817190708F44FC0D9E035
:10192000E091F501F091F6018081811103C08FEF04
:101930009FEF11C0E091F501F091F6010580F6816D
:10194000E02DE680F780D70112968D919C91139738
:101950000817190728F49093CD018093CC012EC06D
:101960006701B2E0CB0ED11CC6010E944806F70108
:1019700084899589892B21F0C7010C960E9448061D
:10198000D70156969C918091D301891710F49093BA
:10199000D301D99FC0011124B601875F9D4F0E94DA
:1019A000EF05E0912D02F0912E02D70156969C9101
:1019B0008689981708F4B4CFC1E0B2CFE0912D0228
:1019C000F0912E02E689B9E0EB9FF0011124E75F68
:1019D000FD4F8081823040F0C1E006C08091D1018E
:1019E0008F5F8093D101C0E08091D0018111C1E06F
:1019F0008C2FDF91CF911F910F91FF90EF90DF908F
:101A0000CF900895EF92FF920F931F93CF93DF93A0
:101A10000FB6F8940F928091C90181508093C9014B
:101A20008091C901882311F080E052C08091D601D5
:101A30008823D1F3C0E0D0E089E0F82EEE24E394CF
:101A40008091EA01882351F1E091EF01F091F001DA
:101A5000C681D781CE010C960E9448068E010E5F8A
:101A60001F4FC8010E9448069E898091D3018917A3
:101A700010F49093D301F99EC0011124B801875F3F
:101A80009D4F0E94EF05E0912D02F0912E029E895C
:101A900086899817A8F2E092D001D2CFCD2B11F011
:101AA0000E94610AC091D101CC2351F0D1E00E9483
:101AB000560C8111D093D001C150C9F71092D101B9
:101AC0008091D001882309F4AFCF0E94110781E0F3
:101AD0000F900FBEDF91CF911F910F91FF90EF906C
:101AE00008950F931F93CF93DF938C01EB010E9416
:101AF000460C4091D4015091D501F801608171816B
:101B00009B012C0F3D1F4617570728F42617370750
:101B100048F491E004C091E02617370720F04217FF
:101B2000530708F090E0F80131832083992331F0C6
:101B300060E0C901841B950B0E947C0A0E94020D83
:101B4000811102C00E941107DF91CF911F910F9167
:101B50000895CF93DF9300D0CDB7DEB7009719F487
:101B60000E9411070DC089839A830E94460C60E091
:101B700089819A810E947C0A0E94020D882381F348
:101B80000F900F90DF91CF9108958091C901882324
:101B900021F081E08093D00108951092D001A091AE
:101BA0002D02B0912E02E0912D02F0912E022D9186
:101BB0003C918789908D8217930760F060912D0288
:101BC00070912E0280912D0290912E02675E7F4FC0
:101BD0000E94D8008091D30169E0482F50E0649FB3
:101BE0009001659F300D1124F901E75FFD4F908151
:101BF000911102C08150F1CFA181B28112960D9056
:101C0000BC91A02DB283A183245F3D4FA217B307DF
:101C100031F412962D913C9113973283218399E0F0
:101C2000949FF001959FF00D1124E75FFD4F018017
:101C3000F281E02D2681378130932E0220932D02F0
:101C40008093D3010895CF93DF93EB0120912D0270
:101C500030912E02B901645F7F4F0E94100661E04F
:101C6000CE01DF91CF910C947C0A0F931F93CF93F9
:101C7000DF931F92CDB7DEB78B0120912D023091FB
:101C80002E02B901645F7F4F49830E94EF054981AD
:101C9000442311F00FEF1FEF642FC8010F90DF9165
:101CA000CF911F910F910C947C0A0F931F93CF93A8
:101CB000DF93DC011596ED91FC911697C681D781D3
:101CC0008E01045F1F4FC8010E9448068091C90120
:101CD000811114C00A501109C8010E9448069E894A
:101CE0008091D301891710F49093D301B9E09B9FA1
:101CF000C0011124B801875F9D4F03C0B8018AEE6F
:101D000091E00E94EF05E0912D02F0912E029E8954
:101D10008689891720F481E08093D00101C080E09A
:101D2000DF91CF911F910F9108952091CF01FC0178
:101D300020832091D4013091D501328321830895ED
:101D4000CF93DF930FB6F8940F924091D401509146
:101D5000D501DC011196ED91FC911297EB012881E0
:101D600039812F3FDFEF3D07C9F0B091CF01EC0182
:101D7000A881BA1719F04E175F0790F44E1B5F0B3E
:101D8000FB014217530738F4241B350B31832083A2
:101D90000E94950E03C01182108202C080E001C033
:101DA00081E00F900FBEDF91CF91089581E0809385
:101DB000D00108958091D201882331F08091C9012A
:101DC000882321F080E0089581E0089582E008955D
:101DD0000F931F93CF93DF93FC01892B11F480E0C5
:101DE0002CC082A1815082A3268991A12917B9F321
:101DF0008111F5CFEF018F010E5F1F4FC8010E94C7
:101E0000480699A19E8B492F50E024E030E0241B26
:101E1000350B3D872C878091D301891710F490935F
:101E2000D30129E0249FC001259F900D1124B80102
:101E3000875F9D4F0E94EF0581E0DF91CF911F9159
:101E40000F9108950FB6F8940F92809133029091FC
:101E50003402892BE9F482E492E00E94DD0589E3F3
:101E600092E00E94DD0582E492E090933802809334
:101E7000370289E392E0909336028093350240E086
:101E800065E08AE00E94BC0890933402809333029C
:101E90000F900FBE0895FC01738362839187808742
:101EA0004617570778F0421B530B848595854817D2
:101EB0005907C8F4BF016E5F7F4F80913502909142
:101EC00036020DC04217530718F46217730758F40F
:101ED000BF016E5F7F4F80913702909138020E9460
:101EE000100680E0089581E00895EF92FF920F932D
:101EF0000E94220F8091330290913402892B81F04D
:101F000081E3E82E82E0F82E03E020E030E045E5B2
:101F100050E067E671E085E290E10E94110B01C09C
:101F200080E00F91FF90EF9008950F931F93CF9350
:101F3000DF9300D000D01F92CDB7DEB7A09133025F
:101F4000B0913402109729F1F90169835B834A83C8
:101F50009D838C836630A4F40E94DA0EE0913302F4
:101F6000F091340220E0823011F4A80102C040E078
:101F700050E0BE016F5F7F4FCF010E94EE080AC0A4
:101F800020E0AF01BE016F5F7F4FCD010E94840949
:101F900001C080E00F900F900F900F900F90DF9195
:101FA000CF911F910F910895EF92FF920F931F937E
:101FB000CF93DF93E0913702F0913802808188233C
:101FC00089F10580F681E02DE080F180C681D7811E
:101FD0008E010E5F1F4FC8010E944806E989FA89E9
:101FE000CE0109958E85813029F72C853D852E0DF2
:101FF0003F1DE216F30660F43B832A83D987C88726
:10200000B80180913702909138020E941006D2CF19
:1020100000E010E020E030E0A70160E0CE010E9487
:10202000950FC8CF80913502909136029093380277
:1020300080933702F0933602E0933502DF91CF911F
:102040001F910F91FF90EF900895CF93DF93CDB73D
:10205000DEB727970FB6F894DEBF0FBECDBFE09175
:102060003702F09138028081DD24D394882339F03F
:10207000D12C0580F681E02DE080F18002C0E12CBA
:10208000F12C0E94460C0E944C0C8C0180912F0276
:10209000909130020817190720F40E94D40F81E0B4
:1020A00001C080E01093300200932F02811150C0D4
:1020B000D11036C00E151F05D0F10E94020DE0911F
:1020C0003702F09138020580F681E02DC680D78076
:1020D000C60102960E944806D6011E968C911E9754
:1020E0008130B1F41C966D917C911D976E0D7F1D12
:1020F0009701A801C6010E944B0F882349F000E018
:1021000010E020E030E0A70160E0C6010E94950FDA
:10211000D6015196ED91FC915297C60109951EC0CA
:10212000E0913502F0913602808141E0811140E07A
:10213000B701601B710B80913302909134020E94B1
:10214000450A0E94020D811109C00E94110706C0B4
:102150000E94020D03C0898187FF0EC040E050E05D
:10216000BE016F5F7F4F80913302909134020E94D5
:10217000B3098111F0CF73CFEC80FD80F701828528
:102180009385892B21F0C70102960E9448060E9480
:102190004C0CAC0180912F029091300248175907E6
:1021A00030F44E835F830E94D40F5F814E81509341
:1021B000300240932F02E9810E2FEE0F110B220BFC
:1021C000330B0A30110550F6F801EC5CFF4F0C940C
:1021D00083112A813B81D7011C966D917C911D97BB
:1021E000620F731FC7010E944B0F882309F4B6CFFB
:1021F000D7015196ED91FC915297C7010995F701CE
:102200008685813009F0AACF448555858A819B81D6
:10221000480F591F00E010E020E030E060E0C70107
:102220000E94950F9BCF6A817B81D7011D967C937D
:102230006E931C97640F751F9A01C7010E944B0F84
:102240008DCFC7010E94441189CF0F931F93CF9365
:10225000DF9300D0CDB7DEB789839A830E94460C06
:1022600089819A810E9489118C010E94020D0115B9
:10227000110511F40E94D005C8010F900F90DF9155
:10228000CF911F910F910895CF93DF93009751F055
:10229000EC010E94460CCE010E941E12DF91CF91EC
:1022A0000C94020DDF91CF910895991B79E004C041
:1022B000991F961708F0961B881F7A95C9F7809585
:1022C0000895A1E21A2EAA1BBB1BFD010DC0AA1F77
:1022D000BB1FEE1FFF1FA217B307E407F50720F08F
:1022E000A21BB30BE40BF50B661F771F881F991F0A
:1022F0001A9469F760957095809590959B01AC0153
:10230000BD01CF010895EE0FFF1F0590F491E02D60
:102310000994CF93DF938230910510F482E090E02E
:10232000E0915C02F0915D0220E030E0C0E0D0E09E
:10233000309711F14081518148175907C0F0481773
:10234000590761F482819381209719F09B838A83D6
:102350002BC090935D0280935C0226C0211531054D
:1023600019F04217530718F49A01BE01DF01EF017B
:102370000280F381E02DDCCF2115310509F1281B06
:10238000390B2430310590F412968D919C9113975E
:102390006115710521F0FB019383828304C0909342
:1023A0005D0280935C02FD01329644C0FD01E20FA4
:1023B000F31F81939193225031092D933C933AC09E
:1023C00020915A0230915B02232B41F420910201AB
:1023D0003091030130935B0220935A022091000157
:1023E000309101012115310541F42DB73EB74091DF
:1023F000040150910501241B350BE0915A02F09124
:102400005B02E217F307A0F42E1B3F0B28173907D6
:1024100078F0AC014E5F5F4F2417350748F04E0F40
:102420005F1F50935B0240935A028193919302C0C5
:10243000E0E0F0E0CF01DF91CF9108950F931F937B
:10244000CF93DF93009709F48CC0FC01329713827D
:10245000128200915C0210915D020115110581F458
:1024600020813181820F931F20915A0230915B02AB
:102470002817390779F5F0935B02E0935A0271C08F
:10248000D80140E050E0AE17BF0750F412962D91EE
:102490003C911397AD012115310509F1D901F3CF15
:1024A0009D01DA013383228360817181860F971F3A
:1024B0008217930769F4EC0128813981260F371FB1
:1024C0002E5F3F4F318320838A819B819383828358
:1024D000452B29F4F0935D02E0935C0242C0139611
:1024E000FC93EE931297ED01499159919E01240FAF
:1024F000351FE217F30771F480819181840F951FD6
:10250000029611969C938E938281938113969C934D
:102510008E931297E0E0F0E0D80112968D919C9195
:102520001397009719F0F8018C01F6CF8D919C91CB
:1025300098012E5F3F4F820F931F20915A023091D6
:102540005B022817390769F4309729F410925D026D
:1025500010925C0202C01382128210935B020093FD
:102560005A02DF91CF911F910F910895FB01DC0179
:1025700002C001900D9241505040D8F70895DC01FF
:1025800001C06D9341505040E0F70895AEE0B0E0D7
:10259000ECECF2E10C9475150D891E8986E08C83B4
:1025A0001A8309838FEF9FE79E838D83AE01475E79
:1025B0005F4F6F89788DCE0101960E94E9122F81BD
:1025C0003885F801E20FF31F10822E96E4E00C9498
:1025D0009115ACE0B0E0EFEEF2E10C9467157C01F0
:1025E0006B018A01FC0117821682838181FFBDC1C4
:1025F000CE0101964C01F7019381F60193FD85917F
:1026000093FF81916F01882309F4ABC1853239F4BE
:1026100093FD859193FF81916F01853229F4B70174
:1026200090E00E94D114E7CF512C312C20E02032D1
:10263000A0F48B3269F030F4803259F0833269F4BF
:1026400020612CC08D3239F0803339F4216026C0EE
:102650002260246023C0286021C027FD27C030ED00
:10266000380F3A3078F426FF06C0FAE05F9E300D4E
:102670001124532E13C08AE0389E300D1124332EBE
:1026800020620CC08E3221F426FD6BC1206406C08E
:102690008C3611F4206802C0883641F4F60193FDAF
:1026A000859193FF81916F018111C1CF982F9F7DFB
:1026B0009554933028F40C5F1F4FFFE3F9830DC04E
:1026C000833631F0833771F0833509F05BC022C067
:1026D000F801808189830E5F1F4F44244394512C5D
:1026E000540115C03801F2E06F0E711CF801A08092
:1026F000B18026FF03C0652D70E002C06FEF7FEF51
:10270000C5012C870E94C6142C0183012C852F77CC
:10271000222E17C03801F2E06F0E711CF801A08064
:10272000B18026FF03C0652D70E002C06FEF7FEF20
:10273000C5012C870E94BB142C012C852068222EF9
:10274000830123FC1BC0832D90E048165906B0F48A
:10275000B70180E290E00E94D1143A94F4CFF501E1
:1027600027FC859127FE81915F01B70190E00E94CF
:10277000D11431103A94F1E04F1A51084114510428
:1027800071F7E5C0843611F0893639F5F80127FF75
:1027900007C060817181828193810C5F1F4F08C0E7
:1027A00060817181072E000C880B990B0E5F1F4F03
:1027B0002F76722E97FF09C0909580957095619540
:1027C0007F4F8F4F9F4F2068722E2AE030E0A40188
:1027D0000E940915A82EA81844C0853729F42F7E19
:1027E000B22E2AE030E025C0F22FF97FBF2E8F36BF
:1027F000C1F018F4883579F0B4C0803719F0883703
:1028000021F0AFC02F2F2061B22EB4FE0DC08B2D52
:102810008460B82E09C024FF0AC09F2F9660B92E8D
:1028200006C028E030E005C020E130E002C020E131
:1028300032E0F801B7FE07C0608171818281938127
:102840000C5F1F4F06C06081718180E090E00E5FD9
:102850001F4FA4010E940915A82EA818FB2DFF7771
:102860007F2E76FE0BC0372D3E7FA51450F474FEEC
:102870000AC072FC08C0372D3E7E05C0BA2C372D29
:1028800003C0BA2C01C0B52C34FF0DC0FE01EA0D07
:10289000F11D8081803311F4397E09C032FF06C0FA
:1028A000B394B39404C0832F867809F0B39433FDB6
:1028B00013C030FF06C05A2CB31418F4530C5B1825
:1028C000B32CB31468F4B70180E290E03C870E9417
:1028D000D114B3943C85F5CFB31410F43B1801C068
:1028E000312C34FF12C0B70180E390E03C870E9496
:1028F000D1143C8532FF17C031FD03C088E790E05A
:1029000002C088E590E0B7010CC0832F867859F0AB
:1029100031FF02C08BE201C080E237FD8DE2B701DA
:1029200090E00E94D114A51438F4B70180E390E040
:102930000E94D1145A94F7CFAA94F401EA0DF11D24
:102940008081B70190E00E94D114A110F5CF33200F
:1029500009F451CEB70180E290E00E94D1143A947C
:10296000F6CFF7018681978102C08FEF9FEF2C96FB
:10297000E2E10C948315FC01059061507040011058
:10298000D8F7809590958E0F9F1F0895FC01615098
:10299000704001900110D8F7809590958E0F9F1F81
:1029A00008950F931F93CF93DF93FB01238121FDA4
:1029B00003C08FEF9FEF28C022FF16C046815781CA
:1029C000248135814217530744F4A081B1819D01D0
:1029D0002F5F3F4F318320838C93268137812F5F78
:1029E0003F4F3783268310C0EB01092F182F008437
:1029F000F185E02D0995892BE1F68E819F81019665
:102A00009F838E83812F902FDF91CF911F910F9104
:102A10000895FA01AA27283051F1203181F1E89474
:102A20006F936E7F6E5F7F4F8F4F9F4FAF4FB1E0C1
:102A30003ED0B4E03CD0670F781F891F9A1FA11DBC
:102A4000680F791F8A1F911DA11D6A0F711D811DBD
:102A5000911DA11D20D009F468943F912AE0269F82
:102A600011243019305D3193DEF6CF010895462FE1
:102A70004770405D4193B3E00FD0C9F7F6CF462FC2
:102A80004F70405D4A3318F0495D31FD405241932B
:102A900002D0A9F7EACFB4E0A695979587957795E8
:102AA0006795BA95C9F700976105710508959B016F
:102AB000AC010A2E06945795479537952795BA95F8
:102AC000C9F7620F731F841F951FA01D08952F92D1
:102AD0003F924F925F926F927F928F929F92AF92AE
:102AE000BF92CF92DF92EF92FF920F931F93CF93FB
:102AF000DF93CDB7DEB7CA1BDB0B0FB6F894DEBF92
:102B00000FBECDBF09942A88398848885F846E84B7
:102B10007D848C849B84AA84B984C884DF80EE8001
:102B2000FD800C811B81AA81B981CE0FD11D0FB60A
:102B3000F894DEBF0FBECDBFED010895F894FFCF2E
:102B400000005E0220006768696A6B6C6D6E6F70D2
:102B500071727374757600303132333435363738EC
:102B600039616263646566000101E2070000546137
:102B7000736B536F6E6172002532642D2532647C55
:102B80002532643A2532643A2532647C2564002576
:102B9000346C69737C25346C75636D7C25642025E9
:102BA000640049444C4500546D7220537663000024
:00000001FF
