:100000000C9463000C9480000C9435040C948000D4
:100010000C9480000C9480000C94CF130C948E02EE
:100020000C9480000C9480000C9480000C94E702E7
:100030000C9480000C9480000C9480000C94800040
:100040000C94EC030C9480000C942D110C9458111A
:100050000C9480000C9480000C9480000C94800020
:100060000C9480000C9480008905C205D8052506F3
:100070006C06B306F90642078B07D40719089F08D8
:10008000E30826096709A809E909260A7A0AC50AC0
:10009000FE0A370B6C0BB90BF80B310C6A0C9F0C7A
:1000A000EC0C140D530D8C0DC90DFF0D570E9E0E4B
:1000B0007D0EF11CF11CF11CB61C1B1D291DF11C31
:1000C000F11CB61C1B1D11241FBECFEFD8E0DEBFF4
:1000D000CDBF13E0A0E0B1E0E6E4F3E402C0059098
:1000E0000D92A236B107D9F724E0A2E6B3E001C031
:1000F0001D92AF36B207E1F70E9454020C94A12181
:100100000C94000060E080E00E942A10E7E1F1E03A
:1001100001900020E9F73197BF016751714087E1F5
:1001200091E00C94A21061E080E00E942A10E6E0C9
:10013000F1E001900020E9F73197BF01665071406E
:1001400086E091E00C94A2100E9482000C9493002F
:100150000895803130F4E82FF0E0E65CFE4F8081B6
:1001600008958FEF089583FF02C0209A01C0209860
:1001700082FF02C0219A01C0219881FF02C0229A09
:1001800001C0229880FF02C0239A08952398089501
:1001900083FF02C0289A01C0289882FF02C0299AD2
:1001A00001C0299881FF02C02A9A01C02A9880FFC5
:1001B00002C02B9A08952B980895CF92DF92EF9268
:1001C000FF920F931F93CF9380914C0480934F0421
:1001D00054985598569857985C9A5D9A5E9A5F9A8B
:1001E00000E010E088E0E82EF12C97EFC92ED12C2A
:1001F000C02FC701002E02C0959587950A94E2F79B
:100200000E94B300C601002E02C0959587950A94FE
:10021000E2F70E94C80084E04C990AC08FE99FE091
:100220000197F1F700C000004C9B30C08FEF2FC04A
:100230004D990AC08FE99FE00197F1F700C00000D7
:100240004D99F4CF84E00BC04E990BC08FE99FE02D
:100250000197F1F700C000004E99E8CF88E08C0FBD
:1002600016C04F990AC08FE99FE00197F1F700C0CF
:1002700000004F99DBCF8CE0F2CF815069F60F5F21
:100280001F4F0430110509F0B3CFD0CF8C2FCF9181
:100290001F910F91FF90EF90DF90CF900895809184
:1002A0004C048F3F21F090914F04981721F0109249
:1002B000520410925104089580915204813061F0EB
:1002C00028F08230B1F08330D1F0089580914C0451
:1002D0008F3F09F181E018C090914C049F3F31F0AD
:1002E00092E0909352048093510408951092520426
:1002F000089580914C048F3F71F083E005C0809198
:100300004C048F3F21F082E08093520408951092B4
:10031000520410925104089580914A04811102C040
:100320000E94A8000E947B050E94A40080914B04BB
:1003300080935604809355040895CF93DF9300D0A3
:10034000CDB7DEB70E9454189A83898311E080915B
:100350006203811111C083E090E00E94B1192298DC
:1003600085E08A95F1F700002A9A1093620385E3ED
:100370008A95F1F700002A986CE070E0CE010196B2
:100380000E947919E4CFCF93DF93CDB7DEB72797DB
:100390000FB6F894DEBF0FBECDBF0E9454189F83E6
:1003A0008E830E94A4006FE170E0CE0106960E9449
:1003B00079198EE1882E912CA12CB12C0AE411E040
:1003C000CE0101967C0198EEC92E93E0D92E809142
:1003D000360190913701A0913801B0913901892BF4
:1003E0008A2B8B2BD1F40E94DD0080934C040E9459
:1003F0004F0180914C048F3F11F00E945C0180916D
:100400004C040E94A90080934B0480923601909284
:100410003701A0923801B0923901809151048130A6
:1004200011F40E948C010E947B050E94A40080911F
:10043000320190913301A0913401B0913501892BA3
:100440008A2B8B2B61F580914E048F9380914D0404
:100450008F931F930F93FF92EF920E94C91EC701C3
:100460000E94B01180912A0190912B018C9DA001D6
:100470008D9D500D9C9D500D112460E070E04093C7
:10048000320150933301609334017093350110921F
:100490006F030F900F900F900F900F900F908BE6BF
:1004A00093E00E94B10493CFEF92FF920F93F894E0
:1004B0000E94D50E87E690E00E948211229A5398FE
:1004C0002A985B9AE9E6F0E0808184608083E99A6B
:1004D00081E085BD16BC80936E007894E12CF12CF0
:1004E00003E020E030E040E051E06FE471E083ECB5
:1004F00091E00E94191720E030E040E051E068E50B
:1005000071E08DE991E00E9419170E94201880E0A7
:1005100090E00F91FF90EF900895FFCF1F920F9200
:100520000FB60F9211248F939F93AF93BF93809137
:10053000530490915404019690935404809353046F
:100540008091360190913701A0913801B091390125
:10055000892B8A2B8B2B99F0809136019091370152
:10056000A0913801B09139010197A109B109809397
:10057000360190933701A0933801B09339018091EF
:10058000320190913301A0913401B0913501892B52
:100590008A2B8B2B99F08091320190913301A0919D
:1005A0003401B09135010197A109B109809332015D
:1005B00090933301A0933401B0933501BF91AF9173
:1005C0009F918F910F900FBE0F901F9018951F92C3
:1005D0000F920FB60F921124CF92DF92EF92FF92FB
:1005E0002F933F934F935F936F937F938F939F933B
:1005F000AF93BF93EF93FF9380916C038F5F8C3326
:1006000018F480936C0307C010926C0380916D0303
:100610008F5F80936D0380916D038C3338F010925F
:100620006D0380916E038F5F80936E0380916E03E4
:10063000883138F010926E0380912C018F5F809387
:100640002C0180912D018230A1F5C0902E01D09017
:100650002F01E0903001F0903101D701C601837085
:100660009927AA27BB27892B8A2B8B2B61F4C701DB
:10067000B60124E630E040E050E00E945D1D672BAB
:10068000682B692B61F4C701B60120E931E040E035
:1006900050E00E945D1D672B682B692B51F48091FF
:1006A0002C018E3130F081E080932C0183E0809327
:1006B0002D0180912D018230A1F5C0902E01D090A6
:1006C0002F01E0903001F0903101D701C601837015
:1006D0009927AA27BB27892B8A2B8B2BC1F4C7010B
:1006E000B60124E630E040E050E00E945D1D672B3B
:1006F000682B692BB1F4C701B60120E931E040E075
:1007000050E00E945D1D672B682B692B51F0809192
:100710002C018D3130F081E080932C0183E08093B7
:100720002D0180912D01982F9D7F913051F08530C2
:1007300041F099EF980F923020F08A3011F08C3010
:1007400051F490912C01903230F091E090932C0173
:100750008F5F80932D0180912D01982F9D7F943084
:1007600011F0993051F490912C019F3130F091E0CB
:1007700090932C018F5F80932D0180912D018D30FE
:10078000B0F081E080932D0180912E0190912F0196
:10079000A0913001B09131010196A11DB11D80934E
:1007A0002E0190932F01A0933001B0933101FF915E
:1007B000EF91BF91AF919F918F917F916F915F91D9
:1007C0004F913F912F91FF90EF90DF90CF900F903E
:1007D0000FBE0F901F9018951F920F920FB60F9299
:1007E00011242F938F939F93AF93BF9380916303B3
:1007F000882389F18091640390916503A091660339
:10080000B09167030196A11DB11D8093640390937D
:100810006503A0936603B09367038091640390918E
:100820006503A0916603B091670326B5BA2FA92F7F
:10083000982F8827820F911DA11DB11D8130944DE5
:10084000A043B10540F0109263031092620310922E
:10085000690310926803BF91AF919F918F912F917F
:100860000F900FBE0F901F9018951F920F920FB60A
:100870000F9211242F933F934F935F936F937F9326
:100880008F939F93AF93BF93EF93FF9380916203F6
:10089000882309F455C08091630381110DC081E064
:1008A00080936303109264031092650310926603B1
:1008B0001092670316BC44C01092630380916403D6
:1008C00090916503A0916603B091670326B5BA2F96
:1008D000A92F982F8827BC01CD01620F711D811DA2
:1008E000911D20EA33E040E050E00E945D1DB90117
:1008F0008091680390916903F901E81BF90BCF011E
:10090000F7FF03C0919581959109C2973CF08091C2
:100910006803909169036817790728F43093690395
:100920002093680308C080916803909169039093B5
:1009300069038093680381E080936F0310926203E0
:10094000FF91EF91BF91AF919F918F917F916F91A7
:100950005F914F913F912F910F900FBE0F901F907D
:100960001895249AFC018081813011F42C9A089505
:100970002C98089520916803309169038091280193
:10098000909129018217930730F0209168033091EC
:100990006903821B930B90934E0480934D048091C6
:1009A0006A0381110CC020914D0430914E04809156
:1009B0005704909158042817390758F406C081301D
:1009C00041F480916204813021F481E080936B03D3
:1009D00002C010926B03109261041092590410929D
:1009E0005A0410925B0410925C0410925D04109201
:1009F0005E0410925F0410926004809151041F9273
:100A00008F9380916C031F928F9380916D031F923F
:100A10008F9380916E031F928F9380912C011F9270
:100A20008F9380912D011F928F9382E691E09F9387
:100A30008F9387E191E09F938F930E94C91E8091CD
:100A40002A0190912B0120916A031F922F932091EC
:100A50006B031F922F9320914E042F9320914D04EE
:100A60002F939F938F9389E791E09F938F9386E0D5
:100A700091E09F938F930E94C91E8DB79EB74C96AD
:100A80000FB6F8949EBF0FBE8DBF08958091580495
:100A90008F93809157048F93809131018F93809130
:100AA00030018F9380912F018F9380912E018F932E
:100AB0008AE891E09F938F9387E191E09F938F93D2
:100AC0000E94C91E809129018F93809128018F93E4
:100AD0008AE991E09F938F9386E091E09F938F93B3
:100AE0000E94C91E8DB79EB740960FB6F8949EBF60
:100AF0000FBE8DBF0895E09170038E2F90E0853278
:100B0000910510F00C94C40EFC01EC5CFF4F0C94AA
:100B10007F1D0E94BA0480914B048A3239F480917F
:100B20005204813011F00C94C40E09C0813451F488
:100B300080915204813011F00C94C40E82E08093B5
:100B400070030895823441F480915204813011F091
:100B50000C94C40E82E1F3CF833441F480915204AB
:100B6000813011F00C94C40E8CE1E9CF843411F083
:100B70000C94C40E80915204813011F00C94C40E78
:100B800082E2DDCF0E9446058091510490914B0492
:100B9000813029F49A3211F00C94C20E08959F3FCF
:100BA00011F00C94C40E81110C94C40E0C94C20E5E
:100BB0006AEA71E087E191E00E94C21E80916004C0
:100BC0001F928F9380915F041F928F9380915E0498
:100BD0001F928F9380915D041F928F9380915C048C
:100BE0001F928F9380915B041F928F9380915A0480
:100BF0001F928F93809159041F928F938BEB91E0FA
:100C00009F938F9386E091E09F938F930E94C91EDC
:100C100080914B042DB73EB72C5E3F4F0FB6F89432
:100C20003EBF0FBE2DBF8A3008F07CC290915204A7
:100C3000913011F00C94C40E90916104E92FF0E012
:100C4000E75AFB4F808383E0FBC2809160041F92D0
:100C50008F9380915F041F928F9380915E041F9207
:100C60008F9380915D041F928F9380915C041F92FB
:100C70008F9380915B041F928F9380915A041F92EF
:100C80008F93809159041F928F938BEB91E09F93E8
:100C90008F9386E091E09F938F930E94C91E80916D
:100CA0004B042DB73EB72C5E3F4F0FB6F8943EBFB6
:100CB0000FBE2DBF8A3008F035C29091520491309A
:100CC00011F00C94C40E90916104E92FF0E0E75A02
:100CD000FB4F808384E0B4C2809160041F928F93A5
:100CE00080915F041F928F9380915E041F928F9377
:100CF00080915D041F928F9380915C041F928F936B
:100D000080915B041F928F9380915A041F928F935E
:100D1000809159041F928F938BEB91E09F938F9357
:100D200086E091E09F938F930E94C91E80914B04AF
:100D30002DB73EB72C5E3F4F0FB6F8943EBF0FBEA7
:100D40002DBF8A3008F0EEC190915204913011F01D
:100D50000C94C40E90916104E92FF0E0E75AFB4F28
:100D6000808385E06DC2809160041F928F93809193
:100D70005F041F928F9380915E041F928F938091E6
:100D80005D041F928F9380915C041F928F938091DA
:100D90005B041F928F9380915A041F928F938091CE
:100DA00059041F928F938BEB91E09F938F9386E072
:100DB00091E09F938F930E94C91E80914B042DB7A1
:100DC0003EB72C5E3F4F0FB6F8943EBF0FBE2DBF0F
:100DD0008A3008F0A7C190915204913009F0D4C72D
:100DE00090916104E92FF0E0E75AFB4F808386E0A1
:100DF00027C2809160041F928F9380915F041F929D
:100E00008F9380915E041F928F9380915D041F9257
:100E10008F9380915C041F928F9380915B041F924B
:100E20008F9380915A041F928F93809159041F923F
:100E30008F938BEB91E09F938F9386E091E09F934C
:100E40008F930E94C91E80914B042DB73EB72C5E34
:100E50003F4F0FB6F8943EBF0FBE2DBF8A3008F04B
:100E600061C190915204913009F08EC79091610454
:100E7000E92FF0E0E75AFB4F80839F5F9093610476
:100E800087E05DCE809160041F928F9380915F0414
:100E90001F928F9380915E041F928F9380915D04C7
:100EA0001F928F9380915C041F928F9380915B04BB
:100EB0001F928F9380915A041F928F9380915904AF
:100EC0001F928F938BEB91E09F938F9386E091E03D
:100ED0009F938F930E94C91E80914B042DB73EB7FC
:100EE0002C5E3F4F0FB6F8943EBF0FBE2DBF8A3029
:100EF00008F018C190915204913009F045C79091C3
:100F00006104E92FF0E0E75AFB4F80839F5F9093E5
:100F1000610488E014CE809160041F928F938091C9
:100F20005F041F928F9380915E041F928F93809134
:100F30005D041F928F9380915C041F928F93809128
:100F40005B041F928F9380915A041F928F9380911C
:100F500059041F928F938BEB91E09F938F9386E0C0
:100F600091E09F938F930E94C91E80914B042DB7EF
:100F70003EB72C5E3F4F0FB6F8943EBF0FBE2DBF5D
:100F80008A3008F0CFC090915204913009F0FCC62D
:100F900090916104E92FF0E0E75AFB4F80839F5F57
:100FA0009093610489E0CBCD809160041F928F9370
:100FB00080915F041F928F9380915E041F928F93A4
:100FC00080915D041F928F9380915C041F928F9398
:100FD00080915B041F928F9380915A041F928F938C
:100FE000809159041F928F938BEB91E09F938F9385
:100FF00086E091E09F938F930E94C91E80914B04DD
:101000002DB73EB72C5E3F4F0FB6F8943EBF0FBED4
:101010002DBF8A3008F086C090915204913009F0BB
:10102000B3C6E0916104F0E0E75AFB4F80838AE0A9
:1010300086CD809160041F928F9380915F041F92F0
:101040008F9380915E041F928F9380915D041F9215
:101050008F9380915C041F928F9380915B041F9209
:101060008F9380915A041F928F93809159041F92FD
:101070008F9384ED91E09F938F9386E091E09F930F
:101080008F930E94C91E80914B042DB73EB72C5EF2
:101090003F4F0FB6F8943EBF0FBE2DBF833209F00D
:1010A00041C080915204813009F06EC630915A04DB
:1010B00020915B046091590448EE53E0649FC001A5
:1010C000659F900D112444E6349F800D911D1124DD
:1010D0003AE0239F800D911D112420915C04820F22
:1010E000911D092E000CAA0BBB0B80932E0190932F
:1010F0002F01A0933001B093310190915D04809154
:101100005E044AE0949F800D112480932D019091FC
:101110005F04809160042AE0929F800D11248093E7
:101120002C0130C68A3209F42DC6813409F02CC650
:1011300080915204813009F027C68BE000CD1092D7
:10114000590410925A0410925B0410925C0410929D
:101150005D0410925E046DEE71E087E191E00E9403
:10116000C21E1F921F921F921F921F921F921F92C8
:101170001F921F921F921F921F928EEF91E09F93DA
:101180008F9386E091E09F938F930E94C91E809178
:101190004B042DB73EB7205F3F4F0FB6F8943EBFCC
:1011A0000FBE2DBF8A3008F076C590915204913061
:1011B00009F0EAC590916104E92FF0E0E75AFB4F8E
:1011C00080838CE03DC080915E041F928F9380915C
:1011D0005D041F928F9380915C041F928F93809186
:1011E0005B041F928F9380915A041F928F9380917A
:1011F00059041F928F938EEF91E09F938F9386E017
:1012000091E09F938F930E94C91E80914B042DB74C
:101210003EB7205F3F4F0FB6F8943EBF0FBE2DBFC5
:101220008A3008F038C590915204913009F0ACC56D
:1012300090916104E92FF0E0E75AFB4F80838DE045
:10124000809370039F5F90936104089580915E0482
:101250001F928F9380915D041F928F9380915C0405
:101260001F928F9380915B041F928F9380915A04F9
:101270001F928F93809159041F928F938EEF91E06C
:101280009F938F9386E091E09F938F930E94C91E56
:1012900080914B042DB73EB7205F3F4F0FB6F894B7
:1012A0003EBF0FBE2DBF8A3008F0F5C490915204A6
:1012B000913009F069C590916104E92FF0E0E75A97
:1012C000FB4F80839F5F909361048EE038CC8091C8
:1012D0005E041F928F9380915D041F928F93809183
:1012E0005C041F928F9380915B041F928F93809177
:1012F0005A041F928F93809159041F928F938EEFFF
:1013000091E09F938F9386E091E09F938F930E944B
:10131000C91E80914B042DB73EB7205F3F4F0FB6DB
:10132000F8943EBF0FBE2DBF8A3008F0B4C4909130
:101330005204913009F028C590916104E92FF0E042
:10134000E75AFB4F80839F5F909361048FE0F7CB58
:1013500080915E041F928F9380915D041F928F9302
:1013600080915C041F928F9380915B041F928F93F6
:1013700080915A041F928F93809159041F928F93EA
:101380008EEF91E09F938F9386E091E09F938F93F0
:101390000E94C91E80914B042DB73EB7205F3F4F7E
:1013A0000FB6F8943EBF0FBE2DBF8A3008F073C44D
:1013B00090915204913009F0E7C490916104E92FB3
:1013C000F0E0E75AFB4F80839F5F9093610480E1D8
:1013D000B6CB80915E041F928F9380915D041F9223
:1013E0008F9380915C041F928F9380915B041F9276
:1013F0008F9380915A041F928F93809159041F926A
:101400008F938EEF91E09F938F9386E091E09F936F
:101410008F930E94C91E80914B042DB73EB7205F69
:101420003F4F0FB6F8943EBF0FBE2DBF8A3008F075
:1014300032C490915204913009F0A6C4E091610445
:10144000F0E0E75AFB4F808381E179CB80915E0425
:101450001F928F9380915D041F928F9380915C0403
:101460001F928F9380915B041F928F9380915A04F7
:101470001F928F93809159041F928F9385E192E080
:101480009F938F9386E091E09F938F930E94C91E54
:1014900080914B042DB73EB7205F3F4F0FB6F894B5
:1014A0003EBF0FBE2DBF833209F0F5C380915204B9
:1014B000813009F069C49091590480915A043AE04E
:1014C000939F800D112480936E0390915B04809113
:1014D0005C044AE0949F800D112480936D039091E9
:1014E0005D0480915E042AE0929F800D1124809318
:1014F0006C0348C46CE272E087E191E00E94C21E76
:1015000080915C041F928F9380915B041F928F9354
:1015100080915A041F928F93809159041F928F9348
:101520008DE392E09F938F9386E091E09F938F935A
:101530000E94C91E80914B042DB73EB7245F3F4FD8
:101540000FB6F8943EBF0FBE2DBF8A3088F490913D
:101550005204913009F018C490916104E92FF0E031
:10156000E75AFB4F80839F5F9093610483E1E7CA52
:101570008A3209F407C4823409F006C48091520407
:10158000813009F001C487E1DACA80915C041F92BE
:101590008F9380915B041F928F9380915A041F92C6
:1015A0008F93809159041F928F938DE392E09F93C4
:1015B0008F9386E091E09F938F930E94C91E909134
:1015C0004B042DB73EB7245F3F4F0FB6F8943EBF94
:1015D0000FBE2DBF9A3008F0D8C2809152048130DE
:1015E00009F0D2C380916104E82FF0E0E75AFB4F85
:1015F00090838F5F8093610484E1A1CA80915C0431
:101600001F928F9380915B041F928F9380915A0455
:101610001F928F93809159041F928F938DE392E0D4
:101620009F938F9386E091E09F938F930E94C91EB2
:1016300090914B042DB73EB7245F3F4F0FB6F894FF
:101640003EBF0FBE2DBF9A3008F09FC2809152045A
:10165000813009F099C380916104E82FF0E0E75AE6
:10166000FB4F90838F5F8093610485E168CA80910E
:101670005C041F928F9380915B041F928F938091E3
:101680005A041F928F93809159041F928F938DE378
:1016900092E09F938F9386E091E09F938F930E94B7
:1016A000C91E80914B042DB73EB7245F3F4F0FB644
:1016B000F8943EBF0FBE2DBF8A3008F061C39091F1
:1016C0005204913009F060C3E0916104F0E0E75A00
:1016D000FB4F808386E133CA80915C041F928F9315
:1016E00080915B041F928F9380915A041F928F9375
:1016F000809159041F928F9382E592E09F938F937C
:1017000086E091E09F938F930E94C91E80914B04C5
:101710002DB73EB7245F3F4F0FB6F8943EBF0FBEC4
:101720002DBF833209F02CC380915204813009F01F
:101730002BC330915A0420915B046091590448EE08
:1017400053E0649FC001659F900D112444E6349FCF
:10175000800D911D11243AE0239F800D911D1124CD
:1017600020915C04820F911D90935804809357043C
:1017700009C367E672E087E191E00E94C21E809192
:101780005C041F928F9380915B041F928F938091D2
:101790005A041F928F93809159041F928F9388E768
:1017A00092E09F938F9386E091E09F938F930E94A6
:1017B000C91E90914B042DB73EB7245F3F4F0FB623
:1017C000F8943EBF0FBE2DBF9A3008F0DEC1809165
:1017D0005204813009F0D8C280916104E82FF0E012
:1017E000E75AFB4F90838F5F8093610488E1A7C91C
:1017F00080915C041F928F9380915B041F928F9362
:1018000080915A041F928F93809159041F928F9355
:1018100088E792E09F938F9386E091E09F938F9368
:101820000E94C91E90914B042DB73EB7245F3F4FD5
:101830000FB6F8943EBF0FBE2DBF9A3008F0A5C179
:1018400080915204813009F09FC280916104E82F99
:10185000F0E0E75AFB4F90838F5F8093610489E14A
:101860006EC980915C041F928F9380915B041F92DC
:101870008F9380915A041F928F93809159041F92E5
:101880008F9388E792E09F938F9386E091E09F93F8
:101890008F930E94C91E90914B042DB73EB7245FD1
:1018A0003F4F0FB6F8943EBF0FBE2DBF9A3008F0E1
:1018B0006CC180915204813009F066C2809161044C
:1018C000E82FF0E0E75AFB4F90838F5F809361042D
:1018D0008AE135C980915C041F928F9380915B04EB
:1018E0001F928F9380915A041F928F938091590475
:1018F0001F928F9388E792E09F938F9386E091E009
:101900009F938F930E94C91E80914B042DB73EB7C1
:10191000245F3F4F0FB6F8943EBF0FBE2DBF8A30F5
:1019200008F02EC290915204913009F02DC2E0913E
:101930006104F0E0E75AFB4F80838BE100C980919E
:101940005C041F928F9380915B041F928F93809110
:101950005A041F928F93809159041F928F938DE8A0
:1019600092E09F938F9386E091E09F938F930E94E4
:10197000C91E80914B042DB73EB7245F3F4F0FB671
:10198000F8943EBF0FBE2DBF833209F0F9C180919C
:101990005204813009F0F8C130915A0420915B045F
:1019A0006091590448EE53E0649FC001659F900D1B
:1019B000112444E6349F800D911D11243AE0239FA9
:1019C000800D911D112420915C04820F911D909334
:1019D0002B0180932A01D6C162EA72E087E191E08F
:1019E0000E94C21E63EB72E086E091E00E94C21E7C
:1019F00080914B04833271F480915204813009F05C
:101A0000C3C180912801909129019093690380932B
:101A10006803B8C1833409F0B3C1809152048130A6
:101A200009F0B2C18DE18BC864EC72E087E191E00E
:101A30000E94C21E80915C041F928F9380915B0470
:101A40001F928F9380915A041F928F938091590413
:101A50001F928F9385ED92E09F938F9386E091E0A4
:101A60009F938F930E94C91E90914B042DB73EB750
:101A7000245F3F4F0FB6F8943EBF0FBE2DBF9A3084
:101A800008F083C080915204813009F07DC18091BB
:101A90006104E82FF0E0E75AFB4F90838F5F80935B
:101AA00061048EE14CC880915C041F928F938091F9
:101AB0005B041F928F9380915A041F928F938091A1
:101AC00059041F928F9385ED92E09F938F9386E048
:101AD00091E09F938F930E94C91E90914B042DB764
:101AE0003EB7245F3F4F0FB6F8943EBF0FBE2DBFE9
:101AF0009A3008F04AC080915204813009F044C104
:101B000080916104E82FF0E0E75AFB4F90838F5FEC
:101B1000809361048FE113C880915C041F928F93BE
:101B200080915B041F928F9380915A041F928F9330
:101B3000809159041F928F9385ED92E09F938F932C
:101B400086E091E09F938F930E94C91E90914B0471
:101B50002DB73EB7245F3F4F0FB6F8943EBF0FBE80
:101B60002DBF9A3090F480915204813009F00CC15D
:101B700080916104E82FF0E0E75AFB4F90838F5F7C
:101B80008093610480E20C949F059A3209F4FAC0B4
:101B9000FBC080915C041F928F9380915B041F9225
:101BA0008F9380915A041F928F93809159041F92B2
:101BB0008F9385ED92E09F938F9386E091E09F93C2
:101BC0008F930E94C91E80914B042DB73EB7245FAE
:101BD0003F4F0FB6F8943EBF0FBE2DBF8A3008F0BE
:101BE000CFC090915204913009F0CEC0E0916104D1
:101BF000F0E0E75AFB4F808381E20C949F058091CF
:101C00005C041F928F9380915B041F928F9380914D
:101C10005A041F928F93809159041F928F938AEEDA
:101C200092E09F938F9386E091E09F938F930E9421
:101C3000C91E80914B042DB73EB7245F3F4F0FB6AE
:101C4000F8943EBF0FBE2DBF833229F58091520418
:101C5000813009F099C030915A0420915B04609161
:101C6000590448EE53E0649FC001659F900D112414
:101C700044E6349F800D911D11243AE0239F800D8E
:101C8000911D112420915C04820F911D90932901D4
:101C90008093280177C08A3209F474C0813409F036
:101CA00073C080915204813009F06EC06BC0809186
:101CB0006A03811104C084E28093700316C08130EE
:101CC000A1F46FEF72E087E191E00E94C21E60E133
:101CD00073E086E091E00E94C21E80914B04833243
:101CE00021F410926A031092700380914B048A329F
:101CF00009F448C08434D9F047C061E273E087E159
:101D000091E00E94C21E60E173E086E091E00E94D3
:101D1000C21E80914B04833241F490915204913061
:101D200099F590936A030C949F05843449F580914A
:101D30005204813049F583E20C949F0562E373E01D
:101D400087E191E00E94C21E63E473E086E091E0C7
:101D50000E94C21E80914B04813039F4809152045C
:101D6000813091F48093620408C0811109C0809190
:101D70005204813049F41092620480936A0302C0D5
:101D80008A3211F410927003089582E080937000FB
:101D900099EF9093B3008093B00084E08093B100FA
:101DA0001092540410925304089514B817B88FEF8A
:101DB00085B988B90E94C50E8DE08093810088E0C6
:101DC0009DE3909389008093880082E080936F0068
:101DD00087E690E00E9482118CE00E94511080E022
:101DE0000E943E100C944E101092B90088E480932B
:101DF000B800089594EA9093BC009091BC0097FFBE
:101E0000FCCF9091B900987F983021F0903111F07B
:101E100081E008958093BB0084E88093BC008091AA
:101E2000BC0087FFFCCF8091B900887F883111F01A
:101E3000803471F780E0089584E98093BC0080913C
:101E4000BC0084FDFCCF08958093BB0084E88093A0
:101E5000BC008091BC0087FFFCCF9091B900987FB7
:101E600081E0983209F480E0089562E080E00E9409
:101E7000271100C062E080E00C942A11CF93C82F94
:101E800080917103662311F0816001C08E7F809381
:101E90007103809171038D7F809371036091710351
:101EA00080E00E94E510809171038F778093710329
:101EB000809171038F7B80937103809171038F7D7B
:101EC00080937103809171038F7E80937103C7FFAC
:101ED00005C080917103806880937103C6FF05C0BF
:101EE00080917103806480937103C5FF05C0809168
:101EF0007103806280937103C4FF05C080917103F8
:101F00008061809371036091710380E00E94E5100D
:101F10000E94350F809171038F77809371038091B8
:101F200071038F7B80937103809171038F7D809308
:101F30007103809171038F7E80937103C3FF05C08D
:101F400080917103806880937103C2FF05C0809106
:101F50007103806480937103C1FF05C08091710398
:101F6000806280937103C0FF05C08091710380611E
:101F7000809371036091710380E00E94E5100E94DC
:101F8000350F80917103806180937103809171039B
:101F900080628093710380917103806480937103E8
:101FA000809171038068809371036091710380E078
:101FB000CF910C94E510CF93809171038E7F809325
:101FC000710380917103826080937103609171034A
:101FD00080E00E94E51062E080E00E94271100C0CE
:101FE00064E080E00E94D010C82F62E080E00E9490
:101FF0002A1100C062E080E00E94271100C064E066
:1020000080E00E94D010C295C07F8F70C82B62E024
:1020100080E00E942A118C2FCF9108950E94DB0F3F
:1020200087FDFCCF88E090E00197F1F70C94DB0F7F
:10203000CF93C82F0E940E1060E08C2FCF910C948C
:102040003E0FCF93C82F0E940E1061E08C2FCF91CE
:102050000C943E0FCF93DF931F92CDB7DEB78983E9
:102060008981611102C0805801C080540F90DF91B6
:10207000CF910C94181081E00C941810882321F053
:1020800080917103877F03C0809171038860809382
:1020900071036091710380E00C94E51082E00C9470
:1020A00018101F93CF93DF93182F0E94BF10109228
:1020B00071036091710380E00E94E510E0E0FAEFA7
:1020C0003197F1F790917103906290937103909121
:1020D00071039061909371036091710380E00E949D
:1020E000E5100E94350FE0E0FEE43197F1F70E9421
:1020F000350FC0E0D1E0FE013197F1F70E94350FB6
:10210000FE013197F1F7909171039F7E90937103D7
:102110006091710380E00E94E5100E94350F2197C5
:10212000F1F788E20E94181088E00E9418100E94BF
:102130003B1086E00E941810812FDF91CF911F91F4
:102140000C941810EF92FF921F93CF93DF931F927E
:10215000CDB7DEB7182F7C018E2D811B861740F47A
:10216000F70181917F0169830E9421106981F4CF79
:102170000F90DF91CF911F91FF90EF9008950E94F3
:10218000F40E85E38A95F1F7000080E090E0FC0111
:10219000ED59FB4F1082019688309105C1F70895E3
:1021A000883088F4683078F4E82FF0E0ED59FB4F80
:1021B0008081082E000C990B02C0959587956A9531
:1021C000E2F7817008958FEF0895CF93883098F4E7
:1021D000C62F982FE82FF0E0ED59FB4F608387E280
:1021E000890F880F0E94FA0E8C2F0E94240F0E94E4
:1021F0001C0F80E001C08FEFCF910895CF93DF9344
:10220000982F883000F56830F0F4E82FF0E0ED59B1
:10221000FB4F8081C1E0D0E001C0CC0F6A95EAF7A6
:10222000442311F0C82B02C0C095C823C08387E2A5
:10223000890F880F0E94FA0E8C2F0E94240F0E9493
:102240001C0F80E001C08FEFDF91CF91089541E036
:102250000C94FE1040E00C94FE101F920F920FB6EB
:102260000F9211242F938F939F93EF93FF9380915D
:10227000C0009091C6008871E0917403EF5FEF7128
:1022800020917303E21739F0E0937403F0E0E9580A
:10229000FC4F908301C082E080937203FF91EF9125
:1022A0009F918F912F910F900FBE0F901F901895B7
:1022B0001F920F920FB60F9211248F939F93EF935B
:1022C000FF939091760380917503981769F0E091E0
:1022D0007503EF5FEF71E0937503F0E0E956FC4F93
:1022E00080818093C60005C08091C1008F7D80935E
:1022F000C100FF91EF919F918F910F900FBE0F90B2
:102300001F90189510927603109275031092740323
:102310001092730397FF04C022E02093C0009F77C0
:102320009093C5008093C40088E98093C10086E043
:102330008093C2000895909176039F5F9F712091D2
:1023400075039217E1F3E92FF0E0E956FC4F808323
:10235000909376038091C10080628093C1000895BC
:10236000CF93DF93EC018991882319F00E949B1190
:10237000FACFDF91CF9108958FE380937E0080B7ED
:10238000877F80BF80B7806880BF83B7817F83BF2E
:102390000FB6F8940F9283B7816083BF85B78066CC
:1023A00085BF8F7D85BF0F900FBE889513BE0895A2
:1023B000259A2D9A2FEF80E792E02150804090409F
:1023C000E1F700C000001D9AF5CFFC01039692834F
:1023D00081832FEF3FEF3483238396838583908718
:1023E000878310820895FC01118610860895CF938B
:1023F000DF939C01FB01DC011196CD91DC911297DA
:10240000D383C2838C819D81958384838C819D81BC
:10241000DC0113967C936E9312977D836C833187D6
:102420002087F90180818F5F8083DF91CF910895AC
:102430000F931F93CF93DF938C01FB0180819181D8
:102440008F3F2FEF920721F4E801AF81B8850EC0CE
:10245000D801139612962D913C911397E90148816A
:1024600059818417950710F0D901F4CF12968D91F8
:102470009C91139793838283EC01FD83EC83B58356
:10248000A4831396FC93EE93129711870087F801AB
:1024900080818F5F8083DF91CF911F910F9108958D
:1024A000CF93DF93FC01A085B18582819381248144
:1024B0003581EC013D832C83C481D5819B838A8344
:1024C00011968D919C9112978E179F0721F4129669
:1024D000DC93CE931197118610868C9181508C934A
:1024E0008C91DF91CF91089531E1FC0130833197D8
:1024F00022E220833197A3E3A08331976083319751
:10250000708331971082319760E860833197108231
:10251000319762E06083319763E06083319764E0D4
:102520006083319765E06083319766E0608331971F
:1025300067E06083319768E06083319769E060838A
:10254000319760E1608331973083319732E1308396
:10255000319733E13083319734E13083319735E17E
:102560003083319736E13083319737E130833197CB
:1025700038E13083319739E13083319730E230836D
:10258000319731E2308331972083319723E22083E2
:102590003197408331975083319726E220833197DA
:1025A00027E22083319728E22083319729E2208394
:1025B000319720E32083319721E320838697089584
:1025C000A89520EC88E190E00FB6F894A895809348
:1025D00060000FBE20936000A0911B04B0911C040A
:1025E000CD91CDBFDD91DEBFFF91EF91DF91CF9116
:1025F000BF91AF919F918F917F916F915F914F911B
:102600003F912F911F910F91FF90EF90DF90CF900E
:10261000BF90AF909F908F907F906F905F904F9002
:102620003F902F901F900F900FBE0F90089581E064
:1026300008950F920FB6F8940F921F9211242F92C3
:102640003F924F925F926F927F928F929F92AF9242
:10265000BF92CF92DF92EF92FF920F931F932F932F
:102660003F934F935F936F937F938F939F93AF931A
:10267000BF93CF93DF93EF93FF93A0911B04B0918F
:102680001C040DB60D920EB60D920E94CD19A091AC
:102690001B04B0911C04CD91CDBFDD91DEBFFF9135
:1026A000EF91DF91CF91BF91AF919F918F917F91EA
:1026B0006F915F914F913F912F911F910F91FF90DB
:1026C000EF90DF90CF90BF90AF909F908F907F90D2
:1026D0006F905F904F903F902F901F900F900FBE84
:1026E0000F9008950F920FB6F8940F921F92112435
:1026F0002F923F924F925F926F927F928F929F9212
:10270000AF92BF92CF92DF92EF92FF920F931F93FF
:102710002F933F934F935F936F937F938F939F93E9
:10272000AF93BF93CF93DF93EF93FF93A0911B04DD
:10273000B0911C040DB60D920EB60D9213BE0E9400
:102740005E1881110E94CD19A0911B04B0911C0448
:10275000CD91CDBFDD91DEBFFF91EF91DF91CF91A4
:10276000BF91AF919F918F917F916F915F914F91A9
:102770003F912F911F910F91FF90EF90DF90CF909D
:10278000BF90AF909F908F907F906F905F904F9091
:102790003F902F901F900F900FBE0F9008950E94B2
:1027A000721318950FB6F8940F92FC01928D0F904A
:1027B0000FBE81E0911180E008950F931F93CF9396
:1027C000DF93EC01042F1A8D8C8D81110CC0888150
:1027D0009981892B09F03EC08A819B810E94F01A61
:1027E0001B821A8238C0482F50E0011115C08C811D
:1027F0009D810E94B21E2C8D8C819D81820F911D26
:102800009D838C832A813B818217930718F18881ED
:1028100099819D838C831EC08E819F810E94B21EF0
:102820008C8D90E09195819591092E813F81280FA3
:10283000391F3F832E83488159812417350730F48F
:102840002A813B81820F931F9F838E83023011F474
:102850001111115080E01F5F1A8FDF91CF911F91EE
:102860000F910895FC01CB01448D4423A1F050E069
:1028700026813781240F351F378326836281738138
:102880002617370720F02081318137832683668120
:1028900077810C94B21E0895EF92FF921F93CF930D
:1028A000DF93EC010FB6F8940F921E8D7C0181E14D
:1028B000E80EF11C11165CF48989882341F0C701E8
:1028C0000E945D1A81110E94DE1A1150F3CF8FEF22
:1028D0008E8F0F900FBE0FB6F8940F921D8D7E0154
:1028E00088E0E80EF11C11165CF48885882341F01D
:1028F000C7010E945D1A81110E94DE1A1150F3CFA8
:102900008FEF8D8F0F900FBEDF91CF911F91FF90B2
:10291000EF900895CF93DF93EC010FB6F8940F92E8
:10292000288139819B8D4C8D949FC0011124F90120
:10293000E80FF91FFB83EA831A8E3D832C83841BE7
:102940009109820F931F9F838E838FEF8D8F8E8FC0
:1029500061110CC08885882389F0CE0108960E94F9
:102960005D1A882359F00E94191308C0CE010896F9
:102970000E94E511CE0141960E94E5110F900FBE15
:1029800081E0DF91CF910895EF92FF921F93CF9353
:10299000DF931F92CDB7DEB7182F662321F0869FF5
:1029A000C001112402C080E090E04F9669830E942C
:1029B0002D1D7C016981009789F0611104C0FC0123
:1029C0009183808304C04F96F70191838083F70140
:1029D000138F648F61E0C7010E948A14C7010F90B2
:1029E000DF91CF911F91FF90EF900895AF92BF922A
:1029F000CF92DF92FF920F931F93CF93DF9300D07C
:102A000000D01F92CDB7DEB78C016B015D834C8384
:102A1000F22E90E0580188E0A80EB11C0FB6F89491
:102A20000F92F801228D838D281718F0F2E0FF1223
:102A300014C04F2DB601C8010E94DD13F801918921
:102A4000992321F0C80141960E945D1A81110E94CC
:102A500019130F900FBE81E050C02C813D81232BB4
:102A600019F40F900FBE48C0911104C0CE01019619
:102A70000E949D1A0F900FBE0E944E180FB6F89438
:102A80000F92F801858D8F3F09F4158EF801868D20
:102A90008F3F09F4168E0F900FBEBE016C5F7F4F03
:102AA000CE0101960E94A81A811121C00FB6F89498
:102AB0000F92F801928D838D0F900FBE981311C065
:102AC0006C817D81C5010E942B1AC8010E944C14A3
:102AD0000E940A19882311F091E0A0CF0E941913D7
:102AE000FBCFC8010E944C140E940A19F5CFC801FF
:102AF0000E944C140E940A1980E00F900F900F90D2
:102B00000F900F90DF91CF911F910F91FF90DF9069
:102B1000CF90BF90AF900895EF92FF921F93CF9305
:102B2000DF93EC019A8D8B8D981710F02230E1F431
:102B30007A011E8D422FCE010E94DD131F3F81F4CA
:102B40008989882379F0CE0141960E945D1A8823F5
:102B500049F0E114F10431F081E0F701808305C010
:102B60001F5F1E8F81E001C080E0DF91CF911F9138
:102B7000FF90EF900895AF92BF92CF92DF92FF92B5
:102B80000F931F93CF93DF9300D000D01F92CDB748
:102B9000DEB78C016B015D834C8390E0580181E1CD
:102BA000A80EB11C0FB6F8940F92F801F28CFF201A
:102BB000A9F0B601C8010E943214FA94F801F28E0D
:102BC0008085882339F0C80108960E945D1A81111A
:102BD0000E9419130F900FBE81E050C02C813D81DF
:102BE000232B19F40F900FBE48C0911104C0CE01E1
:102BF00001960E949D1A0F900FBE0E944E180FB6AC
:102C0000F8940F92F801858D8F3F09F4158EF80125
:102C1000868D8F3F09F4168E0F900FBEBE016C5F3C
:102C20007F4FCE0101960E94A81A81111CC0C801D5
:102C30000E94D213882389F06C817D81C5010E9496
:102C40002B1AC8010E944C140E940A19882311F003
:102C500091E0A8CF0E941913FBCFC8010E944C1429
:102C60000E940A19F5CFC8010E944C140E940A194B
:102C7000C8010E94D213882359F380E00F900F906F
:102C80000F900F900F90DF91CF911F910F91FF90B8
:102C9000DF90CF90BF90AF900895CF93DF93EC017A
:102CA0000FB6F8940F928D8D8F3F09F41D8E8E8D87
:102CB0008F3F09F41E8E0F900FBE8A8D811104C0C4
:102CC000CE0141960E943D1ACE01DF91CF910C9426
:102CD0004C14E091E303F091E4038081811103C07F
:102CE0008FEF9FEF0CC0E091E303F091E4030580C8
:102CF000F681E02D0680F781E02D8281938190930B
:102D0000BB038093BA030895EF92FF920F931F9332
:102D1000CF93DF931F92CDB7DEB77C010091C20342
:102D20001091C30380911B0490911C040296698347
:102D30000E94501269818FEFE816F80699F4662315
:102D400089F060911B0470911C046E5F7F4F85ECCD
:102D500093E00F90DF91CF911F910F91FF90EF9033
:102D60000C94F711E00EF11EE0911B04F0911C048D
:102D7000F382E28260911B0470911C04E016F1065C
:102D800078F48091E1039091E2036E5F7F4F0F90A2
:102D9000DF91CF911F910F91FF90EF900C9418123B
:102DA0008091E3039091E4036E5F7F4F0E941812BD
:102DB0008091BA039091BB03E816F90620F4F092D3
:102DC000BB03E092BA030F90DF91CF911F910F9157
:102DD000FF90EF9008958091CE03882309F10FB6FC
:102DE000F8940F92E091D403F091D503C681D78176
:102DF000CE0102960E9450128091C40381508093AC
:102E0000C4038091CE0381508093CE030F900FBEF8
:102E10008F89988D0E944C1DCE010E944C1DDBCFE6
:102E20008091F703823010F00E9419130E94BC11A8
:102E3000D2CF5F926F927F928F929F92AF92BF920A
:102E4000CF92DF92EF92FF920F931F93CF93DF9376
:102E50005C013B016A014901502ECA010E942D1DEF
:102E60008C01892B09F4DBC088E290E00E942D1DC3
:102E7000EC01892BB1F0188F0F8BA60165EA70E089
:102E8000C8010E94BB1E21E0C21AD1088F89988D0B
:102E9000C80ED91EBE01675E7F4FF301C3010896BD
:102EA00007C0C8010E944C1DBAC0E817F90749F0D5
:102EB0009F014191DB014D93BD01D9012C9121115D
:102EC000F4CF18A2052D043008F003E00E8B09A3FF
:102ED0001AA23E01B2E06B0E711CC3010E94F311F5
:102EE000CE010C960E94F311D987C88784E090E048
:102EF000801B91099D878C87DB8BCA8B1BA21CA230
:102F00001DA21EA21FA2A401B501C6010E94741237
:102F100099838883E114F10419F0F701D183C08308
:102F20000FB6F8940F928091C4038F5F8093C4030F
:102F300080911B0490911C04892BD1F5D0931C0423
:102F4000C0931B048091C403813009F041C087EF16
:102F500093E00E94E51180E094E00E94E51189E091
:102F600094E00E94E51182E194E00E94E5118EEE6A
:102F700093E00E94E51185EE93E00E94E51188ED53
:102F800093E00E94E5118FEC93E00E94E51185EC3F
:102F900093E00E94E5118EEE93E09093E40380931A
:102FA000E30385EE93E09093E2038093E10310C086
:102FB0008091C00381110CC0E0911B04F0911C04AE
:102FC00096898E89891720F0D0931C04C0931B0426
:102FD0008091BC038F5F8093BC038E899091C10365
:102FE000981710F48093C103F9E08F9FC00111245A
:102FF000B30189509C4F0E94F7110F900FBE809132
:10300000C003882351F0E0911B04F0911C049689C1
:103010008E89981710F40E94191381E001C08FEF78
:10302000DF91CF911F910F91FF90EF90DF90CF90A4
:10303000BF90AF909F908F907F906F905F9008951A
:10304000EF92FF920F9388EBE82E83E0F82E00E0DA
:1030500020E030E045E550E064E573E08BEE96E17A
:103060000E9419178130B1F40E947D1B813091F4C8
:10307000F8942FEF3FEF3093BB032093BA03809374
:10308000C0031092C3031092C2030F91FF90EF9000
:103090000C94E0120F91FF90EF9008958091B70388
:1030A0008F5F8093B70308950FB6F8940F928091C5
:1030B000C2039091C3030F900FBE0895CF92DF9289
:1030C000EF92FF920F931F93CF93DF938091B703FB
:1030D00081118CC00091C2031091C3030F5F1F4F79
:1030E0001093C3030093C20301151105B9F4809135
:1030F000E3039091E4032091E1033091E2033093E4
:10310000E4032093E3039093E2038093E10380912F
:10311000BD038F5F8093BD030E9469168091BA033F
:103120009091BB03C0E00817190708F44FC0D9E01D
:10313000E091E303F091E4038081811103C08FEFFC
:103140009FEF11C0E091E303F091E4030580F68165
:10315000E02DE680F780D70112968D919C91139710
:103160000817190728F49093BB038093BA032EC065
:103170006701B2E0CB0ED11CC6010E945012F701CC
:1031800084899589892B21F0C7010C960E945012E1
:10319000D70156969C918091C103891710F49093A2
:1031A000C103D99FC0011124B60189509C4F0E94D0
:1031B000F711E0911B04F0911C04D70156969C91E5
:1031C0008689981708F4B4CFC1E0B2CFE0911B0410
:1031D000F0911C04E689B9E0EB9FF0011124E9505D
:1031E000FC4F8081823040F0C1E006C08091BF0377
:1031F0008F5F8093BF03C0E08091BE038111C1E067
:103200008C2FDF91CF911F910F91FF90EF90DF9066
:10321000CF900895EF92FF920F931F93CF93DF9378
:103220000FB6F8940F928091B70381508093B70343
:103230008091B703882311F080E052C08091C403CD
:103240008823D1F3C0E0D0E089E0F82EEE24E394A7
:103250008091D803882351F1E091DD03F091DE03E2
:10326000C681D781CE010C960E9450128E010E5F4E
:103270001F4FC8010E9450129E898091C103891777
:1032800010F49093C103F99EC0011124B801895034
:103290009C4F0E94F711E0911B04F0911C049E8941
:1032A00086899817A8F2E092BE03D2CFCD2B11F0F9
:1032B0000E946916C091BF03CC2351F0D1E00E9457
:1032C0005E188111D093BE03C150C9F71092BF039D
:1032D0008091BE03882309F4AFCF0E94191381E0C7
:1032E0000F900FBEDF91CF911F910F91FF90EF9044
:1032F00008950F931F93CF93DF938C01EB010E94EE
:103300004E184091C2035091C303F801608171814E
:103310009B012C0F3D1F4617570728F42617370728
:1033200048F491E004C091E02617370720F04217D7
:10333000530708F090E0F80131832083992331F09E
:1033400060E0C901841B950B0E9484160E940A1933
:10335000811102C00E941913DF91CF911F910F912B
:103360000895CF93DF9300D0CDB7DEB7009719F45F
:103370000E9419130DC089839A830E944E1860E041
:1033800089819A810E9484160E940A19882381F3F8
:103390000F900F90DF91CF9108958091B70388230C
:1033A00021F081E08093BE0308951092BE03A091A6
:1033B0001B04B0911C04E0911B04F0911C042D919E
:1033C0003C918789908D8217930760F060911B0470
:1033D00070911C0480911B0490911C04675E7F4FC8
:1033E0000E948D028091C10369E0482F50E0649FE4
:1033F0009001659F300D1124F901E950FC4F908137
:10340000911102C08150F1CFA181B28112960D902D
:10341000BC91A02DB283A18326503C4FA217B307C5
:1034200031F412962D913C9113973283218399E0C8
:10343000949FF001959FF00D1124E950FC4F0180FD
:10344000F281E02D2681378130931C0420931B04E8
:103450008093C1030895CF93DF93EB0120911B0468
:1034600030911C04B901645F7F4F0E94181261E023
:10347000CE01DF91CF910C9484160F931F93CF93BD
:10348000DF931F92CDB7DEB78B0120911B043091E3
:103490001C04B901645F7F4F49830E94F711498181
:1034A000442311F00FEF1FEF642FC8010F90DF913D
:1034B000CF911F910F910C9484160F931F93CF936C
:1034C000DF93DC011596ED91FC911697C681D781AB
:1034D0008E01045F1F4FC8010E9450128091B703F4
:1034E000811114C00A501109C8010E9450129E890E
:1034F0008091C103891710F49093C103B9E09B9F99
:10350000C0011124B80189509C4F03C0B80188ED57
:1035100093E00E94F711E0911B04F0911C049E8936
:103520008689891720F481E08093BE0301C080E082
:10353000DF91CF911F910F9108952091BD03FC0160
:1035400020832091C2033091C303328321830895E5
:10355000CF93DF930FB6F8940F924091C20350912E
:10356000C303DC011196ED91FC911297EB012881C8
:1035700039812F3FDFEF3D07C9F0B091BD03EC016A
:10358000A881BA1719F04E175F0790F44E1B5F0B16
:10359000FB014217530738F4241B350B318320837A
:1035A0000E949D1A03C01182108202C080E001C0F7
:1035B00081E00F900FBEDF91CF91089581E080935D
:1035C000BE0308958091C003882331F08091B70332
:1035D000882321F080E0089581E0089582E0089535
:1035E0000F931F93CF93DF93FC01892B11F480E09D
:1035F0002CC082A1815082A3268991A12917B9F3F9
:103600008111F5CFEF018F010E5F1F4FC8010E949E
:10361000501299A19E8B492F50E024E030E0241BEA
:10362000350B3D872C878091C103891710F4909347
:10363000C10329E0249FC001259F900D1124B801EA
:1036400089509C4F0E94F71181E0DF91CF911F912B
:103650000F9108950FB6F8940F92809121049091E4
:103660002204892BE9F480E394E00E94E51187E2CB
:1036700094E00E94E51180E394E090932604809307
:10368000250487E294E0909324048093230440E08F
:1036900065E08AE00E94C414909322048093210480
:1036A0000F900FBE0895FC0173836283918780871A
:1036B0004617570778F0421B530B848595854817AA
:1036C0005907C8F4BF016E5F7F4F8091230490912A
:1036D00024040DC04217530718F46217730758F4F7
:1036E000BF016E5F7F4F80912504909126040E9458
:1036F000181280E0089581E00895EF92FF920F93F1
:103700000E942A1B8091210490912204892B81F030
:103710008FE1E82E84E0F82E03E020E030E045E57C
:1037200050E069E573E08DE29CE10E94191701C049
:1037300080E00F91FF90EF9008950F931F93CF9328
:10374000DF9300D000D01F92CDB7DEB7A091210447
:10375000B0912204109729F1F90169835B834A83B0
:103760009D838C836630A4F40E94E21AE0912104C8
:10377000F091220420E0823011F4A80102C040E060
:1037800050E0BE016F5F7F4FCF010E94F6140AC068
:1037900020E0AF01BE016F5F7F4FCD010E948C150D
:1037A00001C080E00F900F900F900F900F90DF916D
:1037B000CF911F910F910895EF92FF920F931F9356
:1037C000CF93DF93E0912504F09126048081882334
:1037D00089F10580F681E02DE080F180C681D781F6
:1037E0008E010E5F1F4FC8010E945012E989FA89AD
:1037F000CE0109958E85813029F72C853D852E0DCA
:103800003F1DE216F30660F43B832A83D987C887FD
:10381000B80180912504909126040E941812D2CFFD
:1038200000E010E020E030E0A70160E0CE010E945F
:103830009D1BC8CF8091230490912404909326046B
:1038400080932504F0932404E0932304DF91CF9127
:103850001F910F91FF90EF900895CF93DF93CDB715
:10386000DEB727970FB6F894DEBF0FBECDBFE0914D
:103870002504F09126048081DD24D394882339F037
:10388000D12C0580F681E02DE080F18002C0E12C92
:10389000F12C0E944E180E9454188C0180911D0436
:1038A00090911E040817190720F40E94DC1B81E088
:1038B00001C080E010931E0400931D04811150C0CC
:1038C000D11036C00E151F05D0F10E940A19E091E3
:1038D0002504F09126040580F681E02DC680D7806E
:1038E000C60102960E945012D6011E968C911E9718
:1038F0008130B1F41C966D917C911D976E0D7F1DEA
:103900009701A801C6010E94531B882349F000E0DB
:1039100010E020E030E0A70160E0C6010E949D1B9E
:10392000D6015196ED91FC915297C60109951EC0A2
:10393000E0912304F0912404808141E0811140E072
:10394000B701601B710B80912104909122040E94A9
:103950004D160E940A19811109C00E94191306C050
:103960000E940A1903C0898187FF0EC040E050E021
:10397000BE016F5F7F4F80912104909122040E94CD
:10398000BB158111F0CF73CFEC80FD80F7018285EC
:103990009385892B21F0C70102960E9450120E9444
:1039A0005418AC0180911D0490911E0448175907CA
:1039B00030F44E835F830E94DC1B5F814E81509305
:1039C0001E0440931D04E9810E2FEE0F110B220BF4
:1039D000330B0A30110550F6F801E75AFF4F0C94EB
:1039E0007F1D2A813B81D7011C966D917C911D978B
:1039F000620F731FC7010E94531B882309F4B6CFBF
:103A0000D7015196ED91FC915297C7010995F701A5
:103A10008685813009F0AACF448555858A819B81AE
:103A2000480F591F00E010E020E030E060E0C701DF
:103A30000E949D1B9BCF6A817B81D7011D967C9341
:103A40006E931C97640F751F9A01C7010E94531B48
:103A50008DCFC7010E944C1D89CF0F931F93CF9329
:103A6000DF9300D0CDB7DEB789839A830E944E18CA
:103A700089819A810E94851D8C010E940A19011575
:103A8000110511F40E94D811C8010F900F90DF9119
:103A9000CF911F910F910895CF93DF93009751F02D
:103AA000EC010E944E18CE010E941A1EDF91CF91A8
:103AB0000C940A19DF91CF910895A1E21A2EAA1B46
:103AC000BB1BFD010DC0AA1FBB1FEE1FFF1FA217CE
:103AD000B307E407F50720F0A21BB30BE40BF50BCB
:103AE000661F771F881F991F1A9469F76095709554
:103AF000809590959B01AC01BD01CF010895EE0F1B
:103B0000FF1F0590F491E02D0994CF93DF9382304D
:103B1000910510F482E090E0E0916D04F0916E0464
:103B200020E030E0C0E0D0E0309711F140815181D9
:103B300048175907C0F04817590761F482819381EB
:103B4000209719F09B838A832BC090936E048093F7
:103B50006D0426C02115310519F04217530718F4DA
:103B60009A01BE01DF01EF010280F381E02DDCCF7D
:103B70002115310509F1281B390B2430310590F44A
:103B800012968D919C9113976115710521F0FB019F
:103B90009383828304C090936E0480936D04FD012F
:103BA000329644C0FD01E20FF31F8193919322509E
:103BB00031092D933C933AC020916B0430916C04F1
:103BC000232B41F4209102013091030130936C04C6
:103BD00020936B04209100013091010121153105E2
:103BE00041F42DB73EB74091040150910501241BCB
:103BF000350BE0916B04F0916C04E217F307A0F42D
:103C00002E1B3F0B2817390778F0AC014E5F5F4F32
:103C10002417350748F04E0F5F1F50936C044093F4
:103C20006B048193919302C0E0E0F0E0CF01DF915B
:103C3000CF9108950F931F93CF93DF93009709F4CB
:103C40008CC0FC0132971382128200916D04109196
:103C50006E040115110581F420813181820F931FBB
:103C600020916B0430916C042817390779F5F09393
:103C70006C04E0936B0471C0D80140E050E0AE17D3
:103C8000BF0750F412962D913C911397AD01211569
:103C9000310509F1D901F3CF9D01DA013383228384
:103CA00060817181860F971F8217930769F4EC0179
:103CB00028813981260F371F2E5F3F4F31832083A4
:103CC0008A819B8193838283452B29F4F0936E0430
:103CD000E0936D0442C01396FC93EE931297ED01AE
:103CE000499159919E01240F351FE217F30771F492
:103CF00080819181840F951F029611969C938E93DB
:103D00008281938113969C938E931297E0E0F0E06A
:103D1000D80112968D919C911397009719F0F80194
:103D20008C01F6CF8D919C9198012E5F3F4F820FB1
:103D3000931F20916B0430916C042817390769F4A4
:103D4000309729F410926E0410926D0402C0138211
:103D5000128210936C0400936B04DF91CF911F913A
:103D60000F910895FB01DC0102C001900D924150BA
:103D70005040D8F70895DC0101C06D934150504088
:103D8000E0F70895FB01DC0101900D920020E1F7BE
:103D90000895AEE0B0E0EFECFEE10C9478210D89DF
:103DA0001E8986E08C831A8309838FEF9FE79E83A9
:103DB0008D83AE01475E5F4F6F89788DCE0101968E
:103DC0000E94EC1E2F813885F801E20FF31F10824C
:103DD0002E96E4E00C949421ACE0B0E0E2EFFEE13A
:103DE0000C946A217C016B018A01FC011782168206
:103DF000838181FFBDC1CE0101964C01F701938102
:103E0000F60193FD859193FF81916F01882309F459
:103E1000ABC1853239F493FD859193FF81916F0198
:103E2000853229F4B70190E00E94D420E7CF512CCD
:103E3000312C20E02032A0F48B3269F030F4803253
:103E400059F0833269F420612CC08D3239F080330F
:103E500039F4216026C02260246023C0286021C07C
:103E600027FD27C030ED380F3A3078F426FF06C022
:103E7000FAE05F9E300D1124532E13C08AE0389E65
:103E8000300D1124332E20620CC08E3221F426FD19
:103E90006BC1206406C08C3611F4206802C08836DD
:103EA00041F4F60193FD859193FF81916F0181119A
:103EB000C1CF982F9F7D9554933028F40C5F1F4FEE
:103EC000FFE3F9830DC0833631F0833771F083351A
:103ED00009F05BC022C0F801808189830E5F1F4F0B
:103EE00044244394512C540115C03801F2E06F0E64
:103EF000711CF801A080B18026FF03C0652D70E021
:103F000002C06FEF7FEFC5012C870E94C9202C01F2
:103F100083012C852F77222E17C03801F2E06F0E17
:103F2000711CF801A080B18026FF03C0652D70E0F0
:103F300002C06FEF7FEFC5012C870E94BE202C01CD
:103F40002C852068222E830123FC1BC0832D90E04A
:103F500048165906B0F4B70180E290E00E94D420E0
:103F60003A94F4CFF50127FC859127FE81915F01FA
:103F7000B70190E00E94D42031103A94F1E04F1A3A
:103F800051084114510471F7E5C0843611F08936A7
:103F900039F5F80127FF07C0608171818281938123
:103FA0000C5F1F4F08C060817181072E000C880BC9
:103FB000990B0E5F1F4F2F76722E97FF09C09095B9
:103FC0008095709561957F4F8F4F9F4F2068722E1F
:103FD0002AE030E0A4010E940C21A82EA81844C0B9
:103FE000853729F42F7EB22E2AE030E025C0F22F4B
:103FF000F97FBF2E8F36C1F018F4883579F0B4C040
:10400000803719F0883721F0AFC02F2F2061B22EF2
:10401000B4FE0DC08B2D8460B82E09C024FF0AC0E9
:104020009F2F9660B92E06C028E030E005C020E141
:1040300030E002C020E132E0F801B7FE07C0608145
:104040007181828193810C5F1F4F06C060817181F5
:1040500080E090E00E5F1F4FA4010E940C21A82E6B
:10406000A818FB2DFF777F2E76FE0BC0372D3E7FE5
:10407000A51450F474FE0AC072FC08C0372D3E7EB1
:1040800005C0BA2C372D03C0BA2C01C0B52C34FFA3
:104090000DC0FE01EA0DF11D8081803311F4397EDF
:1040A00009C032FF06C0B394B39404C0832F86784E
:1040B00009F0B39433FD13C030FF06C05A2CB3147B
:1040C00018F4530C5B18B32CB31468F4B70180E2F6
:1040D00090E03C870E94D420B3943C85F5CFB31484
:1040E00010F43B1801C0312C34FF12C0B70180E33B
:1040F00090E03C870E94D4203C8532FF17C031FD00
:1041000003C088E790E002C088E590E0B7010CC0EA
:10411000832F867859F031FF02C08BE201C080E224
:1041200037FD8DE2B70190E00E94D420A51438F449
:10413000B70180E390E00E94D4205A94F7CFAA946C
:10414000F401EA0DF11D8081B70190E00E94D420B6
:10415000A110F5CF332009F451CEB70180E290E0F1
:104160000E94D4203A94F6CFF7018681978102C04D
:104170008FEF9FEF2C96E2E10C948621FC010590D5
:10418000615070400110D8F7809590958E0F9F1F59
:104190000895FC016150704001900110D8F780959E
:1041A00090958E0F9F1F08950F931F93CF93DF93CA
:1041B000FB01238121FD03C08FEF9FEF28C022FF69
:1041C00016C046815781248135814217530744F434
:1041D000A081B1819D012F5F3F4F318320838C935C
:1041E000268137812F5F3F4F3783268310C0EB0135
:1041F000092F182F0084F185E02D0995892BE1F610
:104200008E819F8101969F838E83812F902FDF91D6
:10421000CF911F910F910895FA01AA27283051F1EB
:10422000203181F1E8946F936E7F6E5F7F4F8F4FE7
:104230009F4FAF4FB1E03ED0B4E03CD0670F781F46
:10424000891F9A1FA11D680F791F8A1F911DA11D2B
:104250006A0F711D811D911DA11D20D009F4689464
:104260003F912AE0269F11243019305D3193DEF60C
:10427000CF010895462F4770405D4193B3E00FD0C2
:10428000C9F7F6CF462F4F70405D4A3318F0495DAD
:1042900031FD4052419302D0A9F7EACFB4E0A69590
:1042A0009795879577956795BA95C9F700976105B2
:1042B000710508959B01AC010A2E06945795479508
:1042C00037952795BA95C9F7620F731F841F951FFD
:1042D000A01D08952F923F924F925F926F927F920E
:1042E0008F929F92AF92BF92CF92DF92EF92FF9206
:1042F0000F931F93CF93DF93CDB7DEB7CA1BDB0BB2
:104300000FB6F894DEBF0FBECDBF09942A88398856
:1043100048885F846E847D848C849B84AA84B9845D
:10432000C884DF80EE80FD800C811B81AA81B98169
:10433000CE0FD11D0FB6F894DEBF0FBECDBFED017D
:064340000895F894FFCF80
:1043460000006F042000546F72656E204169722070
:104356002020202020200053697374656D2050654D
:104366006D616E7461752000C80001000101E207ED
:104376000000E80300001E000000010203410405DE
:104386000642070809432A00234425750A0D0054EE
:1043960061736B4D61696E005461736B536F6E612F
:1043A60072002532642D2532647C2532643A25322A
:1043B600643A2532647C256400253464737C253494
:1043C60075636D7C25642025640025346C75207C1E
:1043D600205774723A2025347500546F723A20259E
:1043E600347520636D2020202000556261682054BA
:1043F600616E6767616C203A20200025642564257C
:10440600642564202D2025642564202D202564251F
:10441600642020002564256425642564202D20253C
:10442600642564202D2025642564203F00556261A3
:10443600682057616B7475203A202020200025647F
:104446002564202D2025642564202D2025642564DF
:10445600202020200025642564202D202564256445
:10446600202D2025642564203F20200053657420DC
:1044760054696E676769204D617820200041697232
:10448600206B6520256425642564256420636D2ED4
:104496002D00416972206B652025642564256425FD
:1044A6006420636D203F0052617465205472616E12
:1044B600736620446174610070657220256425640A
:1044C6002564256420646574696B2020007065721C
:1044D60020256425642564256420646574696B2041
:1044E6003F004B616C6962726173692054696E6743
:1044F6006769004169723F2D2D2D2D2D2D2D2D2DF6
:104506002D2D2D00556261682054696E67676920FC
:1045160054616E6B006B65202564256425642564F3
:1045260020636D2E2D2D2D2D2D006B6520256425E8
:10453600642564256420636D203F2D2D2D2D0023D9
:104546002D556261682064617269204D3E413F00CD
:10455600442D4D6F6465204D3A204F4E2F4F4646F1
:1045660000232D55626168206461726920413E4DC9
:104576003F00312D4D6F6465204D3A204F4E20206F
:10458600202000302D4D6F6465204D3A204F464661
:104596002020200049444C4500546D722053766318
:0245A600000013
:00000001FF
