:100000000C9440000C945D000C945D000C945D0019
:100010000C945D000C945D000C945D000C945D00EC
:100020000C945D000C945D000C945D000C945F00DA
:100030000C945D000C945D000C945D000C945D00CC
:100040000C945D000C945D000C946A040C9495046F
:100050000C945D000C945D000C945D000C945D00AC
:100060000C945D000C945D0067016A016D017001E4
:100070007301760179017C017F018201850188018C
:1000800011241FBECFEFD8E0DEBFCDBF11E0A0E04E
:10009000B1E0E8EEFFE002C005900D92AC37B10789
:1000A000D9F721E0ACE7B1E001C01D92A03DB20755
:1000B000E1F70E9407020C94F2070C9400001F92D3
:1000C0000F920FB60F9211245F936F937F938F93CC
:1000D0009F93AF93BF9380917F018F5F80937F0148
:1000E00080917F018C3339F410927F0180918001DF
:1000F0008F5F80938001809180018C3339F410925E
:100100008001809181018F5F8093810180918101C5
:10011000883139F410928101809100018F5F8093C2
:10012000000180910101823041F58091020190919E
:10013000030183709927892B51F4809102019091DA
:10014000030164E670E00E94F904892B51F4809168
:1001500002019091030160E971E00E94F904892B8A
:1001600061F4809100018E3141F481E080930001BF
:10017000809101018F5F80930101809101018230A4
:1001800041F5809102019091030183709927892B99
:10019000A1F4809102019091030164E670E00E9455
:1001A000F904892BB1F4809102019091030160E977
:1001B00071E00E94F904892B61F0809100018D317A
:1001C00041F481E080930001809101018F5F809371
:1001D0000101809101018130C1F0809101018330E2
:1001E000A1F080910101853081F08091010187307B
:1001F00061F080910101883041F0809101018A30E5
:1002000021F0809101018C3061F4809100018032F5
:1002100041F481E080930001809101018F5F809320
:10022000010180910101843061F0809101018630EB
:1002300041F080910101893021F0809101018B30E2
:1002400061F4809100018F3141F481E080930001DD
:10025000809101018F5F80930101809101018D30B8
:1002600061F481E08093010180910201909103018A
:1002700001969093030180930201BF91AF919F91EA
:100280008F917F916F915F910F900FBE0F901F9094
:100290001895AF92CF92DF92EF92FF920F931F9338
:1002A000CF93DF93CDB7DEB7A8970FB6F894DEBF34
:1002B0000FBECDBF162FF42ED22E90E0FC01319749
:1002C000EC30F10540F5EC5CFF4F0C940D0564E05B
:1002D00071E023C069E071E020C06EE071E01DC0F4
:1002E00063E171E01AC068E171E017C06DE171E08F
:1002F00014C062E271E011C067E271E00EC06CE20E
:1003000071E00BC061E371E008C066E371E005C015
:100310006BE371E002C060E471E0CE0185960E945B
:100320001305AA2031F081E0A81206C06AE471E04A
:1003300005C065E471E002C060E471E0CE01819621
:100340000E9413051F920F931F92DF921F92FF923C
:100350001F921F938FA11F928F938EA11F928F9335
:100360008DA11F928F938FE491E09F938F938E01C5
:100370000F5E1F4F1F930F930E941A058BA11F92B0
:100380008F938AA11F928F9389A11F928F931F929F
:10039000CF921F92EF9286E691E09F938F93CE01CA
:1003A00001967C019F938F930E941A050FB6F894D3
:1003B000DEBF0FBECDBF60E080E00E946E03C801CB
:1003C0000E949F03C8010E94ED0488E791E00E940B
:1003D000ED0461E080E00E946E03C7010E949F036C
:1003E000C7010E94ED0488E791E00E94ED04A89601
:1003F0000FB6F894DEBF0FBECDBFDF91CF911F9136
:100400000F91FF90EF90DF90CF90AF90089587E627
:1004100090E00E94BF048CE00E94AB0380E00E9449
:1004200078030E9488038FE08093690083E08DBB8E
:100430008CE08093810083E294EF90938900809315
:10044000880082E080936F007894A0907C01C09037
:100450007D01E0907E0100917F012091800140911B
:10046000810160910001809101010E9449012FEFFB
:1004700089EF90E0215080409040E1F700C00000FB
:10048000E4CF1092B90088E48093B800089594EA0C
:100490009093BC009091BC0097FFFCCF9091B90065
:1004A000987F983021F0903111F081E00895809389
:1004B000BB0084E88093BC008091BC0087FFFCCF28
:1004C0008091B900887F883111F0803471F780E025
:1004D000089584E98093BC008091BC0084FDFCCF2A
:1004E00008958093BB0084E88093BC008091BC0099
:1004F00087FFFCCF9091B900987F81E0983209F492
:1005000080E0089562E080E00E94640400C062E040
:1005100080E00C946704CF93C82F809182016623FA
:1005200011F0816001C08E7F8093820180918201F1
:100530008D7F809382016091820180E00E9422047D
:10054000809182018F7780938201809182018F7BDD
:1005500080938201809182018F7D809382018091BE
:1005600082018F7E80938201C7FF05C08091820146
:10057000806880938201C6FF05C0809182018064FB
:1005800080938201C5FF05C08091820180628093C3
:100590008201C4FF05C08091820180618093820145
:1005A0006091820180E00E9422040E948202809178
:1005B00082018F7780938201809182018F7B80936B
:1005C0008201809182018F7D8093820180918201DE
:1005D0008F7E80938201C3FF05C080918201806875
:1005E00080938201C2FF05C0809182018064809364
:1005F0008201C1FF05C080918201806280938201E7
:10060000C0FF05C08091820180618093820160916A
:10061000820180E00E9422040E9482028091820175
:100620008061809382018091820180628093820147
:100630008091820180648093820180918201806830
:10064000809382016091820180E0CF910C9422041A
:10065000CF93809182018E7F80938201809182016D
:100660008260809382016091820180E00E94220476
:1006700062E080E00E94640400C064E080E00E94C8
:100680000D04C82F62E080E00E94670400C062E0B1
:1006900080E00E94640400C064E080E00E940D04D9
:1006A000C295C07F8F70C82B62E080E00E94670413
:1006B0008C2FCF9108950E94280387FDFCCF88E0FE
:1006C00090E00197F1F70C942803CF93C82F0E9474
:1006D0005B0360E08C2FCF910C948B02611102C000
:1006E000805801C080540C94650381E00C9465032C
:1006F000882321F080918201877F03C0809182014D
:100700008860809382016091820180E00C942204D1
:1007100082E00C946503CF93C82F0E945B03CA301C
:1007200049F4803410F080E001C080E48058CF911B
:100730000C94650361E08C2FCF910C948B02CF93C6
:10074000DF93EC018991882319F00E948B03FACF83
:10075000DF91CF9108951F93CF93DF93182F0E94BD
:10076000FC03109282016091820180E00E942204C9
:10077000E0E0FAEF3197F1F7909182019062909367
:100780008201909182019061909382016091820137
:1007900080E00E9422040E948202E0E0FEE43197A1
:1007A000F1F70E948202C0E0D1E0FE013197F1F73B
:1007B0000E948202FE013197F1F7909182019F7EA3
:1007C000909382016091820180E00E9422040E9445
:1007D00082022197F1F788E20E94650388E00E9477
:1007E00065030E94750386E00E946503812FDF91F7
:1007F000CF911F910C9465030E94410285E38A9575
:10080000F1F7000080E090E0FC01E853FE4F108219
:10081000019688309105C1F70895883088F46830D2
:1008200078F4E82FF0E0E853FE4F8081082E000CAA
:10083000990B02C0959587956A95E2F781700895A6
:100840008FEF0895CF93883098F4C62F982FE82F14
:10085000F0E0E853FE4F608387E2890F880F0E9423
:1008600047028C2F0E9471020E94690280E001C041
:100870008FEFCF910895CF93DF93982F883000F5B5
:100880006830F0F4E82FF0E0E853FE4F8081C1E0DB
:10089000D0E001C0CC0F6A95EAF7442311F0C82BD1
:1008A00002C0C095C823C08387E2890F880F0E94C9
:1008B00047028C2F0E9471020E94690280E001C0F1
:1008C0008FEFDF91CF91089541E00C943B0440E01D
:1008D0000C943B041F920F920FB60F9211242F938A
:1008E0008F939F93EF93FF938091C0009091C600E8
:1008F0008871E0918501EF5FEF7120918401E2172B
:1009000039F0E0938501F0E0E857FE4F908301C095
:1009100082E080938301FF91EF919F918F912F91BE
:100920000F900FBE0F901F9018951F920F920FB649
:100930000F9211248F939F93EF93FF9390918701D0
:1009400080918601981769F0E0918601EF5FEF7161
:10095000E0938601F0E0E855FE4F80818093C60069
:1009600005C08091C1008F7D8093C100FF91EF9100
:100970009F918F910F900FBE0F901F90189510921E
:10098000870110928601109285011092840197FFD1
:1009900004C022E02093C0009F779093C50080930D
:1009A000C40088E98093C10086E08093C200089566
:1009B000909187019F5F9F71209186019217E1F3CB
:1009C000E92FF0E0E855FE4F8083909387018091F6
:1009D000C10080628093C1000895CF93DF93EC0142
:1009E0008991882319F00E94D804FACFDF91CF9122
:1009F0000895AA1BBB1B51E107C0AA1FBB1FA61766
:100A0000B70710F0A61BB70B881F991F5A95A9F7B7
:100A100080959095BC01CD010895EE0FFF1F0590C4
:100A2000F491E02D0994FB01DC0101900D9200206E
:100A3000E1F70895AEE0B0E0E0E2F5E00C94C9071C
:100A40000D891E8986E08C831A8309838FEF9FE7C7
:100A50009E838D83AE01475E5F4F6F89788DCE0197
:100A600001960E943D052F813885F801E20FF31FA2
:100A700010822E96E4E00C94E507ACE0B0E0E3E4ED
:100A8000F5E00C94BB077C016B018A01FC01178225
:100A90001682838181FFBDC1CE0101964C01F70111
:100AA0009381F60193FD859193FF81916F018823D6
:100AB00009F4ABC1853239F493FD859193FF81919F
:100AC0006F01853229F4B70190E00E942507E7CF36
:100AD000512C312C20E02032A0F48B3269F030F41C
:100AE000803259F0833269F420612CC08D3239F0A4
:100AF000803339F4216026C02260246023C028603E
:100B000021C027FD27C030ED380F3A3078F426FF9A
:100B100006C0FAE05F9E300D1124532E13C08AE008
:100B2000389E300D1124332E20620CC08E3221F4F9
:100B300026FD6BC1206406C08C3611F4206802C00B
:100B4000883641F4F60193FD859193FF81916F0101
:100B50008111C1CF982F9F7D9554933028F40C5F5D
:100B60001F4FFFE3F9830DC0833631F0833771F0F7
:100B7000833509F05BC022C0F801808189830E5F54
:100B80001F4F44244394512C540115C03801F2E006
:100B90006F0E711CF801A080B18026FF03C0652D87
:100BA00070E002C06FEF7FEFC5012C870E941A072B
:100BB0002C0183012C852F77222E17C03801F2E0FB
:100BC0006F0E711CF801A080B18026FF03C0652D57
:100BD00070E002C06FEF7FEFC5012C870E940F0706
:100BE0002C012C852068222E830123FC1BC0832D21
:100BF00090E048165906B0F4B70180E290E00E94F8
:100C000025073A94F4CFF50127FC859127FE8191C1
:100C10005F01B70190E00E94250731103A94F1E09E
:100C20004F1A51084114510471F7E5C0843611F090
:100C3000893639F5F80127FF07C06081718182810B
:100C400093810C5F1F4F08C060817181072E000CDB
:100C5000880B990B0E5F1F4F2F76722E97FF09C0DE
:100C600090958095709561957F4F8F4F9F4F20682D
:100C7000722E2AE030E0A4010E945D07A82EA81879
:100C800044C0853729F42F7EB22E2AE030E025C0FB
:100C9000F22FF97FBF2E8F36C1F018F4883579F026
:100CA000B4C0803719F0883721F0AFC02F2F2061F2
:100CB000B22EB4FE0DC08B2D8460B82E09C024FF67
:100CC0000AC09F2F9660B92E06C028E030E005C00C
:100CD00020E130E002C020E132E0F801B7FE07C0B9
:100CE00060817181828193810C5F1F4F06C060819A
:100CF000718180E090E00E5F1F4FA4010E945D07AC
:100D0000A82EA818FB2DFF777F2E76FE0BC0372D5F
:100D10003E7FA51450F474FE0AC072FC08C0372D43
:100D20003E7E05C0BA2C372D03C0BA2C01C0B52CAD
:100D300034FF0DC0FE01EA0DF11D8081803311F4F6
:100D4000397E09C032FF06C0B394B39404C0832F28
:100D5000867809F0B39433FD13C030FF06C05A2CD7
:100D6000B31418F4530C5B18B32CB31468F4B70124
:100D700080E290E03C870E942507B3943C85F5CF44
:100D8000B31410F43B1801C0312C34FF12C0B7016A
:100D900080E390E03C870E9425073C8532FF17C026
:100DA00031FD03C088E790E002C088E590E0B7011C
:100DB0000CC0832F867859F031FF02C08BE201C04E
:100DC00080E237FD8DE2B70190E00E942507A5146F
:100DD00038F4B70180E390E00E9425075A94F7CFDA
:100DE000AA94F401EA0DF11D8081B70190E00E9400
:100DF0002507A110F5CF332009F451CEB70180E2C9
:100E000090E00E9425073A94F6CFF70186819781FA
:100E100002C08FEF9FEF2C96E2E10C94D707FC0104
:100E20000590615070400110D8F7809590958E0F15
:100E30009F1F0895FC016150704001900110D8F788
:100E4000809590958E0F9F1F08950F931F93CF93BA
:100E5000DF93FB01238121FD03C08FEF9FEF28C0AB
:100E600022FF16C0468157812481358142175307DE
:100E700044F4A081B1819D012F5F3F4F31832083D6
:100E80008C93268137812F5F3F4F3783268310C095
:100E9000EB01092F182F0084F185E02D0995892B8E
:100EA000E1F68E819F8101969F838E83812F902F03
:100EB000DF91CF911F910F910895FA01AA27283051
:100EC00051F1203181F1E8946F936E7F6E5F7F4F17
:100ED0008F4F9F4FAF4FB1E03ED0B4E03CD0670F93
:100EE000781F891F9A1FA11D680F791F8A1F911DE6
:100EF000A11D6A0F711D811D911DA11D20D009F436
:100F000068943F912AE0269F11243019305D319377
:100F1000DEF6CF010895462F4770405D4193B3E060
:100F20000FD0C9F7F6CF462F4F70405D4A3318F007
:100F3000495D31FD4052419302D0A9F7EACFB4E0B8
:100F4000A6959795879577956795BA95C9F7009770
:100F50006105710508959B01AC010A2E0694579511
:100F6000479537952795BA95C9F7620F731F841F68
:100F7000951FA01D08952F923F924F925F926F92FE
:100F80007F928F929F92AF92BF92CF92DF92EF9219
:100F9000FF920F931F93CF93DF93CDB7DEB7CA1B9A
:100FA000DB0B0FB6F894DEBF0FBECDBF09942A88C5
:100FB000398848885F846E847D848C849B84AA846D
:100FC000B984C884DF80EE80FD800C811B81AA81FA
:100FD000B981CE0FD11D0FB6F894DEBF0FBECDBFC5
:080FE000ED010895F894FFCF24
:100FE800010101004A616E000046656200004D6122
:100FF80072000041707200004D617900004A756E00
:1010080000004A756C000041756700005365700068
:10101800004F637400004E6F760000446563000063
:1010280020202000004F46460000204F4E0000259B
:1010380063256325632D2532647C2532643A253285
:10104800643A25326400253364737C253464636D07
:0C1058007C256325632563000D0A000061
:00000001FF
