:100000000C9434000C948D010C9451000C9451000C
:100010000C9451000C9451000C9451000C9451001C
:100020000C9451000C9451000C9451000C9453000A
:100030000C9451000C9451000C9451000C945100FC
:100040000C943D010C9451000C945E020C948902B6
:100050000C9451000C9451000C9451000C945100DC
:100060000C9451000C94510011241FBECFEFD8E026
:10007000DEBFCDBF11E0A0E0B1E0EAEFFBE002C0DF
:1000800005900D92AC30B107D9F721E0ACE0B1E0BA
:1000900001C01D92AE35B207E1F70E94F8010C9441
:1000A000FB050C9400001F920F920FB60F921124C3
:1000B0005F936F937F938F939F93AF93BF93809141
:1000C00016018F5F80931601809116018C3338F0F2
:1000D00010921601809117018F5F80931701809114
:1000E00017018C3338F010921701809118018F5F3F
:1000F0008093180180911801883138F0109218010E
:10010000809100018F5F8093000180910101823016
:1001100041F5809102019091030183709927892B09
:1001200051F4809102019091030164E670E00E9415
:10013000ED02892B51F4809102019091030160E955
:1001400071E00E94ED02892B61F4809100018E31F3
:1001500040F081E080930001809101018F5F8093E6
:10016000010180910101823041F58091020190915D
:10017000030183709927892BA1F48091020190914A
:10018000030164E670E00E94ED02892BB1F48091D6
:1001900002019091030160E971E00E94ED02892B58
:1001A00061F0809100018D3140F081E08093000189
:1001B000809101018F5F8093010180910101813065
:1001C000C1F0809101018330A1F08091010185305F
:1001D00081F080910101873061F0809101018830C8
:1001E00041F0809101018A3021F0809101018C3031
:1001F00061F480910001803240F081E08093000141
:10020000809101018F5F8093010180910101843011
:1002100061F080910101863041F0809101018930C7
:1002200021F0809101018B3061F4809100018F31C8
:1002300040F081E080930001809101018F5F809305
:100240000101809101018D3060F081E08093010116
:100250008091020190910301019690930301809394
:100260000201BF91AF919F918F917F916F915F91AB
:100270000F900FBE0F901F9018951F920F920FB600
:100280000F9211242F938F939F93AF93BF938091DD
:1002900011018823C1F180910C0190910D01A09171
:1002A0000E01B0910F010196A11DB11D80930C01AB
:1002B00090930D01A0930E01B0930F0180910C015A
:1002C00090910D01A0910E01B0910F0126B5BA2FAA
:1002D000A92F982F8827820F911DA11DB11D813054
:1002E000944DA043B10578F01092110110921001C5
:1002F0008FEF9FEFDC018093120190931301A09385
:100300001401B0931501BF91AF919F918F912F91DF
:100310000F900FBE0F901F9018951F920F920FB65F
:100320000F9211242F933F934F935F936F937F937B
:100330008F939F93AF93BF93EF93FF93809110019F
:100340008823B1F18091110181110DC081E080936A
:10035000110110920C0110920D0110920E011092D9
:100360000F0116BC25C01092110180910C019091D3
:100370000D01A0910E01B0910F0126B5BA2FA92F42
:10038000982F8827BC01CD01620F711D811D911D21
:1003900020EA33E040E050E00E9401032093120184
:1003A00030931301409314015093150110921001E2
:1003B000FF91EF91BF91AF919F918F917F916F913D
:1003C0005F914F913F912F910F900FBE0F901F9013
:1003D00018955B9885E08A95F1F700005B9A81E0BB
:1003E0008093100185E38A95F1F700005B980895EA
:1003F000CF93DF93CDB7DEB72A970FB6F894DEBF61
:100400000FBECDBF8DE08093810088E09DE3909387
:1004100089008093880082E080936F0087E690E0F7
:100420000E94B302539A5B98809169008160809327
:100430006900E89A81E085BD16BC80936E007894CF
:1004400084E0E82E81E0F82E8E010F5F1F4F80912F
:10045000100181110BC02FEF80E792E02150804006
:100460009040E1F700C000000E94E90140911201B4
:100470005091130160911401709115017F936F9356
:100480005F934F93FF92EF921F930F930E9423036A
:10049000C8010E94E10288E091E00E94E1022FEF92
:1004A00083ED90E3215080409040E1F700C00000D0
:1004B0000FB6F894DEBF0FBECDBFC9CF1F920F920B
:1004C0000FB60F9211242F938F939F93EF93FF9367
:1004D0008091C0009091C6008871E0911B01EF5F90
:1004E000EF7120911A01E21739F0E0931B01F0E05F
:1004F000E25EFE4F908301C082E080931901FF917C
:10050000EF919F918F912F910F900FBE0F901F90A1
:1005100018951F920F920FB60F9211248F939F93ED
:10052000EF93FF9390911D0180911C01981769F042
:10053000E0911C01EF5FEF71E0931C01F0E0E25CE1
:10054000FE4F80818093C60005C08091C1008F7DE1
:100550008093C100FF91EF919F918F910F900FBEFB
:100560000F901F90189510921D0110921C0110926F
:100570001B0110921A0197FF04C022E02093C000D3
:100580009F779093C5008093C40088E98093C10051
:1005900086E08093C200089590911D019F5F9F7136
:1005A00020911C019217E1F3E92FF0E0E25CFE4F8D
:1005B000808390931D018091C10080628093C1006F
:1005C0000895CF93DF93EC018991882319F00E945D
:1005D000CC02FACFDF91CF910895AA1BBB1B51E14A
:1005E00007C0AA1FBB1FA617B70710F0A61BB70BA3
:1005F000881F991F5A95A9F780959095BC01CD0148
:100600000895A1E21A2EAA1BBB1BFD010DC0AA1F53
:10061000BB1FEE1FFF1FA217B307E407F50720F06B
:10062000A21BB30BE40BF50B661F771F881F991FE6
:100630001A9469F760957095809590959B01AC012F
:10064000BD01CF010895AEE0B0E0E9E2F3E00C9423
:10065000D2050D891E8986E08C831A8309838FEF6A
:100660009FE79E838D83AE01475E5F4F6F89788DD4
:10067000CE0101960E9446032F813885F801E20FD2
:10068000F31F10822E96E4E00C94EE05ACE0B0E08F
:10069000ECE4F3E00C94C4057C016B018A01FC01DD
:1006A00017821682838181FFBDC1CE0101964C0164
:1006B000F7019381F60193FD859193FF81916F017D
:1006C000882309F4ABC1853239F493FD859193FFFA
:1006D00081916F01853229F4B70190E00E942E05C7
:1006E000E7CF512C312C20E02032A0F48B3269F07E
:1006F00030F4803259F0833269F420612CC08D329D
:1007000039F0803339F4216026C02260246023C090
:10071000286021C027FD27C030ED380F3A3078F42B
:1007200026FF06C0FAE05F9E300D1124532E13C041
:100730008AE0389E300D1124332E20620CC08E3298
:1007400021F426FD6BC1206406C08C3611F42068AC
:1007500002C0883641F4F60193FD859193FF8191A3
:100760006F018111C1CF982F9F7D9554933028F44C
:100770000C5F1F4FFFE3F9830DC0833631F08337E1
:1007800071F0833509F05BC022C0F8018081898354
:100790000E5F1F4F44244394512C540115C038015F
:1007A000F2E06F0E711CF801A080B18026FF03C03B
:1007B000652D70E002C06FEF7FEFC5012C870E94AE
:1007C00023052C0183012C852F77222E17C0380199
:1007D000F2E06F0E711CF801A080B18026FF03C00B
:1007E000652D70E002C06FEF7FEFC5012C870E947E
:1007F00018052C012C852068222E830123FC1BC0A8
:10080000832D90E048165906B0F4B70180E290E0DD
:100810000E942E053A94F4CFF50127FC859127FE1E
:1008200081915F01B70190E00E942E0531103A944A
:10083000F1E04F1A51084114510471F7E5C08436B4
:1008400011F0893639F5F80127FF07C06081718101
:10085000828193810C5F1F4F08C060817181072ED8
:10086000000C880B990B0E5F1F4F2F76722E97FF8F
:1008700009C090958095709561957F4F8F4F9F4FE0
:100880002068722E2AE030E0A4010E946605A82E9E
:10089000A81844C0853729F42F7EB22E2AE030E014
:1008A00025C0F22FF97FBF2E8F36C1F018F488359E
:1008B00079F0B4C0803719F0883721F0AFC02F2FFE
:1008C0002061B22EB4FE0DC08B2D8460B82E09C0FD
:1008D00024FF0AC09F2F9660B92E06C028E030E0A2
:1008E00005C020E130E002C020E132E0F801B7FEAF
:1008F00007C060817181828193810C5F1F4F06C0A8
:100900006081718180E090E00E5F1F4FA4010E9422
:100910006605A82EA818FB2DFF777F2E76FE0BC04C
:10092000372D3E7FA51450F474FE0AC072FC08C037
:10093000372D3E7E05C0BA2C372D03C0BA2C01C01E
:10094000B52C34FF0DC0FE01EA0DF11D808180330E
:1009500011F4397E09C032FF06C0B394B39404C0C9
:10096000832F867809F0B39433FD13C030FF06C09F
:100970005A2CB31418F4530C5B18B32CB31468F44A
:10098000B70180E290E03C870E942E05B3943C853D
:10099000F5CFB31410F43B1801C0312C34FF12C052
:1009A000B70180E390E03C870E942E053C8532FF32
:1009B00017C031FD03C088E790E002C088E590E0F1
:1009C000B7010CC0832F867859F031FF02C08BE24B
:1009D00001C080E237FD8DE2B70190E00E942E0554
:1009E000A51438F4B70180E390E00E942E055A94D4
:1009F000F7CFAA94F401EA0DF11D8081B70190E0D0
:100A00000E942E05A110F5CF332009F451CEB70175
:100A100080E290E00E942E053A94F6CFF70186819D
:100A2000978102C08FEF9FEF2C96E2E10C94E005D6
:100A3000FC010590615070400110D8F780959095A9
:100A40008E0F9F1F0895FC016150704001900110AE
:100A5000D8F7809590958E0F9F1F08950F931F9341
:100A6000CF93DF93FB01238121FD03C08FEF9FEF25
:100A700028C022FF16C04681578124813581421744
:100A8000530744F4A081B1819D012F5F3F4F318313
:100A900020838C93268137812F5F3F4F37832683B6
:100AA00010C0EB01092F182F0084F185E02D099566
:100AB000892BE1F68E819F8101969F838E83812F02
:100AC000902FDF91CF911F910F910895FA01AA27DE
:100AD000283051F1203181F1E8946F936E7F6E5F81
:100AE0007F4F8F4F9F4FAF4FB1E03ED0B4E03CD02F
:100AF000670F781F891F9A1FA11D680F791F8A1F12
:100B0000911DA11D6A0F711D811D911DA11D20D078
:100B100009F468943F912AE0269F11243019305D32
:100B20003193DEF6CF010895462F4770405D419323
:100B3000B3E00FD0C9F7F6CF462F4F70405D4A3370
:100B400018F0495D31FD4052419302D0A9F7EACF38
:100B5000B4E0A6959795879577956795BA95C9F767
:100B600000976105710508959B01AC010A2E06945A
:100B70005795479537952795BA95C9F7620F731F13
:100B8000841F951FA01D08952F923F924F925F9250
:100B90006F927F928F929F92AF92BF92CF92DF928D
:100BA000EF92FF920F931F93CF93DF93CDB7DEB7F2
:100BB000CA1BDB0B0FB6F894DEBF0FBECDBF099486
:100BC0002A88398848885F846E847D848C849B84DD
:100BD000AA84B984C884DF80EE80FD800C811B81EB
:100BE000AA81B981CE0FD11D0FB6F894DEBF0FBE1A
:0A0BF000CDBFED010895F894FFCF8A
:0C0BFA000101E207256C64000D0A0000F8
:00000001FF
