:100000003B28FF3FFF3FFF3FFF00030E8301C1007E
:100010000408C0000A08C2008A012008C3002108A1
:10002000C4002208C50074088316AD007208AC0035
:100030007108AB007008AA000B1D202870210B115D
:10004000031383124308A0004408A1004508A2003E
:1000500083162D08F4002C08F2002B08F1002A0862
:10006000F000831242088A0040088400410E830099
:10007000FF0E7F0E090039244B30C9006530CA00DD
:100080007930CB007030CC006130CD006430CE00D0
:100090004C30CF006930D0006230D100D201313015
:1000A000D3003230D4003330D500D6013330D700FE
:1000B0003230D8003130D900DA012030DB00203076
:1000C000DC002030DD002030DE002030DF0020307A
:1000D000E0002030E1002030E2002030E30020305A
:1000E000E4002030E5002030E6002030E70020303A
:1000F000E8002030E9002030EA00EB018701831698
:10010000870108308312EC004B2201308316A900CE
:10011000ED220130EC000130ED004930EE006B23A0
:10012000C0308316A900ED22972287308316810004
:10013000A0308B008312A41C6E290C308316A900FA
:10014000ED2282308316A0000430A1000130A2000D
:100150000130A3000C30A4002F23241DE4288B3091
:100160008316A0000430A1000230A2000130A300D9
:100170000D30A4002F232D30EC005330ED0012245D
:1001800000307106031DC62800307006031DCE28FE
:10019000241ECC282412CD282416E0282D30EC0073
:1001A0005730ED00122400307106031DD9280030AD
:1001B0007006031DE028A41EDF28A412E028A41660
:1001C000AC01AD012411EC2801308316A5000D30DF
:1001D000A6002030A700B02301302405F000031949
:1001E000FD2879308316A0000430A100A20101305F
:1001F000A3000B30A4002F23052901308316A5008E
:100200000B30A6002030A700B023A41D1429943081
:100210008316A0000430A1000330A2000130A30027
:100220000E30A4002F231C2901308316A5000E30A8
:10023000A6002030A700B023241E2B299D30831652
:10024000A0000430A1000430A2000130A3000F3050
:10025000A4002F23332901308316A5000F30A600F8
:100260002030A700B023A41E4229A6308316A00088
:100270000430A1000530A2000130A3000A30A40020
:100280002F234A2901308316A5000A30A60020300A
:10029000A700B02301308316A5001030A6008312FA
:1002A0002B088316A700B02301308316A5000C305D
:1002B000A6002030A700B0230230EC000130ED0092
:1002C0005B30EE006B230230EC000130ED002D308E
:1002D000EE006B230F308316A900ED229A286F29B8
:1002E0000313831223080605F0007008C700700886
:1002F00003199F29A4140230F4002508F0007408A3
:1003000003198629F00D7010FF3F80297008C8007E
:10031000C70CC713C70CC713C70CC713C6014608C1
:10032000043C031C9E2901304705F00003199A295B
:100330004608C807C70CC713C60A8F29B929A410D5
:10034000FF30C8002608831686048312A50A2508F4
:10035000033A031DAF292708A600A501B129A60D60
:1003600026102609F00070088316860583122608D9
:100370008600280829040319D8290130A802031C83
:10038000A9034808FF3A031DD7290130F4002808C3
:10039000F0002908F10074080319D329F10CF00CBE
:1003A000F113FF3FCC297008A8007108A9004A2A60
:1003B0002419432A48082A06031DE029A41E432ABB
:1003C0004808FF3A0319412A4808613FF000043009
:1003D0000318013FF1007008A2007108A1000A088B
:1003E000A000B624F20020088A007208AB00720850
:1003F0002A3A031D012AA4152C080319002AAC036C
:10040000372AA4112B08233A031D082A2415372A5A
:1004100010302C020318152A2C082D3FF00070080C
:1004200084002B088000AC0A372A241E372AC70113
:100430000F3047020318302A47082D3FF2004708C3
:10044000013FF000F1010318F10A70082D3F84000C
:100450000008F0007208840070088000C70A182A9B
:1004600047082D3FF000700884002B0880002C08FE
:100470002D3FF0007008840080011430A800003087
:10048000A9004808AA0010302C020318492A241099
:100490004A2A241408005024502450246C08BE001A
:1004A0006C08840084178011001100108013001361
:1004B00080120012841380110011001080130013A9
:1004C00080120012801600168015801150248015AD
:1004D0008011502480158011502480160012801540
:1004E00080115024800180168015801180018017B2
:1004F0008015801150248001001680158011800124
:1005000080158011502480018015801100168015FF
:10051000801150248001801580110016801600176C
:1005200080178015801150240130BF00080003138C
:100530008312EC01ED0100306D02031DA12A03308E
:100540006C020318BB2A86308316A50083126C0840
:100550008316A6000130A700EA230630A500831207
:100560006C088316A6000130A700EA238312EC0A68
:100570000319ED0A9B2A27308316A500A601013036
:10058000A700EA2383122708A600EC01ED01003042
:100590006D02031DCD2A04306C020318E92A86304F
:1005A0008316A500033083126C078316A600013062
:1005B000A700EA232330A500033083126C078316BB
:1005C000A6000130A700EA238312EC0A0319ED0A02
:1005D000C72AAD01A801A9010800031383123E0830
:1005E0008400831629080319F52A8011001180134D
:1005F000001380120012A91B8017291B0017A91ACB
:100600008016291A001683123F080319092B0011BE
:100610000A2B00158015BD24831629080319102BF9
:10062000801100118013001380120012A919801785
:1006300029190017A91880162918001683123F08D7
:100640000319242B0011252B00158015BD248011C2
:100650003F0803192D2B50242E2BAF240800033004
:1006600003138312F40083162208F00074080319A0
:100670003D2BF00D7010FF3F372B7008403FA90055
:10068000ED22EC016C08073C031C5E2B6C08831602
:100690002007F00021080318013FF10070088312C1
:1006A000A2007108A1000A08A000B6248316A500C4
:1006B000831220088A006F24EC0A422B0230831632
:1006C000A900ED2283162308A5002408A60022080D
:1006D000A700B02308007D2B803003138312EC00A9
:1006E000902BC030EC00902B9430EC00902BD43049
:1006F000EC00902B8030EC00902B031383126C08DD
:10070000013A03196C2B6C08023A0319712B6C081F
:10071000033A0319742B6C08043A0319772B7A2BCC
:100720006D03F0006C08F0077008EC007008831689
:10073000A900ED22BF01EF016F086E0784000008D9
:10074000F00070080319AD2B6F086E0784000008D5
:100750008316A5006F24EF0A9C2B0130BF00080010
:10076000C22B803003138316A500D52BC030A50003
:10077000D52B9430A500D52BD430A500D52B8030B7
:10078000A500D52B031383162508013A0319B12BB5
:100790002508023A0319B62B2508033A0319B92B89
:1007A0002508043A0319BC2BBF2B2603F0002508AB
:1007B000F0077008A50001308312BF00700883168F
:1007C000A900ED22BF0183162708A900ED22013000
:1007D000BF000800031383162608F0000130A800AC
:1007E00070080319F72BA80D2810FF3FF12B2708DD
:1007F0000319052C250884000008F0002808F004DF
:100800002508840070088000112C2809F1002508B3
:1008100084000008F0007108F005250884007008C5
:1008200080000800031383126C0884000008F000A5
:10083000700803192A2C6C0884000008F3006D0866
:1008400084000008F20073087206031D2A2CEC0ACB
:10085000ED0A122C6C0884000008F2006D08840078
:100860000008F00070087202F000F101031CF103AF
:100870000800003003138312A300FF30AA000030E9
:10088000AC000030A4000030AB000030A800003005
:10089000A9000030A5000030A6000030A700080025
:1008A0000F3003138312FB00FF30FA00FB0B592CAF
:1008B0005C2CFA0B592C562C3E30FA00FA0B5E2CAD
:1008C00008002A3437343434313430343834353451
:1008D00032342334393436343334003408000313CB
:1008E0008312BF0183162508A900ED220130BF0045
:1008F000080000340A3415340A3415340A3400343C
:100900000034080000340434043404341F340E343A
:100910000434003408000134013405340D341F342C
:100920000C34043400340800023406340E341F340E
:100930000E340634023400340800103418341C34E9
:100940001934133407340334013408001F341534C8
:10095000153404340434043404340E3408002130D3
:1009600003138312FA00FA0BB32C0800031383124B
:1009700021088A0022088200080000000000080008
:02400E007A3FF7
:00000001FF
