:100000000C9440000C945D000C945D000C945D0019
:100010000C945D000C945D000C945D000C945D00EC
:100020000C945D000C945D000C945D000C945D00DC
:100030000C945D000C945D000C945D000C945D00CC
:100040000C945D000C945D000C9471030C949C0363
:100050000C945D000C945D000C945D000C945D00AC
:100060000C945D000C945D007D0080008300860090
:1000700089008C008F009200950098009B009E00E4
:1000800011241FBECFEFD8E0DEBFCDBF11E0A0E04E
:10009000B1E0E6EEFDE002C005900D92A837B10791
:1000A000D9F721E0A8E7B1E001C01D92A63CB20754
:1000B000E1F70E941D010C94F1060C940000AF9230
:1000C000CF92DF92EF92FF920F931F93CF93DF9324
:1000D000CDB7DEB7A8970FB6F894DEBF0FBECDBF81
:1000E000162FF42ED22E90E0FC013197EC30F10562
:1000F00040F5EC5CFF4F0C940C0460E071E023C011
:1001000065E071E020C06AE071E01DC06FE071E061
:100110001AC064E171E017C069E171E014C06EE1DA
:1001200071E011C063E271E00EC068E271E00BC0E3
:100130006DE271E008C062E371E005C067E371E061
:1001400002C06CE371E0CE0185960E941204AA20E1
:1001500031F081E0A81206C066E471E005C061E4F8
:1001600071E002C06CE371E0CE0181960E9412043E
:100170001F920F931F92DF921F92FF921F921F9365
:100180008FA11F928F938EA11F928F938DA11F928B
:100190008F938BE491E09F938F938E010F5E1F4F9F
:1001A0001F930F930E9419048BA11F928F938AA112
:1001B0001F928F9389A11F928F931F92CF921F92AC
:1001C000EF9282E691E09F938F93CE0101967C019E
:1001D0009F938F930E9419040FB6F894DEBF0FBE51
:1001E000CDBF60E080E00E947502C8010E94A602B7
:1001F000C8010E94F40384E791E00E94F40361E0E7
:1002000080E00E947502C7010E94A602C7010E94F9
:10021000F40384E791E00E94F403A8960FB6F894E3
:10022000DEBF0FBECDBFDF91CF911F910F91FF9029
:10023000EF90DF90CF90AF90089587E690E00E9416
:10024000C60378948CE00E94B20280E00E947F0294
:100250000E948F02C0E0DCE08C2F6D2F0E94000412
:1002600081E0890F2C2F2170C22EA22EE82E08E0EB
:1002700027E047E069E00E945F008FEF99E628E100
:10028000815090402040E1F700C00000CF5FE4CFF4
:100290001092B90088E48093B800089594EA90938E
:1002A000BC009091BC0097FFFCCF9091B900987F63
:1002B000983021F0903111F081E008958093BB00D7
:1002C00084E88093BC008091BC0087FFFCCF8091C4
:1002D000B900887F883111F0803471F780E008958B
:1002E00084E98093BC008091BC0084FDFCCF08951C
:1002F0008093BB0084E88093BC008091BC0087FFA2
:10030000FCCF9091B900987F81E0983209F480E0A9
:10031000089562E080E00E946B0300C062E080E02C
:100320000C946E03CF93C82F80917801662311F04F
:10033000816001C08E7F80937801809178018D7FEC
:10034000809378016091780180E00E942903809178
:1003500078018F7780937801809178018F7B8093EB
:100360007801809178018F7D809378018091780168
:100370008F7E80937801C7FF05C0809178018068E7
:1003800080937801C6FF05C08091780180648093D6
:100390007801C5FF05C08091780180628093780163
:1003A000C4FF05C0809178018061809378016091DD
:1003B000780180E00E9429030E94890180917801E0
:1003C0008F7780937801809178018F7B809378017B
:1003D000809178018F7D80937801809178018F7E64
:1003E00080937801C3FF05C0809178018068809375
:1003F0007801C2FF05C08091780180648093780104
:10040000C1FF05C080917801806280937801C0FFB0
:1004100005C08091780180618093780160917801B6
:1004200080E00E9429030E94890180917801806107
:100430008093780180917801806280937801809127
:10044000780180648093780180917801806880933E
:1004500078016091780180E0CF910C942903CF93CB
:10046000809178018E7F80937801809178018260FD
:10047000809378016091780180E00E94290362E016
:1004800080E00E946B0300C064E080E00E941403DF
:10049000C82F62E080E00E946E0300C062E080E04E
:1004A0000E946B0300C064E080E00E941403C295C8
:1004B000C07F8F70C82B62E080E00E946E038C2F9B
:1004C000CF9108950E942F0287FDFCCF88E090E035
:1004D0000197F1F70C942F02CF93C82F0E9462026C
:1004E00060E08C2FCF910C949201611102C0805872
:1004F00001C080540C946C0281E00C946C0288233F
:1005000021F080917801877F03C080917801886015
:10051000809378016091780180E00C94290382E057
:100520000C946C02CF93C82F0E946202CA3049F427
:10053000803410F080E001C080E48058CF910C94AA
:100540006C0261E08C2FCF910C949201CF93DF93DA
:10055000EC018991882319F00E949202FACFDF9171
:10056000CF9108951F93CF93DF93182F0E94030319
:10057000109278016091780180E00E942903E0E008
:10058000FAEF3197F1F790917801906290937801AA
:10059000909178019061909378016091780180E06A
:1005A0000E9429030E948901E0E0FEE43197F1F7FF
:1005B0000E948901C0E0D1E0FE013197F1F70E946D
:1005C0008901FE013197F1F7909178019F7E909318
:1005D00078016091780180E00E9429030E948901DE
:1005E0002197F1F788E20E946C0288E00E946C0279
:1005F0000E947C0286E00E946C02812FDF91CF91E5
:100600001F910C946C020E94480185E38A95F1F7D2
:10061000000080E090E0FC01E254FE4F1082019661
:1006200088309105C1F70895883088F4683078F4EF
:10063000E82FF0E0E254FE4F8081082E000C990B69
:1006400002C0959587956A95E2F7817008958FEFBE
:100650000895CF93883098F4C62F982FE82FF0E0B4
:10066000E254FE4F608387E2890F880F0E944E019B
:100670008C2F0E9478010E94700180E001C08FEFF2
:10068000CF910895CF93DF93982F883000F568308D
:10069000F0F4E82FF0E0E254FE4F8081C1E0D0E0BA
:1006A00001C0CC0F6A95EAF7442311F0C82B02C0B1
:1006B000C095C823C08387E2890F880F0E944E012E
:1006C0008C2F0E9478010E94700180E001C08FEFA2
:1006D000DF91CF91089541E00C94420340E00C94E7
:1006E00042031F920F920FB60F9211242F938F93F4
:1006F0009F93EF93FF938091C0009091C600887103
:10070000E0917B01EF5FEF7120917A01E21739F000
:10071000E0937B01F0E0E258FE4F908301C082E05D
:1007200080937901FF91EF919F918F912F910F907D
:100730000FBE0F901F9018951F920F920FB60F9239
:1007400011248F939F93EF93FF9390917D0180915C
:100750007C01981769F0E0917C01EF5FEF71E09305
:100760007C01F0E0E256FE4F80818093C60005C018
:100770008091C1008F7D8093C100FF91EF919F9187
:100780008F910F900FBE0F901F90189510927D01C2
:1007900010927C0110927B0110927A0197FF04C0A5
:1007A00022E02093C0009F779093C5008093C400FF
:1007B00088E98093C10086E08093C20008959091FB
:1007C0007D019F5F9F7120917C019217E1F3E92FDA
:1007D000F0E0E256FE4F808390937D018091C1004E
:1007E00080628093C1000895CF93DF93EC018991DB
:1007F000882319F00E94DF03FACFDF91CF9108958B
:10080000991B79E004C0991F961708F0961B881F62
:100810007A95C9F780950895EE0FFF1F0590F49122
:10082000E02D0994FB01DC0101900D920020E1F71D
:100830000895AEE0B0E0EFE1F4E00C94C8060D8955
:100840001E8986E08C831A8309838FEF9FE79E833E
:100850008D83AE01475E5F4F6F89788DCE01019623
:100860000E943C042F813885F801E20FF31F1082AB
:100870002E96E4E00C94E406ACE0B0E0E2E4F4E0B0
:100880000C94BA067C016B018A01FC011782168266
:10089000838181FFBDC1CE0101964C01F701938197
:1008A000F60193FD859193FF81916F01882309F4EF
:1008B000ABC1853239F493FD859193FF81916F012E
:1008C000853229F4B70190E00E942406E7CF512C2D
:1008D000312C20E02032A0F48B3269F030F48032E9
:1008E00059F0833269F420612CC08D3239F08033A5
:1008F00039F4216026C02260246023C0286021C012
:1009000027FD27C030ED380F3A3078F426FF06C0B7
:10091000FAE05F9E300D1124532E13C08AE0389EFA
:10092000300D1124332E20620CC08E3221F426FDAE
:100930006BC1206406C08C3611F4206802C0883672
:1009400041F4F60193FD859193FF81916F0181112F
:10095000C1CF982F9F7D9554933028F40C5F1F4F83
:10096000FFE3F9830DC0833631F0833771F08335AF
:1009700009F05BC022C0F801808189830E5F1F4FA0
:1009800044244394512C540115C03801F2E06F0EF9
:10099000711CF801A080B18026FF03C0652D70E0B6
:1009A00002C06FEF7FEFC5012C870E9419062C0152
:1009B00083012C852F77222E17C03801F2E06F0EAD
:1009C000711CF801A080B18026FF03C0652D70E086
:1009D00002C06FEF7FEFC5012C870E940E062C012D
:1009E0002C852068222E830123FC1BC0832D90E0E0
:1009F00048165906B0F4B70180E290E00E94240640
:100A00003A94F4CFF50127FC859127FE81915F018F
:100A1000B70190E00E94240631103A94F1E04F1A99
:100A200051084114510471F7E5C0843611F089363C
:100A300039F5F80127FF07C06081718182819381B8
:100A40000C5F1F4F08C060817181072E000C880B5E
:100A5000990B0E5F1F4F2F76722E97FF09C090954E
:100A60008095709561957F4F8F4F9F4F2068722EB4
:100A70002AE030E0A4010E945C06A82EA81844C019
:100A8000853729F42F7EB22E2AE030E025C0F22FE0
:100A9000F97FBF2E8F36C1F018F4883579F0B4C0D5
:100AA000803719F0883721F0AFC02F2F2061B22E88
:100AB000B4FE0DC08B2D8460B82E09C024FF0AC07F
:100AC0009F2F9660B92E06C028E030E005C020E1D7
:100AD00030E002C020E132E0F801B7FE07C06081DB
:100AE0007181828193810C5F1F4F06C0608171818B
:100AF00080E090E00E5F1F4FA4010E945C06A82ECC
:100B0000A818FB2DFF777F2E76FE0BC0372D3E7F7A
:100B1000A51450F474FE0AC072FC08C0372D3E7E46
:100B200005C0BA2C372D03C0BA2C01C0B52C34FF38
:100B30000DC0FE01EA0DF11D8081803311F4397E74
:100B400009C032FF06C0B394B39404C0832F8678E3
:100B500009F0B39433FD13C030FF06C05A2CB31410
:100B600018F4530C5B18B32CB31468F4B70180E28B
:100B700090E03C870E942406B3943C85F5CFB314E3
:100B800010F43B1801C0312C34FF12C0B70180E3D0
:100B900090E03C870E9424063C8532FF17C031FD5F
:100BA00003C088E790E002C088E590E0B7010CC080
:100BB000832F867859F031FF02C08BE201C080E2BA
:100BC00037FD8DE2B70190E00E942406A51438F4A9
:100BD000B70180E390E00E9424065A94F7CFAA94CC
:100BE000F401EA0DF11D8081B70190E00E94240616
:100BF000A110F5CF332009F451CEB70180E290E087
:100C00000E9424063A94F6CFF7018681978102C0AC
:100C10008FEF9FEF2C96E2E10C94D606FC01059035
:100C2000615070400110D8F7809590958E0F9F1FEE
:100C30000895FC016150704001900110D8F7809533
:100C400090958E0F9F1F08950F931F93CF93DF935F
:100C5000FB01238121FD03C08FEF9FEF28C022FFFE
:100C600016C046815781248135814217530744F4C9
:100C7000A081B1819D012F5F3F4F318320838C93F1
:100C8000268137812F5F3F4F3783268310C0EB01CA
:100C9000092F182F0084F185E02D0995892BE1F6A5
:100CA0008E819F8101969F838E83812F902FDF916C
:100CB000CF911F910F910895FA01AA27283051F181
:100CC000203181F1E8946F936E7F6E5F7F4F8F4F7D
:100CD0009F4FAF4FB1E03ED0B4E03CD0670F781FDC
:100CE000891F9A1FA11D680F791F8A1F911DA11DC1
:100CF0006A0F711D811D911DA11D20D009F46894FA
:100D00003F912AE0269F11243019305D3193DEF6A1
:100D1000CF010895462F4770405D4193B3E00FD057
:100D2000C9F7F6CF462F4F70405D4A3318F0495D42
:100D300031FD4052419302D0A9F7EACFB4E0A69525
:100D40009795879577956795BA95C9F70097610547
:100D5000710508959B01AC010A2E0694579547959D
:100D600037952795BA95C9F7620F731F841F951F92
:100D7000A01D08952F923F924F925F926F927F92A3
:100D80008F929F92AF92BF92CF92DF92EF92FF929B
:100D90000F931F93CF93DF93CDB7DEB7CA1BDB0B47
:100DA0000FB6F894DEBF0FBECDBF09942A883988EC
:100DB00048885F846E847D848C849B84AA84B984F3
:100DC000C884DF80EE80FD800C811B81AA81B981FF
:100DD000CE0FD11D0FB6F894DEBF0FBECDBFED0113
:060DE0000895F894FFCF16
:100DE6004A616E000046656200004D617200004176
:100DF600707200004D617900004A756E00004A75F8
:100E06006C0000417567000053657000004F637405
:100E160000004E6F7600004465630000202020002D
:100E2600004F46460000204F4E00002563256325EF
:100E3600632D2532647C2532643A2532643A2532A4
:100E46006400253364737C253464636D7C256325D7
:080E5600632563000D0A000092
:00000001FF
