:100000000C949C000C94B9000C94B9000C94B900A9
:100010000C94B9000C94B9000C94AB030C94B90087
:100020000C94B9000C94B9000C94B9000C94B9006C
:100030000C94B9000C94B9000C94B9000C94B9005C
:100040000C94B9000C94B9000C942A080C94820802
:100050000C94B9000C94B9000C94B9000C94B9003C
:100060000C94B9000C94B900330F330F330FF80E12
:100070005D0F6B0F330F330FF80E5D0F4D696E6917
:100080006D756D2046726565204865617020536905
:100090007A653A2025750D0A0043757272656E7493
:1000A0002054696D657374616D703A20256C7520FC
:1000B000785461736B4765745469636B436F756EF5
:1000C0007428293A2025750D0A000D0A0A0A476F7F
:1000D0006F646279652E2E2E206E6F2073706163BF
:1000E0006520666F722069646C65207461736B2192
:1000F0000D0A004D696E696D756D2046726565204B
:10010000486561702053697A653A2025750D0A00AB
:100110004672656520486561702053697A653A20AA
:1001200025750D0A000D0A0A0A48656C6C6F205788
:100130006F726C64210D0A0011241FBECFEFD8E04E
:10014000DEBFCDBF11E0A0E0B1E0ECE9F7E202C014
:1001500005900D92AE31B107D9F727E0AEE1B1E0DD
:1001600001C01D92AC3CB207E1F70E942D010C9436
:10017000CC130C940000FC010FB6F8946091C807F2
:100180007091C9078091CA079091CB070FBE309735
:1001900021F060837183828393830895CF93DF93EB
:1001A00000D0CDB7DEB70E94B20A9A838983279A1E
:1001B0002F9A6FE170E0CE0101960E94D70B2F9825
:1001C0006FE170E0CE0101960E94D70BF1CFCF9383
:1001D000DF9300D0CDB7DEB70E94B20A9A8389833D
:1001E000259A89E9C82E80E0D82E06EA17E09CE718
:1001F000E92E90E0F92E2D9A6FE170E0CE01019684
:100200000E94D70B2D986FE170E0CE0101960E94FD
:10021000D70B0E94B20AB82EA92E80E090E00E946F
:10022000BB00AF92BF929F938F937F936F93DF92A8
:10023000CF921F930F930E94A9060E94A5109F932F
:100240008F93FF92EF921F930F930E94A9060FB610
:10025000F894DEBF0FBECDBFCECFCDB7DEB7A2972D
:10026000DEBFCDBF80E2E82EF12C00E810E020E0F8
:1002700032EC41E050E060E0CE0101960E94D206EF
:1002800082E2FE013196A6EAB7E001900D928A95CE
:10029000E1F765E271E086EA97E00E94FA07E12C57
:1002A000F12C03E020E030E040E051E060E071E05C
:1002B0008EEC90E00E94770920E030E040E051E0D1
:1002C00067E071E087EE90E00E9477090E94A0103D
:1002D0009F938F9380E191E09F938F9306EA17E0BD
:1002E0001F930F930E94CF070E94A5109F938F9397
:1002F00083EF90E09F938F931F930F930E94CF07FC
:100300000E947E0A6AEC70E0C8010E94FA070FB6EC
:10031000F894DEBF0FBECDBF80E090E0A2960FB68E
:10032000F894DEBF0FBECDBF0895259A2D9AFFCF5A
:100330008FE380937E0080B7877F80BF80B780681F
:1003400080BF83B7817F83BF0FB6F8940F9283B7C6
:10035000816083BF85B7806685BF8F7D85BF0F9025
:100360000FBE889513BE0895259A2D9A2FEF80E72A
:1003700092E0215080409040E1F700C000001D9ABB
:10038000F5CFFC010396928381832FEF3FEF3483F7
:100390002383968385839087878310820895FC0149
:1003A000118610860895CF93DF939C01FB01DC0139
:1003B0001196CD91DC911297D383C2838C819D815C
:1003C000958384838C819D81DC0113967C936E934D
:1003D00012977D836C8331872087F90180818F5F3D
:1003E0008083DF91CF9108950F931F93CF93DF9375
:1003F0008C01FB01808191818F3F2FEF920721F4C7
:10040000E801AF81B8850EC0D801139612962D91E0
:100410003C911397E901488159818417950710F0A1
:10042000D901F4CF12968D919C9113979383828377
:10043000EC01FD83EC83B583A4831396FC93EE93C8
:10044000129711870087F80180818F5F8083DF9189
:10045000CF911F910F910895CF93DF93FC01A08559
:10046000B1858281938124813581EC013D832C8388
:10047000C481D5819B838A8311968D919C9112971B
:100480008E179F0721F41296DC93CE931197118655
:1004900010868C9181508C938C91DF91CF9108952F
:1004A00031E1FC013083319722E220833197A3E3CD
:1004B000A083319760833197708331971082319791
:1004C00060E8608331971082319762E060833197F2
:1004D00063E06083319764E06083319765E0608317
:1004E000319766E06083319767E06083319768E019
:1004F0006083319769E06083319760E16083319771
:100500003083319732E13083319733E13083319753
:1005100034E13083319735E13083319736E13083F0
:10052000319737E13083319738E13083319739E1C2
:100530003083319730E23083319731E23083319725
:100540002083319723E22083319740833197508372
:10055000319726E22083319727E22083319728E2E2
:100560002083319729E22083319720E3208331973C
:1005700021E3208386970895A89520EC88E190E0F8
:100580000FB6F894A895809360000FBE209360008A
:10059000A0918201B0918301CD91CDBFDD91DEBFED
:1005A000FF91EF91DF91CF91BF91AF919F918F918B
:1005B0007F916F915F914F913F912F911F910F917B
:1005C000FF90EF90DF90CF90BF90AF909F908F9073
:1005D0007F906F905F904F903F902F901F900F9063
:1005E0000FBE0F90089581E008950F920FB6F89412
:1005F0000F921F9211242F923F924F925F926F920F
:100600007F928F929F92AF92BF92CF92DF92EF92A2
:10061000FF920F931F932F933F934F935F936F938B
:100620007F938F939F93AF93BF93CF93DF93EF937A
:10063000FF93A0918201B09183010DB60D920EB689
:100640000D920E940F0CA0918201B0918301CD9177
:10065000CDBFDD91DEBFFF91EF91DF91CF91BF91D3
:10066000AF919F918F917F916F915F914F913F914A
:100670002F911F910F91FF90EF90DF90CF90BF903F
:10068000AF909F908F907F906F905F904F903F9032
:100690002F901F900F900FBE0F9008950F920FB6DE
:1006A000F8940F921F9211242F923F924F925F92D3
:1006B0006F927F928F929F92AF92BF92CF92DF9272
:1006C000EF92FF920F931F932F933F934F935F935C
:1006D0006F937F938F939F93AF93BF93CF93DF934A
:1006E000EF93FF93A0918201B09183010DB60D921B
:1006F0000EB60D9213BE0E94BC0A81110E940F0C0F
:10070000A0918201B0918301CD91CDBFDD91DEBF7B
:10071000FF91EF91DF91CF91BF91AF919F918F9119
:100720007F916F915F914F913F912F911F910F9109
:10073000FF90EF90DF90CF90BF90AF909F908F9001
:100740007F906F905F904F903F902F901F900F90F1
:100750000FBE0F9008950E944E0318950FB6F8949F
:100760000F92FC01928D0F900FBE81E0911180E0FD
:1007700008950F931F93CF93DF93EC01042F1A8DED
:100780008C8D81110CC088819981892B09F03EC024
:100790008A819B810E94320D1B821A8238C0482FA9
:1007A00050E0011115C08C819D810E94DB102C8DC1
:1007B0008C819D81820F911D9D838C832A813B8139
:1007C0008217930718F1888199819D838C831EC0BD
:1007D0008E819F810E94DB108C8D90E09195819598
:1007E00091092E813F81280F391F3F832E83488135
:1007F00059812417350730F42A813B81820F931FDA
:100800009F838E83023011F41111115080E01F5F1D
:100810001A8FDF91CF911F910F910895FC01CB01A9
:10082000448D4423A1F050E026813781240F351FE9
:1008300037832683628173812617370720F0208152
:10084000318137832683668177810C94DB1008958C
:10085000EF92FF921F93CF93DF93EC010FB6F894C2
:100860000F921E8D7C0181E1E80EF11C11165CF4E3
:100870008989882341F0C7010E949F0C81110E9441
:10088000200D1150F3CF8FEF8E8F0F900FBE0FB64C
:10089000F8940F921D8D7E0188E0E80EF11C111670
:1008A0005CF48885882341F0C7010E949F0C811168
:1008B0000E94200D1150F3CF8FEF8D8F0F900FBE40
:1008C000DF91CF911F91FF90EF900895CF93DF9329
:1008D000EC010FB6F8940F92288139819B8D4C8DD5
:1008E000949FC0011124F901E80FF91FFB83EA83EB
:1008F0001A8E3D832C83841B9109820F931F9F8343
:100900008E838FEF8D8F8E8F61110CC08885882329
:1009100089F0CE0108960E949F0C882359F00E940E
:10092000F50208C0CE0108960E94C101CE01419691
:100930000E94C1010F900FBE81E0DF91CF91089519
:10094000EF92FF921F93CF93DF931F92CDB7DEB745
:10095000182F662321F0869FC001112402C080E079
:1009600090E04F9669830E94B30F7C0169810097E4
:1009700089F0611104C0FC019183808304C04F960B
:10098000F70191838083F701138F648F61E0C701C2
:100990000E946604C7010F90DF91CF911F91FF90D5
:1009A000EF900895AF92BF92CF92DF92FF920F9394
:1009B0001F93CF93DF9300D000D01F92CDB7DEB747
:1009C0008C016B015D834C83F22E90E0580188E02E
:1009D000A80EB11C0FB6F8940F92F801228D838DEA
:1009E000281718F0F2E0FF1214C04F2DB601C8010D
:1009F0000E94B903F8019189992321F0C801419619
:100A00000E949F0C81110E94F5020F900FBE81E0A1
:100A100050C02C813D81232B19F40F900FBE48C08C
:100A2000911104C0CE0101960E94DF0C0F900FBE01
:100A30000E94AC0A0FB6F8940F92F801858D8F3F93
:100A400009F4158EF801868D8F3F09F4168E0F90EC
:100A50000FBEBE016C5F7F4FCE0101960E94EA0C73
:100A6000811121C00FB6F8940F92F801928D838DF9
:100A70000F900FBE981311C06C817D81C5010E943B
:100A80006D0CC8010E9428040E94680B882311F095
:100A900091E0A0CF0E94F502FBCFC8010E9428047C
:100AA0000E94680BF5CFC8010E9428040E94680BC1
:100AB00080E00F900F900F900F900F90DF91CF91EB
:100AC0001F910F91FF90DF90CF90BF90AF9008954E
:100AD000EF92FF921F93CF93DF93EC019A8D8B8D52
:100AE000981710F02230E1F47A011E8D422FCE01CA
:100AF0000E94B9031F3F81F48989882379F0CE01D0
:100B000041960E949F0C882349F0E114F10431F0D2
:100B100081E0F701808305C01F5F1E8F81E001C067
:100B200080E0DF91CF911F91FF90EF900895AF92F9
:100B3000BF92CF92DF92FF920F931F93CF93DF93D9
:100B400000D000D01F92CDB7DEB78C016B015D8362
:100B50004C8390E0580181E1A80EB11C0FB6F894C7
:100B60000F92F801F28CFF20A9F0B601C8010E9493
:100B70000E04FA94F801F28E8085882339F0C801BA
:100B800008960E949F0C81110E94F5020F900FBEE3
:100B900081E050C02C813D81232B19F40F900FBEB2
:100BA00048C0911104C0CE0101960E94DF0C0F9045
:100BB0000FBE0E94AC0A0FB6F8940F92F801858D13
:100BC0008F3F09F4158EF801868D8F3F09F4168E3C
:100BD0000F900FBEBE016C5F7F4FCE0101960E9449
:100BE000EA0C81111CC0C8010E94AE03882389F061
:100BF0006C817D81C5010E946D0CC8010E94280492
:100C00000E94680B882311F091E0A8CF0E94F502A2
:100C1000FBCFC8010E9428040E94680BF5CFC801D1
:100C20000E9428040E94680BC8010E94AE0388231A
:100C300059F380E00F900F900F900F900F90DF917D
:100C4000CF911F910F91FF90DF90CF90BF90AF9009
:100C50000895CF93DF93EC010FB6F8940F928D8D2A
:100C60008F3F09F41D8E8E8D8F3F09F41E8E0F90DD
:100C70000FBE8A8D811104C0CE0141960E947F0C67
:100C8000CE01DF91CF910C9428040F931F93CF9343
:100C9000DF93EC01FB0101900020E9F78B019F013C
:100CA00021503109AC01435F5F4F0217130709F46C
:100CB0004BC0D8018D918D010FB6F8940F92ED8540
:100CC000FE850F900FBE6F89788DE617F707A9F4A0
:100CD000BFEFEFE8F1E0B150E040F040E1F700C0D5
:100CE00000000FB6F8940F92ED85FE850F900FBEB1
:100CF0006F89788DE617F707C1F2FA016281738177
:100D0000DB018C938281938101969383828360853A
:100D100071858617970721F4868197819383828353
:100D20000FB6F8940F928081918101969183808310
:100D30000F900FBE8881823008F0B7CF8091C1003C
:100D400080628093C100B1CFDF91CF911F910F914D
:100D500008950F931F93CF93DF93CDB7DEB70F8125
:100D60001885F801858D813019F40E94F502F9CFBC
:100D700081E0858F638D748D9E01255F3F4F49858E
:100D80005A85818D928D0E94EB10F801618D728DD4
:100D9000C8010E944506F801158EDF91CF911F9181
:100DA0000F910895BF92CF92DF92EF92FF920F932F
:100DB0001F93CF93DF93CDB7DEB7A6970FB6F89406
:100DC000DEBF0FBECDBF6C01B62EC7012BA33CA367
:100DD0004DA35EA30E94B30F2BA13CA14DA15EA128
:100DE0000097A9F0FE0132960FB6F8940F92118287
:100DF00010829383828395838483978386838E0D69
:100E00009F1D91878087F386E2860F900FBEC801F1
:100E10002BA33CA34DA35EA30E94B30F2BA13CA127
:100E20004DA15EA10097A9F0FE013E960FB6F89481
:100E30000F92118210829383828395838483978398
:100E40008683800F911F91878087138702870F9079
:100E50000FBEC8012BA33CA34DA35EA30E94B30FFA
:100E60009B8F8A8FB9821D8F0C8F1E8E2BA13CA168
:100E70004DA15EA12F8F38A349A35AA30FB6F894B2
:100E80000F928981882369F1813009F050C0109256
:100E9000C5001092C400549A80EC8093C20088E987
:100EA0008093C100DA01C90180589B47A14EBF4F12
:100EB000BC01CD01E3E0660F771F881F991FEA95FB
:100EC000D1F7F4E0220F331F441F551FFA95D1F7D5
:100ED0000E94AA10215031093093C5002093C4000C
:100EE00026C0DA01C901975FA24CBF4FBC01CD01FA
:100EF000A2E0660F771F881F991FAA95D1F7B3E06C
:100F0000220F331F441F551FBA95D1F70E94AA1014
:100F1000215031093093C5002093C40082E08093B2
:100F2000C00088E98093C1008EE08093C2000F90DA
:100F30000FBE82E2FE013196D60101900D928A9594
:100F4000E1F7C601A6960FB6F894DEBF0FBECDBF7F
:100F5000DF91CF911F910F91FF90EF90DF90CF9095
:100F6000BF900895DB010D900020E9F7FB019D0182
:100F700021503109E217F30789F04191DC015C91BE
:100F8000523028F055E85A95F1F70000F7CF50910C
:100F9000C00055FFF7CF4093C600ECCF08950F93E4
:100FA0001F93CF93DF93CDB7DEB70F811885F8017C
:100FB000858D813029F485E88A95F1F70000F7CF17
:100FC00081E0858F638D748D9E01255F3F4F49853C
:100FD0005A85818D928D0E94EB10F801618D728D82
:100FE000C8010E94B207F801158EDF91CF911F91C1
:100FF0000F9108950F931F93CF93DF9300D0CDB738
:10100000DEB78C01CB0169837A830E94D21069819B
:10101000E62F7A81F72F9F01280F391FE217F30778
:1010200091F08491D8019C91923028F095E89A959E
:10103000F1F70000F7CF9091C00095FFF7CF8093B4
:10104000C6003196EBCF0F900F90DF91CF911F919B
:101050000F9108951F920F920FB60F9211242F93A4
:101060003F934F935F938F939F93AF93BF93EF9370
:10107000FF938091C0008C7139F08091C00087FF90
:1010800032C08091C600F9CF8091C6000FB6F894A7
:101090000F924091A7075091A8070F900FBE209183
:1010A000B1073091B20742175307E9F0E7EAF7E0DA
:1010B000A281B3818C9382819381019693838283F1
:1010C000208531858217930721F486819781938348
:1010D00082830FB6F8940F9280819181019691835B
:1010E00080830F900FBEFF91EF91BF91AF919F91C1
:1010F0008F915F914F913F912F910F900FBE0F9065
:101100001F9018951F920F920FB60F9211242F93D4
:101110008F939F93AF93BF93EF93FF930FB6F89482
:101120000F928091B3079091B4070F900FBE892B57
:1011300031F48091C1008F7D8093C1001CC0E3EB2E
:10114000F7E0A481B5812D91B583A4838085918535
:10115000A817B90721F486819781958384830FB6F8
:10116000F8940F92808191810197918380830F90F1
:101170000FBE2093C600FF91EF91BF91AF919F9159
:101180008F912F910F900FBE0F901F901895E091A7
:101190004A01F0914B018081811103C08FEF9FEFD5
:1011A0000CC0E0914A01F0914B010580F681E02DE1
:1011B0000680F781E02D82819381909322018093B4
:1011C00021010895EF92FF920F931F93CF93DF9326
:1011D0001F92CDB7DEB77C010091290110912A0141
:1011E0008091820190918301029669830E942C0272
:1011F00069818FEFE816F80699F4662389F060910B
:101200008201709183016E5F7F4F8CE291E00F90BD
:10121000DF91CF911F910F91FF90EF900C94D3012C
:10122000E00EF11EE0918201F0918301F382E282EF
:101230006091820170918301E016F10678F480914B
:101240004801909149016E5F7F4F0F90DF91CF91E0
:101250001F910F91FF90EF900C94F40180914A013F
:1012600090914B016E5F7F4F0E94F40180912101AC
:1012700090912201E816F90620F4F0922201E09202
:1012800021010F90DF91CF911F910F91FF90EF906F
:10129000089580913501882309F10FB6F8940F92D3
:1012A000E0913B01F0913C01C681D781CE010296CD
:1012B0000E942C0280912B01815080932B01809100
:1012C00035018150809335010F900FBE8F89988D25
:1012D0000E946D10CE010E946D10DBCF80915E01E7
:1012E000823010F00E94F5020E949801D2CF5F92E6
:1012F0006F927F928F929F92AF92BF92CF92DF9226
:10130000EF92FF920F931F93CF93DF935C013B010A
:101310006A014901502ECA010E94B30F8C01892B2A
:1013200009F4DBC088E290E00E94B30FEC01892B46
:10133000B1F0188F0F8BA60165EA70E0C8010E941A
:10134000E41021E0C21AD1088F89988DC80ED91EE9
:10135000BE01675E7F4FF301C301089607C0C80155
:101360000E946D10BAC0E817F90749F09F0141913A
:10137000DB014D93BD01D9012C912111F4CF18A2AD
:10138000052D043008F003E00E8B09A31AA23E01DC
:10139000B2E06B0E711CC3010E94CF01CE010C960E
:1013A0000E94CF01D987C88784E090E0801B910913
:1013B0009D878C87DB8BCA8B1BA21CA21DA21EA241
:1013C0001FA2A401B501C6010E945002998388831F
:1013D000E114F10419F0F701D183C0830FB6F8943A
:1013E0000F9280912B018F5F80932B01809182015E
:1013F00090918301892BD1F5D0938301C093820111
:1014000080912B01813009F041C08EE591E00E946E
:10141000C10187E691E00E94C10180E791E00E944E
:10142000C10189E791E00E94C10185E591E00E9438
:10143000C1018CE491E00E94C1018FE391E00E9420
:10144000C10186E391E00E94C1018CE291E00E941B
:10145000C10185E591E090934B0180934A018CE4B2
:1014600091E0909349018093480110C08091270139
:1014700081110CC0E0918201F091830196898E89DF
:10148000891720F0D0938301C093820180912301BA
:101490008F5F809323018E8990912801981710F413
:1014A00080932801F9E08F9FC0011124B301825A73
:1014B0009E4F0E94D3010F900FBE80912701882379
:1014C00051F0E0918201F091830196898E899817FD
:1014D00010F40E94F50281E001C08FEFDF91CF91FF
:1014E0001F910F91FF90EF90DF90CF90BF90AF9042
:1014F0009F908F907F906F905F900895EF92FF92F2
:101500000F938FE1E82E81E0F82E00E020E030E03C
:1015100045E550E060E171E089E499E00E947709D7
:101520008130B1F40E94BF0D813091F4F8942FEF17
:101530003FEF3093220120932101809327011092E5
:101540002A01109229010F91FF90EF900C94BC0298
:101550000F91FF90EF90089580911E018F5F80930F
:101560001E0108950FB6F8940F9280912901909171
:101570002A010F900FBE0895CF92DF92EF92FF9253
:101580000F931F93CF93DF9380911E0181118CC025
:101590000091290110912A010F5F1F4F10932A011A
:1015A0000093290101151105B9F480914A01909128
:1015B0004B01209148013091490130934B01209318
:1015C0004A019093490180934801809124018F5FE3
:1015D000809324010E94C7088091210190912201EB
:1015E000C0E00817190708F44FC0D9E0E0914A019C
:1015F000F0914B018081811103C08FEF9FEF11C0EB
:10160000E0914A01F0914B010580F681E02DE680E2
:10161000F780D70112968D919C911397081719079F
:1016200028F490932201809321012EC06701B2E03B
:10163000CB0ED11CC6010E942C02F701848995892A
:10164000892B21F0C7010C960E942C02D7015696D7
:101650009C9180912801891710F490932801D99FBB
:10166000C0011124B601825A9E4F0E94D301E0911D
:101670008201F0918301D70156969C918689981733
:1016800008F4B4CFC1E0B2CFE0918201F0918301C0
:10169000E689B9E0EB9FF0011124E25AFE4F808108
:1016A000823040F0C1E006C0809126018F5F8093B8
:1016B0002601C0E0809125018111C1E08C2FDF91CE
:1016C000CF911F910F91FF90EF90DF90CF900895F1
:1016D000EF92FF920F931F93CF93DF930FB6F8947F
:1016E0000F9280911E01815080931E0180911E01F6
:1016F000882311F080E052C080912B018823D1F320
:10170000C0E0D0E089E0F82EEE24E39480913F0120
:10171000882351F1E0914401F0914501C681D781C0
:10172000CE010C960E942C028E010E5F1F4FC80145
:101730000E942C029E8980912801891710F49093B1
:101740002801F99EC0011124B801825A9E4F0E94BF
:10175000D301E0918201F09183019E8986899817D7
:10176000A8F2E0922501D2CFCD2B11F00E94C7083C
:10177000C0912601CC2351F0D1E00E94BC0A811116
:10178000D0932501C150C9F71092260180912501FF
:10179000882309F4AFCF0E94F50281E00F900FBEBD
:1017A000DF91CF911F910F91FF90EF9008950F93CC
:1017B0001F93CF93DF938C01EB010E94AC0A409101
:1017C000290150912A01F801608171819B012C0F40
:1017D0003D1F4617570728F42617370748F491E0AE
:1017E00004C091E02617370720F04217530708F08E
:1017F00090E0F80131832083992331F060E0C90142
:10180000841B950B0E94E2080E94680B811102C0A4
:101810000E94F502DF91CF911F910F910895809161
:101820001E01882321F081E0809325010895109204
:101830002501A0918201B0918301E0918201F09194
:1018400083012D913C918789908D8217930760F0D9
:101850006091820170918301809182019091830156
:10186000675E7F4F0E9495018091280169E0482FB3
:1018700050E0649F9001659F300D1124F901E25AF8
:10188000FE4F9081911102C08150F1CFA181B281B0
:1018900012960D90BC91A02DB283A1832F593E4F7B
:1018A000A217B30731F412962D913C91139732830E
:1018B000218399E0949FF001959FF00D1124E25A45
:1018C000FE4F0180F281E02D268137813093830124
:1018D00020938201809328010895CF93DF93EB0139
:1018E0002091820130918301B901645F7F4F0E9492
:1018F000F40161E0CE01DF91CF910C94E2080F93E7
:101900001F93CF93DF931F92CDB7DEB78B0120914A
:10191000820130918301B901645F7F4F49830E9446
:10192000D3014981442311F00FEF1FEF642FC80149
:101930000F90DF91CF911F910F910C94E2080F93BC
:101940001F93CF93DF93DC011596ED91FC911697D1
:10195000C681D7818E01045F1F4FC8010E942C02EF
:1019600080911E01811114C00A501109C8010E9402
:101970002C029E8980912801891710F490932801E8
:10198000B9E09B9FC0011124B801825A9E4F03C049
:10199000B8018FE391E00E94D301E0918201F091C0
:1019A00083019E898689891720F481E0809325012F
:1019B00001C080E0DF91CF911F910F910895209198
:1019C0002401FC0120832091290130912A013283D6
:1019D00021830895CF93DF930FB6F8940F9240912F
:1019E000290150912A01DC011196ED91FC91129789
:1019F000EB01288139812F3FDFEF3D07C9F0B0911E
:101A00002401EC01A881BA1719F04E175F0790F472
:101A10004E1B5F0BFB014217530738F4241B350B99
:101A2000318320830E94DF0C03C01182108202C028
:101A300080E001C081E00F900FBEDF91CF9108954B
:101A400081E080932501089580912701882331F05A
:101A500080911E01882321F080E0089581E008959F
:101A600082E008950F931F93CF93DF93FC01892B9E
:101A700011F480E02CC082A1815082A3268991A11B
:101A80002917B9F38111F5CFEF018F010E5F1F4FB9
:101A9000C8010E942C0299A19E8B492F50E024E09E
:101AA00030E0241B350B3D872C8780912801891756
:101AB00010F49093280129E0249FC001259F900DE8
:101AC0001124B801825A9E4F0E94D30181E0DF9118
:101AD000CF911F910F9108950FB6F8940F928091B6
:101AE000880190918901892BE9F487E991E00E94AE
:101AF000C1018EE891E00E94C10187E991E09093D5
:101B00008D0180938C018EE891E090938B018093FE
:101B10008A0140E065E08AE00E94A0049093890178
:101B2000809388010F900FBE0895FC017383628338
:101B3000918780874617570778F0421B530B84859F
:101B4000958548175907C8F4BF016E5F7F4F809194
:101B50008A0190918B010DC04217530718F4621748
:101B6000730758F4BF016E5F7F4F80918C01909195
:101B70008D010E94F40180E0089581E00895EF92C4
:101B8000FF920F930E946C0D8091880190918901C2
:101B9000892B81F086E8E82E81E0F82E03E020E032
:101BA00030E045E550E065E171E08FE69EE00E949F
:101BB000770901C080E00F91FF90EF9008950F9397
:101BC0001F93CF93DF9300D000D01F92CDB7DEB725
:101BD000A0918801B0918901109729F1F9016983D9
:101BE0005B834A839D838C836630A4F40E94240D1A
:101BF000E0918801F091890120E0823011F4A80180
:101C000002C040E050E0BE016F5F7F4FCF010E94F5
:101C1000D2040AC020E0AF01BE016F5F7F4FCD014B
:101C20000E94680501C080E00F900F900F900F9008
:101C30000F90DF91CF911F910F910895EF92FF9236
:101C40000F931F93CF93DF93E0918C01F0918D015F
:101C50008081882389F10580F681E02DE080F18084
:101C6000C681D7818E010E5F1F4FC8010E942C02D2
:101C7000E989FA89CE0109958E85813029F72C856D
:101C80003D852E0D3F1DE216F30660F43B832A834B
:101C9000D987C887B80180918C0190918D010E94ED
:101CA000F401D2CF00E010E020E030E0A70160E0D6
:101CB000CE010E94DF0DC8CF80918A0190918B01E7
:101CC00090938D0180938C01F0938B01E0938A01B6
:101CD000DF91CF911F910F91FF90EF900895CF93D7
:101CE000DF93CDB7DEB727970FB6F894DEBF0FBEF0
:101CF000CDBFE0918C01F0918D018081DD24D394E2
:101D0000882339F0D12C0580F681E02DE080F18028
:101D100002C0E12CF12C0E94AC0A0E94B20A8C0194
:101D200080918401909185010817190720F40E9481
:101D30001E0E81E001C080E01093850100938401B4
:101D4000811150C0D11036C00E151F05D0F10E9470
:101D5000680BE0918C01F0918D010580F681E02DFA
:101D6000C680D780C60102960E942C02D6011E961C
:101D70008C911E978130B1F41C966D917C911D97CA
:101D80006E0D7F1D9701A801C6010E94950D882345
:101D900049F000E010E020E030E0A70160E0C6017B
:101DA0000E94DF0DD6015196ED91FC915297C6012C
:101DB00009951EC0E0918A01F0918B01808141E07C
:101DC000811140E0B701601B710B809188019091F7
:101DD00089010E9429060E94680B811109C00E9496
:101DE000F50206C00E94680B03C0898187FF0EC000
:101DF00040E050E0BE016F5F7F4F8091880190917D
:101E000089010E9497058111F0CF73CFEC80FD808E
:101E1000F70182859385892B21F0C70102960E94E4
:101E20002C020E94B20AAC0180918401909185013C
:101E30004817590730F44E835F830E941E0E5F815E
:101E40004E815093850140938401E9810E2FEE0F5E
:101E5000110B220B330B0A30110550F6F801EC5C24
:101E6000FF4F0C94CC102A813B81D7011C966D91B9
:101E70007C911D97620F731FC7010E94950D8823E7
:101E800009F4B6CFD7015196ED91FC915297C70155
:101E90000995F7018685813009F0AACF44855585DB
:101EA0008A819B81480F591F00E010E020E030E05C
:101EB00060E0C7010E94DF0D9BCF6A817B81D70163
:101EC0001D967C936E931C97640F751F9A01C70132
:101ED0000E94950D8DCFC7010E946D1089CFCF93C1
:101EE000DF93FC01A8EAB1E0CD91DC911197CE1708
:101EF000DF0710F4DE01F8CF12968D919C911397B5
:101F00009D01280F391F2E173F0749F42281338185
:101F1000820F931F13969C938E931297FD018281DB
:101F200093819F01280F391F2C173D0791F42091B1
:101F3000A6013091A701C217D30759F02A813B812E
:101F4000820F931F938382838881998191838083F9
:101F500002C0D183C083AE17BF0711F0ED93FC938D
:101F6000DF91CF910895CF92DF92EF92FF920F937E
:101F70001F93CF93DF93EC010E94AC0A8091A601DE
:101F80009091A701892B81F58CEA91E09093A901AA
:101F90008093A8011092AB011092AA0122EA37E0C7
:101FA0003093A7012093A6011092A5071092A407D1
:101FB0001092A3071092A20786EF95E09093AF01CD
:101FC0008093AE013093AD012093AC019093A301B7
:101FD0008093A2019093A5018093A40180E090E8F2
:101FE0009093A1018093A001E090A001F090A10145
:101FF000CE018E219F21892B09F05CC0209709F426
:1020000059C09E012C5F3F4F09F454C0C090A401F9
:10201000D090A501C216D30608F44CC0C091A80107
:10202000D091A901E8EAF1E04A815B8142175307A8
:1020300040F08091A6019091A701C817D90741F4FB
:1020400039C0888199810097A1F3FE01EC01ECCFA2
:10205000008111810C5F1F4F88819981918380835A
:10206000421B530B4930510550F0CE01820F931F94
:10207000FC01538342833B832A830E946F0F2A8192
:102080003B81C601821B930B9093A5018093A40111
:102090004091A2015091A3018417950720F49093D9
:1020A000A3018093A201E22AF32AFB82EA82198229
:1020B000188202C000E010E00E94680B01151105B3
:1020C00011F40E94B401C801DF91CF911F910F91CB
:1020D000FF90EF90DF90CF900895CF93DF9300971C
:1020E00061F1EC0124978A819B812091A0013091BC
:1020F000A101A90148235923452BF9F048815981B1
:10210000452BD9F420953095822393239B838A8392
:102110000E94AC0A2091A4013091A5018A819B8183
:10212000820F931F9093A5018093A401CE010E947A
:102130006F0FDF91CF910C94680BDF91CF910895D1
:102140008091A4019091A50108958091A2019091A0
:10215000A3010895A1E21A2EAA1BBB1BFD010DC00D
:10216000AA1FBB1FEE1FFF1FA217B307E407F50747
:1021700020F0A21BB30BE40BF50B661F771F881F23
:10218000991F1A9469F760957095809590959B01B9
:10219000AC01BD01CF010895EE0FFF1F0590F49132
:1021A000E02D0994FC0105900020E9F780959095B9
:1021B0008E0F9F1F0895FB01DC0102C001900D925C
:1021C00041505040D8F70895DC0101C06D93415053
:1021D0005040E0F70895AEE0B0E0E1EFF0E10C949C
:1021E000A3138C01CA014EE04C831A83098377FF45
:1021F00002C060E070E8FB013197FE83ED83A90126
:10220000BC01CE0101960E9417114D815E8157FDE0
:102210000AC02F813885421753070CF49A01F80140
:10222000E20FF31F10822E96E4E00C94BF13ACE093
:10223000B0E0EDE1F1E10C9495137C016B018A01B2
:10224000FC0117821682838181FFBDC1CE010196F8
:102250004C01F7019381F60193FD859193FF8191E4
:102260006F01882309F4ABC1853239F493FD859160
:1022700093FF81916F01853229F4B70190E00E94AC
:10228000FF12E7CF512C312C20E02032A0F48B320A
:1022900069F030F4803259F0833269F420612CC047
:1022A0008D3239F0803339F4216026C022602460F9
:1022B00023C0286021C027FD27C030ED380F3A30F9
:1022C00078F426FF06C0FAE05F9E300D1124532EED
:1022D00013C08AE0389E300D1124332E20620CC0CA
:1022E0008E3221F426FD6BC1206406C08C3611F4B9
:1022F000206802C0883641F4F60193FD859193FF72
:1023000081916F018111C1CF982F9F7D955493309A
:1023100028F40C5F1F4FFFE3F9830DC0833631F0C3
:10232000833771F0833509F05BC022C0F8018081EA
:1023300089830E5F1F4F44244394512C540115C0D0
:102340003801F2E06F0E711CF801A080B18026FF09
:1023500003C0652D70E002C06FEF7FEFC5012C87D1
:102360000E94F4122C0183012C852F77222E17C096
:102370003801F2E06F0E711CF801A080B18026FFD9
:1023800003C0652D70E002C06FEF7FEFC5012C87A1
:102390000E94E9122C012C852068222E830123FC47
:1023A0001BC0832D90E048165906B0F4B70180E2B7
:1023B00090E00E94FF123A94F4CFF50127FC85913A
:1023C00027FE81915F01B70190E00E94FF1231105A
:1023D0003A94F1E04F1A51084114510471F7E5C0E5
:1023E000843611F0893639F5F80127FF07C060817E
:1023F0007181828193810C5F1F4F08C06081718160
:10240000072E000C880B990B0E5F1F4F2F76722E34
:1024100097FF09C090958095709561957F4F8F4F7C
:102420009F4F2068722E2AE030E0A4010E943713EB
:10243000A82EA81844C0853729F42F7EB22E2AE092
:1024400030E025C0F22FF97FBF2E8F36C1F018F48F
:10245000883579F0B4C0803719F0883721F0AFC0E3
:102460002F2F2061B22EB4FE0DC08B2D8460B82EAC
:1024700009C024FF0AC09F2F9660B92E06C028E02D
:1024800030E005C020E130E002C020E132E0F80198
:10249000B7FE07C060817181828193810C5F1F4FFD
:1024A00006C06081718180E090E00E5F1F4FA40143
:1024B0000E943713A82EA818FB2DFF777F2E76FEDB
:1024C0000BC0372D3E7FA51450F474FE0AC072FC79
:1024D00008C0372D3E7E05C0BA2C372D03C0BA2C5C
:1024E00001C0B52C34FF0DC0FE01EA0DF11D808145
:1024F000803311F4397E09C032FF06C0B394B3941F
:1025000004C0832F867809F0B39433FD13C030FFE5
:1025100006C05A2CB31418F4530C5B18B32CB31424
:1025200068F4B70180E290E03C870E94FF12B39408
:102530003C85F5CFB31410F43B1801C0312C34FFA7
:1025400012C0B70180E390E03C870E94FF123C85F7
:1025500032FF17C031FD03C088E790E002C088E574
:1025600090E0B7010CC0832F867859F031FF02C08C
:102570008BE201C080E237FD8DE2B70190E00E945E
:10258000FF12A51438F4B70180E390E00E94FF1217
:102590005A94F7CFAA94F401EA0DF11D8081B70196
:1025A00090E00E94FF12A110F5CF332009F451CE24
:1025B000B70180E290E00E94FF123A94F6CFF70153
:1025C0008681978102C08FEF9FEF2C96E2E10C94F9
:1025D000B113FC010590615070400110D8F780954F
:1025E00090958E0F9F1F0895FC01615070400190DF
:1025F0000110D8F7809590958E0F9F1F08950F9327
:102600001F93CF93DF93FB01238121FD03C08FEF45
:102610009FEF28C022FF16C0468157812481358153
:102620004217530744F4A081B1819D012F5F3F4FB2
:10263000318320838C93268137812F5F3F4F3783EF
:10264000268310C0EB01092F182F0084F185E02D9F
:102650000995892BE1F68E819F8101969F838E8358
:10266000812F902FDF91CF911F910F910895FA0143
:10267000AA27283051F1203181F1E8946F936E7FC1
:102680006E5F7F4F8F4F9F4FAF4FB1E03ED0B4E0B2
:102690003CD0670F781F891F9A1FA11D680F791FF3
:1026A0008A1F911DA11D6A0F711D811D911DA11D04
:1026B00020D009F468943F912AE0269F1124301914
:1026C000305D3193DEF6CF010895462F4770405DAF
:1026D0004193B3E00FD0C9F7F6CF462F4F70405D5E
:1026E0004A3318F0495D31FD4052419302D0A9F7B9
:1026F000EACFB4E0A6959795879577956795BA95B3
:10270000C9F700976105710508959B01AC010A2E78
:1027100006945795479537952795BA95C9F7620F4F
:10272000731F841F951FA01D08952F923F924F92F3
:102730005F926F927F928F929F92AF92BF92CF9251
:10274000DF92EF92FF920F931F93CF93DF93CDB75A
:10275000DEB7CA1BDB0B0FB6F894DEBF0FBECDBFD2
:1027600009942A88398848885F846E847D848C84A3
:102770009B84AA84B984C884DF80EE80FD800C81AC
:102780001B81AA81B981CE0FD11D0FB6F894DEBF8F
:0C2790000FBECDBFED010895F894FFCFFF
:10279C005265644C454400477265656E4C45440077
:0E27AC0049444C4500546D7220537663000082
:00000001FF
